:100000000C94FA000C942B010C942B010C942B01F2
:100010000C942B010C942B010C942B010C942B01B0
:100020000C942B010C942B010C942B010C942B01A0
:100030000C942B010C942B010C942B010C942B0190
:100040000C942B010C942B010C942B010C942B0180
:100050000C942B010C942B010C942B010C9458172D
:100060000C942B010C94DC160C94B2160C942B01FE
:100070000C942B010C942B010C942B010C942B0150
:100080000C942B010C942B010C942B010C942B0140
:100090000C942B010C942B010C942B010C942B0130
:1000A0000C942B010C942B010C942B010C942B0120
:1000B0000C942B010C942B010C942B010C942B0110
:1000C0000C942B010C942B010C942B010C942B0100
:1000D0000C942B010C942B010C942B010C942B01F0
:1000E0000C942B010C942B010C942B010C942B01E0
:1000F0000C942B010C942B010C942B010C942B01D0
:100100000C942B010C942B010C942B010C942B01BF
:100110000C942B010C942B010C942B010C942B01AF
:100120000C942B010C942B010C942B010C942B019F
:100130000C942B010C942E080C94E8060C949A084D
:100140000C9441130C9463160C9439120C94C21A3B
:100150000C946A1A0C94D3080C945C120C94051637
:100160000C9448120C946A120C9404080C946308C2
:100170000C94FA1200000000250000002B002E0055
:10018000310034000000000000000000000000000A
:100190000000240000002A002D0030003300000081
:1001A000000000000000000004040404040404042F
:1001B00002020202020505050505050706060606F8
:1001C00006060606020202070707050501020408E3
:1001D0001020408001102040800810204080042022
:1001E00001020408102040800204080102040102F8
:1001F0006A1AC21A11241FBECFEFD1E8DEBFCDBFED
:1002000000E00CBF13E0A0E0B2E0E6E8FFE300E0AE
:100210000BBF02C007900D92AE37B107D9F729E0A6
:10022000AEE7B3E001C01D92A832B207E1F710E0DB
:10023000C9EFD0E000E006C021970109802FFE0140
:100240000E94751DC83FD10780E00807A9F70E94EA
:10025000A2170C94B11F0C940000CF92DF92EF9282
:10026000FF920F931F93CF93DF93CDB7DEB7C65C9A
:10027000D1400FB6F894DEBF0FBECDBF6BE473E084
:10028000CE018F539E4F0E94AB146BE473E0CE01FE
:1002900085549E4F0E94AB1400E010E0809100094D
:1002A000181720F5E12FF0E0E75AF74F87A18A33BE
:1002B00011F40F5F1F5F013049F4E12FF0E0E75ABE
:1002C000F74F67A1CE018F539E4F0CC0023061F4EF
:1002D000E12FF0E0E75AF74F67A16D3229F0CE0128
:1002E00085549E4F0E94CD131F5FD8CFCE018F53F0
:1002F0009E4F0E9418156FE172E0CE018F539E4F02
:100300000E948013882351F16BE473E0CE01855481
:100310009E4F0E94801381113BC5CE0185549E4F94
:100320000E9463139B0170935E0860935D08709355
:10033000870760938607C753DF4F79836883C95C5B
:10034000D04060936201C653DF4F9881CA5CD040B1
:1003500090936301B90182E890E071C165E272E0B7
:10036000CE018F539E4F0E948013882309F4ECC066
:100370006BE473E0CE018B549E4F0E94AB1400E6F9
:1003800018E0D8016D918D0140E1CE0101960E94E7
:100390007E144D815E8169817A81CE018B549E4F9E
:1003A0000E949F13CE0101960E944D14B8E00037C1
:1003B0001B0739F74AE060917008CE0181559E4FC6
:1003C0000E947E144AE060917108CE0187559E4FCD
:1003D0000E947E144AE060915C08CE018D559E4FCC
:1003E0000E947E144AE060915B08CE0183569E4FC6
:1003F0000E947E144AE060915F08CE0189569E4FAC
:100400000E947E1460915D0870915E084AE0CE0102
:100410008F569E4F0E9452146091590870915A084D
:100420004AE0CE0101960E945214C753DF4F198251
:100430001882C95CD040C553DF4F19821882CB5C4B
:10044000D040C353DF4F19821882CD5CD040698100
:100450007A816115710539F04D815E81CE01875336
:100460009F4F0E94151440E150E06DE272E0CE0112
:1004700087539F4F0E949F13882309F4A3C4BE0192
:100480006F567E4FCE0187539F4F0E9402140E94E9
:100490002D15BE0169567E4F0E9402140E942D1533
:1004A000BE0163567E4F0E9402140E942D15BE01AC
:1004B0006D557E4F0E9402140E942D1564E778E06E
:1004C0000E9402140E942D15BE0167557E4F0E94A6
:1004D00002140E942D15BE0161557E4F0E94021428
:1004E0000E942D15BE016B547E4F0E9402140E9483
:1004F0001815CE0187539F4F0E944D14CE010196CF
:100500000E944D14CE018F569E4F0E944D14CE0175
:1005100089569E4F0E944D14CE0183569E4F0E94D5
:100520004D14CE018D559E4F0E944D14CE0187551E
:100530009E4F0E944D14CE0181559E4F0E944D1436
:10054000CE018B549E4F0FC466E472E0CE018F53F0
:100550009E4F0E948013882389F18EE392E00E94CF
:100560003C1569E472E08AE798E00E94361486E35D
:100570008093800885E3809381088093820893E3C9
:1005800090938308809384088AE38093850898E693
:100590009093860899E690938708809388088DE663
:1005A000809389088DE280938A088BE0809300090C
:1005B00081E0809303090E944A15EAC36FE472E068
:1005C000CE018F539E4F0E9480138823A9F0CE0145
:1005D00085549E4F0E94631360935F0885EF860FDA
:1005E000803108F0D5C360937E030E94EB116091C7
:1005F0005F0886E990E043C064E572E0CE018F5366
:100600009E4F0E9480138823E9F0CE0185549E4FAF
:100610000E94631370935A08609359087093870778
:10062000609386077A836983609362018A818093ED
:1006300063016091590870915A0887E990E00E941F
:10064000EC1CA6C369E572E0CE018F539E4F0E9459
:1006500080138823B9F0CE0185549E4F0E94631306
:1006600060935B08603108F093C3962F9F70809170
:100670004501807F892B8093450185E890E00E94A9
:10068000DA1C86C36FE572E0CE018F539E4F0E9445
:1006900080138823A9F0CE0185549E4F0E946313D6
:1006A00060935C08643008F073C3962F9370809158
:1006B0004C018C7F892B80934C0184E890E0DFCF44
:1006C00065E672E0CE018F539E4F0E94801388230F
:1006D00009F450C0C154DE4F88819981CF5BD1406D
:1006E000809709F055C300E010E098012F5F3F4F5D
:1006F000A801BE0165547E4FCE0187539F4F0E94D3
:10070000C01440E150E060E070E0C753DF4F8881E3
:100710009981C95CD0400E94241B802F8695E1E01E
:10072000F0E0EC0FFD1FE80FF11D6083CE01875351
:100730009F4F0E944D140E5F1F4F00321105A9F606
:100740008E010F5F1F4FB6E8EB2EF12C80E1C82E13
:10075000C00EF801D1908F016D2DC7010E94DA1CE7
:10076000F701E652F84FD082FFEFEF1AFF0AC012EE
:10077000F0CF0EC36CE672E0CE018F539E4F0E9405
:100780008013882309F4EAC0C154DE4FE880CF5BB0
:10079000D140C054DE4F5881C05CD140C956DE4FB5
:1007A00019821882C759D140C756DE4F1982188264
:1007B000C959D140C556DE4F19821882CB59D14054
:1007C000C554DE4F68817981CB5BD14061157105DD
:1007D00031F04E2DCE0189569E4F0E9415148E2D5C
:1007E0008695869580937108FE2CF694D12C4D2D1C
:1007F000440F4F1588F550E09A012E5F3F4FBE0120
:1008000065547E4FCE0187539F4F0E94C01460E015
:1008100070E0CE0187539F4F0E946E13DC010C9154
:1008200010E0102F002761E070E0CE0187539F4F4A
:100830000E946E13FE013196ED0DF11DED0DF11DBF
:10084000DC018C91082B11830083D394CE01875354
:100850009F4F0E944D14CBCFD12CFE14A8F54F2DE5
:1008600050E09A012E5F3F4FBE0165547E4FCE018E
:100870008F569E4F0E94C01460E070E0CE018F56EC
:100880009E4F0E946E13FC01008110E0102F002784
:1008900061E070E0CE018F569E4F0E946E13FE0104
:1008A000E753FF4FED0DF11DED0DF11DDC018C91B6
:1008B000082B11830083D394CE018F569E4F0E9444
:1008C0004D14F394F394C9CF10E080917108181778
:1008D000B8F4812F90E0FC01EE0FFF1F21E030E023
:1008E0002C0F3D1FE20FF31F60817181880F991F4C
:1008F000880F991F88519C4F0E94EC1C1F5FE5CF09
:1009000010E0609171081617B8F4812F90E0FC0197
:10091000EE0FFF1FA9ECB0E0AC0FBD1FEA0FFB1FED
:1009200060817181880F991F880F991F8053984F9C
:100930000E94EC1C1F5FE5CF8DEF90E00E94DA1C57
:1009400081E08093700861E08EEF90E00E94DA1CF5
:100950000E94B315CE0189569E4F05C265E772E02D
:10096000CE018F539E4F0E948013882309F459C0F3
:100970006FEF8FEF90E00E94DA1C68EE73E080E08A
:1009800090E00E9412172C982D987598739874987F
:100990002F982E98759A64E670E080E090E00E94AF
:1009A0001217759864E670E080E090E00E941217DC
:1009B000739A64E670E080E090E00E9412177398EA
:1009C00064E670E080E090E00E941217749A64E69A
:1009D00070E080E090E00E941217749864E670E086
:1009E00080E090E00E9412172F9A64E670E080E0A9
:1009F00090E00E9412172F9864E670E080E090E08B
:100A00000E9412172E9A64E670E080E090E00E9447
:100A100012172E9864E670E080E090E00E941217B2
:100A2000B9CF6DE772E0CE018F539E4F0E948013C5
:100A3000882309F432C165E872E0CE0101960E9474
:100A4000AB1464E778E0CE0101960E9402140E9484
:100A50001815CE0101960E944D144AE060915B0882
:100A6000CE0187539F4F0E947E1468E972E0CE0149
:100A700001960E94AB14BE0167537F4FCE010196D1
:100A80000E9402140E941815CE0101960E944D1476
:100A9000CE0187539F4F0E944D144AE060915C083D
:100AA000CE0187539F4F0E947E1468EA72E0CE0108
:100AB00001960E94AB14BE0167537F4FCE01019691
:100AC0000E9402140E941815CE0101960E944D1436
:100AD000CE0187539F4F0E944D1460915D08709125
:100AE0005E084AE0CE0187539F4F0E94521469EB83
:100AF00072E0CE0101960E94AB14BE0167537F4F96
:100B0000CE0101960E9402140E941815CE01019692
:100B10000E944D14CE0187539F4F0E944D144AE00E
:100B200060915F08CE0187539F4F0E947E1467EC4F
:100B300072E0CE0101960E94AB14BE0167537F4F55
:100B4000CE0101960E9402140E941815CE01019652
:100B50000E944D14CE0187539F4F0E944D14609107
:100B6000590870915A084AE0CE0187539F4F0E945E
:100B7000521469ED72E0CE0101960E94AB14BE01E1
:100B800067537F4FCE0101960E9402140E941815F0
:100B9000CE0101960E944D14CE0187539F4F0E94B3
:100BA0004D144AE060917108CE0187539F4F0E9417
:100BB0007E146CEE72E0CE0101960E94AB14BE0171
:100BC00067537F4FCE0101960E9402140E941815B0
:100BD000CE0101960E944D14CE0187539F4F0E9473
:100BE0004D144AE060917008CE0187539F4F0E94D8
:100BF0007E1464E073E0CE0101960E94AB14BE0146
:100C000067537F4FCE0101960E9402140E9418156F
:100C1000CE0101960E944D14CE0187539F4F0E9432
:100C20004D148CE193E00E94061500E618E030E1D7
:100C3000F32EF00EF80141918F0150E060E070E07A
:100C400019A2FE01B196DB01CA018F709927AA276C
:100C5000BB2724E076956795579547952A95D1F758
:100C600031978A309105A105B10510F4805D01C06E
:100C7000895C8083411551056105710521F7CF011C
:100C80000E9406158BE793E00E940615F012D2CF62
:100C90008BE493E00E943C157BC06FE672E0CE01CE
:100CA0008F539E4F0E948013882309F45FC0609188
:100CB000590870915A084AE0CE0187539F4F0E940D
:100CC000521462E373E0CE0187539F4F0E94E113F9
:100CD00002E317E0D80111966D917C9112974AE0DA
:100CE000CE0101960E9452144D815E8169817A8104
:100CF000CE0187539F4F0E949F13CE0101960E9401
:100D00004D1463E473E0CE0187539F4F0E94E113BB
:100D1000F801638174814AE0CE0101960E94521469
:100D20004D815E8169817A81CE0187539F4F0E94F8
:100D30009F13CE0101960E944D1463E473E0CE012F
:100D400087539F4F0E94E113085F1F4FF7E002385F
:100D50001F0709F0BFCFCE0187539F4F0E94181580
:100D6000CE0187539F4F0E944D1412C065E473E07B
:100D7000CE018F539E4F0E948013882349F0CE01ED
:100D800085549E4F0E946313623010F46093730881
:100D9000CE0185549E4F0E944D14CE018F539E4F1D
:100DA0000E944D14CA53DE4F0FB6F894DEBF0FBE3B
:100DB000CDBFDF91CF911F910F91FF90EF90DF900A
:100DC000CF900895CE0187539F4F0E94F01357CBC9
:100DD0000F931F93CF938C012C9AC0E0F80181856B
:100DE000C81798F48091BC079091BD07F801A781BE
:100DF000B085AC0FB11DFC01208131816C918CEB71
:100E000097E0F9011995CF5FE9CF89E493E00E945B
:100E10000615F8012385822F022E000C990B97FFEF
:100E200003C091958195910988349105BCF437E40C
:100E3000320F3F3818F4863391057CF435E3320FD6
:100E40003B3618F4843291053CF42D5D273410F4C0
:100E500042970CF4759A739A749A2F9A2E9A81E09D
:100E6000CF911F910F91089580E090E0E0E0F0E0D5
:100E7000DC01AE5CB84F2C9120FD0BC015962C9177
:100E80001597222359F0309719F03581231708F46C
:100E9000FD0108968035910559F701C0FD0180815B
:100EA0008D708063808380E88583CF010895CF9320
:100EB000DF93EC0190913007A2E3B7E020E030E04F
:100EC00070E01196ED91FC911297EC17FD07A1F4DB
:100ED000F90183E0EE0FFF1F8A95E1F7EE5CF84F12
:100EE000808181FB442740F950E04617570721F4E1
:100EF00090933007CF010BC02F5F3F4F18969FEFA5
:100F00002A303105F1F69093300780E090E0DF91D0
:100F1000CF9108950E945707FC01892B41F08081F1
:100F200080FD05C08FEF9FEF928381831582089526
:100F30000F931F93CF93DF93FC0180917F039091D8
:100F40008003B681A781308521850097F1F14B2F71
:100F50005A2F632F722FDC01D0E0C0E012960D9162
:100F60001D912D913C91159740175107620773070A
:100F700068F4041B150B260B370B12960D931D936B
:100F80002D933C931597AD2FBC2F0EC0401B510BDA
:100F9000620B730B2D913C911197DA2FCB2F2115FA
:100FA000310511F0D901DACF42835383648375830D
:100FB000109741F08D919C91119791838083ED93CF
:100FC000FC930DC09183808306C011821082B2838E
:100FD000A38334832583F0938003E0937F03DF9121
:100FE000CF911F910F910895E0917F03F0918003BD
:100FF000309739F0E817F90731F00190F081E02DD2
:10100000F7CF0C9498070895AC01EBEEF6E020E0E2
:101010009081992319F09150908321E0359687E0D3
:10102000ED31F807A9F7222319F0CA010C94F4074F
:101030000895009711F0FC0103C0EBE2F4E002C058
:10104000E757FF4F86E0E83DF80728F480818823C2
:10105000B9F3CF01089580E090E00895CF93DF9336
:10106000FC01268121FF2BC02185222341F1C7816C
:10107000D0858881882319F08130C1F020C02330C9
:10108000F1F480E090E00E9419080097C1F0FC01A3
:1010900020812631C1F7348529813213F4CF27E12D
:1010A00020832A81EA57FF4F208307C0263039F476
:1010B0006D818B819C810E948A0781E001C080E064
:1010C000DF91CF910895FF920F931F93CF93DF93FA
:1010D0008C01C0E0E0E0F0E0D7E180E1F82ECF0144
:1010E0000E941908FC01892BA9F080818631B9F78B
:1010F000DF01AC57BF4F2D913C9111972150310921
:1011000011963C932E93232B19F4D0831197FC92C4
:10111000C1E0E5CFCC2341F0C801DF91CF911F9111
:101120000F91FF900C94F407DF91CF911F910F91D5
:10113000FF9008950F931F93CF93DF938C01C0E02E
:10114000E0E0F0E0D3E1CF010E941908FC01892B17
:1011500091F080818131B9F7DF01AC57BF4F2D91FC
:101160003C911197215031092D933C93232B09F485
:10117000D083C1E0E8CFCC2339F0C801DF91CF9113
:101180001F910F910C94F407DF91CF911F910F9154
:101190000895FC011082E4E8F7E086A997A9019779
:1011A00097AB86AB0895E0918207F0918307309763
:1011B000A1F0228133812817390759F4DC01AD579A
:1011C000BF4F2C91278713962C91208B22E02483EC
:1011D00004C00190F081E02DEACF0C94C908FF9281
:1011E0000F931F93CF93DF93EC01FC01EA57FF4F5E
:1011F000808181FF02C092E104C09B8591FFFBCFFB
:1012000090E19883FE01ED57FF4F108280FF03C0ED
:101210002FEF3FEF04C020918607309187073E8370
:101220002D83857051F50F8518890F3F2FEF120719
:1012300009F1FB84F2FC1EC0F3FAFF24F0F86F2DD5
:10124000C8010E945707009721F0FC010381148117
:1012500011C00E943407FC011283018314830383AD
:101260008081F0FA81F98F708063808380E88583C4
:101270008FEF868318870F8304C08F85988998879E
:101280008F8380918407909185079A8789878091C1
:1012900089078F5F809389078C838F8198858E0162
:1012A0000C571F4F019669F481E498E89B838A8369
:1012B0000E94151B877099270196F80191838083FE
:1012C00007C081E698E89B838A83F8011182108227
:1012D000DF91CF911F910F91FF900895EBE2F4E021
:1012E00080E090E02081211121C049E8489F9001D1
:1012F000499F300D1124C901855D9B4FFC0111925E
:101300004A95E9F740E1FC014183EF57FF4F235C29
:101310003B4F318320832091BA073091BB072F5F69
:101320003F4F3093BB072093BA0708950196E757C4
:10133000FF4F85309105B1F680E090E008950F935E
:101340001F93CF93DF9380912F07882309F431C136
:10135000E0912D07F0912E07309709F4BAC09081E3
:10136000943309F059C090911B07DF01AF57BF4F6D
:101370000D90BC91A02DA90FB11D009121071091D6
:101380002207209123073091240740911D07509197
:101390001E0760911F077091200740275127622781
:1013A0007327009125071091260720912707309178
:1013B000280740275127622773270091290710919A
:1013C0002A0720912B0730912C07402751276227AD
:1013D000732790911A07992351F04D935D936D9364
:1013E0007C93139791819C5F918392E10CC00D9146
:1013F0001D912D913C91401751076207730711F41D
:1014000092E201C094E2908310922E0710922D0771
:10141000815080932F07CDC0923309F0CAC083E377
:101420008083EAEAF7E080E18E0F919190933F018B
:101430008E13FBCF10923C01EDE1F7E0DF014E2F60
:1014400090E19E0F8D9180933E019A13FBCF809186
:101450003C01806880933C0180913D0180FFFCCF7E
:10146000ADE1B7E080913E018D939A13FBCFC0911F
:101470002D07D0912E0730911B0790911C07292F23
:10148000913108F020E150911A07DE01AF57BF4FAC
:101490000D90BC91A02DA30FB11D8E2F841B821720
:1014A00058F460818C9186278D93511102C0608120
:1014B000862780833196F1CF320F30931B07921B22
:1014C00090931C07992311F082E301C084E3888381
:1014D00070C0E0E0F0E0CF010E941908FC01892B08
:1014E00009F467C0208180ED820F8230A0F7F0936D
:1014F0002E07E0932D07848590E0A0E0B0E0809374
:101500001D0790931E07A0931F07B09320078785A0
:101510009089A0E0B0E0DC019927882731893295D5
:101520003F70832B8093210790932207A09323077A
:10153000B093240785859685A0E0B0E0DC0199276B
:10154000882731893F70832B809325079093260746
:10155000A0932707B0932807338585819681A0E063
:10156000B0E0DC0199278827832B8093290790938B
:101570002A07A0932B07B0932C07213319F48181FC
:1015800084508183DF01AF57BF4F4D915C91CF01F4
:101590000296841B950B9181890F80931C071092F2
:1015A0001B0781E0203309F080E080931A0782E373
:1015B0008083DF91CF911F910F9108952F923F92D9
:1015C0004F925F926F927F928F929F92AF92BF9253
:1015D000CF92DF92EF92FF920F931F93CF93DF93FF
:1015E000CDB7DEB72C970FB6F894DEBF0FBECDBFD8
:1015F00000E010E094E2792E6624639422E0222E2B
:1016000030E8332E55245A9441E4C42E48E8D42EB1
:10161000AA24A394B12CC8010E9419088C01892B1B
:1016200009F4FAC2D8018C91823209F448C168F4F5
:10163000803291F0813279F781E3D8018C938091E7
:101640002F078F5F80932F07E6CF833209F415C2EF
:10165000843209F486C2DFCFF8017082838583FD6E
:10166000DACF45815681278530894F3F5F4F89F416
:1016700040918407509185074217530719F02F3F77
:101680003F4F49F681FF02C081E216C182E2F801B4
:1016900010C12F3F3F4F11F480FDBDCFD8011D96E3
:1016A0008D919C911E972091840730918507281772
:1016B000390709F4B0CF19962D913C911A9737FF4D
:1016C00004C02817390709F04EC060E00E94570790
:1016D000FC0198012D573F4F7901892B89F1D801E1
:1016E00017968D919C911897019669F441E020918D
:1016F000840730918507D8011F968D919C91509752
:101700002817390709F040E0D80119968D919C916E
:101710001A97238134812817390729F0D7013C9182
:101720002681231710F04423D9F02091700821114D
:1017300017C09483838380818F708063808310C0FF
:101740000E943407FC01D8011D968D919C911E9733
:101750009283818319968D919C911A9794838383A8
:10176000D7018C918683A7EEB6E080E090E060E040
:1017700070E014962C911497222309F456C0F801B6
:10178000458556852D913C9111974217530709F0D5
:101790004DC0248535E0389FF001399FF00D1124AC
:1017A000E951F94F8281821B883078F54381242FDB
:1017B00030E0082E02C0359527950A94E2F720FF05
:1017C0001AC02091840730918507D80117968D9112
:1017D0009C9118972817390709F01DCF1B966C911B
:1017E0001B9763FB662760F91F968D919C9150971C
:1017F0000E948A0710CF950102C0220F331F8A95DD
:10180000E2F7C901842B83832EC02283238130E039
:101810008195A90102C0440F551F8A95E2F7CA01BC
:10182000816083838FE184831EC0BD01019615967C
:1018300057E0A931B50709F09CCF6115710509F48E
:10184000EACED8011D968D919C911E97FB01918344
:1018500080831C968C91828363828FE1848389EDDF
:1018600096E00E94F407F80187809084FFEF8F16BE
:101870009F0669F42091840730918507D8011F964F
:101880008D919C9150972817390709F06EC180916E
:10189000840790918507D8011F962D913C91509710
:1018A000F8018217930709F0ABC1838581FF03C05C
:1018B00081E28083B0CE82E2D8018C93ACCE1092CC
:1018C0001907F8012189322F32953F70E32FF0E09C
:1018D000EE0FFF1FE657F84F0190F081E02D309793
:1018E00009F45DC0D8011D968D919C911E979A8335
:1018F00089831F964D915C9150975C834B832F7029
:101900002D833E83AF57BF4F6D917C917987688758
:1019100098012E5F3F4F261B370BD80111963C9143
:101920001197230F2A87AD57BF4F2C912B87119604
:101930002C912C87D8011B966C91262F237062FD69
:1019400002C030E001C030E2232B63FD02C030E072
:1019500001C030E4322B4F3F5F4F11F020E001C057
:1019600024E0232BD80119964D915C911A97841786
:10197000950711F090E001C098E0922BD8011596E0
:101980002D913C9116972F3F3F4F11F080E001C001
:1019900080E1892B8F83CE010196199501C080E0EB
:1019A000F801938590FF80E0D80117964D915C91E6
:1019B000189720918407309185074F3F5F4F41F47E
:1019C000F801478550892417350711F493FF81E00A
:1019D000D80115964D915C9116974F3F5F4F09F4D2
:1019E00080E02F3F3F4F09F445C0882309F442C0EF
:1019F0000E946E09FC010097E9F1DC01AD57BF4F71
:101A00001C92809188078F5F8093880784878091DC
:101A10008407909185079687858783858260838771
:101A200081818D5F818314961D921C92D8011B9633
:101A30008C911B9786958170938580FB91F9938794
:101A40001D968D919C911E97908B8787DF01AF57D4
:101A5000BF4F2D913C91D9011C928091190712968C
:101A60008C93D8011C968C91D90111968C93CF013F
:101A70000E94EF08F8017082CECDD8011B969C9091
:101A80001B9793FA992490F81F96ED90FC9050972D
:101A9000692DC7010E945707009721F0FC01E380E0
:101AA000F4800FC00E943407FC01F282E182F482CC
:101AB000E382808190FA81F98F7080638083358220
:101AC0005682EF20E09459F0F801E957FF4F118258
:101AD000108231972082C8010E94EF089CCDD80166
:101AE0001B964C901B9743FA442440F81F96ED90A8
:101AF000FC9050971D968D909C901E970E946E09A9
:101B0000FC01009771F1DC01AD57BF4F1C92809131
:101B100088078F5F809388078487809184079091DE
:101B200085079687858783858260838781818A5F21
:101B30008183149611961C921E92908A878616971E
:101B40000D90BC91A02D6C9212969C928E92119742
:101B50001496FC92EE92139715964C92CF010E9428
:101B6000EF08C8010E94C90856CD1B968C9182FDD2
:101B70008ECE0E946E097C01892B09F488CE82E109
:101B8000F7018083D80111968C918183ED57FF4F27
:101B900010820E94151BF701EC57FF4F87709927A1
:101BA000019691838083339611821082F8014181DE
:101BB00050E0B8016E5F7F4FC70102960E94981FE8
:101BC000D7011396DC92CE92129718969C928E9221
:101BD0001797F8018581968116969C938E93159799
:101BE00080918407909185071A969C938E931997FC
:101BF000809189078F5F8093890714968C9347CED5
:101C00002F3F3F4F09F451CE27813085821793072C
:101C100009F001CD83E24DCE2C960FB6F894DEBFCD
:101C20000FBECDBFDF91CF911F910F91FF90EF902D
:101C3000DF90CF90BF90AF909F908F907F906F90EC
:101C40005F904F903F902F900895CF92DF92EF9248
:101C5000FF92CF93DF930E944C17C091D806CC2EF1
:101C6000D12CE12CF12C6C157D058E059F05B1F171
:101C70000E944C17C62ECC1AD12CE12CF12C60936B
:101C8000D806C0917F03D0918003209739F18A81D3
:101C90009B81AC81BD81C816D906EA06FB06B0F06F
:101CA000C81AD90AEA0AFB0A8881998190938003AD
:101CB00080937F038A859B85019719F4CE010E944A
:101CC0009807EC85FD85CE011995DBCF8C199D0910
:101CD000AE09BF098A839B83AC83BD83DF91CF911B
:101CE000FF90EF90DF90CF9008950F931F93CF93C5
:101CF000DF93E0918207F0918307EF01209709F4C9
:101D000091C08C81882321F0823009F461C086C0A3
:101D10000E946E098C01009721F482E08C838F87EA
:101D200081C09B838A8381E08C83F801E957FF4F50
:101D300083ED98E0918380833197898582FB8827A2
:101D400080F98083F8018385998590FB80F98387EA
:101D5000998593FB992790F990FB82F98387998560
:101D60009695917090FB81F98387809188078F5FAA
:101D70008093880784878091840790918507968750
:101D800085878D819E81908B87878885982F9F700E
:101D90008189807F892B818B9F819295907F8F7025
:101DA000892B818BEF57FF4F4C8550E06A857B85EF
:101DB000808191810E94981FF80191818C85890F03
:101DC0008183C801DF91CF911F910F910C94EF088F
:101DD000EC17FD0739F488819981909383078093EC
:101DE00082070BC0808191818C179D0711F0FC0147
:101DF000F9CF88819981918380838091BA079091EE
:101E0000BB0701979093BB078093BA07ED85FE85CA
:101E1000CE01DF91CF911F910F9119940990D88134
:101E2000C02D6CCFDF91CF911F910F91089510922B
:101E300088071092890710928507109284071092E4
:101E4000BB071092BA07EAE8F7E01192119287E017
:101E5000EA3AF807D1F710922A041092290482E393
:101E600090E0A0E0B0E08093210490932204A0933E
:101E70002304B0932404109226041092250483E6D0
:101E800098E090932804809327048AE090E0A0E0F3
:101E9000B0E08093130490931404A0931504B093BE
:101EA000160410921804109217048AE998E090938F
:101EB0001A048093190480E090E0FC01E951F94F85
:101EC0001482059682339105C1F784E690E0A0E084
:101ED000B0E08093DF069093E006A093E106B09314
:101EE000E2061092E4061092E30684E098E09093F4
:101EF000E6068093E5068EE298E090938B07809348
:101F00008A0710922B041092B40410923D0510928F
:101F1000C60510924F061092830710928207809197
:101F20007008882339F010922F0710922E07109214
:101F30002D070895E2E3F7E080E090E04FEF5FEFD8
:101F400052834183DC0123E0AA0FBB1F2A95E1F7EE
:101F5000AE5CB84F2C912E7F2C931582019638964B
:101F60008A30910569F7DFCF93E090934201909119
:101F700041019F719830D9F78093420190914101BE
:101F80009F718913FBCF08952F923F925F926F92BA
:101F90007F928F929F92AF92BF92CF92DF92EF92F9
:101FA000FF920F931F93CF93DF93C0E0D0E074E1D3
:101FB000572ECC24CA94E3E0AE2EB12CF2E0DF2EF3
:101FC000A7E18A2EB6E16B2E05E110E0EE24EA943B
:101FD000FE2C90E3792ECE010E941908EC01892B8A
:101FE00009F430C18881833119F128F4803151F02E
:101FF000823179F0F0CF853109F44BC0873109F493
:1020000065C0E9CF788280912F078F5F80932F077B
:10201000E2CFFE01EC57FF4F80819181892B29F09F
:1020200081E188838DE094E04CC083E18883D3CF45
:102030008091290490912A04892B69F6D0932A046F
:10204000C09329045882998089E10E94B40FC092FC
:102050004F0182E0890D80938001CE010296FC0140
:10206000A1E8B1E02E2F281B291518F421912D93FA
:10207000F9CFB0928203A0928103D0924201809165
:10208000BA079091BB0701969093BB078093BA075C
:10209000A2CFFE01ED57FF4F8081811115C02D8524
:1020A0003E8580918407909185072817390761F450
:1020B0008B8580FF09C068823196118300838BE194
:1020C00094E00E94F40787CF888285CF8F85988916
:1020D0008F3F2FEF920709F4A7C06B8563FB66273C
:1020E00060F90E945707FC01DE01AD57BF4F892BF5
:1020F00019F0808180FF70C08C91811104C08091A3
:102100007208878391C087818150878381118CC039
:102110002091710830E081819281D90153E0AA0FAA
:10212000BB1F5A95E1F7AE5CB84F12969C938E9305
:1021300011974C918381948114969C938E9313975D
:102140001596DC9215971696CC921697842F8E7062
:1021500081628C939090720817969C9280913007C0
:1021600090E0FC0163E0EE0FFF1F6A95E1F7EE5C83
:10217000F84F3896821793070CF056C04181528170
:10218000DF0117974D935C93DC0143E0AA0FBB1F5F
:102190004A95E1F7AD014E5C584F1A01DA014C91B6
:1021A00041604C9363817481AF0145505109DA015C
:1021B0006D937C934E5F5F4FDA01DC924F5F5F4F10
:1021C000DA01CC92D1014C914F7040624C93DF0107
:1021D00011979C920196CDCF2C91982F9F70211131
:1021E00013C09063908385818F5F85838F3FE1F477
:1021F000E7E3F7E0808186958F5F80833896B7E0CC
:10220000E738FB07B9F710C082958F70815F8F7038
:10221000282F2295207F922B9083811105C090FD5D
:1022200003C0F282E1821582FE01E957FF4F01905F
:10223000F081E02DCE01309719F40E94C908CBCE71
:102240001995C9CEDF91CF911F910F91FF90EF901B
:10225000DF90CF90BF90AF909F908F907F906F90C6
:102260005F903F902F90089588E00E94B40F8FEF09
:1022700080934F0180918403882319F086E10C94A8
:10228000B40F08951F93CF93DF93809181039091B2
:102290008203029709F49BC080914F0183FF51C0D4
:1022A00040917B0150E0242F30E0852F90E02817EB
:1022B000390754F0FC01E058FE4F6081FC01E35700
:1022C000FC4F60835F5FF1CFF901E357FC4F108152
:1022D000D091470180918E038838F1F480918D036D
:1022E0008F7D8134C9F4CEEFC40FC031A8F00E94B5
:1022F0006E09009789F020E2FC012083C183ED572D
:10230000FF4F10833196DA55D0834C2F50E06DE8A3
:1023100073E002960E94981F809141018F7186316F
:10232000D9F780914F01886080934F0180914C01D3
:102330008F7780934C0180914C01806880934C0191
:1023400046C080914F0186FF42C0809141018F714C
:102350008931C1F5E0914201CE2FC295C695C77073
:1023600049F0C33021F0C53021F0C3E003C0C1E023
:1023700001C0C2E00E94341181E090E0909382039A
:1023800080938103A0912904B0912A04C33031F0D5
:10239000EC2FF0E0E65FFD4F808101C081E0FD01A0
:1023A000ED57FF4F808385E18C9310922A041092A1
:1023B00029048091BA079091BB0701979093BB07BE
:1023C0008093BA0780914F01806480934F01DF9121
:1023D000CF911F91089580918303982F9F708091D2
:1023E0005401807F892B80935401909183038091C5
:1023F0007E03992319F08093530108958F71909172
:102400004801907E892B8093480108950F931F9374
:10241000CF93DF931092560186E00E94B40FC0E084
:10242000D0E000E010E061E070E080E090E00E9429
:1024300012172091460122952695237030E00C2E2C
:1024400002C0220F331F0A94E2F7022B132B2296AD
:10245000C031D10541F788E00E94B40F8BEE809324
:1024600056010E943411C801DF91CF911F910F9145
:102470000895FC01538D448D252F30E0842F90E08A
:10248000821B930B541710F0CF960895019708956F
:10249000FC01918D828D981761F0828DDF01A80F6C
:1024A000B11D5D968C91928D9F5F9F73928F90E08E
:1024B00008958FEF9FEF0895FC01918D828D9817FD
:1024C00031F0828DE80FF11D858D90E008958FEF3A
:1024D0009FEF0895FC01918D228D892F90E0805C03
:1024E0009F4F821B91098F739927089580E090E098
:1024F000892B21F00E94591681110DC080E090E0D7
:10250000892B71F080E090E0892B51F00E9400004F
:10251000811104C008950E940000F0CF0C940000C7
:1025200008950E94931F0F931F93CF93DF93EC01A5
:1025300088819981009729F02A813B8126173707E6
:1025400088F48B016F5F7F4F0E94AA1E009761F095
:10255000998388831B830A832C813D81232B11F46B
:10256000FC01108281E001C080E0DF91CF911F91DA
:102570000F91089590E0FC01E453FE4F2491FC017B
:10258000E855FE4F8491882399F090E0880F991FB9
:10259000FC01E257FE4FA591B491FC01EC58FE4FAF
:1025A000859194918FB7F894EC91E22BEC938FBFC7
:1025B0000895FC01848DDF01A80FB11DA35ABF4F00
:1025C0002C91848D90E001968F739927848FA68932
:1025D000B7892C93A089B1898C9180648C93938D59
:1025E000848D981306C00288F389E02D80818F7D49
:1025F00080830895EF92FF920F931F93CF93DF9301
:10260000EC0181E0888F9B8D8C8D981305C0E88943
:10261000F989808185FD24C0F62E0B8D10E00F5FB7
:102620001F4F0F731127E02E8C8DE8120CC00FB6D0
:1026300007FCFACFE889F989808185FFF5CFCE01C3
:102640000E94D912F1CF8B8DFE01E80FF11DE35AE4
:10265000FF4FF0820B8FEA89FB898081806207C07F
:10266000EE89FF896083E889F989808180648083AD
:1026700081E090E0DF91CF911F910F91FF90EF905B
:102680000895CF93DF93EC01888D8823C9F0EA8900
:10269000FB89808185FD05C0A889B9898C9186FD5B
:1026A0000FC00FB607FCF5CF808185FFF2CFA88958
:1026B000B9898C9185FFEDCFCE010E94D912E7CF69
:1026C000DF91CF910895FC0180819181009711F0F5
:1026D0000C944F1C60E070E0CB010895FC01248154
:1026E00035816217730720F480819181009729F466
:1026F0001092310781E397E00895860F971F0895A0
:10270000FC0124813581232B31F421E06115710511
:10271000A1F0FB0108C0FC01808191816115710568
:1027200031F421E0FC018081882339F005C00E944A
:10273000A11F21E0892B09F020E0822F0895EF925C
:10274000FF920F931F93CF93DF93FC012481358178
:102750006115710511F480E019C041155105A9F00A
:102760007B01EC018A01020F131FB8010E94931232
:10277000882389F3288139818C819D81B701820F5B
:10278000931F0E94AA1F1D830C8381E0DF91CF91CC
:102790001F910F91FF90EF900895CF93DF931F92B9
:1027A0001F92CDB7DEB769831A8241E050E0BE01C7
:1027B0006F5F7F4F0E949F130F900F90DF91CF911B
:1027C00008956115710551F0FB0101900020E9F7B2
:1027D0003197AF01461B570B0C949F1380E008956F
:1027E000CF93DF93EC0188819981009711F00E94CB
:1027F000121E198218821D821C821B821A82DF918E
:10280000CF910895CF93DF93EC01FB014481558173
:10281000608171810E949F13811103C0CE010E94CB
:10282000F013CE01DF91CF910895EF92FF920F93B5
:102830001F93CF93DF93EC017B018A01BA010E94C1
:102840009312811104C0CE010E94F01307C01D83B2
:102850000C83B701888199810E94AA1FCE01DF9164
:10286000CF911F910F91FF90EF900895CF93DF9339
:10287000EC016115710559F0FB0101900020E9F7A9
:102880003197AF01461B570B0E94151402C00E94DE
:10289000F013CE01DF91CF910895FC0180819181E9
:1028A0000C94121E0F931F93CF93DF93CDB7DEB717
:1028B00061970FB6F894DEBF0FBECDBF8C01CB0180
:1028C000F80111821082138212821582148250E064
:1028D000BE016F5F7F4F0E94941CBE016F5F7F4FF0
:1028E000C8010E94361461960FB6F894DEBF0FBE81
:1028F000CDBFDF91CF911F910F9108950F931F933B
:10290000CF93DF93CDB7DEB729970FB6F894DEBF2C
:102910000FBECDBF8C01862FF80111821082138269
:1029200012821582148250E0BE016F5F7F4F90E0EB
:102930000E94941CBE016F5F7F4FC8010E94361435
:1029400029960FB6F894DEBF0FBECDBFDF91CF91B1
:102950001F910F910895FC0111821082138212823F
:10296000158214826115710551F0FB010190002060
:10297000E9F73197AF01461B570B0C9415140895D6
:10298000BF92CF92DF92EF92FF920F931F93CF935C
:10299000DF937C016B018A01E9012417350720F4DC
:1029A000812F8901C42FD82F6BE473E0C7010E94E7
:1029B000AB14D60114968D919C91159708171907A1
:1029C000D0F48C179D0708F4EC01D601ED91FC9131
:1029D0001197EC0FFD1FB08010824D915C91BA01F0
:1029E000600F711FC7010E943614D601ED91FC9152
:1029F000EC0FFD1FB082C701DF91CF911F910F91A6
:102A0000FF90EF90DF90CF90BF900895009769F00E
:102A1000FC0101900020E9F73197AF01481B590BE9
:102A2000BC018CEB97E00C94051680E090E00895D3
:102A3000CF93DF93FC0144815581608171818CEBE0
:102A400097E00E940516EC0189E493E00E940615C8
:102A50008C0F9D1FDF91CF910895CF93DF93EC01F1
:102A60006CE70E94CD13811103C0CE010E94F013C8
:102A7000CE01DF91CF910895CF93DF930E94061589
:102A8000EC0189E493E00E9406158C0F9D1FDF91F5
:102A9000CF910895CF9380910209811162C0C1E066
:102AA000C09302098AE798E00E94631370930E09AD
:102AB00060930D09C0930F09C093100980917308AA
:102AC000882311F083E001C082E08093110928E09F
:102AD00039E080E898E0909313098093120980917F
:102AE00000098093140983E696E190931609809378
:102AF00015092D9A10920C091092170910920B09C2
:102B000010920A098091BA079091BB0701969093A1
:102B1000BB078093BA078091820790918307009743
:102B200029F4109209091092080904C09093090928
:102B30008093080930938307209382070E944211F3
:102B40000E94DE0A0E94C40F0E94750E0E949F0917
:102B50000E94250E6BE473E08AE798E0CF910C9415
:102B60003614CF9108958F929F92AF92BF92CF92D9
:102B7000DF92EF92FF920F931F93CF93DF93B0906A
:102B80007108809170088170C82EA090720802E3CD
:102B900017E0E80188EEE82E83E0F82ED12C90E8CB
:102BA000992E88248A94085F1F4FDB1409F1C7010E
:102BB0000E94D41C9A8389838881C0FA80F9888313
:102BC000C70188519C4F0E94D41C9C838B83F801C1
:102BD000339790823196808298819F70906398831A
:102BE0003196A082D39484E0E80EF11C2896DBCFC6
:102BF000DF91CF911F910F91FF90EF90DF90CF90D9
:102C0000BF90AF909F908F900895CF92DF92EF92F8
:102C1000FF920F931F93CF93DF936C017A018B0187
:102C2000C0E0D0E0CE15DF0589F0D8016D918D01AF
:102C3000D601ED91FC910190F081E02DC60119952E
:102C4000892B11F47E0102C02196ECCFC701DF91E0
:102C5000CF911F910F91FF90EF90DF90CF9008954B
:102C6000089580E090E008953FB7F89480911E09A0
:102C700090911F09A0912009B091210926B5A89B28
:102C800005C02F3F19F00196A11DB11D3FBFBA2FFE
:102C9000A92F982F8827820F911DA11DB11DBC015E
:102CA000CD0142E0660F771F881F991F4A95D1F723
:102CB00008958CEB97E00E946A1221E0892B09F4B9
:102CC00020E0822F08951F93CF93DF93EC019F851F
:102CD0009031B9F038F4913091F060F09230C1F455
:102CE00083E014C0903279F0913279F0913181F41F
:102CF00085E00CC081E0809301092C9A09C082E034
:102D000005C084E003C086E001C087E0809301092C
:102D10001092020980910109813001F589E793E061
:102D20000E94061510E08C85181788F4E091BC0706
:102D3000F091BD07AA85BB85A10FB11D0190F0815F
:102D4000E02D6C918CEB97E019951F5FECCF89E437
:102D500093E0DF91CF911F910C940615DF91CF91F5
:102D60001F9108951F920F920FB60F9211240BB668
:102D70000F922F933F934F935F936F937F938F9314
:102D80009F93AF93BF93EF93FF938CEB97E00E94D9
:102D9000D912FF91EF91BF91AF919F918F917F9148
:102DA0006F915F914F913F912F910F900BBE0F90BC
:102DB0000FBE0F901F9018951F920F920FB60F9293
:102DC00011240BB60F922F938F939F93EF93FF9342
:102DD000E091CC07F091CD078081E091D207F0918E
:102DE000D30782FD12C090818091D5078F5F8F73CA
:102DF0002091D607821751F0E091D507F0E0E45416
:102E0000F84F958F8093D50701C08081FF91EF9196
:102E10009F918F912F910F900BBE0F900FBE0F902F
:102E20001F9018958F929F92AF92BF92CF92DF9290
:102E3000EF92FF926B017C010E9434164B015C0102
:102E4000C114D104E104F104F1F00E943416DC0154
:102E5000CB0188199909AA09BB09883E9340A105AD
:102E6000B10570F321E0C21AD108E108F10888EE3B
:102E7000880E83E0981EA11CB11CC114D104E1048A
:102E8000F10419F7DDCFFF90EF90DF90CF90BF9066
:102E9000AF909F908F9008952FB7F89460911A0982
:102EA00070911B0980911C0990911D092FBF0895F5
:102EB0001F920F920FB60F9211242F933F938F936F
:102EC0009F93AF93BF9380911A0990911B09A09192
:102ED0001C09B0911D093091190923E0230F2D37EA
:102EE00020F40196A11DB11D05C026E8230F02960E
:102EF000A11DB11D2093190980931A0990931B09F4
:102F0000A0931C09B0931D0980911E0990911F097F
:102F1000A0912009B09121090196A11DB11D8093B6
:102F20001E0990931F09A0932009B0932109BF9116
:102F3000AF919F918F913F912F910F900FBE0F9066
:102F40001F901895CF93DF9300D01F92CDB7DEB7B7
:102F5000789484B5826084BD84B5816084BD85B574
:102F6000826085BD85B5816085BD80916E00816080
:102F700080936E0010928100809181008260809326
:102F80008100809181008160809381008091800028
:102F90008160809380008091B10084608093B10053
:102FA0008091B00081608093B00080919100826038
:102FB0008093910080919100816080939100809135
:102FC00090008160809390008091A1008260809346
:102FD000A1008091A10081608093A1008091A00058
:102FE00081608093A0008091210182608093210103
:102FF0008091210181608093210180912001816075
:103000008093200180917A00846080937A0080917F
:103010007A00826080937A0080917A008160809348
:103020007A0080917A00806880937A001092C100C3
:1030300098E288E10FB6F894A895809360000FBEDF
:103040009093600089E00E94BA128AE00E94BA124E
:103050008FE00E94BA128DE00E94BA128EE00E94A8
:10306000BA128CE00E94BA128BE00E94BA12E09170
:10307000CC07F091CD0782E08083E091C807F09102
:10308000C9071082E091CA07F091CB0780E18083E5
:103090001092D407E091D007F091D10786E08083A9
:1030A000E091CE07F091CF07808180618083E0912D
:1030B000CE07F091CF07808188608083E091CE07B2
:1030C000F091CF07808180688083E091CE07F091F6
:1030D000CF0780818F7D80838FEF90E00E94CC1C92
:1030E000853A09F04BC085E890E00E94CC1C8093A3
:1030F0005B0884E890E00E94CC1C80935C0882E826
:1031000090E00E94D41C90935E0880935D0886E94D
:1031100090E00E94CC1C80935F0887E990E00E94B9
:10312000D41C90935A08809359088EEF90E00E9427
:10313000CC1C182F809370088DEF90E00E94CC1C5F
:1031400080937108113011F40E94B31506E810E065
:10315000C8010E94CC1CF801E652F84F80830F5F33
:103160001F4F06391105A1F780E1E0E6F8E0AAEA71
:10317000B7E001900D928A95E1F758C08CE493E096
:103180000E943C1560915B0885E890E00E94DA1C83
:1031900060915C0884E890E00E94DA1C60915D0810
:1031A00070915E0882E890E00E94EC1C60915F08DC
:1031B00086E990E00E94DA1C6091590870915A08E3
:1031C00087E990E00E94EC1C06E810E060E0C8018E
:1031D0000E94DA1C0F5F1F4F06391105B9F708EE80
:1031E00013E06FEFC8010E94DA1C0F5F1F4F0C3411
:1031F00024E01207B1F700ED17E06FEFC8010E945D
:10320000DA1C0F5F1F4F043338E01307B1F760E09B
:103210008DEF90E00E94DA1C60E08EEF90E00E945B
:10322000DA1C65EA8FEF90E00E94DA1C1092030925
:103230001092800310927F03809139018160809306
:103240003901109284031092830381E090E09093FF
:1032500082038093810388E00E94B40F8BEE8093F9
:10326000560180914C01806880934C01809144010B
:1032700080688093440180916C01806F80936C0121
:10328000859A8D9A80913801837E88618093380178
:10329000809138018F71806C809338010E940612F2
:1032A00080936D010E94170F0E9406120E94170F53
:1032B0008FE593E00E943C1540915F0880915D0886
:1032C00020915E089091590830915A089093840794
:1032D000309385079B833C83909360019C819093FE
:1032E0006101809386072093870789832A838093CF
:1032F00062018A818093630140937E030E94EB11F7
:1033000081E0809384030E94341180915B08982FA0
:103310009F7080914501807F892B8093450180912A
:103320005C08982F937080914C018C7F892B80933F
:103330004C0188EE96E090938D0780938C070BE804
:1033400011E00E9442110E94DE0A0E94C40F0E94F6
:10335000750E0E949F090E94250E0E944C17C09076
:103360000409D0900509E0900609F09007099B0137
:10337000AC012C193D094E095F0969017A0139EE4A
:10338000C31633E0D306E104F10468F06093040946
:1033900070930509809306099093070982E793E0EB
:1033A0000E943C15759A8CEB97E00E946A12892B5B
:1033B00009F445C06BE473E08AE798E00E94361494
:1033C000C8010197F1F78CEB97E00E944812C82ED4
:1033D000C8010197F1F7F12CE12C8CEB97E00E94EA
:1033E0006A12892BE1F08CEB97E00E944812D82EEC
:1033F000C8010197F1F74AE3D41641F0E11006C085
:103400006D2D8AE798E00E94CD1302C0EE24E3946C
:10341000EF2DF0E0E75AF74FD7A2F394DECFF0920A
:103420000009C8010197F1F75CE6C51203C00E94CC
:103430004A1505C083E7C81202C00E942D01A89555
:103440002C982D980E944C17C0908903D0908A0325
:10345000E0908B03F0908C03DC01CB018C199D096B
:10346000AE09BF0987399105A105B10560F02C9817
:103470002D980E944C176093890370938A03809360
:103480008B0390938C030E944C17C0908503D090BF
:103490008603E0908703F0908803DC01CB018C1950
:1034A0009D09AE09BF0981329340A105B10578F0AD
:1034B0007598739874982F982E980E944C17609363
:1034C00085037093860380938703909388030E94FB
:1034D000761237CFECEBF7E01382128288EE93E09E
:1034E000A0E0B0E084839583A683B78381E192E076
:1034F0009183808385EC90E09587848784EC90E0CD
:103500009787868780EC90E0918B808B81EC90E0B0
:10351000938B828B82EC90E0958B848B86EC90E091
:10352000978B868B118E128E138E148EE9E5F8E040
:1035300011821082128282E0838381E090E0958381
:1035400084838AE18683178A108E83E0818F81E0ED
:10355000828F64E773E084E798E00E94AB146BE429
:1035600073E08AE798E00E94AB1410920009109271
:10357000030910920409109205091092060910928D
:10358000070908958AE798E00E944D1484E798E0BF
:103590000C944D148F929F92AF92BF92CF92DF9274
:1035A000EF92FF92CF93DF93EC01688179818A815A
:1035B0009B81611571058105910521F464E279ED26
:1035C0008BE597E02DE133EF41E050E00E94341DA0
:1035D00049015A019B01AC01A7EAB1E40E94531DC5
:1035E0006B017C01ACEEB4EFA50194010E94611D5A
:1035F000DC01CB018C0D9D1DAE1DBF1DB7FF03C0AF
:103600000197A109B04888839983AA83BB839F77D8
:10361000DF91CF91FF90EF90DF90CF90BF90AF9070
:103620009F908F9008950C94CA1A80E092E00C94B9
:10363000CA1AA0E0B0E08093000290930102A09328
:103640000202B093030208952F923F924F925F922D
:103650006F927F928F929F92AF92BF92CF92DF92A2
:10366000EF92FF920F931F93CF93DF935C016B0157
:103670007A016115710519F0FB0191838083E114D2
:10368000F10429F0C7010297839708F0F1C0E50122
:103690002196F5011081812F90E00E94761C892BE4
:1036A00011F05E01F4CF1D3229F42196F50111814C
:1036B00001E007C01B3221F4E5012296F5011181DA
:1036C00000E0E114F10459F1F0E1EF16F10461F4C6
:1036D0001033E1F488818F7D883569F51981229650
:1036E000026070E1E72EF12C88E0E816F10439F170
:1036F0002CF4F2E0EF16F104C9F12AC08AE0E816D2
:10370000F10479F0E0E1EE16F10411F550E1E52E57
:10371000F12C812C912CA12C68E0B62E2CC01033FA
:10372000C9F23AE0E32EF12C4CEC842E982CA82C14
:103730004CE0B42E20C010E3E114F104A9F698E0A7
:10374000E92EF12C812C912CA12C20E1B22E13C05A
:1037500060E070E080E090E897010F2C000C440BD3
:10376000550B0E94121D49015A0105C0812C912C54
:10377000A12C80E4B82E60E020E030E0A901270110
:103780000F2C000C660877081E01E0EDE10FEA300F
:1037900060F08FEB810F8A3110F4E9EC05C08FE9FE
:1037A000810F8A3128F5E9EAE10F8E2F90E08E151E
:1037B0009F05F4F467FD18C082169306A406B506AB
:1037C00090F0C301B2010E94021D9B01AC012E0FBB
:1037D000311D411D511D213031054105F0E85F07C4
:1037E00010F461E001C06FEF2196F1011081CCCFA0
:1037F000802F8170C114D10471F0662329F02197C4
:10380000F601D183C08307C001FF19C02297F601DA
:10381000D183C08314C067FF12C0811105C02FEF90
:103820003FEF4FEF5FE704C020E030E040E050E8BA
:1038300082E290E0909323098093220916C08823A6
:1038400041F050954095309521953F4F4F4F5F4F38
:103850000CC057FF0AC082E290E090932309809346
:1038600022092FEF3FEF4FEF5FE7B901CA0104C014
:1038700060E070E080E090E0DF91CF911F910F91C8
:10388000FF90EF90DF90CF90BF90AF909F908F9080
:103890007F906F905F904F903F902F9008951F936F
:1038A000FC0199278827BC01E89411911032E9F3B3
:1038B000193010F01E30C8F31B3251F01D3249F49C
:1038C000689406C00E947F1C610F711D811D911DAF
:1038D000119110531A30B0F33EF490958095709585
:1038E00061957F4F8F4F9F4F1F91089591110C94B9
:1038F000B91C803219F089508550C8F70895592FA6
:10390000482F372F262F660F771F881F991F660FA6
:10391000771F881F991F620F731F841F951F660FE3
:10392000771F881F991F08954532510520F44230B2
:1039300010F00C949F1CFB011082CB010895BB2753
:10394000FB015527AA27880F991FAA1FA41710F05B
:10395000A41B83955051B9F7A05DAA3308F0A95D67
:10396000A193009779F7B111B1931192CB010C9407
:10397000BC1C992788270895DC01FC01672F7191F1
:103980007723E1F7329704C07C916D937083629145
:10399000AE17BF07C8F30895F999FECF92BD81BD58
:1039A000F89A992780B50895A8E1B0E042E050E088
:1039B0000C94F41C262FF999FECF92BD81BDF89A84
:1039C000019700B4021639F01FBA20BD0FB6F89463
:1039D000FA9AF99A0FBE08950196272F0E94DB1CD0
:1039E0000C94DA1CDC01CB01FC01F999FECF06C076
:1039F000F2BDE1BDF89A319600B40D9241505040AD
:103A0000B8F70895DB018F939F930E94531DBF91D8
:103A1000AF91A29F800D911DA39F900DB29F900D1D
:103A200011240895A1E21A2EAA1BBB1BFD010DC093
:103A3000AA1FBB1FEE1FFF1FA217B307E407F5075E
:103A400020F0A21BB30BE40BF50B661F771F881F3A
:103A5000991F1A9469F760957095809590959B01D0
:103A6000AC01BD01CF010895052E97FB1EF4009413
:103A70000E944B1D57FD07D00E94121D07FC03D06A
:103A80004EF40C944B1D50954095309521953F4F29
:103A90004F4F5F4F089590958095709561957F4F3A
:103AA0008F4F9F4F08950E94661DA59F900DB49F54
:103AB000900DA49F800D911D11240895B7FF0C94C3
:103AC000531D0E94531D821B930B0895A29FB001AA
:103AD000B39FC001A39F700D811D1124911DB29F42
:103AE000700D811D1124911D0895EE0FFF1F881F79
:103AF0008BBF0790F691E02D1994CF93DF9382301E
:103B0000910510F482E090E0E0912609F0912709F8
:103B100020E030E0C0E0D0E0309711F140815181E9
:103B200048175907C0F04817590761F482819381FB
:103B3000209719F09B838A832BC090932709809349
:103B4000260926C02115310519F04217530718F42C
:103B50009A01BE01DF01EF010280F381E02DDCCF8D
:103B60002115310509F1281B390B2430310590F45A
:103B700012968D919C9113976115710521F0FB01AF
:103B80009383828304C09093270980932609FD01C3
:103B9000329644C0FD01E20FF31F819391932250AE
:103BA00031092D933C933AC0209124093091250985
:103BB000232B41F42091060230910702309325090E
:103BC000209324092091040230910502211531052A
:103BD00041F42DB73EB74091080250910902241BD1
:103BE000350BE0912409F0912509E217F307A0F4C1
:103BF0002E1B3F0B2817390778F0AC014E5F5F4F43
:103C00002417350748F04E0F5F1F50932509409346
:103C100024098193919302C0E0E0F0E0CF01DF91AD
:103C2000CF9108950F931F93CF93DF93009709F4DB
:103C30008CC0FC01329713821282009126091091E8
:103C400027090115110581F420813181820F931F0D
:103C500020912409309125092817390779F5F09327
:103C60002509E093240971C0D80140E050E0AE1767
:103C7000BF0750F412962D913C911397AD01211579
:103C8000310509F1D901F3CF9D01DA013383228394
:103C900060817181860F971F8217930769F4EC0189
:103CA00028813981260F371F2E5F3F4F31832083B4
:103CB0008A819B8193838283452B29F4F093270982
:103CC000E093260942C01396FC93EE931297ED0100
:103CD000499159919E01240F351FE217F30771F4A2
:103CE00080819181840F951F029611969C938E93EB
:103CF0008281938113969C938E931297E0E0F0E07B
:103D0000D80112968D919C911397009719F0F801A4
:103D10008C01F6CF8D919C9198012E5F3F4F820FC1
:103D2000931F20912409309125092817390769F438
:103D3000309729F4109227091092260902C01382A5
:103D400012821093250900932409DF91CF911F91CE
:103D50000F9108956F927F928F929F92AF92BF9230
:103D6000CF92DF92EF92FF920F931F93CF93DF9347
:103D7000EC01009789F4CB01DF91CF911F910F9156
:103D8000FF90EF90DF90CF90BF90AF909F908F907B
:103D90007F906F900C947D1DFC01E60FF71F9C0136
:103DA00022503109E217F30708F4ACC0D9010D9194
:103DB0001C91119706171707B0F00530110508F48C
:103DC0009FC0C80104978617970708F499C002504E
:103DD0001109061B170B019311936D937C93CF016F
:103DE0000E94121E8DC05B01A01AB10A4C01800E08
:103DF000911EA0912609B091270940E050E0E12CE6
:103E0000F12C109709F44AC0A815B905D1F56D90A9
:103E10007C901197630182E0C80ED11CCA14DB04A8
:103E200080F1A3014A195B096A0182E0C80ED11C26
:103E30001296BC9012971396AC91B5E0CB16D104B4
:103E400040F0B282A38351834083D9016D937C9368
:103E50000AC00E5F1F4FC301800F911FF9019183AC
:103E60008083EB2DFA2FE114F10431F0D701139682
:103E7000FC93EE93129744C0F0932709E093260930
:103E80003FC08D919C9111974817590708F4AC01D8
:103E90007D0112960D90BC91A02DB3CF8091240985
:103EA0009091250988159905E1F446175707C8F43C
:103EB0008091040290910502009741F48DB79EB75E
:103EC0004091080250910902841B950BE817F907ED
:103ED000C8F4F0932509E0932409F9017183608304
:103EE0000FC0CB010E947D1D7C01009759F0A801F5
:103EF000BE010E94981FCE010E94121EC70104C07D
:103F0000CE0102C080E090E0DF91CF911F910F9130
:103F1000FF90EF90DF90CF90BF90AF909F908F90E9
:103F20007F906F90089581E090E0F8940C94B11F19
:103F3000FB01DC0102C001900D9241505040D8F7C6
:103F40000895FB01DC018D91019080190110D9F3D6
:103F5000990B0895FB01DC0101900D920020E1F71F
:103F6000089510E0C9EFD0E000E006C0802FFE0108
:103F70000E94751D2196011DCA3FD10780E00807E8
:063F8000A9F7F894FFCF41
:103F86000100000000002809800000202100000038
:103F960000FA120516391241136A1248125C1270A1
:103FA600616E496400616C6C696E666F003A75708B
:103FB600646174653A616C6C696E666F3A00496E4D
:103FC60076696F206C27686900363535333500729F
:103FD6006663680061646472007478707772006466
:103FE60072617465007365747073770073657472BB
:103FF6006F75746500666163746F727900696E66C9
:104006006F6C776D0056657273696F6E20466972C4
:104016006D77617265203D006170704C776D5F5001
:104026006F776572526620006170704C776D5F44E1
:104036006174615261746520006170704C776D5FC8
:1040460050616E496420006170704C776D5F5266F6
:104056004368616E6E656C20006170704C776D5FB1
:104066005365727665724E6F646520004170696FA4
:104076002E6170704C776D5F5461626C654E754D44
:10408600617820004170696F2E6170704C776D5FAA
:1040960046697865645461626C6520004170696F99
:1040A6002E6170704C776D5F50617373776F7264B9
:1040B60020003A7570646174653A726F7574657341
:1040C600743A007C0061636B000D0A00466163630D
:1040D600696F20496E6974466163746F7279004333
:1040E6004F4F5244494E41544F5220414354495632
:0E40F60045006300312E3031006F6B3A000040
:00000001FF
