:100000000C94FA000C942B010C942B010C942B01F2
:100010000C942B010C942B010C942B010C942B01B0
:100020000C942B010C942B010C942B010C942B01A0
:100030000C942B010C942B010C942B010C942B0190
:100040000C942B010C942B010C942B010C942B0180
:100050000C942B010C942B010C942B010C94241761
:100060000C942B010C9433150C9409150C942B0152
:100070000C942B010C942B010C942B010C942B0150
:100080000C942B010C942B010C942B010C942B0140
:100090000C942B010C942B010C942B010C942B0130
:1000A0000C942B010C942B010C942B010C942B0120
:1000B0000C942B010C942B010C942B010C942B0110
:1000C0000C942B010C942B010C942B010C942B0100
:1000D0000C942B010C942B010C942B010C942B01F0
:1000E0000C942B010C942B010C942B010C942B01E0
:1000F0000C942B010C942B010C942B010C942B01D0
:100100000C942B010C942B010C942B010C942B01BF
:100110000C942B010C942B010C942B010C942B01AF
:100120000C942B010C942B010C942B010C942B019F
:100130000C942B010C9407080C944C120C94C106DF
:100140000C9473080C946E120C9412120C948E1A68
:100150000C943D120C949B120C94361A0C948F162E
:100160000C94AC080C94E2120C9460120C94DD0711
:100170000C943C0800000000250000002B002E001D
:10018000310034000000000000000000000000000A
:100190000000240000002A002D0030003300000081
:1001A000000000000000000004040404040404042F
:1001B00002020202020505050505050706060606F8
:1001C00006060606020202070707050501020408E3
:1001D0001020408001102040800810204080042022
:1001E00001020408102040800204080102040102F8
:1001F000361A8E1A11241FBECFEFD1E8DEBFCDBF55
:1002000000E00CBF13E0A0E0B2E0EEE1FFE300E0AD
:100210000BBF02C007900D92A639B107D9F729E0AC
:10022000A6E9B3E001C01D92A034B207E1F710E0E7
:10023000C9EFD0E000E006C021970109802FFE0140
:100240000E94411DC83FD10780E00807A9F70E941E
:100250006E170C947D1F0C940000CF92DF92EF92EA
:10026000FF920F931F93CF93DF93CDB7DEB7C65C9A
:10027000D1400FB6F894DEBF0FBECDBF63E673E08A
:10028000CE018F539E4F0E94AE1463E673E0CE0101
:1002900085549E4F0E94AE1400E010E08091180932
:1002A000181720F5E12FF0E0EF58F74F87A18A33B8
:1002B00011F40F5F1F5F013049F4E12FF0E0EF58B8
:1002C000F74F67A1CE018F539E4F0CC0023061F4EF
:1002D000E12FF0E0EF58F74F67A16D3229F0CE0122
:1002E00085549E4F0E94DF131F5FD8CFCE018F53DE
:1002F0009E4F0E9484156FE172E0CE018F539E4F96
:100300000E949213882351F163E673E0CE01855475
:100310009E4F0E949213811114C5CE0185549E4FA9
:100320000E9475139B017093760860937508709313
:100330009F0760939E07C753DF4F79836883C95C2B
:10034000D04060936201C653DF4F9881CA5CD040B1
:1003500090936301B90182E890E071C165E272E0B7
:10036000CE018F539E4F0E949213882309F4ECC054
:1003700063E673E0CE018B549E4F0E94AE1408E7F3
:1003800018E0D8016D918D0140E1CE0101960E94E7
:1003900081144D815E8169817A81CE018B549E4F9B
:1003A0000E94B113CE0101960E945014B8E00838A3
:1003B0001B0739F74AE060918808CE0181559E4FAE
:1003C0000E9481144AE060918908CE0187559E4FB2
:1003D0000E9481144AE060917408CE018D559E4FB1
:1003E0000E9481144AE060917308CE0183569E4FAB
:1003F0000E9481144AE060917708CE0189569E4F91
:100400000E94811460917508709176084AE0CE01CF
:100410008F569E4F0E94551460917108709172081A
:100420004AE0CE0101960E945514C753DF4F19824E
:100430001882C95CD040C553DF4F19821882CB5C4B
:10044000D040C353DF4F19821882CD5CD040698100
:100450007A816115710539F04D815E81CE01875336
:100460009F4F0E94181440E150E06DE272E0CE010F
:1004700087539F4F0E94B113882309F47CC4BE01A7
:100480006F567E4FCE0187539F4F0E9405140E94E6
:100490009215BE0169567E4F0E9405140E94921566
:1004A000BE0163567E4F0E9405140E949215BE0144
:1004B0006D557E4F0E9405140E9492156CE878E0FD
:1004C0000E9405140E949215BE0167557E4F0E943E
:1004D00005140E949215BE0161557E4F0E940514BD
:1004E0000E949215BE016B547E4F0E9405140E941B
:1004F0008415CE0187539F4F0E945014CE01019660
:100500000E945014CE018F569E4F0E945014CE016F
:1005100089569E4F0E945014CE0183569E4F0E94D2
:100520005014CE018D559E4F0E945014CE01875518
:100530009E4F0E945014CE0181559E4F0E94501430
:10054000CE018B549E4F09C266E472E0CE018F53F8
:100550009E4F0E949213882389F18EE392E00E94BD
:10056000A11569E472E082E998E00E94391486E3FB
:100570008093980885E38093990880939A0893E381
:1005800090939B0880939C088AE380939D0898E64B
:1005900090939E0899E690939F088093A0088DE61B
:1005A0008093A1088DE28093A2088BE080931809C4
:1005B00081E080931B090E94AF15C3C36FE472E012
:1005C000CE018F539E4F0E9492138823A9F0CE0133
:1005D00085549E4F0E9475136093770885EF860FB0
:1005E000803108F0AEC3609396030E94860D60913F
:1005F000770886E990E043C064E572E0CE018F534E
:100600009E4F0E9492138823E9F0CE0185549E4F9D
:100610000E947513709372086093710870939F071E
:1006200060939E077A836983609362018A818093D5
:100630006301609171087091720887E990E00E94EF
:10064000B81C7FC369E572E0CE018F539E4F0E94B4
:1006500092138823B9F0CE0185549E4F0E947513E2
:1006600060937308603108F06CC3962F9F7080917F
:100670004501807F892B8093450185E890E00E94A9
:10068000A61C5FC36FE572E0CE018F539E4F0E94A0
:1006900092138823A9F0CE0185549E4F0E947513B2
:1006A00060937408643008F04CC3962F9370809167
:1006B0004C018C7F892B80934C0184E890E0DFCF44
:1006C00065E672E0CE018F539E4F0E9492138823FD
:1006D00009F450C0C154DE4F88819981CF5BD1406D
:1006E000809709F02EC300E010E098012F5F3F4F84
:1006F000A801BE0165547E4FCE0187539F4F0E94D3
:10070000C31440E150E060E070E0C753DF4F8881E0
:100710009981C95CD0400E94F01A802F8695E1E053
:10072000F0E0EC0FFD1FE80FF11D6083CE01875351
:100730009F4F0E9450140E5F1F4F00321105A9F603
:100740008E010F5F1F4FB6E8EB2EF12C80E1C82E13
:10075000C00EF801D1908F016D2DC7010E94A61C1B
:10076000F701EE50F84FD082FFEFEF1AFF0AC012E8
:10077000F0CFE7C26CE672E0CE018F539E4F0E942D
:100780009213882309F4ECC0C154DE4FE880CF5B9C
:10079000D140C054DE4F5881C05CD140C956DE4FB5
:1007A00019821882C759D140C756DE4F1982188264
:1007B000C959D140C556DE4F19821882CB59D14054
:1007C000C554DE4F68817981CB5BD14061157105DD
:1007D00031F04E2DCE0189569E4F0E9418148E2D59
:1007E0008695869580938908FE2CF694D12C4D2D04
:1007F000440F4F1588F550E09A012E5F3F4FBE0120
:1008000065547E4FCE0187539F4F0E94C31460E012
:1008100070E0CE0187539F4F0E948013DC010C9142
:1008200010E0102F002761E070E0CE0187539F4F4A
:100830000E948013FE013196ED0DF11DED0DF11DAD
:10084000DC018C91082B11830083D394CE01875354
:100850009F4F0E945014CBCFD12CFE14A8F54F2DE2
:1008600050E09A012E5F3F4FBE0165547E4FCE018E
:100870008F569E4F0E94C31460E070E0CE018F56E9
:100880009E4F0E948013FC01008110E0102F002772
:1008900061E070E0CE018F569E4F0E948013FE01F2
:1008A000E753FF4FED0DF11DED0DF11DDC018C91B6
:1008B000082B11830083D394CE018F569E4F0E9444
:1008C0005014F394F394C9CF10E08091890818175D
:1008D000B8F4812F90E0FC01EE0FFF1F21E030E023
:1008E0002C0F3D1FE20FF31F60817181880F991F4C
:1008F000880F991F88519C4F0E94B81C1F5FE5CF3D
:1009000010E0609189081617B8F4812F90E0FC017F
:10091000EE0FFF1FA9ECB0E0AC0FBD1FEA0FFB1FED
:1009200060817181880F991F880F991F8053984F9C
:100930000E94B81C1F5FE5CF8DEF90E00E94A61CBF
:1009400081E08093880861E08EEF90E00E94A61C11
:100950000E941816CE0189569E4F0E945014F1C174
:1009600065E772E0CE018F539E4F0E949213882359
:1009700009F459C06FEF8FEF90E00E94A61C68EE5B
:1009800073E080E090E00E94DE162C982D98759818
:10099000739874982F982E98759A64E670E080E0AA
:1009A00090E00E94DE16759864E670E080E090E0CA
:1009B0000E94DE16739A64E670E080E090E00E9488
:1009C000DE16739864E670E080E090E00E94DE1628
:1009D000749A64E670E080E090E00E94DE167498FD
:1009E00064E670E080E090E00E94DE162F9A64E6F4
:1009F00070E080E090E00E94DE162F9864E670E0E0
:100A000080E090E00E94DE162E9A64E670E080E0BE
:100A100090E00E94DE162E9864E670E080E090E0A0
:100A20000E94DE16B9CF6DE772E0CE018F539E4F64
:100A30000E949213882309F432C165E872E0CE0166
:100A400001960E94AE146CE878E0CE0101960E94F7
:100A500005140E948415CE0101960E9450144AE0AC
:100A600060917308CE0187539F4F0E94811468E9FB
:100A700072E0CE0101960E94AE14BE0167537F4F13
:100A8000CE0101960E9405140E948415CE010196A4
:100A90000E945014CE0187539F4F0E9450144AE089
:100AA00060917408CE0187539F4F0E94811468EAB9
:100AB00072E0CE0101960E94AE14BE0167537F4FD3
:100AC000CE0101960E9405140E948415CE01019664
:100AD0000E945014CE0187539F4F0E945014609182
:100AE0007508709176084AE0CE0187539F4F0E94A7
:100AF000551469EB72E0CE0101960E94AE14BE015E
:100B000067537F4FCE0101960E9405140E94841501
:100B1000CE0101960E945014CE0187539F4F0E9430
:100B200050144AE060917708CE0187539F4F0E948E
:100B3000811467EC72E0CE0101960E94AE14BE01F2
:100B400067537F4FCE0101960E9405140E948415C1
:100B5000CE0101960E945014CE0187539F4F0E94F0
:100B6000501460917108709172084AE0CE01875369
:100B70009F4F0E94551469ED72E0CE0101960E94CC
:100B8000AE14BE0167537F4FCE0101960E9405143B
:100B90000E948415CE0101960E945014CE01875305
:100BA0009F4F0E9450144AE060918908CE018753FC
:100BB0009F4F0E9481146CEE72E0CE0101960E945C
:100BC000AE14BE0167537F4FCE0101960E940514FB
:100BD0000E948415CE0101960E945014CE018753C5
:100BE0009F4F0E9450144AE060918808CE018753BD
:100BF0009F4F0E94811464E073E0CE0101960E9431
:100C0000AE14BE0167537F4FCE0101960E940514BA
:100C10000E948415CE0101960E945014CE01875384
:100C20009F4F0E9450148CE193E00E94691508E7E1
:100C300018E030E1F32EF00EF80141918F0150E001
:100C400060E070E019A2FE01B196DB01CA018F706D
:100C50009927AA27BB2724E076956795579547954E
:100C60002A95D1F731978A309105A105B10510F485
:100C7000805D01C0895C8083411551056105710566
:100C800021F7CF010E94691583E993E00E9469155D
:100C9000F012D2CF83E693E00E94A11552C06FE616
:100CA00072E0CE018F539E4F0E9492138823B9F1B8
:100CB00082E393E00E94A1150AE417E0D80111969F
:100CC0006D917C9112974AE0CE0101960E945514D5
:100CD000CE0101960E947B15CE0101960E94501410
:100CE00083E593E00E946915F801638174814AE00D
:100CF000CE0101960E945514CE0101960E947B15EB
:100D0000CE0101960E94501487E593E00E94A11540
:100D1000085F1F4FF7E00A391F0781F6BBCF6DE56B
:100D200073E0CE018F539E4F0E949213882349F0A7
:100D3000CE0185549E4F0E947513623010F460936B
:100D40008B08CE0185549E4F0E945014CE018F53C4
:100D50009E4F0E945014CA53DE4F0FB6F894DEBF68
:100D60000FBECDBFDF91CF911F910F91FF90EF90FC
:100D7000DF90CF900895CE0187539F4F0E94F313C9
:100D80007ECB0F931F93CF938C012C9AC0E0F80178
:100D90008185C81798F48091D4079091D507F80100
:100DA000A781B085AC0FB11DFC01208131816C9110
:100DB00084ED97E0F9011995CF5FE9CF81E693E0E3
:100DC0000E946915F8012385822F022E000C990BD1
:100DD00097FF03C091958195910988349105BCF4E2
:100DE00037E4320F3F3818F4863391057CF435E34D
:100DF000320F3B3618F4843291053CF42D5D2734D4
:100E000010F442970CF4759A739A749A2F9A2E9A4A
:100E100081E0CF911F910F91089580E090E0E0E094
:100E2000F0E0DC01A65BB84F2C9120FD0BC01596BD
:100E30002C911597222359F0309719F035812317FB
:100E400008F4FD0108968035910559F701C0FD01B0
:100E500080818D708063808380E88583CF010895D1
:100E6000CF93DF93EC0190914807AAE4B7E020E02C
:100E700030E070E01196ED91FC911297EC17FD07B0
:100E8000A1F4F90183E0EE0FFF1F8A95E1F7E65B1D
:100E9000F84F808181FB442740F950E046175707FF
:100EA00021F490934807CF010BC02F5F3F4F189656
:100EB0009FEF2A303105F1F69093480780E090E0EB
:100EC000DF91CF9108950E943007FC01892B41F0FA
:100ED000808180FD05C08FEF9FEF92838183158213
:100EE00008950F931F93CF93DF93FC018091970395
:100EF00090919803B681A781308521850097F1F103
:100F00004B2F5A2F632F722FDC01D0E0C0E01296D6
:100F10000D911D912D913C91159740175107620736
:100F2000730768F4041B150B260B370B12960D93F1
:100F30001D932D933C931597AD2FBC2F0EC0401BD6
:100F4000510B620B730B2D913C911197DA2FCB2F24
:100F50002115310511F0D901DACF4283538364831F
:100F60007583109741F08D919C91119791838083A7
:100F7000ED93FC930DC09183808306C01182108293
:100F8000B283A38334832583F0939803E09397037C
:100F9000DF91CF911F910F910895E0919703F09108
:100FA0009803309739F0E817F90731F00190F08194
:100FB000E02DF7CF0C9471070895AC01E8E1F7E05C
:100FC00020E09081992319F09150908321E035968B
:100FD00087E0EA34F807A9F7222319F0CA010C9434
:100FE000CD070895009711F0FC0103C0E5EDF3E093
:100FF00002C0E757FF4F86E0E238F80728F4808107
:101000008823B9F3CF01089580E090E00895CF934D
:10101000DF93FC01268121FF2BC02185222341F192
:10102000C781D0858881882319F08130C1F020C024
:101030002330F1F480E090E00E94F2070097C1F0C5
:10104000FC0120812631C1F7348529813213F4CF88
:1010500027E120832A81EA57FF4F208307C02630EB
:1010600039F46D818B819C810E94630781E001C00E
:1010700080E0DF91CF910895FF920F931F93CF935C
:10108000DF938C01C0E0E0E0F0E0D7E180E1F82EF2
:10109000CF010E94F207FC01892BA9F080818631E3
:1010A000B9F7DF01AC57BF4F2D913C9111972150FB
:1010B000310911963C932E93232B19F4D083119769
:1010C000FC92C1E0E5CFCC2341F0C801DF91CF9184
:1010D0001F910F91FF900C94CD07DF91CF911F913D
:1010E0000F91FF9008950F931F93CF93DF938C017F
:1010F000C0E0E0E0F0E0D3E1CF010E94F207FC01A4
:10110000892B91F080818131B9F7DF01AC57BF4F56
:101110002D913C911197215031092D933C93232B14
:1011200009F4D083C1E0E8CFCC2339F0C801DF91C6
:10113000CF911F910F910C94CD07DF91CF911F910B
:101140000F910895FC011082ECE9F7E086A997A9B8
:10115000019797AB86AB0895E0919A07F0919B07B2
:101160003097A1F0228133812817390759F4DC0127
:10117000AD57BF4F2C91278713962C91208B22E0DF
:10118000248304C00190F081E02DEACF0C94A208E2
:10119000FF920F931F93CF93DF93EC01FC01EA576B
:1011A000FF4F808181FF02C092E104C09B8591FFC7
:1011B000FBCF90E19883FE01ED57FF4F108280FF37
:1011C00003C02FEF3FEF04C020919E0730919F078F
:1011D0003E832D83857051F50F8518890F3F2FEFC2
:1011E000120709F1FB84F2FC1EC0F3FAFF24F0F8A9
:1011F0006F2DC8010E943007009721F0FC01038188
:10120000148111C00E940D07FC0112830183148315
:1012100003838081F0FA81F98F708063808380E896
:1012200085838FEF868318870F8304C08F85988905
:1012300098878F8380919C0790919D079A878987D3
:101240008091A1078F5F8093A1078C838F81988500
:101250008E010C571F4F019669F481E498E89B8337
:101260008A830E94E11A877099270196F801918379
:10127000808307C081E698E89B838A83F801118206
:101280001082DF91CF911F910F91FF900895E5EDAE
:10129000F3E080E090E02081211121C049E8489FDF
:1012A0009001499F300D1124C9018B529C4FFC01C4
:1012B00011924A95E9F740E1FC014183EF57FF4F56
:1012C00029513C4F318320832091D2073091D3079D
:1012D0002F5F3F4F3093D3072093D2070895019695
:1012E000E757FF4F85309105B1F680E090E0089513
:1012F0002F923F924F925F926F927F928F929F9226
:10130000AF92BF92CF92DF92EF92FF920F931F9313
:10131000CF93DF93CDB7DEB72C970FB6F894DEBF2F
:101320000FBECDBF00E010E094E2792E66246394F6
:1013300022E0222E30E8332E55245A9441E4C42E64
:1013400048E8D42EAA24A394B12CC8010E94F20725
:101350008C01892B09F4FAC2D8018C91823209F4EC
:1013600048C168F4803291F0813279F781E3D80185
:101370008C93809146078F5F80934607E6CF833238
:1013800009F415C2843209F486C2DFCFF8017082F5
:10139000838583FDDACF45815681278530894F3F8C
:1013A0005F4F89F440919C0750919D074217530766
:1013B00019F02F3F3F4F49F681FF02C081E216C16D
:1013C00082E2F80110C12F3F3F4F11F480FDBDCFE5
:1013D000D8011D968D919C911E9720919C0730916C
:1013E0009D072817390709F4B0CF19962D913C9124
:1013F0001A9737FF04C02817390709F04EC060E07C
:101400000E943007FC0198012D573F4F7901892B2D
:1014100089F1D80117968D919C911897019669F4DE
:1014200041E020919C0730919D07D8011F968D9136
:101430009C9150972817390709F040E0D801199678
:101440008D919C911A97238134812817390729F0AF
:10145000D7013C912681231710F04423D9F0209125
:101460008808211117C09483838380818F708063E3
:10147000808310C00E940D07FC01D8011D968D913C
:101480009C911E979283818319968D919C911A97B6
:1014900094838383D7018C918683A4E1B7E080E0B5
:1014A00090E060E070E014962C911497222309F4E8
:1014B00056C0F801458556852D913C9111974217EC
:1014C000530709F04DC0248535E0389FF001399F5E
:1014D000F00D1124EC5EF84F8281821B883078F584
:1014E0004381242F30E0082E02C0359527950A94B9
:1014F000E2F720FF1AC020919C0730919D07D80188
:1015000017968D919C9118972817390709F01DCFD0
:101510001B966C911B9763FB662760F91F968D9154
:101520009C9150970E94630710CF950102C0220F33
:10153000331F8A95E2F7C901842B83832EC022834F
:10154000238130E08195A90102C0440F551F8A957F
:10155000E2F7CA01816083838FE184831EC0BD01ED
:101560000196159657E0A634B50709F09CCF611592
:10157000710509F4EACED8011D968D919C911E97B4
:10158000FB01918380831C968C91828363828FE11F
:10159000848386E097E00E94CD07F80187809084DD
:1015A000FFEF8F169F0669F420919C0730919D07ED
:1015B000D8011F968D919C9150972817390709F0F3
:1015C0006EC180919C0790919D07D8011F962D9127
:1015D0003C915097F8018217930709F0ABC18385BE
:1015E00081FF03C081E28083B0CE82E2D8018C9378
:1015F000ACCE10924707F8012189322F32953F7007
:10160000E32FF0E0EE0FFF1FEE55F84F0190F08151
:10161000E02D309709F45DC0D8011D968D919C9105
:101620001E979A8389831F964D915C9150975C8396
:101630004B832F702D833E83AF57BF4F6D917C91AD
:101640007987688798012E5F3F4F261B370BD8019B
:1016500011963C911197230F2A87AD57BF4F2C91BC
:101660002B8711962C912C87D8011B966C91262FD5
:10167000237062FD02C030E001C030E2232B63FD25
:1016800002C030E001C030E4322B4F3F5F4F11F019
:1016900020E001C024E0232BD80119964D915C91E4
:1016A0001A978417950711F090E001C098E0922BEB
:1016B000D80115962D913C9116972F3F3F4F11F071
:1016C00080E001C080E1892B8F83CE0101961995BE
:1016D00001C080E0F801938590FF80E0D801179663
:1016E0004D915C91189720919C0730919D074F3F39
:1016F0005F4F41F4F801478550892417350711F4ED
:1017000093FF81E0D80115964D915C9116974F3F5C
:101710005F4F09F480E02F3F3F4F09F445C0882315
:1017200009F442C00E944709FC010097E9F1DC017D
:10173000AD57BF4F1C928091A0078F5F8093A00789
:10174000848780919C0790919D07968785878385E4
:101750008260838781818D5F818314961D921C92A4
:10176000D8011B968C911B9786958170938580FB81
:1017700091F993871D968D919C911E97908B8787E9
:10178000DF01AF57BF4F2D913C91D9011C92809141
:10179000470712968C93D8011C968C91D90111960B
:1017A0008C93CF010E94C808F8017082CECDD80179
:1017B0001B969C901B9793FA992490F81F96ED9096
:1017C000FC905097692DC7010E943007009721F0C7
:1017D000FC01E380F4800FC00E940D07FC01F2823F
:1017E000E182F482E382808190FA81F98F708063D4
:1017F000808335825682EF20E09459F0F801E95752
:10180000FF4F1182108231972082C8010E94C808C0
:101810009CCDD8011B964C901B9743FA442440F86A
:101820001F96ED90FC9050971D968D909C901E9762
:101830000E944709FC01009771F1DC01AD57BF4FD1
:101840001C928091A0078F5F8093A007848780916E
:101850009C0790919D079687858783858260838703
:1018600081818A5F8183149611961C921E92908AC0
:10187000878616970D90BC91A02D6C9212969C9223
:101880008E9211971496FC92EE92139715964C92A5
:10189000CF010E94C808C8010E94A20856CD1B961D
:1018A0008C9182FD8ECE0E9447097C01892B09F420
:1018B00088CE82E1F7018083D80111968C918183D3
:1018C000ED57FF4F10820E94E11AF701EC57FF4FCE
:1018D00087709927019691838083339611821082B5
:1018E000F801418150E0B8016E5F7F4FC701029659
:1018F0000E94641FD7011396DC92CE92129718961D
:101900009C928E921797F8018581968116969C93EA
:101910008E93159780919C0790919D071A969C93A2
:101920008E9319978091A1078F5F8093A1071496DA
:101930008C9347CE2F3F3F4F09F451CE27813085FE
:101940008217930709F001CD83E24DCE2C960FB696
:10195000F894DEBF0FBECDBFDF91CF911F910F91E5
:10196000FF90EF90DF90CF90BF90AF909F908F90BF
:101970007F906F905F904F903F902F90089593E0ED
:1019800090934201909141019F719830D9F78093D3
:101990004201909141019F718913FBCF089588E026
:1019A0000E94BF0C8FEF80934F0180919C0388238E
:1019B00019F086E10C94BF0C08951F93CF93DF9329
:1019C0008091990390919A03029709F49BC08091AA
:1019D0004F0183FF51C040917B0150E0242F30E044
:1019E000852F90E02817390754F0FC01E058FE4F8E
:1019F0006081FC01EA57F94F60835F5FF1CFF90125
:101A0000EA57F94F1081D0914701809187068838B5
:101A1000F1F4809186068F7D8134C9F4CEEFC40F36
:101A2000C031A8F00E944709009789F020E2FC012C
:101A30002083C183ED57FF4F10833196DA55D08351
:101A40004C2F50E066E876E002960E94641F809179
:101A500041018F718631D9F780914F018860809361
:101A60004F0180914C018F7780934C0180914C0104
:101A7000806880934C0146C080914F0186FF42C030
:101A8000809141018F718931C1F5E0914201CE2FE2
:101A9000C295C695C77049F0C33021F0C53021F01A
:101AA000C3E003C0C1E001C0C2E00E94CF0C81E0EE
:101AB00090E090939A0380939903A0918406B0914B
:101AC0008506C33031F0EC2FF0E0E65FFD4F8081FA
:101AD00001C081E0FD01ED57FF4F808385E18C93CC
:101AE00010928506109284068091D2079091D307B8
:101AF00001979093D3078093D20780914F01806420
:101B000080934F01DF91CF911F91089580919B03A6
:101B1000982F9F7080915401807F892B809354016E
:101B200090919B0380919603992319F08093530120
:101B300008958F7190914801907E892B8093480180
:101B400008950F931F93CF93DF931092560186E071
:101B50000E94BF0CC0E0D0E000E010E061E070E067
:101B600080E090E00E94DE162091460122952695A5
:101B7000237030E00C2E02C0220F331F0A94E2F7CC
:101B8000022B132B2296C031D10541F788E00E9429
:101B9000BF0C8BEE809356010E94CF0CC801DF91E1
:101BA000CF911F910F9108951092A0071092A10755
:101BB00010929D0710929C071092D3071092D207A3
:101BC000E2EAF7E01192119287E0E23CF807D1F7E0
:101BD000109285061092840682E390E0A0E0B0E0C7
:101BE0008093CD039093CE03A093CF03B093D00303
:101BF0001092D2031092D1038CE398E09093D40317
:101C00008093D3038AE090E0A0E0B0E08093BF032C
:101C10009093C003A093C103B093C2031092C40376
:101C20001092C30383E798E09093C6038093C503A3
:101C300080E090E0FC01EC5EF84F14820596823360
:101C40009105C1F784E690E0A0E0B0E080930C0736
:101C500090930D07A0930E07B0930F0710921107F2
:101C6000109210078DED97E0909313078093120761
:101C700087E098E09093A3078093A2071092D50382
:101C800010925E041092E704109270051092F9050C
:101C900010929B0710929A0780918808882339F048
:101CA0001092460710928306109282060895EAE485
:101CB000F7E080E090E04FEF5FEF52834183DC017B
:101CC00023E0AA0FBB1F2A95E1F7A65BB84F2C9122
:101CD0002E7F2C931582019638968A30910569F7EC
:101CE000DFCF2F923F925F926F927F928F929F925F
:101CF000AF92BF92CF92DF92EF92FF920F931F931A
:101D0000CF93DF93C0E0D0E074E1572ECC24CA9487
:101D1000E3E0AE2EB12CF2E0DF2EA7E18A2EB6E191
:101D20006B2E05E110E0EE24EA94FE2C90E3792E70
:101D3000CE010E94F207EC01892B09F430C18881A1
:101D4000833119F128F4803151F0823179F0F0CFEC
:101D5000853109F44BC0873109F465C0E9CF788239
:101D6000809146078F5F80934607E2CFFE01EC57D4
:101D7000FF4F80819181892B29F081E1888389EB54
:101D800093E04CC083E18883D3CF80918406909107
:101D90008506892B69F6D0938506C0938406588200
:101DA000998089E10E94BF0CC0924F0182E0890DA9
:101DB00080938001CE010296FC01A1E8B1E02E2FB4
:101DC000281B291518F421912D93F9CFB0929A036D
:101DD000A0929903D09242018091D2079091D307AB
:101DE00001969093D3078093D207A2CFFE01ED57BF
:101DF000FF4F8081811115C02D853E8580919C0704
:101E000090919D072817390761F48B8580FF09C0E1
:101E1000688231961183008387EC93E00E94CD079E
:101E200087CF888285CF8F8598898F3F2FEF920744
:101E300009F4A7C06B8563FB662760F90E94300731
:101E4000FC01DE01AD57BF4F892B19F0808180FF67
:101E500070C08C91811104C080918A08878391C0E1
:101E600087818150878381118CC02091890830E05F
:101E700081819281D90153E0AA0FBB1F5A95E1F7E6
:101E8000A65BB84F12969C938E9311974C918381C9
:101E9000948114969C938E9313971596DC921597C4
:101EA0001696CC921697842F8E7081628C939090A8
:101EB0008A0817969C928091480790E0FC0163E0A5
:101EC000EE0FFF1F6A95E1F7E65BF84F3896821731
:101ED00093070CF056C041815281DF0117974D9353
:101EE0005C93DC0143E0AA0FBB1F4A95E1F7AD010B
:101EF000465B584F1A01DA014C9141604C93638163
:101F00007481AF0145505109DA016D937C934E5FA6
:101F10005F4FDA01DC924F5F5F4FDA01CC92D10163
:101F20004C914F7040624C93DF0111979C92019647
:101F3000CDCF2C91982F9F70211113C09063908367
:101F400085818F5F85838F3FE1F4EFE4F7E0808147
:101F500086958F5F80833896B7E0EF39FB07B9F736
:101F600010C082958F70815F8F70282F2295207FFF
:101F7000922B9083811105C090FD03C0F282E18213
:101F80001582FE01E957FF4F0190F081E02DCE014F
:101F9000309719F40E94A208CBCE1995C9CEDF91D3
:101FA000CF911F910F91FF90EF90DF90CF90BF9056
:101FB000AF909F908F907F906F905F903F902F9009
:101FC00008950F931F93CF93DF9380914607882343
:101FD00009F431C1E0918206F0918306309709F44B
:101FE000BAC09081943309F059C09091A703DF01E2
:101FF000AF57BF4F0D90BC91A02DA90FB11D0091FF
:10200000AD031091AE032091AF033091B003409126
:10201000A9035091AA036091AB037091AC034027D0
:102020005127622773270091B1031091B2032091C9
:10203000B3033091B40340275127622773270091DF
:10204000B5031091B6032091B7033091B803402730
:102050005127622773279091A603992351F04D933E
:102060005D936D937C93139791819C5F918392E133
:102070000CC00D911D912D913C91401751076207A5
:10208000730711F492E201C094E2908310928306E8
:1020900010928206815080934607CDC0923309F09A
:1020A000CAC083E38083E2ECF7E080E18E0F919178
:1020B00090933F018E13FBCF10923C01E9EAF3E0CD
:1020C000DF014E2F90E19E0F8D9180933E019A1378
:1020D000FBCF80913C01806880933C0180913D0161
:1020E00080FFFCCFA9EAB3E080913E018D939A1363
:1020F000FBCFC0918206D09183063091A7039091C7
:10210000A803292F913108F020E15091A603DE01A8
:10211000AF57BF4F0D90BC91A02DA30FB11D8E2FB7
:10212000841B821758F460818C9186278D935111FE
:1021300002C06081862780833196F1CF320F3093C1
:10214000A703921B9093A803992311F082E301C087
:1021500084E3888370C0E0E0F0E0CF010E94F207E2
:10216000FC01892B09F467C0208180ED820F823049
:10217000A0F7F0938306E0938206848590E0A0E0C8
:10218000B0E08093A9039093AA03A093AB03B0930C
:10219000AC0387859089A0E0B0E0DC01992788270F
:1021A000318932953F70832B8093AD039093AE03BA
:1021B000A093AF03B093B00385859685A0E0B0E00F
:1021C000DC019927882731893F70832B8093B103E5
:1021D0009093B203A093B303B093B4033385858186
:1021E0009681A0E0B0E0DC0199278827832B8093BB
:1021F000B5039093B603A093B703B093B80321330C
:1022000019F4818184508183DF01AF57BF4F4D9115
:102210005C91CF010296841B950B9181890F80936D
:10222000A8031092A70381E0203309F080E0809397
:10223000A60382E38083DF91CF911F910F910895D0
:10224000CF92DF92EF92FF92CF93DF930E94181705
:10225000C091A503CC2ED12CE12CF12C6C157D0561
:102260008E059F05B1F10E941817C62ECC1AD12CED
:10227000E12CF12C6093A503C0919703D0919803B2
:10228000209739F18A819B81AC81BD81C816D9061E
:10229000EA06FB06B0F0C81AD90AEA0AFB0A8881E6
:1022A000998190939803809397038A859B850197E2
:1022B00019F4CE010E947107EC85FD85CE011995B8
:1022C000DBCF8C199D09AE09BF098A839B83AC8340
:1022D000BD83DF91CF91FF90EF90DF90CF90089575
:1022E0000F931F93CF93DF93E0919A07F0919B0791
:1022F000EF01209709F491C08C81882321F082306E
:1023000009F461C086C00E9447098C01009721F43E
:1023100082E08C838F8781C09B838A8381E08C835A
:10232000F801E957FF4F8CEA98E091838083319759
:10233000898582FB882780F98083F80183859985C8
:1023400090FB80F98387998593FB992790F990FBFF
:1023500082F9838799859695917090FB81F983879F
:102360008091A0078F5F8093A007848780919C074E
:1023700090919D07968785878D819E81908B878719
:102380008885982F9F708189807F892B818B9F8181
:102390009295907F8F70892B818BEF57FF4F4C85E3
:1023A00050E06A857B85808191810E94641FF801DD
:1023B00091818C85890F8183C801DF91CF911F9115
:1023C0000F910C94C808EC17FD0739F488819981A6
:1023D00090939B0780939A070BC0808191818C1703
:1023E0009D0711F0FC01F9CF888199819183808349
:1023F0008091D2079091D30701979093D307809350
:10240000D207ED85FE85CE01DF91CF911F910F910F
:1024100019940990D881C02D6CCFDF91CF911F9175
:102420000F910895CF92DF92EF92FF920F931F9337
:10243000CF93DF936C017A018B01C0E0D0E0CE1521
:10244000DF0589F0D8016D918D01D601ED91FC91E8
:102450000190F081E02DC6011995892B11F47E01C0
:1024600002C02196ECCFC701DF91CF911F910F9150
:10247000FF90EF90DF90CF900895FC01538D448D35
:10248000252F30E0842F90E0821B930B541710F01F
:10249000CF96089501970895FC01918D828D98172C
:1024A00061F0828DDF01A80FB11D5D968C91928D38
:1024B0009F5F9F73928F90E008958FEF9FEF089535
:1024C000FC01918D828D981731F0828DE80FF11DFE
:1024D000858D90E008958FEF9FEF0895FC01918D19
:1024E000228D892F90E0805C9F4F821B91098F7312
:1024F00099270895FC01848DDF01A80FB11DA35A0F
:10250000BF4F2C91848D90E001968F739927848F13
:10251000A689B7892C93A089B1898C9180648C930A
:10252000938D848D981306C00288F389E02D8081F5
:102530008F7D80830895EF92FF920F931F93CF9327
:10254000DF93EC0181E0888F9B8D8C8D981305C003
:10255000E889F989808185FD24C0F62E0B8D10E075
:102560000F5F1F4F0F731127E02E8C8DE8120CC0E8
:102570000FB607FCFACFE889F989808185FFF5CF8E
:10258000CE010E947A12F1CF8B8DFE01E80FF11D72
:10259000E35AFF4FF0820B8FEA89FB8980818062CA
:1025A00007C0EE89FF896083E889F98980818064AA
:1025B000808381E090E0DF91CF911F910F91FF9098
:1025C000EF900895CF93DF93EC01888D8823C9F0B5
:1025D000EA89FB89808185FD05C0A889B9898C912C
:1025E00086FD0FC00FB607FCF5CF808185FFF2CFC7
:1025F000A889B9898C9185FFEDCFCE010E947A120E
:10260000E7CFDF91CF91089584ED97E00E946E129D
:1026100021E0892B09F420E0822F089580E090E0EA
:10262000892B21F00E94041381110DC080E090E0FD
:10263000892B71F080E090E0892B51F00E9400001E
:10264000811104C008950E940000F0CF0C94000096
:102650000895089580E090E008950E945F1F0F9311
:102660001F93CF93DF93EC0188819981009729F024
:102670002A813B812617370788F48B016F5F7F4FD4
:102680000E94761E009761F0998388831B830A83DA
:102690002C813D81232B11F4FC01108281E001C0CB
:1026A00080E0DF91CF911F910F91089590E0FC01A0
:1026B000E453FE4F2491FC01E855FE4F849188239A
:1026C00099F090E0880F991FFC01E257FE4FA59109
:1026D000B491FC01EC58FE4F859194918FB7F8941A
:1026E000EC91E22BEC938FBF0895FC0180819181E6
:1026F000009711F00C941B1C60E070E0CB01089572
:10270000FC01248135816217730720F48081918157
:10271000009729F41092490789E497E00895860FFD
:10272000971F0895FC0124813581232B31F421E08A
:1027300061157105A1F0FB0108C0FC018081918148
:102740006115710531F421E0FC018081882339F0A5
:1027500005C00E946D1F21E0892B09F020E0822F27
:102760000895EF92FF920F931F93CF93DF93FC0195
:10277000248135816115710511F480E019C041157E
:102780005105A9F07B01EC018A01020F131FB8016A
:102790000E942F13882389F3288139818C819D81A0
:1027A000B701820F931F0E94761F1D830C8381E067
:1027B000DF91CF911F910F91FF90EF900895CF93EC
:1027C000DF931F921F92CDB7DEB769831A8241E073
:1027D00050E0BE016F5F7F4F0E94B1130F900F90CA
:1027E000DF91CF910895CF93DF93EC018881998198
:1027F000009711F00E94DE1D198218821D821C8232
:102800001B821A82DF91CF910895CF93DF93EC0161
:10281000FB0144815581608171810E94B113811156
:1028200003C0CE010E94F313CE01DF91CF91089532
:10283000EF92FF920F931F93CF93DF93EC017B01F5
:102840008A01BA010E942F13811104C0CE010E9497
:10285000F31307C01D830C83B701888199810E94FF
:10286000761FCE01DF91CF911F910F91FF90EF90D6
:102870000895CF93DF93EC016115710559F0FB01C9
:1028800001900020E9F73197AF01461B570B0E94DA
:10289000181402C00E94F313CE01DF91CF91089566
:1028A000FC01808191810C94DE1D0F931F93CF93C7
:1028B000DF93CDB7DEB761970FB6F894DEBF0FBEDA
:1028C000CDBF8C01CB01F8011182108213821282DC
:1028D0001582148250E0BE016F5F7F4F0E94601C22
:1028E000BE016F5F7F4FC8010E94391461960FB619
:1028F000F894DEBF0FBECDBFDF91CF911F910F9136
:1029000008950F931F93CF93DF93CDB7DEB7299729
:102910000FB6F894DEBF0FBECDBF8C01862FF80135
:1029200011821082138212821582148250E0BE013D
:102930006F5F7F4F90E00E94601CBE016F5F7F4F12
:10294000C8010E94391429960FB6F894DEBF0FBE55
:10295000CDBFDF91CF911F910F910895FC0111829E
:10296000108213821282158214826115710551F052
:10297000FB0101900020E9F73197AF01461B570B8F
:102980000C9418140895BF92CF92DF92EF92FF92A9
:102990000F931F93CF93DF937C016B018A01E901B1
:1029A0002417350720F4812F8901C42FD82F63E61F
:1029B00073E0C7010E94AE14D60114968D919C91CC
:1029C000159708171907D0F48C179D0708F4EC0128
:1029D000D601ED91FC911197EC0FFD1FB080108294
:1029E0004D915C91BA01600F711FC7010E943914AB
:1029F000D601ED91FC91EC0FFD1FB082C701DF9174
:102A0000CF911F910F91FF90EF90DF90CF90BF90EB
:102A100008951F920F920FB60F9211240BB60F92CA
:102A20002F933F934F935F936F937F938F939F93D6
:102A3000AF93BF93EF93FF9384ED97E00E947A12D8
:102A4000FF91EF91BF91AF919F918F917F916F9186
:102A50005F914F913F912F910F900BBE0F900FBE42
:102A60000F901F9018951F920F920FB60F9211247E
:102A70000BB60F922F938F939F93EF93FF93E09159
:102A8000E407F091E5078081E091EA07F091EB0718
:102A900082FD12C090818091ED078F5F8F7320912E
:102AA000EE07821751F0E091ED07F0E0EC52F84F9D
:102AB000958F8093ED0701C08081FF91EF919F91E9
:102AC0008F912F910F900BBE0F900FBE0F901F9004
:102AD0001895009769F0FC0101900020E9F7319703
:102AE000AF01481B590BBC0184ED97E00C94121206
:102AF00080E090E00895FC014481558160817181FE
:102B000084ED97E00C941212CF93DF930E947B1513
:102B1000EC0181E693E00E9469158C0F9D1FDF9107
:102B2000CF910895CF93DF93EC016CE70E94DF1300
:102B3000811103C0CE010E94F313CE01DF91CF912A
:102B40000895CF93DF930E946915EC0181E693E02D
:102B50000E9469158C0F9D1FDF91CF910895CF932F
:102B600080911A09811162C0C1E0C0931A0982E9FB
:102B700098E00E9475137093260960932509C0930D
:102B80002709C093280980918B08882311F083E0DE
:102B900001C082E08093290920E239E088E998E0C9
:102BA00090932B0980932A098091180980932C090E
:102BB0008FE896E190932E0980932D092D9A10921B
:102BC000240910922F091092230910922209809152
:102BD000D2079091D30701969093D3078093D207A1
:102BE00080919A0790919B07009729F410922109F0
:102BF0001092200904C090932109809320093093FA
:102C00009B0720939A070E94DD0C0E9478090E947E
:102C1000710E0E9470110E94E10F0E94201163E664
:102C200073E082E998E0CF910C943914CF91089524
:102C30008F929F92AF92BF92CF92DF92EF92FF92CC
:102C40000F931F93CF93DF93B090890880918808EA
:102C50008170C82EA0908A080AE417E0E80188EE87
:102C6000E82E83E0F82ED12C90E8992E88248A94BF
:102C7000085F1F4FDB1409F1C7010E94A01C9A8353
:102C800089838881C0FA80F98883C70188519C4F65
:102C90000E94A01C9C838B83F8013397908231960D
:102CA000808298819F70906398833196A082D3949C
:102CB00084E0E80EF11C2896DBCFDF91CF911F91C5
:102CC0000F91FF90EF90DF90CF90BF90AF909F90CB
:102CD0008F9008953FB7F894809136099091370905
:102CE000A0913809B091390926B5A89B05C02F3F9E
:102CF00019F00196A11DB11D3FBFBA2FA92F982F22
:102D00008827820F911DA11DB11DBC01CD0142E09C
:102D1000660F771F881F991F4A95D1F708951F9353
:102D2000CF93DF93EC019F859031B9F038F4913067
:102D300091F060F09230C1F483E014C0903279F0E9
:102D4000913279F0913181F485E00CC081E080937B
:102D500019092C9A09C082E005C084E003C086E00E
:102D600001C087E08093190910921A09809119090E
:102D7000813001F581E993E00E94691510E08C85AE
:102D8000181788F4E091D407F091D507AA85BB8580
:102D9000A10FB11D0190F081E02D6C9184ED97E0C1
:102DA00019951F5FECCF81E693E0DF91CF911F91E2
:102DB0000C946915DF91CF911F9108958F929F9286
:102DC000AF92BF92CF92DF92EF92FF926B017C01A4
:102DD0000E946A164B015C01C114D104E104F104A4
:102DE000F1F00E946A16DC01CB0188199909AA0941
:102DF000BB09883E9340A105B10570F321E0C21ADA
:102E0000D108E108F10888EE880E83E0981EA11C25
:102E1000B11CC114D104E104F10419F7DDCFFF9016
:102E2000EF90DF90CF90BF90AF909F908F900895DC
:102E30002FB7F89460913209709133098091340969
:102E4000909135092FBF08951F920F920FB60F92E0
:102E500011242F933F938F939F93AF93BF938091B0
:102E6000320990913309A0913409B091350930911C
:102E7000310923E0230F2D3720F40196A11DB11D48
:102E800005C026E8230F0296A11DB11D209331092C
:102E90008093320990933309A0933409B093350994
:102EA0008091360990913709A0913809B09139097C
:102EB0000196A11DB11D8093360990933709A09307
:102EC0003809B0933909BF91AF919F918F913F918C
:102ED0002F910F900FBE0F901F901895CF93DF93F7
:102EE00000D01F92CDB7DEB7789484B5826084BDE0
:102EF00084B5816084BD85B5826085BD85B58160FE
:102F000085BD80916E00816080936E00109281007B
:102F10008091810082608093810080918100816036
:102F200080938100809180008160809380008091F7
:102F3000B10084608093B1008091B0008160809383
:102F4000B000809191008260809391008091910007
:102F500081608093910080919000816080939000C7
:102F60008091A10082608093A1008091A100816086
:102F70008093A1008091A00081608093A000809147
:102F800021018260809321018091210181608093E1
:102F900021018091200181608093200180917A003D
:102FA000846080937A0080917A00826080937A00B6
:102FB00080917A00816080937A0080917A008068A5
:102FC00080937A001092C10098E288E10FB6F894DD
:102FD000A895809360000FBE9093600089E00E94E6
:102FE00056138AE00E9456138FE00E9456138DE01C
:102FF0000E9456138EE00E9456138CE00E945613D6
:103000008BE00E945613E091E407F091E50782E01F
:103010008083E091E007F091E1071082E091E20700
:10302000F091E30781E080831092EC07E091E807DC
:10303000F091E90786E08083E091E607F091E707E9
:10304000808180618083E091E607F091E7078081CD
:1030500088608083E091E607F091E70780818068CF
:103060008083E091E607F091E70780818F7D808380
:103070008FEF90E00E94981C853A09F04BC085E8DC
:1030800090E00E94981C8093730884E890E00E946E
:10309000981C8093740882E890E00E94A01C909392
:1030A00076088093750886E990E00E94981C8093CA
:1030B000770887E990E00E94A01C909372088093A3
:1030C00071088EEF90E00E94981C182F809388085A
:1030D0008DEF90E00E94981C80938908113011F4C4
:1030E0000E94181606E810E0C8010E94981CF8011A
:1030F000EE50F84F80830F5F1F4F06391105A1F77F
:1031000080E1E8E7F8E0A2ECB7E001900D928A9543
:10311000E1F758C084E693E00E94A115609173081E
:1031200085E890E00E94A61C6091740884E890E015
:103130000E94A61C609175087091760882E890E064
:103140000E94B81C6091770886E990E00E94A61C56
:10315000609171087091720887E990E00E94B81C34
:1031600006E810E060E0C8010E94A61C0F5F1F4F38
:1031700006391105B9F708EE13E06FEFC8010E9498
:10318000A61C0F5F1F4F0C3424E01207B1F700EDAF
:1031900017E06FEFC8010E94A61C0F5F1F4F04339A
:1031A00038E01307B1F760E08DEF90E00E94A61CB5
:1031B00060E08EEF90E00E94A61C65EA8FEF90E041
:1031C0000E94A61C10921B0910929803109297035C
:1031D0008091390181608093390110929C03109293
:1031E0009B0381E090E090939A038093990388E099
:1031F0000E94BF0C8BEE8093560180914C01806839
:1032000080934C01809144018068809344018091B7
:103210006C01806F80936C01859A8D9A8091380142
:10322000837E886180933801809138018F71806C32
:10323000809338010E94A10D80936D010E94D40DEE
:103240000E94A10D0E94D40D87E793E00E94A11572
:1032500040917708809175082091760890917108C7
:103260003091720890939C0730939D079B833C8319
:10327000909360019C819093610180939E072093BD
:103280009F0789832A83809362018A8180936301E7
:10329000409396030E94860D81E080939C030E94D8
:1032A000CF0C80917308982F9F7080914501807F8B
:1032B000892B8093450180917408982F9370809199
:1032C0004C018C7F892B80934C0181EC96E090938C
:1032D000A5078093A4070BE811E00E94DD0C0E9473
:1032E00078090E94710E0E9470110E94E10F0E94E5
:1032F00020110E941817C0901C09D0901D09E09061
:103300001E09F0901F099B01AC012C193D094E09C3
:103310005F0969017A0139EEC31633E0D306E1048F
:10332000F10468F060931C0970931D0980931E09D5
:1033300090931F098AE893E00E94A115759A84ED85
:1033400097E00E946E12892B09F445C063E673E092
:1033500082E998E00E943914C8010197F1F784EDE1
:1033600097E00E944C12C82EC8010197F1F7F12C8A
:10337000E12C84ED97E00E946E12892BE1F084ED40
:1033800097E00E944C12D82EC8010197F1F74AE34A
:10339000D41641F0E11006C06D2D82E998E00E943C
:1033A000DF1302C0EE24E394EF2DF0E0EF58F74F67
:1033B000D7A2F394DECFF0921809C8010197F1F774
:1033C0005CE6C51203C00E94AF1505C083E7C812B2
:1033D00002C00E942D01A8952C982D980E941817C4
:1033E000C090A103D090A203E090A303F090A403A7
:1033F000DC01CB018C199D09AE09BF098739910504
:10340000A105B10560F02C982D980E9418176093C3
:10341000A1037093A2038093A3039093A4030E943B
:103420001817C0909D03D0909E03E0909F03F090EA
:10343000A003DC01CB018C199D09AE09BF098132C3
:103440009340A105B10578F07598739874982F98FA
:103450002E980E94181760939D0370939E0380938B
:103460009F039093A0030E940E1337CFE4EDF7E083
:103470001382128288EE93E0A0E0B0E0848395830B
:10348000A683B78381E192E09183808385EC90E00D
:103490009587848784EC90E09787868780EC90E01E
:1034A000918B808B81EC90E0938B828B82EC90E00F
:1034B000958B848B86EC90E0978B868B118E128E89
:1034C000138E148EE1E7F8E011821082128282E0FE
:1034D000838381E090E0958384838AE18683178AE1
:1034E000108E83E0818F81E0828F6CE873E08CE83E
:1034F00098E00E94AE1463E673E082E998E00E94CF
:10350000AE141092180910921B0910921C09109207
:103510001D0910921E0910921F09089582E998E072
:103520000E9450148CE898E00C9450148F929F9253
:10353000AF92BF92CF92DF92EF92FF92CF93DF9341
:10354000EC01688179818A819B8161157105810512
:10355000910521F464E279ED8BE597E02DE133EFFD
:1035600041E050E00E94001D49015A019B01AC015D
:10357000A7EAB1E40E941F1D6B017C01ACEEB4EF21
:10358000A50194010E942D1DDC01CB018C0D9D1D18
:10359000AE1DBF1DB7FF03C00197A109B0488883C6
:1035A0009983AA83BB839F77DF91CF91FF90EF90A0
:1035B000DF90CF90BF90AF909F908F9008950C9424
:1035C000961A80E092E00C94961AA0E0B0E0809306
:1035D000000290930102A0930202B09303020895A7
:1035E0002F923F924F925F926F927F928F929F9213
:1035F000AF92BF92CF92DF92EF92FF920F931F9301
:10360000CF93DF935C016B017A016115710519F0AD
:10361000FB0191838083E114F10429F0C701029733
:10362000839708F0F1C0E5012196F5011081812F03
:1036300090E00E94421C892B11F05E01F4CF1D32F4
:1036400029F42196F501118101E007C01B3221F414
:10365000E5012296F501118100E0E114F10459F130
:10366000F0E1EF16F10461F41033E1F488818F7D0D
:10367000883569F519812296026070E1E72EF12CF8
:1036800088E0E816F10439F12CF4F2E0EF16F104C9
:10369000C9F12AC08AE0E816F10479F0E0E1EE16FB
:1036A000F10411F550E1E52EF12C812C912CA12C87
:1036B00068E0B62E2CC01033C9F23AE0E32EF12CAC
:1036C0004CEC842E982CA82C4CE0B42E20C010E397
:1036D000E114F104A9F698E0E92EF12C812C912C4B
:1036E000A12C20E1B22E13C060E070E080E090E8F1
:1036F00097010F2C000C440B550B0E94DE1C490156
:103700005A0105C0812C912CA12C80E4B82E60E0D8
:1037100020E030E0A90127010F2C000C6608770893
:103720001E01E0EDE10FEA3060F08FEB810F8A318E
:1037300010F4E9EC05C08FE9810F8A3128F5E9EA38
:10374000E10F8E2F90E08E159F05F4F467FD18C0F1
:1037500082169306A406B50690F0C301B2010E943A
:10376000CE1C9B01AC012E0F311D411D511D21307E
:1037700031054105F0E85F0710F461E001C06FEF2B
:103780002196F1011081CCCF802F8170C114D1041A
:1037900071F0662329F02197F601D183C08307C019
:1037A00001FF19C02297F601D183C08314C067FFBF
:1037B00012C0811105C02FEF3FEF4FEF5FE704C04C
:1037C00020E030E040E050E882E290E090933B0956
:1037D00080933A0916C0882341F050954095309562
:1037E00021953F4F4F4F5F4F0CC057FF0AC082E2F9
:1037F00090E090933B0980933A092FEF3FEF4FEF12
:103800005FE7B901CA0104C060E070E080E090E0C9
:10381000DF91CF911F910F91FF90EF90DF90CF90AC
:10382000BF90AF909F908F907F906F905F904F90E0
:103830003F902F9008951F93FC0199278827BC0182
:10384000E89411911032E9F3193010F01E30C8F3EA
:103850001B3251F01D3249F4689406C00E944B1C83
:10386000610F711D811D911D119110531A30B0F31C
:103870003EF490958095709561957F4F8F4F9F4F47
:103880001F91089591110C94851C803219F0895074
:103890008550C8F70895592F482F372F262F660FC8
:1038A000771F881F991F660F771F881F991F620F48
:1038B000731F841F951F660F771F881F991F089518
:1038C0004532510520F4423010F00C946B1CFB0182
:1038D0001082CB010895BB27FB015527AA27880F2B
:1038E000991FAA1FA41710F0A41B83955051B9F774
:1038F000A05DAA3308F0A95DA193009779F7B111F3
:10390000B1931192CB010C94881C992788270895B4
:10391000DC01FC01672F71917723E1F7329704C036
:103920007C916D9370836291AE17BF07C8F30895C1
:10393000F999FECF92BD81BDF89A992780B5089577
:10394000A8E1B0E042E050E00C94C01C262FF999A9
:10395000FECF92BD81BDF89A019700B4021639F0EE
:103960001FBA20BD0FB6F894FA9AF99A0FBE0895BF
:103970000196272F0E94A71C0C94A61CDC01CB01EA
:10398000FC01F999FECF06C0F2BDE1BDF89A31966F
:1039900000B40D9241505040B8F70895DB018F9369
:1039A0009F930E941F1DBF91AF91A29F800D911DFB
:1039B000A39F900DB29F900D11240895A1E21A2E9D
:1039C000AA1BBB1BFD010DC0AA1FBB1FEE1FFF1FC3
:1039D000A217B307E407F50720F0A21BB30BE40B13
:1039E000F50B661F771F881F991F1A9469F760955A
:1039F0007095809590959B01AC01BD01CF01089514
:103A0000052E97FB1EF400940E94171D57FD07D04A
:103A10000E94DE1C07FC03D04EF40C94171D509539
:103A20004095309521953F4F4F4F5F4F08959095AA
:103A30008095709561957F4F8F4F9F4F08950E949D
:103A4000321DA59F900DB49F900DA49F800D911DD8
:103A500011240895B7FF0C941F1D0E941F1D821B87
:103A6000930B0895A29FB001B39FC001A39F700D57
:103A7000811D1124911DB29F700D811D1124911D76
:103A80000895EE0FFF1F881F8BBF0790F691E02D62
:103A90001994CF93DF938230910510F482E090E087
:103AA000E0913E09F0913F0920E030E0C0E0D0E035
:103AB000309711F14081518148175907C0F04817DC
:103AC000590761F482819381209719F09B838A833F
:103AD0002BC090933F0980933E0926C021153105E4
:103AE00019F04217530718F49A01BE01DF01EF01E4
:103AF0000280F381E02DDCCF2115310509F1281B6F
:103B0000390B2430310590F412968D919C911397C6
:103B10006115710521F0FB019383828304C09093AA
:103B20003F0980933E09FD01329644C0FD01E20F3A
:103B3000F31F81939193225031092D933C933AC006
:103B400020913C0930913D09232B41F4209106023C
:103B50003091070230933D0920933C0920910402E3
:103B6000309105022115310541F42DB73EB7409142
:103B7000080250910902241B350BE0913C09F09199
:103B80003D09E217F307A0F42E1B3F0B2817390756
:103B900078F0AC014E5F5F4F2417350748F04E0FA9
:103BA0005F1F50933D0940933C098193919302C05C
:103BB000E0E0F0E0CF01DF91CF9108950F931F93E4
:103BC000CF93DF93009709F48CC0FC0132971382E6
:103BD000128200913E0910913F090115110581F4EF
:103BE00020813181820F931F20913C0930913D0942
:103BF0002817390779F5F0933D09E0933C0971C026
:103C0000D80140E050E0AE17BF0750F412962D9156
:103C10003C911397AD012115310509F1D901F3CF7D
:103C20009D01DA013383228360817181860F971FA2
:103C30008217930769F4EC0128813981260F371F19
:103C40002E5F3F4F318320838A819B8193838283C0
:103C5000452B29F4F0933F09E0933E0942C01396A7
:103C6000FC93EE931297ED01499159919E01240F17
:103C7000351FE217F30771F480819181840F951F3E
:103C8000029611969C938E938281938113969C93B6
:103C90008E931297E0E0F0E0D80112968D919C91FE
:103CA0001397009719F0F8018C01F6CF8D919C9134
:103CB00098012E5F3F4F820F931F20913C09309156
:103CC0003D092817390769F4309729F410923F0904
:103CD00010923E0902C01382128210933D09009394
:103CE0003C09DF91CF911F910F9108956F927F92C0
:103CF0008F929F92AF92BF92CF92DF92EF92FF92FC
:103D00000F931F93CF93DF93EC01009789F4CB01BE
:103D1000DF91CF911F910F91FF90EF90DF90CF90A7
:103D2000BF90AF909F908F907F906F900C94491DA3
:103D3000FC01E60FF71F9C0122503109E217F3073F
:103D400008F4ACC0D9010D911C9111970617170703
:103D5000B0F00530110508F49FC0C801049786171C
:103D6000970708F499C002501109061B170B01931D
:103D700011936D937C93CF010E94DE1D8DC05B017A
:103D8000A01AB10A4C01800E911EA0913E09B0917B
:103D90003F0940E050E0E12CF12C109709F44AC0B3
:103DA000A815B905D1F56D907C901197630182E05B
:103DB000C80ED11CCA14DB0480F1A3014A195B09A7
:103DC0006A0182E0C80ED11C1296BC90129713961D
:103DD000AC91B5E0CB16D10440F0B282A3835183FD
:103DE0004083D9016D937C930AC00E5F1F4FC301BE
:103DF000800F911FF90191838083EB2DFA2FE1143D
:103E0000F10431F0D7011396FC93EE93129744C05E
:103E1000F0933F09E0933E093FC08D919C9111972B
:103E20004817590708F4AC017D0112960D90BC911A
:103E3000A02DB3CF80913C0990913D09881599053B
:103E4000E1F446175707C8F48091040290910502E7
:103E5000009741F48DB79EB7409108025091090236
:103E6000841B950BE817F907C8F4F0933D09E0931C
:103E70003C09F901718360830FC0CB010E94491D89
:103E80007C01009759F0A801BE010E94641FCE0179
:103E90000E94DE1DC70104C0CE0102C080E090E098
:103EA000DF91CF911F910F91FF90EF90DF90CF9016
:103EB000BF90AF909F908F907F906F90089581E01A
:103EC00090E0F8940C947D1FFB01DC0102C001908E
:103ED0000D9241505040D8F70895FB01DC018D91BF
:103EE000019080190110D9F3990B0895FB01DC01B1
:103EF00001900D920020E1F7089510E0C9EFD0E0A5
:103F000000E006C0802FFE010E94411D2196011D88
:0E3F1000CA3FD10780E00807A9F7F894FFCF59
:103F1E000100000000004009800000202100000088
:103F2E00009B1212123D12E2126E124C12601270AF
:103F3E00616E496400616C6C696E666F003A7570F3
:103F4E00646174653A616C6C696E666F3A00496EB5
:103F5E0076696F206C276869003635353335007207
:103F6E0066636800616464720074787077720064CE
:103F7E007261746500736574707377007365747223
:103F8E006F75746500666163746F727900696E6631
:103F9E006F6C776D0056657273696F6E204669722D
:103FAE006D77617265203D006170704C776D5F506A
:103FBE006F776572526620006170704C776D5F444A
:103FCE006174615261746520006170704C776D5F31
:103FDE0050616E496420006170704C776D5F52665F
:103FEE004368616E6E656C20006170704C776D5F1A
:103FFE005365727665724E6F646520004170696F0D
:10400E002E6170704C776D5F5461626C654E754DAC
:10401E00617820004170696F2E6170704C776D5F12
:10402E0046697865645461626C6520004170696F01
:10403E002E6170704C776D5F50617373776F726421
:10404E002000526F7574655461626C6520646573EF
:10405E0074696E6174696F6E203A206E657874486B
:10406E006F7000203A2000202D2D2D200061636BF3
:10407E00000D0A0046616363696F20496E697446DC
:10408E006163746F727900434F4F5244494E4154ED
:10409E004F5220414354495645006300312E303172
:0640AE00006F6B3A0000F8
:00000001FF
