:100000000C94FA000C942B010C942B010C942B01F2
:100010000C942B010C942B010C942B010C942B01B0
:100020000C942B010C942B010C942B010C942B01A0
:100030000C942B010C942B010C942B010C942B0190
:100040000C942B010C942B010C942B010C942B0180
:100050000C942B010C942B010C942B010C94A615E1
:100060000C942B010C942A150C9400150C942B0164
:100070000C942B010C942B010C942B010C942B0150
:100080000C942B010C942B010C942B010C942B0140
:100090000C942B010C942B010C942B010C942B0130
:1000A0000C942B010C942B010C942B010C942B0120
:1000B0000C942B010C942B010C942B010C942B0110
:1000C0000C942B010C942B010C942B010C942B0100
:1000D0000C942B010C942B010C942B010C942B01F0
:1000E0000C942B010C942B010C942B010C942B01E0
:1000F0000C942B010C942B010C942B010C942B01D0
:100100000C942B010C942B010C942B010C942B01BF
:100110000C942B010C942B010C942B010C942B01AF
:100120000C942B010C942B010C942B010C942B019F
:100130000C942B010C944B120C94C7060C94B41124
:100140000C9492120C9414120C941D130C943C1ADF
:100150000C94B4080C94441A0C94F2110C94D80723
:100160000C94E3110C947F070C9406120C94A907CD
:100170000C94190800000000250000002B002E0040
:10018000310034000000000000000000000000000A
:100190000000240000002A002D0030003300000081
:1001A000000000000000000004040404040404042F
:1001B00002020202020505050505050706060606F8
:1001C00006060606020202070707050501020408E3
:1001D0001020408001102040800810204080042022
:1001E00001020408102040800204080102040102F8
:1001F000441A3C1A11241FBECFEFD1E8DEBFCDBF99
:1002000000E00CBF13E0A0E0B2E0EAE2FFE300E0B0
:100210000BBF02C007900D92A639B107D9F729E0AC
:10022000A6E9B3E001C01D92A034B207E1F710E0E7
:10023000C9EFD0E000E006C021970109802FFE0140
:100240000E94471DC83FD10780E00807A9F70E9418
:1002500074170C94831F0C940000CF92DF92EF92DE
:10026000FF920F931F93CF93DF93CDB7DEB7C65C9A
:10027000D1400FB6F894DEBF0FBECDBF63E673E08A
:10028000CE018F539E4F0E94A51463E673E0CE010A
:1002900085549E4F0E94A51400E010E08091210932
:1002A000181720F5E12FF0E0E658F74F87A18A33C1
:1002B00011F40F5F1F5F013049F4E12FF0E0E658C1
:1002C000F74F67A1CE018F539E4F0CC0023061F4EF
:1002D000E12FF0E0E658F74F67A16D3229F0CE012B
:1002E00085549E4F0E94D6131F5FD8CFCE018F53E7
:1002F0009E4F0E9438176FE172E0CE018F539E4FE0
:100300000E948913882351F163E673E0CE0185547E
:100310009E4F0E94891381111AC5CE0185549E4FAC
:100320000E946C139B0170937F0860937E0870930A
:10033000A8076093A707C753DF4F79836883C95C19
:10034000D04060936201C653DF4F9881CA5CD040B1
:1003500090936301B90182E890E071C165E272E0B7
:10036000CE018F539E4F0E948913882309F4ECC05D
:1003700063E673E0CE018B549E4F0E94A51401E802
:1003800018E0D8016D918D0140E1CE0101960E94E7
:1003900078144D815E8169817A81CE018B549E4FA4
:1003A0000E94A813CE0101960E944714B8E00139BB
:1003B0001B0739F74AE060919108CE0181559E4FA5
:1003C0000E9478144AE060919208CE0187559E4FB2
:1003D0000E9478144AE060917D08CE018D559E4FB1
:1003E0000E9478144AE060917C08CE0183569E4FAB
:1003F0000E9478144AE060918008CE0189569E4F91
:100400000E94781460917E0870917F084AE0CE01C6
:100410008F569E4F0E944C1460917A0870917B0811
:100420004AE0CE0101960E944C14C753DF4F198257
:100430001882C95CD040C553DF4F19821882CB5C4B
:10044000D040C353DF4F19821882CD5CD040698100
:100450007A816115710539F04D815E81CE01875336
:100460009F4F0E940F1440E150E06DE272E0CE0118
:1004700087539F4F0E94A813882309F482C4BE01AA
:100480006F567E4FCE0187539F4F0E94FC130E94F0
:100490004617BE0169567E4F0E94FC130E94461704
:1004A000BE0163567E4F0E94FC130E944617BE0198
:1004B0006D557E4F0E94FC130E94461765E978E057
:1004C0000E94FC130E944617BE0167557E4F0E9492
:1004D000FC130E944617BE0161557E4F0E94FC131B
:1004E0000E944617BE016B547E4F0E94FC130E946F
:1004F0003817CE0187539F4F0E944714CE010196B3
:100500000E944714CE018F569E4F0E944714CE0181
:1005100089569E4F0E944714CE0183569E4F0E94DB
:100520004714CE018D559E4F0E944714CE0187552A
:100530009E4F0E944714CE0181559E4F0E94471442
:10054000CE018B549E4F09C266E472E0CE018F53F8
:100550009E4F0E948913882389F18EE392E00E94C6
:10056000211769E472E08BE998E00E94301486E379
:100570008093A10885E38093A2088093A30893E366
:100580009093A4088093A5088AE38093A60898E630
:100590009093A70899E69093A8088093A9088DE600
:1005A0008093AA088DE28093AB088BE080932109A9
:1005B00081E0809324090E946616C9C36FE472E04B
:1005C000CE018F539E4F0E9489138823A9F0CE013C
:1005D00085549E4F0E946C136093800885EF860FB0
:1005E000803108F0B4C3609396030E94310A609191
:1005F000800886E990E043C064E572E0CE018F5345
:100600009E4F0E9489138823E9F0CE0185549E4FA6
:100610000E946C1370937B0860937A087093A8070C
:100620006093A7077A836983609362018A818093CC
:10063000630160917A0870917B0887E990E00E94DD
:10064000BE1C85C369E572E0CE018F539E4F0E94A8
:1006500089138823B9F0CE0185549E4F0E946C13F4
:1006600060937C08603108F072C3962F9F70809170
:100670004501807F892B8093450185E890E00E94A9
:10068000AC1C65C36FE572E0CE018F539E4F0E9494
:1006900089138823A9F0CE0185549E4F0E946C13C4
:1006A00060937D08643008F052C3962F9370809158
:1006B0004C018C7F892B80934C0184E890E0DFCF44
:1006C00065E672E0CE018F539E4F0E948913882306
:1006D00009F450C0C154DE4F88819981CF5BD1406D
:1006E000809709F034C300E010E098012F5F3F4F7E
:1006F000A801BE0165547E4FCE0187539F4F0E94D3
:10070000BA1440E150E060E070E0C753DF4F8881E9
:100710009981C95CD0400E94F61A802F8695E1E04D
:10072000F0E0EC0FFD1FE80FF11D6083CE01875351
:100730009F4F0E9447140E5F1F4F00321105A9F60C
:100740008E010F5F1F4FB6E8EB2EF12C80E1C82E13
:10075000C00EF801D1908F016D2DC7010E94AC1C15
:10076000F701E550F84FD082FFEFEF1AFF0AC012F1
:10077000F0CFEDC26CE672E0CE018F539E4F0E9427
:100780008913882309F4ECC0C154DE4FE880CF5BA5
:10079000D140C054DE4F5881C05CD140C956DE4FB5
:1007A00019821882C759D140C756DE4F1982188264
:1007B000C959D140C556DE4F19821882CB59D14054
:1007C000C554DE4F68817981CB5BD14061157105DD
:1007D00031F04E2DCE0189569E4F0E940F148E2D62
:1007E0008695869580939208FE2CF694D12C4D2DFB
:1007F000440F4F1588F550E09A012E5F3F4FBE0120
:1008000065547E4FCE0187539F4F0E94BA1460E01B
:1008100070E0CE0187539F4F0E947713DC010C914B
:1008200010E0102F002761E070E0CE0187539F4F4A
:100830000E947713FE013196ED0DF11DED0DF11DB6
:10084000DC018C91082B11830083D394CE01875354
:100850009F4F0E944714CBCFD12CFE14A8F54F2DEB
:1008600050E09A012E5F3F4FBE0165547E4FCE018E
:100870008F569E4F0E94BA1460E070E0CE018F56F2
:100880009E4F0E947713FC01008110E0102F00277B
:1008900061E070E0CE018F569E4F0E947713FE01FB
:1008A000E753FF4FED0DF11DED0DF11DDC018C91B6
:1008B000082B11830083D394CE018F569E4F0E9444
:1008C0004714F394F394C9CF10E08091920818175D
:1008D000B8F4812F90E0FC01EE0FFF1F21E030E023
:1008E0002C0F3D1FE20FF31F60817181880F991F4C
:1008F000880F991F88519C4F0E94BE1C1F5FE5CF37
:1009000010E0609192081617B8F4812F90E0FC0176
:10091000EE0FFF1FA9ECB0E0AC0FBD1FEA0FFB1FED
:1009200060817181880F991F880F991F8053984F9C
:100930000E94BE1C1F5FE5CF8DEF90E00E94AC1CB3
:1009400081E08093910861E08EEF90E00E94AC1C02
:100950000E94CF16CE0189569E4F0E944714F7C1C0
:1009600065E772E0CE018F539E4F0E948913882362
:1009700009F459C06FEF8FEF90E00E94AC1C68EE55
:1009800073E080E090E00E9460152C982D98759897
:10099000739874982F982E98759A64E670E080E0AA
:1009A00090E00E946015759864E670E080E090E049
:1009B0000E946015739A64E670E080E090E00E9407
:1009C0006015739864E670E080E090E00E94601526
:1009D000749A64E670E080E090E00E94601574987C
:1009E00064E670E080E090E00E9460152F9A64E673
:1009F00070E080E090E00E9460152F9864E670E05F
:100A000080E090E00E9460152E9A64E670E080E03D
:100A100090E00E9460152E9864E670E080E090E01F
:100A20000E946015B9CF6DE772E0CE018F539E4FE3
:100A30000E948913882309F432C165E872E0CE016F
:100A400001960E94A51465E978E0CE0101960E9406
:100A5000FC130E943817CE0101960E9447144AE009
:100A600060917C08CE0187539F4F0E94781468E9FB
:100A700072E0CE0101960E94A514BE0167537F4F1C
:100A8000CE0101960E94FC130E943817CE010196F8
:100A90000E944714CE0187539F4F0E9447144AE09B
:100AA00060917D08CE0187539F4F0E94781468EAB9
:100AB00072E0CE0101960E94A514BE0167537F4FDC
:100AC000CE0101960E94FC130E943817CE010196B8
:100AD0000E944714CE0187539F4F0E944714609194
:100AE0007E0870917F084AE0CE0187539F4F0E9495
:100AF0004C1469EB72E0CE0101960E94A514BE0170
:100B000067537F4FCE0101960E94FC130E94381755
:100B1000CE0101960E944714CE0187539F4F0E9439
:100B200047144AE060918008CE0187539F4F0E948E
:100B3000781467EC72E0CE0101960E94A514BE0104
:100B400067537F4FCE0101960E94FC130E94381715
:100B5000CE0101960E944714CE0187539F4F0E94F9
:100B6000471460917A0870917B084AE0CE01875360
:100B70009F4F0E944C1469ED72E0CE0101960E94D5
:100B8000A514BE0167537F4FCE0101960E94FC134E
:100B90000E943817CE0101960E944714CE01875358
:100BA0009F4F0E9447144AE060919208CE018753FC
:100BB0009F4F0E9478146CEE72E0CE0101960E9465
:100BC000A514BE0167537F4FCE0101960E94FC130E
:100BD0000E943817CE0101960E944714CE01875318
:100BE0009F4F0E9447144AE060919108CE018753BD
:100BF0009F4F0E94781464E073E0CE0101960E943A
:100C0000A514BE0167537F4FCE0101960E94FC13CD
:100C10000E943817CE0101960E944714CE018753D7
:100C20009F4F0E9447148CE193E00E94541601E804
:100C300018E030E1F32EF00EF80141918F0150E001
:100C400060E070E019A2FE01B196DB01CA018F706D
:100C50009927AA27BB2724E076956795579547954E
:100C60002A95D1F731978A309105A105B10510F485
:100C7000805D01C0895C8083411551056105710566
:100C800021F7CF010E9454168EE893E00E9454167B
:100C9000F012D2CF83E693E00E94211758C06FE68E
:100CA00072E0CE018F539E4F0E9489138823E9F191
:100CB00082E393E00E94211710E0809192081817B8
:100CC00048F7F8E01F9FC00111249C012D5A384FAE
:100CD0007901D90111966D917C9112974AE0CE016C
:100CE00001960E944C14CE0101960E942F17CE014E
:100CF00001960E94471483E593E00E945416F70181
:100D0000638174814AE0CE0101960E944C14CE01A9
:100D100001960E942F17CE0101960E94471487E585
:100D200093E00E9421171F5FC8CF6DE573E0CE01ED
:100D30008F539E4F0E948913882349F0CE0185541A
:100D40009E4F0E946C13623010F460939408CE01A1
:100D500085549E4F0E944714CE018F539E4F0E9490
:100D60004714CA53DE4F0FB6F894DEBF0FBECDBF97
:100D7000DF91CF911F910F91FF90EF90DF90CF9077
:100D80000895CE0187539F4F0E94EA1378CB0F93AB
:100D90001F93CF938C012C9AC0E0F8018185C8176E
:100DA00098F48091DD079091DE07F801A781B08566
:100DB000AC0FB11DFC01208131816C918DED97E06C
:100DC000F9011995CF5FE9CF81E693E00E945416AF
:100DD000F8012385822F022E000C990B97FF03C088
:100DE00091958195910988349105BCF437E4320FCF
:100DF0003F3818F4863391057CF435E3320F3B36E7
:100E000018F4843291053CF42D5D273410F4429798
:100E10000CF4759A739A749A2F9A2E9A81E0CF9156
:100E20001F910F9108950F931F93CF93DF93FC01B0
:100E30008091970390919803B681A7813085218591
:100E40000097F1F14B2F5A2F632F722FDC01D0E066
:100E5000C0E012960D911D912D913C911597401770
:100E600051076207730768F4041B150B260B370B39
:100E700012960D931D932D933C931597AD2FBC2F78
:100E80000EC0401B510B620B730B2D913C911197BF
:100E9000DA2FCB2F2115310511F0D901DACF42839A
:100EA000538364837583109741F08D919C911197C2
:100EB00091838083ED93FC930DC09183808306C062
:100EC00011821082B283A38334832583F093980325
:100ED000E0939703DF91CF911F910F910895E091D7
:100EE0009703F0919803309739F0E817F90731F03C
:100EF0000190F081E02DF7CF0C9413070895AC0119
:100F0000E4E6F6E020E09081992319F09150908377
:100F100021E0359686E0E639F807A9F7222319F093
:100F2000CA010C946F070895009711F0FC0103C0EB
:100F3000E5EAF3E002C0E757FF4F86E0E235F80745
:100F400028F480818823B9F3CF01089580E090E0F0
:100F500008950F931F93CF93DF938C01C0E0E0E0DF
:100F6000F0E0D3E1CF010E949407FC01892B91F0BE
:100F700080818131B9F7DF01AC57BF4F2D913C9192
:100F80001197215031092D933C93232B09F4D083E1
:100F9000C1E0E8CFCC2339F0C801DF91CF911F9198
:100FA0000F910C946F07DF91CF911F910F910895CE
:100FB000FF920F931F93CF93DF938C01C0E0E0E08B
:100FC000F0E0D7E180E1F82ECF010E949407FC0108
:100FD000892BA9F080818631B9F7DF01AC57BF4F6B
:100FE0002D913C9111972150310911963C932E93EC
:100FF000232B19F4D0831197FC92C1E0E5CFCC23C9
:1010000041F0C801DF91CF911F910F91FF900C9497
:101010006F07DF91CF911F910F91FF900895FC0111
:101020001082E5EAF7E086A997A9019797AB86AB0E
:101030000895E091A307F091A4073097A1F02281D1
:1010400033812817390759F4DC01AD57BF4F2C9174
:10105000278713962C91208B22E0248304C00190D3
:10106000F081E02DEACF0C940F08FF920F931F93AD
:10107000CF93DF93EC01FC01EA57FF4F808181FFA2
:1010800002C092E104C09B8591FFFBCF90E1988361
:10109000FE01ED57FF4F108280FF03C02FEF3FEF9F
:1010A00004C02091A7073091A8073E832D83857047
:1010B00051F50F8518890F3F2FEF120709F1FB84B7
:1010C000F2FC1EC0F3FAFF24F0F86F2DC8010E9455
:1010D0001316009721F0FC010381148111C00E94B6
:1010E000F015FC0112830183148303838081F0FADD
:1010F00081F98F708063808380E885838FEF86839A
:1011000018870F8304C08F85988998878F83809173
:10111000A5079091A6079A8789878091AA078F5F74
:101120008093AA078C838F8198858E010C571F4F5F
:10113000019669F481E498E89B838A830E94E71A08
:10114000877099270196F8019183808307C081E613
:1011500098E89B838A83F80111821082DF91CF91F6
:101160001F910F91FF900895CF93DF93FC0126818B
:1011700021FF2BC02185222341F1C781D0858881A1
:10118000882319F08130C1F020C02330F1F480E0D1
:1011900090E00E9494070097C1F0FC012081263165
:1011A000C1F7348529813213F4CF27E120832A81C6
:1011B000EA57FF4F208307C0263039F46D818B81B9
:1011C0009C810E94461681E001C080E0DF91CF91B2
:1011D0000895E5EAF3E080E090E02081211121C04C
:1011E00049E8489F9001499F300D1124C9018B5552
:1011F0009C4FFC0111924A95E9F740E1FC014183C3
:10120000EF57FF4F29543C4F318320832091DB0758
:101210003091DC072F5F3F4F3093DC072093DB07D3
:1012200008950196E757FF4F85309105B1F680E0AC
:1012300090E00895CF92DF92EF92FF92CF93DF93E9
:101240000E949A15C0914707CC2ED12CE12CF12C8D
:101250006C157D058E059F05B1F10E949A15C62E6D
:10126000CC1AD12CE12CF12C60934707C091970345
:10127000D0919803209739F18A819B81AC81BD81FF
:10128000C816D906EA06FB06B0F0C81AD90AEA0A57
:10129000FB0A8881998190939803809397038A85AC
:1012A0009B85019719F4CE010E941307EC85FD85FB
:1012B000CE011995DBCF8C199D09AE09BF098A8330
:1012C0009B83AC83BD83DF91CF91FF90EF90DF9044
:1012D000CF90089593E090934201909141019F71C6
:1012E0009830D9F780934201909141019F71891301
:1012F000FBCF089588E00E946A098FEF80934F0129
:1013000080919C03882319F086E10C946A09089562
:101310001F93CF93DF938091990390919A03029743
:1013200009F49BC080914F0183FF51C040917B0124
:1013300050E0242F30E0852F90E02817390754F033
:10134000FC01E058FE4F6081FC01E953F94F6083D6
:101350005F5FF1CFF901E953F94F1081D091470157
:101360008091C8068838F1F48091C7068F7D81345A
:10137000C9F4CEEFC40FC031A8F00E94E90800976D
:1013800089F020E2FC012083C183ED57FF4F1083D9
:101390003196DA55D0834C2F50E067EC76E0029618
:1013A0000E946A1F809141018F718631D9F7809127
:1013B0004F01886080934F0180914C018F7780931B
:1013C0004C0180914C01806880934C0146C0809113
:1013D0004F0186FF42C0809141018F718931C1F573
:1013E000E0914201CE2FC295C695C77049F0C33037
:1013F00021F0C53021F0C3E003C0C1E001C0C2E06C
:101400000E947A0981E090E090939A038093990377
:10141000A091C506B091C606C33031F0EC2FF0E0C4
:10142000E65FFD4F808101C081E0FD01ED57FF4F78
:10143000808385E18C931092C6061092C506809138
:10144000DB079091DC0701979093DC078093DB0723
:1014500080914F01806480934F01DF91CF911F9164
:10146000089580919B03982F9F7080915401807FF5
:10147000892B8093540190919B038091960399232B
:1014800019F08093530108958F7190914801907ED7
:10149000892B8093480108950F931F93CF93DF9377
:1014A0001092560186E00E946A09C0E0D0E000E098
:1014B00010E061E070E080E090E00E946015209113
:1014C000460122952695237030E00C2E02C0220F93
:1014D000331F0A94E2F7022B132B2296C031D10559
:1014E00041F788E00E946A098BEE809356010E94C2
:1014F0007A09C801DF91CF911F910F9108952F9222
:101500003F925F926F927F928F929F92AF92BF9223
:10151000CF92DF92EF92FF920F931F93CF93DF93BF
:10152000C0E0D0E074E1572ECC24CA94E3E0AE2EA4
:10153000B12CF2E0DF2EA7E18A2EB6E16B2E05E199
:1015400010E0EE24EA94FE2C90E3792ECE010E9466
:101550009407EC01892B09F430C18881833119F19A
:1015600028F4803151F0823179F0F0CF853109F4DF
:101570004BC0873109F465C0E9CF78828091A80615
:101580008F5F8093A806E2CFFE01EC57FF4F80816A
:101590009181892B29F081E1888387EB96E04CC00B
:1015A00083E18883D3CF8091C5069091C606892BAD
:1015B00069F6D093C606C093C5065882998089E122
:1015C0000E946A09C0924F0182E0890D80938001D8
:1015D000CE010296FC01A1E8B1E02E2F281B2915AF
:1015E00018F421912D93F9CFB0929A03A092990308
:1015F000D09242018091DB079091DC070196909395
:10160000DC078093DB07A2CFFE01ED57FF4F8081FF
:10161000811115C02D853E858091A5079091A60763
:101620002817390761F48B8580FF09C068823196DD
:101630001183008389EA96E00E946F0787CF888232
:1016400085CF8F8598898F3F2FEF920709F4A7C028
:101650006B8563FB662760F90E941316FC01DE01AF
:10166000AD57BF4F892B19F0808180FF70C08C91DE
:10167000811104C080919308878391C08781815034
:10168000878381118CC02091920830E08181928102
:10169000D90153E0AA0FBB1F5A95E1F7AD5AB84FD5
:1016A00012969C938E9311974C91838194811496FA
:1016B0009C938E9313971596DC9215971696CC9261
:1016C0001697842F8E7081628C9390909308179652
:1016D0009C928091480790E0FC0163E0EE0FFF1FB1
:1016E0006A95E1F7ED5AF84F3896821793070CF098
:1016F00056C041815281DF0117974D935C93DC0105
:1017000043E0AA0FBB1F4A95E1F7AD014D5A584F70
:101710001A01DA014C9141604C9363817481AF01ED
:1017200045505109DA016D937C934E5F5F4FDA01AA
:10173000DC924F5F5F4FDA01CC92D1014C914F7038
:1017400040624C93DF0111979C920196CDCF2C9172
:10175000982F9F70211113C09063908385818F5FB4
:1017600085838F3FE1F4E8E5F7E0808186958F5F20
:1017700080833896B7E0E83AFB07B9F710C0829546
:101780008F70815F8F70282F2295207F922B9083FE
:10179000811105C090FD03C0F282E1821582FE0135
:1017A000E957FF4F0190F081E02DCE01309719F4F9
:1017B0000E940F08CBCE1995C9CEDF91CF911F9112
:1017C0000F91FF90EF90DF90CF90BF90AF909F90E0
:1017D0008F907F906F905F903F902F9008950F9320
:1017E0001F93CF93DF938091A806882309F431C11A
:1017F000E091A606F091A706309709F4BAC090814F
:10180000943309F059C090919406DF01AF57BF4F50
:101810000D90BC91A02DA90FB11D00919A061091B9
:101820009B0620919C0630919D0640919606509112
:101830009706609198067091990640275127622774
:10184000732700919E0610919F062091A00630916B
:10185000A10640275127622773270091A206109105
:10186000A3062091A4063091A506402751276227A0
:10187000732790919306992351F04D935D936D9347
:101880007C93139791819C5F918392E10CC00D91A1
:101890001D912D913C91401751076207730711F478
:1018A00092E201C094E290831092A7061092A606DD
:1018B00081508093A806CDC0923309F0CAC083E35B
:1018C0008083EBECF7E080E18E0F919190933F01E4
:1018D0008E13FBCF10923C01E6E9F6E0DF014E2FBC
:1018E00090E19E0F8D9180933E019A13FBCF8091E2
:1018F0003C01806880933C0180913D0180FFFCCFDA
:10190000A6E9B6E080913E018D939A13FBCFC0917A
:10191000A606D091A7063091940690919506292F9E
:10192000913108F020E150919306DE01AF57BF4F8F
:101930000D90BC91A02DA30FB11D8E2F841B82177B
:1019400058F460818C9186278D93511102C060817B
:10195000862780833196F1CF320F30939406921B05
:1019600090939506992311F082E301C084E3888364
:1019700070C0E0E0F0E0CF010E949407FC01892BE9
:1019800009F467C0208180ED820F8230A0F7F093C8
:10199000A706E093A606848590E0A0E0B0E08093DF
:1019A000960690939706A0939806B093990687851C
:1019B0009089A0E0B0E0DC01992788273189329531
:1019C0003F70832B80939A0690939B06A0939C066E
:1019D000B0939D0685859685A0E0B0E0DC0199274F
:1019E000882731893F70832B80939E0690939F06B2
:1019F000A093A006B093A106338585819681A0E0CF
:101A0000B0E0DC0199278827832B8093A20690936E
:101A1000A306A093A406B093A506213319F48181EF
:101A200084508183DF01AF57BF4F4D915C91CF014F
:101A30000296841B950B9181890F809395061092D5
:101A4000940681E0203309F080E08093930682E3DE
:101A50008083DF91CF911F910F9108952F923F9234
:101A60004F925F926F927F928F929F92AF92BF92AE
:101A7000CF92DF92EF92FF920F931F93CF93DF935A
:101A8000CDB7DEB72C970FB6F894DEBF0FBECDBF33
:101A900000E010E094E2792E6624639422E0222E86
:101AA00030E8332E55245A9441E4C42E48E8D42E0D
:101AB000AA24A394B12CC8010E9494078C01892BFD
:101AC00009F4FAC2D8018C91823209F448C168F451
:101AD000803291F0813279F781E3D8018C93809143
:101AE000A8068F5F8093A806E6CF833209F415C25B
:101AF000843209F486C2DFCFF8017082838583FDCA
:101B0000DACF45815681278530894F3F5F4F89F471
:101B10004091A5075091A6074217530719F02F3F90
:101B20003F4F49F681FF02C081E216C182E2F8010F
:101B300010C12F3F3F4F11F480FDBDCFD8011D963E
:101B40008D919C911E972091A5073091A60728178B
:101B5000390709F4B0CF19962D913C911A9737FFA8
:101B600004C02817390709F04EC060E00E94131620
:101B7000FC0198012D573F4F7901892B89F1D8013C
:101B800017968D919C911897019669F441E02091E8
:101B9000A5073091A607D8011F968D919C9150976B
:101BA0002817390709F040E0D80119968D919C91CA
:101BB0001A97238134812817390729F0D7013C91DE
:101BC0002681231710F04423D9F020919108211188
:101BD00017C09483838380818F708063808310C05B
:101BE0000E94F015FC01D8011D968D919C911E97C5
:101BF0009283818319968D919C911A979483838304
:101C0000D7018C918683A0E6B6E080E090E060E0AA
:101C100070E014962C911497222309F456C0F80111
:101C2000458556852D913C9111974217530709F030
:101C30004DC0248535E0389FF001399FF00D112407
:101C4000E05AF94F8281821B883078F54381242F36
:101C500030E0082E02C0359527950A94E2F720FF60
:101C60001AC02091A5073091A607D80117968D912B
:101C70009C9118972817390709F01DCF1B966C9176
:101C80001B9763FB662760F91F968D919C91509777
:101C90000E94461610CF950102C0220F331F8A956D
:101CA000E2F7C901842B83832EC02283238130E095
:101CB0008195A90102C0440F551F8A95E2F7CA0118
:101CC000816083838FE184831EC0BD0101961596D8
:101CD00056E0A239B50709F09CCF6115710509F4EA
:101CE000EACED8011D968D919C911E97FB019183A0
:101CF00080831C968C91828363828FE1848382E54A
:101D000096E00E946F07F80187809084FFEF8F169E
:101D10009F0669F42091A5073091A607D8011F9668
:101D20008D919C9150972817390709F06EC18091C9
:101D3000A5079091A607D8011F962D913C91509729
:101D4000F8018217930709F0ABC1838581FF03C0B7
:101D500081E28083B0CE82E2D8018C93ACCE109227
:101D60009206F8012189322F32953F70E32FF0E07F
:101D7000EE0FFF1FE555F84F0190F081E02D3097F1
:101D800009F45DC0D8011D968D919C911E979A8390
:101D900089831F964D915C9150975C834B832F7084
:101DA0002D833E83AF57BF4F6D917C9179876887B4
:101DB00098012E5F3F4F261B370BD80111963C919F
:101DC0001197230F2A87AD57BF4F2C912B87119660
:101DD0002C912C87D8011B966C91262F237062FDC5
:101DE00002C030E001C030E2232B63FD02C030E0CE
:101DF00001C030E4322B4F3F5F4F11F020E001C0B3
:101E000024E0232BD80119964D915C911A978417E1
:101E1000950711F090E001C098E0922BD80115963B
:101E20002D913C9116972F3F3F4F11F080E001C05C
:101E300080E1892B8F83CE010196199501C080E046
:101E4000F801938590FF80E0D80117964D915C9141
:101E500018972091A5073091A6074F3F5F4F41F497
:101E6000F801478550892417350711F493FF81E065
:101E7000D80115964D915C9116974F3F5F4F09F42D
:101E800080E02F3F3F4F09F445C0882309F442C04A
:101E90000E94E908FC010097E9F1DC01AD57BF4F52
:101EA0001C928091A9078F5F8093A90784878091F6
:101EB000A5079091A607968785878385826083878B
:101EC00081818D5F818314961D921C92D8011B968F
:101ED0008C911B9786958170938580FB91F99387F0
:101EE0001D968D919C911E97908B8787DF01AF5730
:101EF000BF4F2D913C91D9011C9280919206129670
:101F00008C93D8011C968C91D90111968C93CF019A
:101F10000E943508F8017082CECDD8011B969C90A6
:101F20001B9793FA992490F81F96ED90FC90509788
:101F3000692DC7010E941316009721F0FC01E38070
:101F4000F4800FC00E94F015FC01F282E182F4825D
:101F5000E382808190FA81F98F708063808335827B
:101F60005682EF20E09459F0F801E957FF4F1182B3
:101F7000108231972082C8010E9435089CCDD8017B
:101F80001B964C901B9743FA442440F81F96ED9003
:101F9000FC9050971D968D909C901E970E94E9088A
:101FA000FC01009771F1DC01AD57BF4F1C9280918D
:101FB000A9078F5F8093A90784878091A5079091D7
:101FC000A6079687858783858260838781818A5F5C
:101FD0008183149611961C921E92908A878616977A
:101FE0000D90BC91A02D6C9212969C928E9211979E
:101FF0001496FC92EE92139715964C92CF010E9484
:102000003508C8010E940F0856CD1B968C9182FDA1
:102010008ECE0E94E9087C01892B09F488CE82E1EA
:10202000F7018083D80111968C918183ED57FF4F82
:1020300010820E94E71AF701EC57FF4F877099272B
:10204000019691838083339611821082F801418139
:1020500050E0B8016E5F7F4FC70102960E946A1F71
:10206000D7011396DC92CE92129718969C928E927C
:102070001797F8018581968116969C938E931597F4
:102080008091A5079091A6071A969C938E93199715
:102090008091AA078F5F8093AA0714968C9347CEEE
:1020A0002F3F3F4F09F451CE278130858217930788
:1020B00009F001CD83E24DCE2C960FB6F894DEBF29
:1020C0000FBECDBFDF91CF911F910F91FF90EF9089
:1020D000DF90CF90BF90AF909F908F907F906F9048
:1020E0005F904F903F902F9008950F931F93CF9341
:1020F000DF93E091A307F091A407EF01209709F483
:1021000091C08C81882321F0823009F461C086C09F
:102110000E94E9088C01009721F482E08C838F876C
:1021200081C09B838A8381E08C83F801E957FF4F4C
:1021300089E198E0918380833197898582FB8827A4
:1021400080F98083F8018385998590FB80F98387E6
:10215000998593FB992790F990FB82F9838799855C
:102160009695917090FB81F983878091A9078F5F85
:102170008093A90784878091A5079091A6079687E9
:1021800085878D819E81908B87878885982F9F700A
:102190008189807F892B818B9F819295907F8F7021
:1021A000892B818BEF57FF4F4C8550E06A857B85EB
:1021B000808191810E946A1FF80191818C85890F2D
:1021C0008183C801DF91CF911F910F910C94350845
:1021D000EC17FD0739F4888199819093A4078093C7
:1021E000A3070BC0808191818C179D0711F0FC0122
:1021F000F9CF88819981918380838091DB079091C9
:10220000DC0701979093DC078093DB07ED85FE8563
:10221000CE01DF91CF911F910F9119940990D88130
:10222000C02D6CCFDF91CF911F910F910895109227
:10223000A9071092AA071092A6071092A50710925C
:10224000DC071092DB07EBEAF7E01192119287E0CE
:10225000EB3CF807D1F71092C6061092C50682E350
:1022600090E0A0E0B0E08093AF069093B006A0931A
:10227000B106B093B2061092B4061092B30688ED80
:1022800097E09093B6068093B5068AE090E0A0E0D0
:10229000B0E08093BD069093BE06A093BF06B093B6
:1022A000C0061092C2061092C10689EA97E0909388
:1022B000C4068093C30680E090E0FC01E05AF94F29
:1022C0001482059682339105C1F784E690E0A0E080
:1022D000B0E08093580690935906A0935A06B093A5
:1022E0005B0610925D0610925C068FE797E0909374
:1022F0005F0680935E0684EB98E09093AC07809332
:10230000AB071092A50310922E041092B7041092FE
:1023100040051092C9051092A4071092A30780915E
:102320009108882339F01092A8061092A7061092FF
:10233000A6060895E3E5F7E080E090E04FEF5FEF59
:1023400052834183DC0123E0AA0FBB1F2A95E1F7EA
:10235000AD5AB84F2C912E7F2C931582019638964A
:102360008A30910569F7DFCFCF92DF92EF92FF922B
:102370000F931F93CF93DF936C017A018B01C0E021
:10238000D0E0CE15DF0589F0D8016D918D01D60121
:10239000ED91FC910190F081E02DC6011995892BFA
:1023A00011F47E0102C02196ECCFC701DF91CF91DD
:1023B0001F910F91FF90EF90DF90CF9008950895B7
:1023C00080E090E00895FC01538D448D252F30E08E
:1023D000842F90E0821B930B541710F0CF96089532
:1023E00001970895FC01918D828D981761F0828D7F
:1023F000DF01A80FB11D5D968C91928D9F5F9F7339
:10240000928F90E008958FEF9FEF0895FC01918DDA
:10241000828D981731F0828DE80FF11D858D90E047
:1024200008958FEF9FEF0895FC01918D228D892FE4
:1024300090E0805C9F4F821B91098F7399270895CC
:102440008DED97E00E94141221E0892B09F420E021
:10245000822F0895FC01848DDF01A80FB11DA35ABE
:10246000BF4F2C91848D90E001968F739927848FB4
:10247000A689B7892C93A089B1898C9180648C93AB
:10248000938D848D981306C00288F389E02D808196
:102490008F7D80830895EF92FF920F931F93CF93C8
:1024A000DF93EC0181E0888F9B8D8C8D981305C0A4
:1024B000E889F989808185FD24C0F62E0B8D10E016
:1024C0000F5F1F4F0F731127E02E8C8DE8120CC089
:1024D0000FB607FCFACFE889F989808185FFF5CF2F
:1024E000CE010E942A12F1CF8B8DFE01E80FF11D63
:1024F000E35AFF4FF0820B8FEA89FB89808180626B
:1025000007C0EE89FF896083E889F989808180644A
:10251000808381E090E0DF91CF911F910F91FF9038
:10252000EF900895CF93DF93EC01888D8823C9F055
:10253000EA89FB89808185FD05C0A889B9898C91CC
:1025400086FD0FC00FB607FCF5CF808185FFF2CF67
:10255000A889B9898C9185FFEDCFCE010E942A12FE
:10256000E7CFDF91CF91089580E090E0892B21F0B3
:102570000E94201281110DC080E090E0892B71F043
:1025800080E090E0892B51F00E940000811104C08E
:1025900008950E940000F0CF0C94000008953FB70A
:1025A000F89480914E0790914F07A0915007B091F9
:1025B000510726B5A89B05C02F3F19F00196A11D14
:1025C000B11D3FBFBA2FA92F982F8827820F911DC9
:1025D000A11DB11DBC01CD0142E0660F771F881F10
:1025E000991F4A95D1F708950E94651F0F931F9375
:1025F000CF93DF93EC0188819981009729F02A819C
:102600003B812617370788F48B016F5F7F4F0E944D
:102610007C1E009761F0998388831B830A832C8139
:102620003D81232B11F4FC01108281E001C080E088
:10263000DF91CF911F910F9108951F93CF93DF9357
:10264000EC019F859031B9F038F4913091F060F051
:102650009230C1F483E014C0903279F0913279F075
:10266000913181F485E00CC081E0809322092C9A9D
:1026700009C082E005C084E003C086E001C087E0B5
:10268000809322091092230980912209813001F55B
:102690008CE893E00E94541610E08C85181788F49B
:1026A000E091DD07F091DE07AA85BB85A10FB11D82
:1026B0000190F081E02D6C918DED97E019951F5FF1
:1026C000ECCF81E693E0DF91CF911F910C945416EB
:1026D000DF91CF911F910895FC0180819181009736
:1026E00011F00C94211C60E070E0CB010895FC0116
:1026F000248135816217730720F4808191810097CE
:1027000029F41092520782E597E00895860F971FEB
:102710000895FC0124813581232B31F421E06115DA
:102720007105A1F0FB0108C0FC0180819181611558
:10273000710531F421E0FC018081882339F005C066
:102740000E94731F21E0892B09F020E0822F089559
:10275000EF92FF920F931F93CF93DF93FC0124819D
:1027600035816115710511F480E019C041155105DD
:10277000A9F07B01EC018A01020F131FB8010E942E
:10278000F612882389F3288139818C819D81B701D4
:10279000820F931F0E947C1F1D830C8381E0DF91B9
:1027A000CF911F910F91FF90EF900895CF93DF93FA
:1027B0001F921F92CDB7DEB769831A8241E050E0C5
:1027C000BE016F5F7F4F0E94A8130F900F90DF91A3
:1027D000CF910895CF93DF93EC0188819981009781
:1027E00011F00E94E41D198218821D821C821B8236
:1027F0001A82DF91CF910895CF93DF93EC01FB0113
:1028000044815581608171810E94A813811103C0A8
:10281000CE010E94EA13CE01DF91CF910895EF928D
:10282000FF920F931F93CF93DF93EC017B018A01FB
:10283000BA010E94F612811104C0CE010E94EA136F
:1028400007C01D830C83B701888199810E947C1F7A
:10285000CE01DF91CF911F910F91FF90EF900895DE
:10286000CF93DF93EC016115710559F0FB010190E5
:102870000020E9F73197AF01461B570B0E940F1458
:1028800002C00E94EA13CE01DF91CF910895FC01AE
:10289000808191810C94E41D0F931F93CF93DF935C
:1028A000CDB7DEB761970FB6F894DEBF0FBECDBFD0
:1028B0008C01CB01F80111821082138212821582E1
:1028C000148250E0BE016F5F7F4F0E94661CBE0104
:1028D0006F5F7F4FC8010E94301461960FB6F89465
:1028E000DEBF0FBECDBFDF91CF911F910F91089535
:1028F0000F931F93CF93DF93CDB7DEB729970FB612
:10290000F894DEBF0FBECDBF8C01862FF801118277
:102910001082138212821582148250E0BE016F5F12
:102920007F4F90E00E94661CBE016F5F7F4FC80121
:102930000E94301429960FB6F894DEBF0FBECDBFAB
:10294000DF91CF911F910F910895FC0111821082A8
:1029500013821282158214826115710551F0FB01F8
:1029600001900020E9F73197AF01461B570B0C94FB
:102970000F140895BF92CF92DF92EF92FF920F93C0
:102980001F93CF93DF937C016B018A01E901241728
:10299000350720F4812F8901C42FD82F63E673E017
:1029A000C7010E94A514D60114968D919C9115978C
:1029B00008171907D0F48C179D0708F4EC01D6010D
:1029C000ED91FC911197EC0FFD1FB08010824D919D
:1029D0005C91BA01600F711FC7010E943014D601CB
:1029E000ED91FC91EC0FFD1FB082C701DF91CF91FB
:1029F0001F910F91FF90EF90DF90CF90BF900895BF
:102A00001F920F920FB60F9211240BB60F922F93B5
:102A10003F934F935F936F937F938F939F93AF9366
:102A2000BF93EF93FF938DED97E00E942A12FF91E1
:102A3000EF91BF91AF919F918F917F916F915F9136
:102A40004F913F912F910F900BBE0F900FBE0F90A3
:102A50001F9018951F920F920FB60F9211240BB66C
:102A60000F922F938F939F93EF93FF93E091ED0736
:102A7000F091EE078081E091F307F091F40782FD79
:102A800012C090818091F6078F5F8F732091F707B6
:102A9000821751F0E091F607F0E0E352F84F958F7E
:102AA0008093F60701C08081FF91EF919F918F91F4
:102AB0002F910F900BBE0F900FBE0F901F90189587
:102AC0008F929F92AF92BF92CF92DF92EF92FF923E
:102AD0006B017C010E94CF124B015C01C114D10437
:102AE000E104F104F1F00E94CF12DC01CB0188195E
:102AF0009909AA09BB09883E9340A105B10570F365
:102B000021E0C21AD108E108F10888EE880E83E0BE
:102B1000981EA11CB11CC114D104E104F10419F7E1
:102B2000DDCFFF90EF90DF90CF90BF90AF909F9060
:102B30008F9008952FB7F89460914A0770914B07D2
:102B400080914C0790914D072FBF08951F920F92CF
:102B50000FB60F9211242F933F938F939F93AF93B0
:102B6000BF9380914A0790914B07A0914C07B09179
:102B70004D073091490723E0230F2D3720F40196AC
:102B8000A11DB11D05C026E8230F0296A11DB11D90
:102B90002093490780934A0790934B07A0934C07D3
:102BA000B0934D0780914E0790914F07A091500729
:102BB000B09151070196A11DB11D80934E079093CE
:102BC0004F07A0935007B0935107BF91AF919F91CA
:102BD0008F913F912F910F900FBE0F901F901895DE
:102BE00080E090E0E0E0F0E0DC01AD5AB84F2C91DD
:102BF00020FD0BC015962C911597222359F0309784
:102C000019F03581231708F4FD01089680359105E8
:102C100059F701C0FD0180818D708063808380E859
:102C20008583CF010895CF93DF93EC0190914807FE
:102C3000A3E5B7E020E030E070E01196ED91FC9163
:102C40001297EC17FD07A1F4F90183E0EE0FFF1FC7
:102C50008A95E1F7ED5AF84F808181FB442740F9CE
:102C600050E04617570721F490934807CF010BC057
:102C70002F5F3F4F18969FEF2A303105F1F6909362
:102C8000480780E090E0DF91CF9108950E941316ED
:102C9000FC01892B41F0808180FD05C08FEF9FEF03
:102CA0009283818315820895009769F0FC01019059
:102CB0000020E9F73197AF01481B590BBC018DED9E
:102CC00097E00C94B41180E090E00895CF93809148
:102CD0002309811162C0C1E0C09323098BE998E008
:102CE0000E946C1370932F0960932E09C0933009D2
:102CF000C093310980919408882311F083E001C0CA
:102D000082E08093320929E239E081EA98E09093E9
:102D100034098093330980912109809335098DE12D
:102D200093E190933709809336092D9A10922D09DB
:102D30001092380910922C0910922B098091DB0710
:102D40009091DC0701969093DC078093DB078091DC
:102D5000A3079091A407009729F410922A091092D2
:102D6000290904C090932A09809329093093A40764
:102D70002093A3070E9488090E942E0D0E947F0ABB
:102D80000E9475100E94EF0B0E941A0963E673E01F
:102D90008BE998E0CF910C943014CF9108958F92E5
:102DA0009F92AF92BF92CF92DF92EF92FF920F93DA
:102DB0001F93CF93DF93B090920880919108817018
:102DC000C82EA090930803E517E0E80188EEE82EEE
:102DD00083E0F82ED12C90E8992E88248A94085FFD
:102DE0001F4FDB1409F1C7010E94A61C9A83898337
:102DF0008881C0FA80F98883C70188519C4F0E945E
:102E0000A61C9C838B83F801339790823196808235
:102E100098819F70906398833196A082D39484E0C8
:102E2000E80EF11C2896DBCFDF91CF911F910F9117
:102E3000FF90EF90DF90CF90BF90AF909F908F90DA
:102E40000895CF93DF930E945416EC0181E693E03E
:102E50000E9454168C0F9D1FDF91CF910895FC01A5
:102E600044815581608171818DED97E00C94B4119E
:102E7000CF93DF930E942F17EC0181E693E00E942D
:102E800054168C0F9D1FDF91CF910895CF93DF9340
:102E9000EC016CE70E94D613811103C0CE010E94A1
:102EA000EA13CE01DF91CF91089590E0FC01E45345
:102EB000FE4F2491FC01E855FE4F8491882399F040
:102EC00090E0880F991FFC01E257FE4FA591B49145
:102ED000FC01EC58FE4F859194918FB7F894EC91DA
:102EE000E22BEC938FBF0895CF93DF9300D01F9216
:102EF000CDB7DEB7789484B5826084BD84B5816037
:102F000084BD85B5826085BD85B5816085BD8091B4
:102F10006E00816080936E0010928100809181002C
:102F20008260809381008091810081608093810024
:102F3000809180008160809380008091B1008460E6
:102F40008093B1008091B00081608093B000809147
:102F500091008260809391008091910081608093C4
:102F60009100809190008160809390008091A100F9
:102F700082608093A1008091A10081608093A10074
:102F80008091A00081608093A000809121018260E7
:102F900080932101809121018160809321018091A2
:102FA000200181608093200180917A008460809369
:102FB0007A0080917A00826080937A0080917A0012
:102FC000816080937A0080917A00806880937A0093
:102FD0001092C10098E288E10FB6F894A89580930A
:102FE00060000FBE9093600089E00E9455178AE050
:102FF0000E9455178FE00E9455178DE00E945517CB
:103000008EE00E9455178CE00E9455178BE00E94BD
:103010005517E091ED07F091EE0782E08083E09193
:10302000E907F091EA071082E091EB07F091EC07D5
:1030300080E180831092F507E091F107F091F207AB
:1030400086E08083E091EF07F091F0078081806156
:103050008083E091EF07F091F007808188608083A2
:10306000E091EF07F091F007808180688083E09124
:10307000EF07F091F00780818F7D80838FEF90E0E4
:103080000E949E1C853A09F04BC085E890E00E94A2
:103090009E1C80937C0884E890E00E949E1C809394
:1030A0007D0882E890E00E94A61C90937F088093A0
:1030B0007E0886E990E00E949E1C8093800887E944
:1030C00090E00E94A61C90937B0880937A088EEF74
:1030D00090E00E949E1C182F809391088DEF90E045
:1030E0000E949E1C80939208113011F40E94CF160A
:1030F00006E810E0C8010E949E1CF801E550F84F58
:1031000080830F5F1F4F06391105A1F780E1E1E8C9
:10311000F8E0ABECB7E001900D928A95E1F758C06A
:1031200084E693E00E94211760917C0885E890E096
:103130000E94AC1C60917D0884E890E00E94AC1C69
:1031400060917E0870917F0882E890E00E94BE1C2A
:103150006091800886E990E00E94AC1C60917A083A
:1031600070917B0887E990E00E94BE1C06E810E0A1
:1031700060E0C8010E94AC1C0F5F1F4F06391105AB
:10318000B9F708EE13E06FEFC8010E94AC1C0F5FA7
:103190001F4F0C3424E01207B1F700ED17E06FEF7A
:1031A000C8010E94AC1C0F5F1F4F043338E01307A7
:1031B000B1F760E08DEF90E00E94AC1C60E08EEF14
:1031C00090E00E94AC1C65EA8FEF90E00E94AC1C7E
:1031D000109224091092980310929703809139015C
:1031E00081608093390110929C0310929B0381E0CF
:1031F00090E090939A038093990388E00E946A0973
:103200008BEE8093560180914C01806880934C0135
:103210008091440180688093440180916C01806FAB
:1032200080936C01859A8D9A80913801837E8861A4
:1032300080933801809138018F71806C80933801C0
:103240000E944C0A80936D010E9417110E944C0A43
:103250000E94171187E793E00E9421174091800890
:1032600080917E0820917F0890917A0830917B08A8
:103270009093A5073093A6079B833C8390936001AE
:103280009C81909361018093A7072093A80789836D
:103290002A83809362018A8180936301409396031D
:1032A0000E94310A81E080939C030E947A098091F8
:1032B0007C08982F9F7080914501807F892B809397
:1032C000450180917D08982F937080914C018C7FEF
:1032D000892B80934C0187EC96E09093AE07809306
:1032E000AD070BE811E00E9488090E942E0D0E9494
:1032F0007F0A0E9475100E94EF0B0E941A090E941B
:103300009A15C0902509D0902609E0902709F090E1
:1033100028099B01AC012C193D094E095F0969017F
:103320007A0139EEC31633E0D306E104F10468F004
:1033300060932509709326098093270990932809A3
:103340008AE893E00E942117759A8DED97E00E941C
:103350001412892B09F445C063E673E08BE998E009
:103360000E943014C8010197F1F78DED97E00E949B
:10337000F211C82EC8010197F1F7F12CE12C8DED67
:1033800097E00E941412892BE1F08DED97E00E94E6
:10339000F211D82EC8010197F1F74AE3D41641F093
:1033A000E11006C06D2D8BE998E00E94D61302C093
:1033B000EE24E394EF2DF0E0E658F74FD7A2F39414
:1033C000DECFF0922109C8010197F1F75CE6C51242
:1033D00003C00E94661605C083E7C81202C00E949F
:1033E0002D01A8952C982D980E949A15C090A103A4
:1033F000D090A203E090A303F090A403DC01CB01E2
:103400008C199D09AE09BF0987399105A105B10540
:1034100060F02C982D980E949A156093A1037093E8
:10342000A2038093A3039093A4030E949A15C090D3
:103430009D03D0909E03E0909F03F090A003DC01D9
:10344000CB018C199D09AE09BF0981329340A105BA
:10345000B10578F07598739874982F982E980E94FB
:103460009A1560939D0370939E0380939F0390939E
:10347000A0030E94B41237CF8BE998E00E94471452
:1034800085E998E00C944714EDEDF7E01382128281
:1034900088EE93E0A0E0B0E084839583A683B783B1
:1034A00081E192E09183808385EC90E09587848729
:1034B00084EC90E09787868780EC90E0918B808BFE
:1034C00081EC90E0938B828B82EC90E0958B848BE7
:1034D00086EC90E0978B868B118E128E138E148E55
:1034E000EAE7F8E011821082128282E0838381E0B1
:1034F00090E0958384838AE18683178A108E83E027
:10350000818F81E0828F60E973E085E998E00E9415
:10351000A51463E673E08BE998E00E94A51410926D
:10352000210910922409109225091092260910925F
:1035300027091092280908958F929F92AF92BF9207
:10354000CF92DF92EF92FF92CF93DF93EC016881ED
:1035500079818A819B81611571058105910521F42D
:1035600064E279ED8BE597E02DE133EF41E050E047
:103570000E94061D49015A019B01AC01A7EAB1E472
:103580000E94251D6B017C01ACEEB4EFA5019401F6
:103590000E94331DDC01CB018C0D9D1DAE1DBF1D96
:1035A000B7FF03C00197A109B04888839983AA8314
:1035B000BB839F77DF91CF91FF90EF90DF90CF900B
:1035C000BF90AF909F908F9008950C949C1A80E0CC
:1035D00092E00C949C1AA0E0B0E0809300029093DB
:1035E0000102A0930202B093030208952F923F922A
:1035F0004F925F926F927F928F929F92AF92BF9203
:10360000CF92DF92EF92FF920F931F93CF93DF93AE
:103610005C016B017A016115710519F0FB01918361
:103620008083E114F10429F0C7010297839708F021
:10363000F1C0E5012196F5011081812F90E00E94F3
:10364000481C892B11F05E01F4CF1D3229F421961C
:10365000F501118101E007C01B3221F4E50122963A
:10366000F501118100E0E114F10459F1F0E1EF16E8
:10367000F10461F41033E1F488818F7D883569F5B8
:1036800019812296026070E1E72EF12C88E0E8169D
:10369000F10439F12CF4F2E0EF16F104C9F12AC07B
:1036A0008AE0E816F10479F0E0E1EE16F10411F594
:1036B00050E1E52EF12C812C912CA12C68E0B62E46
:1036C0002CC01033C9F23AE0E32EF12C4CEC842EDE
:1036D000982CA82C4CE0B42E20C010E3E114F10487
:1036E000A9F698E0E92EF12C812C912CA12C20E157
:1036F000B22E13C060E070E080E090E897010F2CDC
:10370000000C440B550B0E94E41C49015A0105C0F2
:10371000812C912CA12C80E4B82E60E020E030E0D8
:10372000A90127010F2C000C660877081E01E0EDA7
:10373000E10FEA3060F08FEB810F8A3110F4E9EC91
:1037400005C08FE9810F8A3128F5E9EAE10F8E2F54
:1037500090E08E159F05F4F467FD18C0821693065D
:10376000A406B50690F0C301B2010E94D41C9B01CF
:10377000AC012E0F311D411D511D21303105410578
:10378000F0E85F0710F461E001C06FEF2196F101EE
:103790001081CCCF802F8170C114D10471F06623C9
:1037A00029F02197F601D183C08307C001FF19C01A
:1037B0002297F601D183C08314C067FF12C0811124
:1037C00005C02FEF3FEF4FEF5FE704C020E030E090
:1037D00040E050E882E290E090933B0980933A0900
:1037E00016C0882341F050954095309521953F4F64
:1037F0004F4F5F4F0CC057FF0AC082E290E090939A
:103800003B0980933A092FEF3FEF4FEF5FE7B90194
:10381000CA0104C060E070E080E090E0DF91CF91E9
:103820001F910F91FF90EF90DF90CF90BF90AF90DE
:103830009F908F907F906F905F904F903F902F90D0
:1038400008951F93FC0199278827BC01E8941191E2
:103850001032E9F3193010F01E30C8F31B3251F06A
:103860001D3249F4689406C00E94511C610F711DFD
:10387000811D911D119110531A30B0F33EF49095B3
:103880008095709561957F4F8F4F9F4F1F91089541
:1038900091110C948B1C803219F089508550C8F717
:1038A0000895592F482F372F262F660F771F881F0F
:1038B000991F660F771F881F991F620F731F841F40
:1038C000951F660F771F881F991F08954532510570
:1038D00020F4423010F00C94711CFB011082CB01DB
:1038E0000895BB27FB015527AA27880F991FAA1FF8
:1038F000A41710F0A41B83955051B9F7A05DAA330B
:1039000008F0A95DA193009779F7B111B1931192D5
:10391000CB010C948E1C992788270895DC01FC01AB
:10392000672F71917723E1F7329704C07C916D93F3
:1039300070836291AE17BF07C8F30895F999FECF5F
:1039400092BD81BDF89A992780B50895A8E1B0E0AD
:1039500042E050E00C94C61C262FF999FECF92BD90
:1039600081BDF89A019700B4021639F01FBA20BD44
:103970000FB6F894FA9AF99A0FBE08950196272F78
:103980000E94AD1C0C94AC1CDC01CB01FC01F9992C
:10399000FECF06C0F2BDE1BDF89A319600B40D929B
:1039A00041505040B8F70895DB018F939F930E94D8
:1039B000251DBF91AF91A29F800D911DA39F900DDA
:1039C000B29F900D11240895A1E21A2EAA1BBB1BD1
:1039D000FD010DC0AA1FBB1FEE1FFF1FA217B307DB
:1039E000E407F50720F0A21BB30BE40BF50B661FF1
:1039F000771F881F991F1A9469F7609570958095B5
:103A000090959B01AC01BD01CF010895052E97FB58
:103A10001EF400940E941D1D57FD07D00E94E41C57
:103A200007FC03D04EF40C941D1D50954095309525
:103A300021953F4F4F4F5F4F08959095809570951A
:103A400061957F4F8F4F9F4F08950E94381DA59F0E
:103A5000900DB49F900DA49F800D911D1124089589
:103A6000B7FF0C94251D0E94251D821B930B089502
:103A7000A29FB001B39FC001A39F700D811D1124AF
:103A8000911DB29F700D811D1124911D0895EE0F9F
:103A9000FF1F881F8BBF0790F691E02D1994CF93DD
:103AA000DF938230910510F482E090E0E0913E09CE
:103AB000F0913F0920E030E0C0E0D0E0309711F114
:103AC0004081518148175907C0F04817590761F4E0
:103AD00082819381209719F09B838A832BC09093D6
:103AE0003F0980933E0926C02115310519F0421780
:103AF000530718F49A01BE01DF01EF010280F38140
:103B0000E02DDCCF2115310509F1281B390B2430BC
:103B1000310590F412968D919C9113976115710562
:103B200021F0FB019383828304C090933F0980932B
:103B30003E09FD01329644C0FD01E20FF31F81935F
:103B40009193225031092D933C933AC020913C0926
:103B500030913D09232B41F4209106023091070258
:103B600030933D0920933C092091040230910502D5
:103B70002115310541F42DB73EB74091080250910F
:103B80000902241B350BE0913C09F0913D09E21735
:103B9000F307A0F42E1B3F0B2817390778F0AC0170
:103BA0004E5F5F4F2417350748F04E0F5F1F50934D
:103BB0003D0940933C098193919302C0E0E0F0E01D
:103BC000CF01DF91CF9108950F931F93CF93DF9390
:103BD000009709F48CC0FC01329713821282009185
:103BE0003E0910913F090115110581F420813181B1
:103BF000820F931F20913C0930913D092817390706
:103C000079F5F0933D09E0933C0971C0D80140E09B
:103C100050E0AE17BF0750F412962D913C911397C8
:103C2000AD012115310509F1D901F3CF9D01DA016B
:103C30003383228360817181860F971F82179307D8
:103C400069F4EC0128813981260F371F2E5F3F4F21
:103C5000318320838A819B8193838283452B29F43E
:103C6000F0933F09E0933E0942C01396FC93EE9314
:103C70001297ED01499159919E01240F351FE217CA
:103C8000F30771F480819181840F951F029611963C
:103C90009C938E938281938113969C938E9312971B
:103CA000E0E0F0E0D80112968D919C911397009777
:103CB00019F0F8018C01F6CF8D919C9198012E5F3F
:103CC0003F4F820F931F20913C0930913D092817E7
:103CD000390769F4309729F410923F0910923E0990
:103CE00002C01382128210933D0900933C09DF91B8
:103CF000CF911F910F9108956F927F928F929F9213
:103D0000AF92BF92CF92DF92EF92FF920F931F93E9
:103D1000CF93DF93EC01009789F4CB01DF91CF9132
:103D20001F910F91FF90EF90DF90CF90BF90AF90D9
:103D30009F908F907F906F900C944F1DFC01E60F29
:103D4000F71F9C0122503109E217F30708F4ACC0B9
:103D5000D9010D911C91119706171707B0F0053086
:103D6000110508F49FC0C80104978617970708F447
:103D700099C002501109061B170B019311936D9303
:103D80007C93CF010E94E41D8DC05B01A01AB10A93
:103D90004C01800E911EA0913E09B0913F0940E078
:103DA00050E0E12CF12C109709F44AC0A815B90590
:103DB000D1F56D907C901197630182E0C80ED11C03
:103DC000CA14DB0480F1A3014A195B096A0182E08D
:103DD000C80ED11C1296BC9012971396AC91B5E008
:103DE000CB16D10440F0B282A38351834083D90122
:103DF0006D937C930AC00E5F1F4FC301800F911F0C
:103E0000F90191838083EB2DFA2FE114F10431F055
:103E1000D7011396FC93EE93129744C0F0933F0999
:103E2000E0933E093FC08D919C9111974817590727
:103E300008F4AC017D0112960D90BC91A02DB3CF7A
:103E400080913C0990913D0988159905E1F4461748
:103E50005707C8F48091040290910502009741F43D
:103E60008DB79EB74091080250910902841B950BB3
:103E7000E817F907C8F4F0933D09E0933C09F9010C
:103E8000718360830FC0CB010E944F1D7C0100979E
:103E900059F0A801BE010E946A1FCE010E94E41DD4
:103EA000C70104C0CE0102C080E090E0DF91CF9155
:103EB0001F910F91FF90EF90DF90CF90BF90AF9048
:103EC0009F908F907F906F90089581E090E0F8949C
:103ED0000C94831FFB01DC0102C001900D92415044
:103EE0005040D8F70895FB01DC018D9101908019B5
:103EF0000110D9F3990B0895FB01DC0101900D929B
:103F00000020E1F7089510E0C9EFD0E000E006C01E
:103F1000802FFE010E94471D2196011DCA3FD10737
:0A3F200080E00807A9F7F894FFCF2E
:103F2A00010000000000400980000020210000007C
:103F3A00004B12B411E31192121412F2110612700C
:103F4A00616E496400616C6C696E666F003A7570E7
:103F5A00646174653A616C6C696E666F3A00496EA9
:103F6A0076696F206C2768690036353533350072FB
:103F7A0066636800616464720074787077720064C2
:103F8A007261746500736574707377007365747217
:103F9A006F75746500666163746F727900696E6625
:103FAA006F6C776D0056657273696F6E2046697221
:103FBA006D77617265203D006170704C776D5F505E
:103FCA006F776572526620006170704C776D5F443E
:103FDA006174615261746520006170704C776D5F25
:103FEA0050616E496420006170704C776D5F526653
:103FFA004368616E6E656C20006170704C776D5F0E
:10400A005365727665724E6F646520004170696F00
:10401A002E6170704C776D5F5461626C654E754DA0
:10402A00617820004170696F2E6170704C776D5F06
:10403A0046697865645461626C6520004170696FF5
:10404A002E6170704C776D5F50617373776F726415
:10405A002000526F7574655461626C6520646573E3
:10406A0074696E6174696F6E203A206E657874485F
:10407A006F7000203A2000202D2D2D200061636BE7
:10408A00000D0A0046616363696F20496E697446D0
:10409A006163746F727900434F4F5244494E4154E1
:1040AA004F52204143544956450063006F6B3A0012
:0640BA00312E3031000040
:00000001FF
