:100000000C9401040C9432040C9432040C943204C9
:100010000C9432040C9432040C9432040C94320488
:100020000C9432040C9432040C9432040C94320478
:100030000C9432040C9432040C9432040C94320468
:100040000C9432040C9432040C9432040C94320458
:100050000C9432040C9432040C9432040C94E9276E
:100060000C9432040C94132B0C94492B0C943204F2
:100070000C9432040C9432040C9432040C94320428
:100080000C9432040C9432040C9432040C94320418
:100090000C9432040C9432040C9432040C94B82660
:1000A0000C9432040C9432040C9432040C943204F8
:1000B0000C9432040C9432040C9432040C943204E8
:1000C0000C9432040C9432040C9432040C943204D8
:1000D0000C9432040C9432040C9432040C943204C8
:1000E0000C9432040C9432040C9432040C943204B8
:1000F0000C9432040C9432040C9432040C943204A8
:100100000C9432040C9432040C9432040C94320497
:100110000C9432040C9432040C9432040C94320487
:100120000C9432040C9432040C9432040C94320477
:100130000C9432040F291229012905290B29492978
:1001400016291A292029242928292E293229362935
:1001500049293C29402944290C946F160C94B81362
:100160000C94F5240C94E2180C947D2B0C948A21A9
:100170000C94062C0C942A2A0C943C290C94D62915
:100180000C94B0250C94D7240C94C02B0C94EA2921
:100190000C945B1B0C9473040C940B290C94402955
:1001A0000C9458250C9416290C942E290C94D209E1
:1001B0000C94732B0C9405290C9437250C94E91B93
:1001C0000C94BB290C94C8290C94E9120C94A71721
:1001D0000C944A1D0C94D80D0C94252C0C941229C7
:1001E0000C941B260C9436290C9424290C9465132A
:1001F0000C9460250C94E7240C9438130C944C2A2E
:100200000C9401290C94B9290C941A290C943212DB
:100210000C9473250C9444290C9495070C94E409D0
:100220000C940F290C9449290C94AD210C9483252E
:100230000C947C150C9432290C9428290C942029B8
:100240000C944F130C94A90D0C9482250C949A13C2
:1002500000000000003E5B4F5B3E3E6B4F6B3E1C60
:100260003E7C3E1C183C7E3C181C577D571C1C5E77
:100270007F5E1C00183C1800FFE7C3E7FF0018244E
:100280001800FFE7DBE7FF30483A060E26297929F8
:1002900026407F050507407F05253F5A3CE73C5A2D
:1002A0007F3E1C1C08081C1C3E7F14227F22145F0A
:1002B0005F005F5F06097F017F006689956A606065
:1002C00060606094A2FFA29408047E040810207E5F
:1002D000201008082A1C08081C2A08081E101010E4
:1002E000100C1E0C1E0C30383E3830060E3E0E062A
:1002F000000000000000005F00000007000700147D
:100300007F147F14242A7F2A12231308646236493B
:100310005620500008070300001C22410000412223
:100320001C002A1C7F1C2A08083E08080080703028
:100330000008080808080000606000201008040297
:100340003E5149453E00427F40007249494946219D
:1003500041494D331814127F1027454545393C4A11
:100360004949314121110907364949493646494928
:10037000291E000014000000403400000008142270
:1003800041141414141400412214080201590906DE
:100390003E415D594E7C1211127C7F494949363EDF
:1003A000414141227F4141413E7F494949417F09C5
:1003B0000909013E414151737F0808087F00417FD0
:1003C00041002040413F017F081422417F404040CE
:1003D000407F021C027F7F0408107F3E4141413E66
:1003E0007F090909063E4151215E7F0919294626E8
:1003F0004949493203017F01033F4040403F1F20EC
:1004000040201F3F4038403F6314081463030478C2
:1004100004036159494D43007F41414102040810E2
:1004200020004141417F040201020440404040401D
:10043000000307080020545478407F28444438388B
:1004400044444428384444287F38545454180008FD
:100450007E090218A4A49C787F0804047800447DD7
:1004600040002040403D007F1028440000417F4074
:10047000007C047804787C080404783844444438C8
:10048000FC1824241818242418FC7C0804040848A8
:100490005454542404043F44243C4040207C1C20F9
:1004A00040201C3C4030403C44281028444C909054
:1004B000907C4464544C44000836410000007700AE
:1004C00000004136080002010204023C2623263CBB
:1004D0001EA1A161123A4040207A38545455592146
:1004E000555579412254547842215554784020542E
:1004F0005579400C1E52721239555555593954547C
:10050000545939555454580000457C410002457DEA
:10051000420001457C407D1211127DF0282528F013
:100520007C545545002054547C547C0A097F493240
:10053000494949323A4444443A324A4848303A41B7
:1005400041217A3A42402078009DA0A07D3D424260
:10055000423D3D4040403D3C24FF2424487E4943E9
:10056000662B2FFC2F2BFF0929F620C0887E09035C
:1005700020545479410000447D413048484A323883
:100580004040227A007A0A0A727D0D19317D2629AF
:10059000292F28262929292630484D4020380808A7
:1005A000080808080808382F10C8ACBA2F102834DB
:1005B000FA00007B000008142A142222142A1408CE
:1005C0005500550055AA55AA55AAFF55FF55FF00DD
:1005D0000000FF00101010FF00141414FF00101092
:1005E000FF00FF1010F010F0141414FC001414F7A6
:1005F00000FF0000FF00FF1414F404FC1414171093
:100600001F10101F101F1414141F00101010F000E2
:100610000000001F101010101F10101010F010001C
:100620000000FF101010101010101010FF1000002C
:1006300000FF140000FF00FF00001F10170000FC67
:1006400004F414141710171414F404F40000FF0039
:10065000F714141414141414F700F71414141714C2
:1006600010101F101F141414F4141010F010F000C8
:10067000001F101F0000001F14000000FC140000E9
:10068000F010F01010FF10FF141414FF14101010CD
:100690001F00000000F010FFFFFFFFFFF0F0F0F080
:1006A000F0FFFFFF0000000000FFFF0F0F0F0F0F14
:1006B0003844443844FC4A4A4A347E020206060260
:1006C0007E027E0263554941633844443C04407EC7
:1006D000201E2006027E020299A5E7A5991C2A4940
:1006E0002A1C4C7201724C304A4D4D3030487848CB
:1006F00030BC625A463D3E494949007E0101017EB7
:100700002A2A2A2A2A44445F444440514A44404009
:10071000444A51400000FF0103E080FF0000080848
:100720006B6B083612362436060F090F06000018C8
:10073000180000001010003040FF0101001F0101EF
:100740001E00191D1712003C3C3C3C00000000003C
:1007500000000000000000000007030401090A0B6C
:100760000000000200000000000000000000000087
:100770000000000001020408102040800110204009
:1007800080081020408004200102040810204080CE
:100790000204080102040102040404040404040421
:1007A0000202020202050505050505070606060602
:1007B00006060606020202070707050500000000FC
:1007C000250000002B002E00310034000000000046
:1007D00000000000000000000000240000002A00CB
:1007E0002D00300033000000000000000000000079
:1007F0008A21D724E72437251B267D2B062CAD2103
:10080000F52411241FBECFEFD1E8DEBFCDBF00E03D
:100810000CBF15E0A0E0B2E0EEEDF6E600E00BBFA5
:1008200002C007900D92A838B107D9F72EE0A8E8CA
:10083000B5E001C01D92AC3BB207E1F717E0CEEF87
:10084000D7E000E006C022970109FE010BBF0E941D
:10085000E42FC03FD10780E00807A9F70E94162CBB
:100860000C945D330C9400001092840E1092850E4F
:100870001092810E1092800E1092B70E1092B60E4A
:10088000E6E8FEE0119211928EE0E63AF807D1F721
:100890000E940F0E0E94050A0E9453050E948F04B9
:1008A0000E94C3050E946A0C0C949B089093810ED1
:1008B0008093800E0C9411109093830E8093820E7F
:1008C0000C94FF0FE82FF0E0EE0FFF1FEA57F14FF7
:1008D0007183608308950E945E0A0E942D0F0E941A
:1008E000B2040C94B80CE0918805F091890530971A
:1008F000A1F0228133812817390759F4DC01AD5763
:10090000BF4F2C91278713962C91208B22E02483B4
:1009100004C00190F081E02DEACF0C948F05109275
:100920008905109288050895FC01148217861382A8
:1009300012828091B60E9091B70E01969093B70EE9
:100940008093B60E8091880590918905009719F4DF
:100950001182108202C091838083F0938905E09315
:10096000880508950F931F93CF93DF93E091880537
:10097000F0918905EF01209709F490C08C818823BC
:1009800021F0823009F460C085C00E945E058C01B0
:10099000009721F482E08C838F8780C09B838A83B9
:1009A00081E08C83F801E957FF4F83E794E091835E
:1009B00080833197898582FB882780F98083998598
:1009C000F801838590FB80F98387998593FB9927AC
:1009D00090F990FB82F9838799859695917090FBA9
:1009E00081F983878091840E8F5F8093840E848742
:1009F0008091800E9091810E968785878D819E8152
:100A0000908B878798859F708189807F892B818BC8
:100A10009F819295907F8F70892B818BEF57FF4F2D
:100A20004C8550E06A857B85808191810E9494325B
:100A3000F80181819C85890F8183C801DF91CF9165
:100A40001F910F910C94400EEC17FD0739F488812B
:100A5000998190938905809388050BC0808191814D
:100A60008C179D0711F0FC01F9CF88819981918342
:100A700080838091B60E9091B70E01979093B70E38
:100A80008093B60EED85FE85CE01DF91CF911F914B
:100A90000F9119940990D881C02D6DCFDF91CF911E
:100AA0001F910F91089510928A05109213061092CB
:100AB0009C06109225071092AE070895EAE8F5E02B
:100AC00080E090E02081211121C049E8489F9001F9
:100AD000499F300D1124C90186579A4FFC0111928C
:100AE0004A95E9F740E1FC014183EF57FF4F245657
:100AF0003A4F318320832091B60E3091B70E2F5F8D
:100B00003F4F3093B70E2093B60E08950196E757E6
:100B1000FF4F85309105B1F680E090E00895FC012B
:100B20001082E6EBFEE080819181019791838083C2
:100B30000895009711F0FC0103C0EAE8F5E002C057
:100B4000E757FF4F88E0E733F80728F480818823D0
:100B5000B9F3CF01089580E090E00895FC01DC0135
:100B6000AD57BF4F1C92A4E8BEE08C918F5F8C9371
:100B700084878091800E9091810E968785878385EA
:100B8000826083870895ECE3F8E080E090E02FEF47
:100B90003FEF57E0DF0114972D933C93589FD0010E
:100BA000599FB00D1124A95CB74F4C914E7F4C93C7
:100BB0001082019637968431910561F70895CF939D
:100BC000DF93A8E3B8E020E030E0C7E070E0ED910B
:100BD000FC911197E817F90789F4C29FF001C39FB0
:100BE000F00D1124E95CF74FD081D1FB442740F987
:100BF00050E04617570711F4CF0108C02F5F3F4F51
:100C000017962431310519F780E090E0DF91CF91FC
:100C10000895E0E0F0E0A7E3B8E08C9180FD0BC020
:100C200015968C911597882361F0309719F095816E
:100C3000891708F4FD01179688E0A33CB80769F707
:100C400001C0FD0180818D708063808380E8858391
:100C5000CF010895FC01808180FD05C08FEF9FEFDB
:100C600092838183158208950E94DF05009721F009
:100C7000FC018381948108958FEF9FEF089587E3AE
:100C800098E00895EF92FF920F931F93CF93DF9315
:100C9000EC01F62E8A01E22E0E94DF05FC0100978E
:100CA00019F40E940906FC01D283C18314830383D3
:100CB0008081F0FA81F98F708063808380E885837A
:100CC000E682DF91CF911F910F91FF90EF900895F1
:100CD0000E94DF05009711F00C942A0608950895EC
:100CE000CF93DF93EC018F8598898F3F2FEF920789
:100CF000B1F16B8563FB662760F90E94DF05FC019B
:100D0000009769F1808180FD2AC0CD57DF4F98811F
:100D1000282F2F70911113C02063208385818F5F4E
:100D200085838F3FE1F4ECE3F8E0808186958F5F67
:100D30008083379688E0E83CF807B9F710C08295C1
:100D40008F70815F8F70982F9295907F922B9083F8
:100D5000811105C0CF01DF91CF910C942A06DF915C
:100D6000CF910895CF93DF93EC018F8598898F3FC2
:100D70002FEF920719F06B8562FF03C098878F836E
:100D80000EC063FB662760F90E94340698878F8344
:100D9000019629F4CE01DF91CF910C94C608DF9122
:100DA000CF910895BF92CF92DF92EF92FF920F936F
:100DB0001F93CF93DF938C01FC01B384B3FABB2460
:100DC000B0F8C784D0886B2DC6010E943406019606
:100DD000A1F0F801E957FF4F11821082319782E0AC
:100DE0008083C801DF91CF911F910F91FF90EF9009
:100DF000DF90CF90BF900C94400EF801E584F6840C
:100E00000E945E05EC010097D1F00E94AE05898139
:100E10008A5F8983FE01E957FF4F11821082F88AA9
:100E2000EF8636970190F081E02D81E08083F28299
:100E3000E182D482C382B582CE010E94400EC801F5
:100E4000DF91CF911F910F91FF90EF90DF90CF90A6
:100E5000BF900C948F05DC011796ED91FC911897CB
:100E600019968C91863039F46581838194810E9432
:100E7000680681E0089580E00895CF93DF93E1ED67
:100E8000F8E0A5EDB8E020E030E0C185D285CD2BBB
:100E9000B1F0C081D181C817D90789F4C281D3814B
:100EA000C617D70761F45C91541309C04BE0429F09
:100EB000C001439F900D11248F52974F09C02F5F9F
:100EC0003F4F3B961B9625303105F9F680E090E0C8
:100ED000DF91CF910895CF93DF93EAEDF8E080E0C2
:100EE00090E020813181232BA9F42BE0289FE001A1
:100EF000299FD00D1124CF52D74F209791F01F82F8
:100F0000188688EE93E09A87898783EC98E00E94A0
:100F1000D11107C001963B968530910511F7C0E0CD
:100F2000D0E0CE01DF91CF9108958F929F92AF9242
:100F3000BF92CF92DF92EF92FF920F931F93CF93C6
:100F4000DF935C0101ED18E0E12CF12C912CF8010C
:100F5000218532852536310538F02456310932870E
:100F600021879924939438C0F80112861186208134
:100F700031818091800E9091810E2817390761F59B
:100F8000C7018F52974F6C01FC018084C0E0D0E014
:100F9000CE010E949905EC010097F1F08881803420
:100FA000B9F7F801228133818F859889281739078D
:100FB00079F78B8583FB882780F9F6019481981354
:100FC000E7CF882021F0CE010E94400EE1CF61E101
:100FD000CE010E94010FDCCFFBE0EF0EF11C055F9C
:100FE0001F4F87E3E816F10409F0B1CF992079F09B
:100FF000C501DF91CF911F910F91FF90EF90DF908E
:10100000CF90BF90AF909F908F900C94D111DF91B3
:10101000CF911F910F91FF90EF90DF90CF90BF90F5
:10102000AF909F908F900895FF920F931F93CF934F
:10103000DF938C01F62E0E945E05EC01009761F1B2
:101040000E94AE058981895F8983FE01E957FF4FC0
:10105000118210828B8584608B878FEF9FEF988B36
:101060008F8736970190F081E02D82E08083D80150
:101070008D919C9111979283818312968D919C9171
:1010800013979483838314968C918583F682CE0183
:101090000E94400E81E001C080E0DF91CF911F915E
:1010A0000F91FF900895EF92FF920F931F93CF93AC
:1010B000DF938C01E62EF42E0E945E05EC01009772
:1010C00099F10E94AE058981885F8983FE01E95705
:1010D000FF4F11821082319784E08083D8011596EA
:1010E0008D919C911697988B8F8735970190F08101
:1010F000E02D83E080838D919C9111979283818371
:1011000012968D919C9113979483838314968C915E
:101110008583E682F782CE01DF91CF911F910F91F7
:10112000FF90EF900C94400EDF91CF911F910F91A3
:10113000FF90EF9008951092DB081092DA08109259
:10114000E6081092E5081092F1081092F00810924B
:10115000FC081092FB08109207091092060984E619
:1011600090E0A0E0B0E08093C9089093CA08A093F3
:10117000CB08B093CC081092CE081092CD0885E928
:1011800097E09093D0088093CF080895CF93DF9392
:10119000EC014B8543FB442740F96F8578898091AA
:1011A000800E9091810E0E943D07892BE9F40E94E8
:1011B0006B070097F1F02091800E3091810EFC01B9
:1011C000318320832F853889338322832B8523FB2A
:1011D000222720F924832FEF3FEF368325836FEFFB
:1011E0000E941408882329F080E48883DF91CF913E
:1011F000089561E1CE01DF91CF910C94010FAF9280
:10120000BF92CF92DF92EF92FF920F931F93CF93F3
:10121000DF936C01FC01078110858185873009F01F
:101220005AC0F80145812091800E3091810E411104
:1012300007C0BB24B394838194818217930709F07C
:10124000B12CF801818192818217930709F441C082
:10125000B11002C037FD3DC0F601E284F8012681DD
:10126000E29E70011124638174810E943D07EC01AC
:10127000009721F08F818F1530F02BC00E946B07F3
:10128000EC01009731F1F801818192819983888383
:10129000838194819B838A8385818C83F6018081FD
:1012A00091819E838D83FF82BB2079F040815181A3
:1012B0002F2D60E0F801818192810E9442064FEF5C
:1012C0006F2DCE010E94530804C06F2DCE010E94E5
:1012D000140881E001C080E0DF91CF911F910F9150
:1012E000FF90EF90DF90CF90BF90AF900895EF9276
:1012F000FF920F931F93CF93DF937C01DC0117962E
:10130000CD91DC91189719968C91883009F040C0E6
:101310006B817C814D8189819A810E943D078C017E
:10132000D7011A96FC91EF810097A1F18E81D80127
:1013300018969C911897981768F518968C93698160
:101340007A812091800E3091810E8B819C81D70112
:101350004D915C916217730729F42E816D810E9473
:10136000420618C0FE9F700111242F2D6D810E942E
:101370004206F80145815681278160E089819A8182
:101380000E9442064F2D6E81C8010E94530802C080
:1013900080E001C081E0DF91CF911F910F91FF901C
:1013A000EF900895EBE1F9E020E03081332319F06C
:1013B0003150308321E035963AE0E531F307A9F763
:1013C00021110C94D1110895DC0116962C911697D9
:1013D00021FF19C019962C9119972223A1F0179675
:1013E000ED91FC9118972081213049F030F02230A6
:1013F00041F0233041F40C9477090C94DF0E0C94E7
:101400002B070C94FF0880E00895EBE1F9E01082CF
:1014100035968AE0E531F807D1F784E690E0A0E060
:10142000B0E080930E0990930F09A0931009B09338
:101430001109109213091092120982ED99E090930C
:1014400015098093140964EE79E080E00C9462043D
:10145000CF93DF93EC01E881F9818181883801F530
:1014600080818F7D8134E1F48A818031C8F00E94CF
:101470005E050097A9F020E2FC0120832A812183E8
:101480002B81ED57FF4F20832C81319620834A8199
:1014900050E0688179810296DF91CF910C9494326B
:1014A000DF91CF910895809316090895662311F076
:1014B00022E201C024E2FC01208308956F927F9212
:1014C0008F929F92AF92BF92CF92DF92EF92FF9254
:1014D0000F931F93CF93DF93CDB7DEB72C970FB643
:1014E000F894DEBF0FBECDBF00E010E094E2D92E2D
:1014F0008824839422E2C22E31E2B32E43E2942E5A
:1015000052E0A52EEE24E394F12CC8010E94990527
:101510008C01009709F4C9C1D8018C91823209F479
:10152000B6C048F4803281F0813279F760E0C801BA
:101530000E94710CEACF833209F47CC1843229F70E
:10154000C8010E948F05E1CFF801D082438543FD99
:10155000DCCF25813681878590892F3F3F4F89F4E5
:101560002091800E3091810E2817390711F00196D5
:1015700061F641FF03C0D801BC92C7CFF801C08219
:10158000C4CF019611F440FDC0CF2091800E309160
:10159000810ED8011D968D919C911E9728173907B1
:1015A00009F4B3CFC8010E946F06E7E1F9E040E01B
:1015B00050E08481882309F44AC0D8011D962D91FA
:1015C0003C911E97808191812817390709F040C00E
:1015D0001C969C911C974281491B8381483060F581
:1015E000282F30E0042E02C0359527950A94E2F7A3
:1015F00020FF19C02091800E3091810E17968D9199
:101600009C9118972817390709F07FCF1B966C918A
:101610001B9763FB662760F91F968D919C915097ED
:101620000E94680672CF9701042E01C0220F0A940F
:10163000EAF7822B838302C192834195042E01C075
:10164000880F0A94EAF781608383A482F7C0AF0110
:101650003596BAE0E131FB0709F0ABCF41155105F2
:1016600009F453CFF80185859685DA0111969C938C
:101670008E93848512968C93129713968C9213975F
:101680001496AC9288E099E00E94D111D7C01092D4
:101690001609D80151963C915197232F22952F700E
:1016A000E22FF0E0EE0FFF1FEA57F14F0190F081BB
:1016B000E02D309709F45DC01D968D919C911E9789
:1016C0009A8389831F964D915C9150975C834B83DD
:1016D0003F703D832E83AF57BF4F6D917C917987CB
:1016E000688798012E5F3F4F261B370BD801119654
:1016F0003C911197320F3A87AD57BF4F2C912B87F2
:1017000011962C912C87D8011B962C91622F637017
:1017100022FF02C030E201C030E0632B23FF02C091
:1017200030E401C030E0362B4F3F5F4F11F424E02E
:1017300001C020E0432F422BD80119962D913C91F6
:101740001A978217930711F498E001C090E0242FB4
:10175000292BD80115968D919C911697019611F41D
:1017600080E101C080E0822B8F83CE010196199524
:1017700001C080E0F801938590FF80E0D8011796C2
:101780004D915C9118972091800E3091810E4F3FC2
:101790005F4F41F4F801478550892417350711F44C
:1017A00093FF81E0D80115964D915C9116974F3FBC
:1017B0005F4F09F480E02F3F3F4FC9F18823B9F113
:1017C0000E945E053C01009791F10E94AE05D30195
:1017D00011968C9111978D5F11968C931197F3014F
:1017E000E957FF4F11821082F80193859695917009
:1017F0001B968C911B9790FB81F91B968C931B97E2
:101800008585968550969C938E931F97F301EF578D
:10181000FF4F0190F081E02D1082809116098283A4
:10182000D8011C968C918183C3010E94400EF8015F
:10183000D0826BCEC8010E94D20667CED80117961F
:101840008D919C911897019681F42091800E309192
:10185000810EF801878590892817390731F0838533
:1018600082FD03C0C8010E94970E8091800E909166
:10187000810ED8011F962D913C915097F801821747
:10188000930719F02F3F3F4F41F4838581FF02C03A
:10189000B0823BCED801CC9238CE278130858217DA
:1018A000930709F032CE908230CE2C960FB6F89482
:1018B000DEBF0FBECDBFDF91CF911F910F91FF9083
:1018C000EF90DF90CF90BF90AF909F908F907F90E0
:1018D0006F9008951092260A1092250A1092240AF9
:1018E0000895662311F020E301C021E3FC01208369
:1018F0008091260A8F5F8093260A0895CF93DF9305
:10190000C091240AD091250A6091220A4091230AAD
:10191000342F413108F030E17091210A81E19AE0E1
:10192000FE01EF57FF4FA081B181A60FB11DFC0151
:101930002E2F281B231768F420815C9125272D93D7
:10194000772311F0208303C05081522750833196B2
:10195000EFCF630F6093220A431B4093230A442373
:1019600011F082E301C084E38883DF91CF91089571
:101970000F931F938091260A882309F4E7C0809172
:10198000240A9091250A009709F46FC0FC01208178
:10199000243309F05CC02091220AEF57FF4F0190D9
:1019A000F081E02DE20FF11D4091150A5091160AC9
:1019B0006091170A7091180A0091110A1091120A89
:1019C0002091130A3091140A402751276227732768
:1019D0000091190A10911A0A20911B0A30911C0AD1
:1019E000402751276227732700911D0A10911E0A74
:1019F00020911F0A3091200A402751276227732720
:101A00002091210A222359F04083518362837383FA
:101A1000FC0121812C5F21830E94080F0EC0A1E0F0
:101A200000811181228133814017510762077307BA
:101A300009F0A0E06A2F0E94560A1092250A10921F
:101A4000240A8091260A81508093260A7FC022337F
:101A500009F07CC023E3FC01208366EA7EE081E19B
:101A60009AE01F910F910C945B11E0E0F0E0CF0140
:101A70000E949905FC01009709F468C0808190EDEF
:101A8000980F9230A0F7F093250AE093240A44853A
:101A900050E060E070E04093110A5093120A6093A6
:101AA000130A7093140A4785508960E070E0BA0108
:101AB00055274427918992959F70492B4093150A89
:101AC0005093160A6093170A7093180A4585568535
:101AD00060E070E0BA015527442791899F70492B37
:101AE0004093190A50931A0A60931B0A70931C0AB8
:101AF00093854581568160E070E0BA0155274427FF
:101B0000492B40931D0A50931E0A60931F0A70933D
:101B1000200A813319F49181945091839F012E5FA3
:101B20003F4FDF01AF57BF4F4D915C91241B350BE9
:101B30009181920F9093230A1092220A91E08033B0
:101B400009F090E09093210A82E380831F910F9126
:101B500008950F931F93CF93DF93EC0110E0E0E023
:101B6000F0E003E1CF010E949905FC01009791F09C
:101B700080818131B9F7DF01AC57BF4F2D913C9186
:101B80001197215031092D933C93232B09F40083A5
:101B900011E0E8CF112339F0CE01DF91CF911F91F1
:101BA0000F910C94D111DF91CF911F910F91089556
:101BB000FF920F931F93CF93DF93EC0110E0E0E0CF
:101BC000F0E007E180E1F82ECF010E949905FC01C9
:101BD0000097A9F080818631B9F7DF01AC57BF4F7C
:101BE0002D913C9111972150310911963C932E93E0
:101BF000232B19F400831197FC9211E0E5CF1123F8
:101C000041F0CE01DF91CF911F910F91FF900C9485
:101C1000D111DF91CF911F910F91FF9008951092F4
:101C2000440A1092430A82E390E0A0E0B0E080937F
:101C30003B0A90933C0AA0933D0AB0933E0A10924F
:101C4000400A10923F0A88ED9DE09093420A8093EB
:101C5000410A8AE090E0A0E0B0E080932D0A9093E2
:101C60002E0AA0932F0AB093300A1092320A1092D3
:101C7000310A89EA9DE09093340A8093330A0895EB
:101C80000F931F93CF93DF93EC01FC01EA57FF4FB3
:101C9000208121FF02C082E104C08B8581FFFBCF40
:101CA00080E18883FE01ED57FF4F108220FF03C0C3
:101CB0008FEF9FEF04C08091820E9091830E9E83E0
:101CC0008D83257021F4CE010E94B20604C08F8559
:101CD000988998878F838091800E9091810E9A8742
:101CE00089878091850E8F5F8093850E8C838F818D
:101CF00098858E010C571F4F019669F481E498E88E
:101D00009B838A830E947031877099270196F8011E
:101D10009183808307C081E698E89B838A83F801DA
:101D200011821082DF91CF911F910F9108950F932F
:101D30001F93CF93DF938C010E945E05EC01009707
:101D4000C9F182E18883F80181818983FE01ED5721
:101D5000FF4F10820E947031FE01EC57FF4F8770D9
:101D60009927019691838083339611821082F8011E
:101D7000418150E0B8016E5F7F4FCE0102960E9414
:101D8000943281E498E89B838A838FEF9FEF988752
:101D90008F83F801858196819E838D838091800E4B
:101DA0009091810E9A8789878091850E8F5F8093AD
:101DB000850E8C83DF91CF911F910F910895CF9362
:101DC000DF93FC01C781D0858185833011F080E0ED
:101DD00015C080E090E00E9499050097C1F3FC01D6
:101DE00020812631C1F7348529813213F4CF27E1D0
:101DF00020832A81EA57FF4F208381E0DF91CF9132
:101E0000089527E1FC012083ED57FF4F608308957B
:101E100022E1FC0120830895A091430AB091440A75
:101E2000833030F4E82FF0E0E65EFB4F808101C0A4
:101E300081E0FD01ED57FF4F808385E18C93109287
:101E4000440A1092430A8091B60E9091B70E019702
:101E50009093B70E8093B60E0895BF92CF92DF9203
:101E6000EF92FF920F931F93CF93DF93C0E0D0E0E8
:101E700094E1E92E27E1F22E36E1D32E05E110E0C0
:101E800043E1C42E51E1B52ECE010E949905EC012B
:101E9000009709F469C088818331F1F028F480311A
:101EA00049F0823161F0F0CF853181F1873109F459
:101EB0004AC0EACF61E0CE010E94710CE5CFFE017D
:101EC000EC57FF4F80819181892B21F0B88287E206
:101ED0009AE034C0C882D8CF8091430A9091440AD6
:101EE000892B91F6D093440AC093430AE882698112
:101EF000CE0102960E942B108091B60E9091B70EE3
:101F000001969093B70E8093B60EBECFFE01ED57AB
:101F1000FF4F8081811115C02D853E858091800EF7
:101F20009091810E2817390761F48B8580FF09C0D5
:101F3000D88231961183008385E39AE00E94D11103
:101F4000A3CFF882A1CFCE010E947006FE01E9570F
:101F5000FF4F0190F081E02DCE01309719F40E94DF
:101F60008F0592CF199590CFDF91CF911F910F914F
:101F7000FF90EF90DF90CF90BF9008959091450A29
:101F80009F7080915401807F892B809354019091A0
:101F9000450A8091460A992319F0809353010895C8
:101FA000982F9F7180914801807E892B80934801F2
:101FB000089593E090934201909141019F71983070
:101FC000D9F780934201909141019F718913FBCF12
:101FD000089588E00E94D90F8FEF80934F01809180
:101FE000470A882319F086E10C94D90F089580934D
:101FF000470A0C94E90F8093460A0C94BE0FCF93C6
:10200000DF931F921F92CDB7DEB79A8389838093A7
:1020100062018A81809363010F900F90DF91CF91CD
:102020000895CF93DF931F921F92CDB7DEB79A83A7
:102030008983809360018A81809361010F900F9062
:10204000DF91CF9108958F70E5E4F1E09081907F6A
:10205000982B908308951F93CF93DF931F921F9225
:10206000CDB7DEB7182F89E169839A830E94D90F13
:102070008FEF80934F01698182E0860F809380010A
:10208000212FE12F9A81F92FA1E8B1E08E2F821B39
:10209000861718F481918D93F9CF83E090E09093A7
:1020A000C90A8093C80A82E0809342010F900F9082
:1020B000DF91CF911F9108950F931F93CF93DF93DB
:1020C0001092560186E00E94D90FC0E0D0E000E0F7
:1020D00010E061E070E080E090E00E946228809172
:1020E000460182958695837090E00C2E02C0880F81
:1020F000991F0A94E2F7082B192B2296C031D105BB
:1021000041F788E00E94D90F8BEE809356010E9420
:10211000E90FC801DF91CF911F910F910895E9E375
:10212000F1E08081816080831092470A1092450A15
:1021300081E090E09093C90A8093C80A88E00E94E9
:10214000D90F8BEE80935601ECE4F1E0808180683A
:1021500080830E945C1080936D01089520E1FB0153
:102160003191BF0130933F012150C9F710923C01DA
:10217000FC0120E1319130933E012150D9F72091AB
:102180003C01206820933C0120913D0120FFFCCFC1
:10219000FC0180E190913E0191938150D9F708951F
:1021A000CF93DF9300D000D0CDB7DEB78091C80ABF
:1021B0009091C90A029709F469C080914F0183FF89
:1021C0003CC050917B0140E0252F30E0842F90E00F
:1021D0002817390754F0FC01E058FE4F6081FC01DC
:1021E000E85BF54F60834F5FF1CF88E49AE09A8314
:1021F000898352505B83F901E85BF54F80818C83C2
:10220000809147018F5F8D83CE0101960E94280A3D
:10221000809141018F718631D9F780914F0188609B
:1022200080934F0180914C018F7780934C01809176
:102230004C01806880934C0129C080914F0186FF3A
:1022400025C0809141018F718931D9F4809142017B
:1022500082958695877049F0833021F0853021F48E
:1022600082E003C081E001C083E08E830E94E90F19
:1022700021E030E03093C90A2093C80A8E810E9481
:102280000C0F80914F01806480934F0126960FB60A
:10229000F894DEBF0FBECDBFDF91CF9108950E94AD
:1022A000BB110E948F100C9434040E94D0100E9425
:1022B0006B040C94E0110E94AE100C947E0C0F93F2
:1022C0001F93CF93DF93FC018091CB0A9091CC0AAE
:1022D000B681A781308521850097F1F14B2F5A2FC8
:1022E000632F722FDC01D0E0C0E012960D911D919A
:1022F0002D913C911597401751076207730768F4B9
:10230000041B150B260B370B12960D931D932D9363
:102310003C931597AD2FBC2F0EC0401B510B620B89
:10232000730B2D913C9111972115310521F0DA2F76
:10233000CB2FD901DACF42835383648375831097FF
:1023400041F08D919C91119791838083ED93FC9343
:102350000DC09183808306C011821082B283A38353
:1023600034832583F093CC0AE093CB0ADF91CF919D
:102370001F910F9108951092CC0A1092CB0A0895E4
:10238000E091CB0AF091CC0A309739F0E817F907C1
:1023900031F00190F081E02DF7CF80E0089581E0E9
:1023A0000895CF93DF93EC010E94C011811105C005
:1023B000CE01DF91CF910C945F11DF91CF91089501
:1023C000CF92DF92EF92FF92CF93DF930E94332858
:1023D0002091CA0AC22ED12CE12CF12C6C157D055E
:1023E0008E059F05C1F10E9433288091CA0AC62E2E
:1023F000C81AD12CE12CF12C6093CA0AC091CB0AE7
:10240000D091CC0A209739F14A815B816C817D8122
:10241000C416D506E606F706B0F0C41AD50AE60AD1
:10242000F70A888199819093CC0A8093CB0A8A8598
:102430009B85019719F4CE010E945F11EC85FD8503
:10244000CE011995DBCF4C195D096E097F094A83CE
:102450005B836C837D83DF91CF91FF90EF90DF9062
:10246000CF9008952F923F924F925F926F927F92FA
:102470008F929F92AF92BF92CF92DF92EF92FF9294
:102480000F931F93CF93DF9300D01F92CDB7DEB78A
:102490004C017C836B836A015901C8018701AC013F
:1024A0004C195D0957FF03C051954195510995019C
:1024B0006B817C81261B370B37FF03C0319521953B
:1024C000310922242394312C2417350714F0212CB0
:1024D000312C2114310459F03A2D2B2D5C01832F1E
:1024E000922F3B812C81DC82CB82C32ED22EAB81FA
:1024F000BC81AA16BB065CF43C2D2D2D6C01832FEC
:10250000922F3B812C81BC82AB82A32EB22E25015F
:10251000EB81FC814E1A5F0A3C016C187D0877FE46
:1025200003C0719461947108720157FE03C0FFEFFC
:10253000EF1AFF0AF594E794C816D9062CF421E0A7
:1025400030E03A83298324C06FEF7FEF7A83698379
:102550001FC0D401ED91FC910480F581E02D98011C
:1025600021143104D9F04B815C81B601C401199565
:10257000E618F708F7FE06C0E981FA81CE0EDF1EE5
:10258000E40CF51C2B813C812F5F3F4F3C832B8358
:102590006B817C81A616B706E4F604C0A6016B81A8
:1025A0007C81E4CF0F900F900F900F90DF91CF912F
:1025B0001F910F91FF90EF90DF90CF90BF90AF9061
:1025C0009F908F907F906F905F904F903F902F9053
:1025D00008956F927F928F929F92AF92BF92CF9207
:1025E000DF92EF92FF920F931F93CF93DF93EC0153
:1025F0005B016A0139014801E881F9810284F385B0
:10260000E02D87011995E881F981A601480D591D32
:10261000415051090284F385E02D9301B501CE01AB
:102620001995E881F9810084F185E02D9401A601D6
:10263000B501CE011995E881F981B501660D771DC7
:10264000615071090084F185E02D9401A601CE014D
:102650001995DF91CF911F910F91FF90EF90DF902F
:10266000CF90BF90AF909F908F907F906F90089584
:10267000EF92FF920F931F93DC01ED91FC91240FD9
:10268000351F215031090680F781E02D780189013D
:102690009B0119951F910F91FF90EF900895EF9274
:1026A000FF920F931F93DC01ED91FC91260F371FD2
:1026B000215031090680F781E02D78018A011995B2
:1026C0001F910F91FF90EF9008956F927F928F92DC
:1026D0009F92AF92BF92CF92DF92EF92FF920F93B1
:1026E0001F93CF93DF935C014A0169013801EB012D
:1026F000C60ED71ECC15DD0574F4D501ED91FC9105
:102700000084F185E02D87019301A401BE01C5017C
:1027100019952196EFCFDF91CF911F910F91FF90E7
:10272000EF90DF90CF90BF90AF909F908F907F9071
:102730006F900895EF92FF920F931F93DC01ED913C
:10274000FC9111971A960D911C911B9718962D913B
:102750003C9119970684F785E02D7B0140E050E01D
:1027600060E070E019951F910F91FF90EF90089530
:102770000895FC011382128281E294E091838083A8
:102780007583648357834683718760875387428745
:10279000158A158614861786168621E0248B8FEFFE
:1027A0009FEF938B828B918B808B268B178A118E58
:1027B000108E08952F923F924F925F926F927F9268
:1027C0008F929F92AF92BF92CF92DF92EF92FF9241
:1027D0000F931F93CF93DF93CDB7DEB76A970FB6F2
:1027E000F894DEBF0FBECDBF1C0158874F831C87F6
:1027F0000B87FA86E986CC82DC0158964D915C9174
:1028000059974115510509F0A6C018968D919C91D4
:102810001997681779070CF056C11A968D919C91FB
:102820001B97EF81F885E817F9070CF04CC1D12C04
:10283000CB013C81F6E03F9F800D911D11241816BD
:1028400019060CF040C1C60103E0880F991F0A95D4
:10285000E1F74F815885840F951F181619060CF063
:1028600032C157968C91811103C0203B08F02F5F35
:102870007E876D874B01198210E5A12E12E0B12EE3
:10288000A61AB70A55E0259FA00CB11C1124898116
:10289000853039F0ED85FE85EA0DFB1D94919A8314
:1028A00001C01A826F8078842301A8E0AD83BA81C9
:1028B000B0FF12C0D101ED91FC91BC81B13031F477
:1028C0000480F581E02D2B853C8518C00684F785B2
:1028D000E02DEB84FC841DC0E985FA852B853C85C1
:1028E000E217F307E1F0D101ED91FC91BC81B13029
:1028F00059F40480F581E02D29853A85A2016D8582
:102900007E85C10119950BC00684F785E02DE98409
:10291000FA8486019601A301B401C1011995EA81E7
:10292000E695EA83FD81F150FD836C0C7D1C2FEF51
:10293000421A520AF111BBCF39813F5F39838C0CA7
:102940009D1C4D855E854F5F5F4F5E874D8736309E
:1029500009F09DCFB8C0FA01349634913297859131
:102960009491231BA7E02A9F800D911D1124FA0149
:1029700025913491398B288BFC01459154915A8FC4
:10298000498FFC013296549159873196A491AF87B3
:102990003196E491FC013596249131968491BC8165
:1029A000B23050F0622E772467FC7094E82FFF2736
:1029B000E7FDF095FE87ED87FC81CF2ED12C6C9C36
:1029C00040016D9C900C7C9C900C1124860E971EEF
:1029D000A12C1982DE8ACD8AAB01420F511D27FD41
:1029E0005A955E834D83AF81B885A80FB11D87FDD1
:1029F000BA95B88FAF8B59818F85581708F063C08F
:102A0000852F90E02D853E85280F391F2C9DD00104
:102A10002D9DB00D3C9DB00D1124EF81F885EA0F7E
:102A2000FB1FFB83EA836D807E802401FA2D2D81BC
:102A3000F21BFA8B4F89588D480F591F5C8B4B8BBB
:102A40009A89960D862D2D81821B39858317B0F5C5
:102A5000977061F4898D9A8D0196E889F989298D9D
:102A60003A8DE20FF31FB4909A8F898FB7FE1DC085
:102A7000D101ED91FC91BC81B13059F40480F58114
:102A8000E02D2B853C854B895C89B301C1011995EB
:102A90000CC00684F785E02DEB84FC84860196014A
:102AA0004A815B81B201C1011995BB0CED89FE8998
:102AB0004E0E5F1EFFEF6F1A7F0AC2CFA30E498131
:102AC0004F5F498398CF6A960FB6F894DEBF0FBE6A
:102AD000CDBFDF91CF911F910F91FF90EF90DF90CD
:102AE000CF90BF90AF909F908F907F906F905F90AE
:102AF0004F903F902F900895AF92BF92CF92EF9258
:102B0000FF920F931F93CF93DF93EC01262F888DB5
:102B1000998D009709F042C06A3069F42C898E853E
:102B20009F8538E0239F800D911D11249F878E87FC
:102B30001D861C86ABC06D3009F4A8C08E89882321
:102B4000C1F03C898C859D8546E0349F800D911DA8
:102B5000112448855985841795075CF01D861C86CD
:102B60008E859F85E8E03E9F800D911D11249F87F3
:102B70008E87EA88FB88088919894E855F856C8570
:102B80007D85CC88CE010E94DA132C898C859D85A9
:102B9000F6E02F9F800D911D112441C06A3079F419
:102BA0001D861C864C89FC01369684912E853F85B6
:102BB000489F200D311D11243F872E8767C06D303F
:102BC00009F464C0AC014C5F5F4FFA0134916317A4
:102BD00008F45CC03196E491E61708F457C0FA0196
:102BE0004491362F341BFC013296A590B490F7E047
:102BF0003F9FA00CB11C1124F5013296A49131968F
:102C0000E491AA2311F0E1110DC0F5013496A490CE
:102C10002C898C859D85A29E800D911D11249D87F8
:102C20008C8734C0F5013596E4913E89332309F150
:102C30003C89B0E0AE0FB11DE7FDBA953A9FA00107
:102C40003B9F500D11246C857D85460F571F68856D
:102C50007985461757076CF01D861C86FC01369651
:102C600084914E855F85389F400D511D11245F87EB
:102C70004E87EA88FB88088919894E855F856C85AF
:102C80007D85CC88CE010E94DA13BFCF81E090E031
:102C9000DF91CF911F910F91FF90EF90CF90BF9058
:102CA000AF900895FC01758764875787468708951C
:102CB000611101C061E0FC01648B0895FC01738B1C
:102CC000628B718B608B0895FC0185890895FC01EE
:102CD000808591850895FC018285938508950F93E1
:102CE0001F93CF93DF93EC018D89823061F08330A5
:102CF000D9F0813009F0C8C0EC81FD81E41BF50BEF
:102D00003197DB0118C08C819D81DC01A61BB70BBC
:102D1000BD018E819F81FC01E41BF50BAF01415089
:102D20005109621B730BB0C0AE81BF81A61BB70BEC
:102D3000A21BB30BFA01F7FD05C18C819D81E81739
:102D4000F9070CF0FFC0B7FF04C02A0F3B1FA0E03B
:102D5000B0E08E819F81AD01420F531F841795070C
:102D60001CF49C012A1B3B0B121613060CF0EAC044
:102D7000422F8A2F86958695869590E8899FE00D4B
:102D8000F11D1124E65EFD4FA77069F158E05A1B52
:102D9000852F90E0EC01CE5EDD4F6881251760F451
:102DA000DC01A21BB1098FEF90E00A2E02C09595BD
:102DB00087950A94E2F768230130110539F048F04D
:102DC0000230110551F48081862706C08081862B50
:102DD00003C06095808186238083451708F4B2C0C4
:102DE000451BE058FF4F4830A0F102301105A9F40F
:102DF000DF01842F9C9190959C93A058BF4F8850E1
:102E00008830C0F788EF840F869586958695B0E860
:102E10008B9FE00DF11D112419C081E001301105D7
:102E200009F080E0982F9195EF01842F9883C05886
:102E3000DF4F88508830D0F788EF840F86958695CD
:102E4000869590E8899FE00DF11D1124E058FF4F11
:102E50004770442309F476C0A42FB0E0A65FBD4FAD
:102E60009C910130110541F050F00230110509F03C
:102E700069C08081892706C08081892B03C0909515
:102E80008081892380835EC057FD5CC08E819F81D5
:102E9000481759070CF056C077FF04C0260F371F9C
:102EA00060E070E08C819D81FB01E20FF31F8E17C3
:102EB0009F071CF49C01261B370B121613060CF0FF
:102EC00041C0CA0157FD0796E3E095958795EA95BD
:102ED000E1F79695982F882797958795865E9D4F61
:102EE000860F971F4770552761E070E001C0660F9D
:102EF0004A95EAF7462F0130110541F088F002307B
:102F0000110501F5FC01280F391F15C0FC01280F20
:102F1000391FE217F307B1F08081842B8193F9CF39
:102F20006095FC01280F391FE217F30759F08081E3
:102F300086238193F9CFE217F30721F0808184275C
:102F40008193F9CFDF91CF911F910F9108950F9346
:102F50001F93CF93DF93FC018589823069F0833022
:102F6000E1F0813009F082C0C481D581C41BD50B4A
:102F7000C21BD30BDB0117C084819581DC01A61B2A
:102F8000B70BBD016150710986819781DC01A41BDB
:102F9000B50BAD01421B530B69C0A681B781A61BBF
:102FA000B70B1197EA01B7FD08C186819781A81771
:102FB000B9070CF002C1D7FF04C02C0F3D1FC0E0C1
:102FC000D0E084819581AE01420F531F841795078D
:102FD0001CF49C012C1B3D0B121613060CF0EDC0CB
:102FE000CD01B7FD079643E0959587954A95E1F7A2
:102FF0009695982F882797958795865E9D4F8C0F7D
:103000009D1FA770BB2741E050E00A2E01C0440F6E
:103010000A94EAF7642F0130110549F098F0023064
:10302000110509F0CAC0FC01280F391F17C0FC01A7
:10303000280F391FE217F30709F4BFC08081862BE0
:103040008193F8CF4095FC01280F391FE217F30751
:1030500009F4B3C0808184238193F8CFE217F3078A
:1030600009F4ABC0808186278193F8CF77FDA5C096
:1030700084819581681779070CF09FC057FF04C0C1
:10308000240F351F40E050E086819781FA01E20F5E
:10309000F31F8E179F071CF49C01241B350B12167F
:1030A00013060CF08AC0522F842F8695869586953C
:1030B000FB01B0E88B9FE00DF11D1124E65EFD4F92
:1030C000477069F168E0641B862F90E0EC01CE5EEA
:1030D000DD4F4881261760F4DC01A21BB1098FEF98
:1030E00090E00A2E02C0959587950A94E2F748234E
:1030F0000130110539F048F00230110551F480819A
:10310000842706C08081842B03C04095808184235E
:103110008083561708F451C0561BE058FF4F5830B3
:10312000A0F102301105A9F4DF01852F9C91909543
:103130009C93A058BF4F88508830C0F788EF850F08
:10314000869586958695B0E88B9FE00DF11D11243C
:1031500019C081E00130110509F080E0982F9195A8
:10316000EF01852F9883C058DF4F88508830D0F703
:1031700088EF850F86958695869590E8899FE00D66
:10318000F11D1124E058FF4F57705523B1F0A52FC2
:10319000B0E0A65FBD4F9C910130110539F048F0B9
:1031A0000230110551F48081892706C08081892B66
:1031B00003C09095808189238083DF91CF911F91F7
:1031C0000F910895CF92DF92EF92FF920F931F938A
:1031D000CF93DF937C018B01EA01690177FDA0C0E9
:1031E0000E946716081719070CF09AC0D7FD98C0FF
:1031F000C7010E946B16C817D9070CF091C0C70110
:103200000E946416823009F07FC0F70184819581A5
:103210009C01201B310B8901015011098681978186
:10322000FC01EC1BFD0BEF0121970BC0813049F431
:10323000F701848195818C1B9D0BE8018C01015065
:103240001109F1E0CF16D10431F010F132E0C316CC
:10325000D104E1F165C0FE01D7FD379683E0F59515
:10326000E7958A95E1F7F695FE2FEE27F795E79516
:10327000E00FF11FE65EFD4FC770DD2781E090E0B3
:103280000C2E01C0880F0A94EAF79081982B3AC05F
:10329000FE01D7FD3796A3E0F595E795AA95E1F7EE
:1032A000F695FE2FEE27F795E795E00FF11FE65E06
:1032B000FD4FC770DD2781E090E00C2E01C0880F24
:1032C0000A94EAF78095908198231CC0FE01D7FDEF
:1032D000379663E0F595E7956A95E1F7F695FE2F49
:1032E000EE27F795E795E00FF11FE65EFD4FC770FB
:1032F000DD2781E090E00C2E01C0880F0A94EAF7E8
:103300009081982790830CC0833009F08FCFF7010C
:1033100086819781801B910B8E01EC01219791CFC3
:10332000DF91CF911F910F91FF90EF90DF90CF90A1
:1033300008951F93CF93DF93EC01162F40E250E0E6
:1033400060E870E00E94B91389E394E09983888370
:103350008FEF8C8F88A38E8F8D8F1F8FDF91CF91F2
:103360001F91089580E092E0EAE1F2E0DF019C0124
:103370001D9221503040E1F70895FC0181A188237E
:1033800039F06EBD00000DB407FEFDCF8EB5089577
:1033900088E090E030E8A4A1B5A14C9123A5209548
:1033A00024232C93A2A1B3A122A5432F462321F0CD
:1033B0004C91422B4C9304C04C91209524232C9388
:1033C000A4A1B5A12C9143A5242B2C93369501974C
:1033D00011F708951F93CF93DF93EC01162F8C8D77
:1033E0008F3F09F1EEA1FFA180819CA5892B8083ED
:1033F000E8A5F9A590818DA5809589238083EEA10C
:10340000FFA190818CA5809589238083CE010E94A5
:10341000BD19EEA1FFA180819CA5892B8083DF913E
:10342000CF911F9108958A8D682F772767FD70953A
:1034300084E19DE00E94032660E084E19DE00E941B
:10344000B025612F84E19DE00E94B02584E19DE0DC
:10345000DF91CF911F910C9418260F931F93CF9358
:10346000DF93EC01162F022F6B8F4A8F8C8D8F3FCD
:1034700009F489C061E08E8D0E944A2961E088A12B
:103480000E944A2988A1992787FD9095FC01E8565A
:10349000F84FE491F0E0EE0FFF1FE454F84F259150
:1034A00034913FA32EA3FC01EC58F84F84918CA7D4
:1034B0008E8D992787FD9095FC01E856F84FE49191
:1034C000F0E0EE0FFF1FE454F84F2591349139A737
:1034D00028A7FC01EC58F84F84918DA789A1811190
:1034E00034C061E08C8D0E944A2961E08D8D0E947C
:1034F0004A298D8D992787FD9095FC01E856F84F54
:10350000E491F0E0EE0FFF1FE454F84F2591349161
:103510003DA32CA3FC01EC58F84F84918BA78C8D14
:10352000992787FD9095FC01E856F84FE491F0E06B
:10353000EE0FFF1FE454F84F259134913BA32AA3CB
:10354000FC01EC58F84F84918AA789A18823F9F0EF
:103550000E9442258091130D882381F0813051F41F
:103560008DB38093110D9DB38091120D80958923A9
:103570008DBB04C08FB78093110DF89480E58CBD8E
:1035800081E08DBD04C084E19DE00E94EF25002311
:10359000F1F08F8D87FD1BC061E00E944A2961E038
:1035A0008F8D0E94832961E070E080E090E00E94AE
:1035B000622860E08F8D0E9483296AE070E080E0DD
:1035C00090E00E94622861E08F8D0E9483296EEA5C
:1035D000CE010E94EA1965EDCE010E94EA1960E869
:1035E000CE010E94EA1968EACE010E94EA196FE151
:1035F000CE010E94EA1963EDCE010E94EA1960E053
:10360000CE010E94EA1960E4CE010E94EA196DE839
:10361000CE010E94EA19113011F460E101C064E1A9
:10362000CE010E94EA1960E2CE010E94EA1960E030
:10363000CE010E94EA1961EACE010E94EA1968EC03
:10364000CE010E94EA196AEDCE010E94EA1962E0F9
:10365000CE010E94EA1961E8CE010E94EA196FE8E2
:10366000CE010E94EA1969EDCE010E94EA191130DB
:1036700011F462E201C061EFCE010E94EA196BED24
:10368000CE010E94EA1960E4CE010E94EA1964EAC0
:10369000CE010E94EA1966EACE010E94EA196EE2A2
:1036A000CE010E94EA196FEACE01DF91CF911F91FE
:1036B0000F910C94EA19662311F067EA01C066EADB
:1036C0000C94EA19DF92EF92FF920F931F93CF931E
:1036D000DF93EC0161E20E94EA1960E0CE010E94F2
:1036E000EA196FE7CE010E94EA1962E2CE010E9458
:1036F000EA1960E0CE010E94EA1963E0CE010E945F
:10370000EA198C8D8F3F31F1EEA1FFA180819CA53C
:10371000892B8083E8A5F9A580819DA5892B8083CD
:10372000EEA1FFA190818CA58095892380830AE179
:1037300012E0F80161918F01CE010E94BD19F4E001
:103740000A311F07B1F7EEA1FFA180819CA5892B4B
:10375000808337C0D090B8008CE08093B8000AE135
:1037600012E06A8D772767FD709584E19DE00E94E5
:103770000326E091140DF091150D0190F081E02DDC
:1037800060E484E19DE01995E12CF12CF801EE0D47
:10379000FF1D608184E19DE00E94B0258FEFE81A53
:1037A000F80AE0E1EE16F10489F784E19DE00E9459
:1037B0001826005F1F4FF4E00A311F0791F6D092E0
:1037C000B800DF91CF911F910F91FF90EF90DF90A4
:1037D0000895CF92DF92EF92FF920F931F93CF93B2
:1037E000DF93CDB7DEB72C970FB6F894DEBF0FBED0
:1037F000CDBF8C01DC011F968C918031C1F040F46B
:10380000813091F070F08230F1F483E090E017C0E5
:10381000803281F0813289F08131A9F485E090E035
:103820000EC081E090E00BC082E090E008C084E030
:1038300090E005C086E090E002C087E090E09093C1
:10384000080B8093070B1092720B1092710B4AE0D9
:10385000F8016089CE0107960E94522E6DE474E053
:10386000CE0101960E94A92DBE01695F7F4FCE0156
:1038700001960E941E2FBC018DED9DE00E948E2CB2
:10388000CE0101960E943B2DCE0107960E943B2D52
:10389000D8011C96CC908091070B9091080B019752
:1038A00001F567E574E08DED9DE00E94712CE12C3F
:1038B000F12CD12CEC14FD0484F4D8011A96ED916E
:1038C000FC911B97EE0DFF1D60818DED9DE00E9428
:1038D000732CBFEFEB1AFB0AEDCF8DED9DE00E943C
:1038E0007A2C2C960FB6F894DEBF0FBECDBFDF91B9
:1038F000CF911F910F91FF90EF90DF90CF9008959F
:10390000AF92BF92CF92DF92EF92FF920F931F93ED
:10391000CF93DF9300D000D0CDB7DEB77C01FC01A0
:10392000C480D58060EC74E085E79BE00E94212E86
:1039300060EC74E08BE79BE00E94212E60EC74E069
:1039400081E89BE00E94212E60EC74E087E89BE018
:103950000E94212E00E010E0B801C7010E947B2FD9
:103960008A3319F00C151D052CF1B801C7010E940E
:103970007B2F98012F5F3F4F59018A3309F448C0CC
:103980000C151D050CF044C0B801C7010E947B2F27
:10399000682FCE0101960E94392EBE016F5F7F4FC6
:1039A0008BE79BE00E94032FCE0101960E943B2DE6
:1039B0008501DBCFB801C7010E947B2F682FCE01A4
:1039C00001960E94392EBE016F5F7F4F85E79BE015
:1039D0000E94032FCE0101960E943B2D0F5F1F4FC7
:1039E000BBCF0C151D05F4F4B801C7010E947B2F55
:1039F000682FCE0101960E94392EBE016F5F7F4F66
:103A000081E89BE00E94032FCE0101960E943B2D8E
:103A10008501B801C7010E947B2FF80131965F0133
:103A20008A33F9F68501B801C7010E947B2F8D32D8
:103A3000D1F00C151D05BCF4B801C7010E947B2F05
:103A4000682FCE0101960E94392EBE016F5F7F4F15
:103A500087E89BE00E94032FCE0101960E943B2D38
:103A60000F5F1F4FE0CF6BE77BE08DED9DE00E9485
:103A70008E2C26960FB6F894DEBF0FBECDBFDF9119
:103A8000CF911F910F91FF90EF90DF90CF90BF905B
:103A9000AF900895EF92FF920F931F93CF93DF9310
:103AA000CDB7DEB7CA57D1090FB6F894DEBF0FBE47
:103AB000CDBF8C018091730B9091740BD801199636
:103AC000EC90F12C892BB9F140E250E060E070E01D
:103AD00049835A836B837C83FE0135968AE3DF0139
:103AE0001D928A95E9F7AE014F5F5F4F80E090E04D
:103AF0008E159F056CF4D8011796ED91FC911897DF
:103B0000E80FF91F2081FA012193AF010196F0CF50
:103B1000BE016F5F7F4FCE0181599F4F0E94A92D3B
:103B2000BE0161597F4F8DED9DE00E948E2CCE012C
:103B300081599F4F46C060EC74E0CE018B589F4F77
:103B40000E94A92DAE014F5F5F4F80E090E0D80149
:103B50008E159F0564F41796ED91FC911897E80F68
:103B6000F91F2081FA012193AF010196F0CF1B9636
:103B70008C91992787FD909597FF03C0919581952A
:103B800091090E94530ABE016F5F7F4FCE01815998
:103B90009F4F0E94A92DCE0181599F4F0E94801CEA
:103BA000CE0181599F4F0E943B2DCE018B599F4FD3
:103BB000FE0131961192E817F907E1F7CE018B5813
:103BC0009F4F0E943B2D81E0C658DF4F0FB6F894FF
:103BD000DEBF0FBECDBFDF91CF911F910F91FF9040
:103BE000EF900895EF92FF920F931F93CF93DF937F
:103BF000EC01198218821B821A821D821C821E828D
:103C00001F821886198660EC74E00A960E94A92D1E
:103C100060EC74E0CE0140960E94A92D1F8A1E8A96
:103C20001B8E1A8E1D8E1C8E8E01025E1F4F780118
:103C30008CE3E80EF11C60EC74E0C8010E94A92D31
:103C40000A5F1F4F0E151F05B1F760EC74E0CE013F
:103C50008A579F4F0E94A92D60EC74E0CE018457D3
:103C60009F4F0E94A92D60EC74E0CE018E569F4FAD
:103C70000E94A92D60EC74E0CE0188569F4F0E94EF
:103C8000A92DFE01E256FF4F10821182128213828B
:103C900034961082319611821082329681E090E043
:103CA000918380833296108211821282138234961D
:103CB0001082118212821382349648EE53E060E043
:103CC00070E0408351836283738360EC74E0CE01C3
:103CD0008D549F4F0E94A92DFE01E754FF4F118282
:103CE000108260EC74E0CE0185549F4F0E94A92D94
:103CF000FE01EF53FF4F10821182128213828EB3A6
:103D0000CA53DF4F8883DF91CF911F910F91FF90AE
:103D1000EF900895EF92FF920F931F93CF93DF934D
:103D2000EC0185549F4F0E943B2DCE018D549F4F37
:103D30000E943B2DCE0188569F4F0E943B2DCE0105
:103D40008E569F4F0E943B2DCE0184579F4F0E945D
:103D50003B2DCE018A579F4F0E943B2D7E018EE165
:103D6000E80EF11CE114F10461F08E01065A1F4FB8
:103D70000E151F0531F006501109C8010E943B2D98
:103D8000F7CFCE0140960E943B2DCE010A96DF91DF
:103D9000CF911F910F91FF90EF900C943B2D8EEDE2
:103DA0009AE00E943B2D86EE9AE00E943B2D8FEE1A
:103DB0009AE00C948A1E2F923F924F925F926F92DC
:103DC0007F928F929F92AF92BF92CF92DF92EF92AB
:103DD000FF920F931F93CF93DF93CDB7DEB7299751
:103DE0000FB6F894DEBF0FBECDBF8C017B012DB6A0
:103DF0003EB6FC01EC57FF4F8081918198012E5710
:103E00003F4F5901F901019709F0BFC080819181AD
:103E1000892B09F029C160EC74E0C7010E944B2F87
:103E200081113EC06DB67EB6B701CE0101960E94EB
:103E30000C2ECD80DE80CE0101960E943B2D2DB749
:103E40003EB72C193D090FB6F8943EBF0FBE2DBFEB
:103E50008DB79EB701964C01412C512C4C145D043A
:103E60005CF4B201C7010E947B2FF40181934F01E2
:103E7000FFEF4F1A5F0AF2CFB7018EED9AE00E9472
:103E8000F52DB80165547F4FC80140960E94F52D6D
:103E90000FB6F8947EBE0FBE6DBE81E090E035C0D7
:103EA0008DB69EB6F801E754FF4F11821082F801DB
:103EB000C684D7842DB73EB72C193D090FB6F894A8
:103EC0003EBF0FBE2DBF8DB79EB701967C01612C02
:103ED000712C3A962F016C147D045CF4B301C2017D
:103EE0000E947B2FF70181937F01FFEF6F1A7F0AFA
:103EF000F2CFB2018EED9AE00E94F52D0FB6F89444
:103F00009EBE0FBE8DBE80E090E021E030E0F50166
:103F1000318320839801205F3F4F7901892B31F451
:103F2000B901C80185549F4F0E94F52DC7010E9419
:103F30007D2F7093D30A6093D20A81E08093D40AD4
:103F40008093D50A83E08093D60A8091DE0A90910F
:103F5000DF0A9093D80A8093D70AC092D90A89EED3
:103F60009BE19093DB0A8093DA0A8DEC9AE00E9441
:103F7000940460EC74E0C8010A960E94212E60EC63
:103F800074E0C7010E94212E6FC080819181892B2E
:103F900009F06AC04DB65EB6FB01F481FF836F2E57
:103FA000FB0175802DB73EB7261937090FB6F89477
:103FB0003EBF0FBE2DBF8DB79EB701964C01680165
:103FC00090E1C90ED11C62E575E0C6010E94212E68
:103FD00020E030E02615370574F4B901C7012887C1
:103FE00039870E947B2FF40181934F012885398501
:103FF0002F5F3F4FEFCFB7018EED9AE00E94F52D76
:1040000081E090E0F50191838083C6010E947D2FBD
:104010007093D30A6093D20A81E08093D40A80938C
:10402000D50A83E08093D60A8091DE0A9091DF0A58
:104030009093D80A8093D70A2F812093D90A89EECA
:104040009BE19093DB0A8093DA0A8DEC9AE00E9460
:10405000940460EC74E0C8010A960E94212E0FB609
:10406000F8945EBE0FBE4DBE0FB6F8943EBE0FBEB6
:104070002DBE29960FB6F894DEBF0FBECDBFDF91DF
:10408000CF911F910F91FF90EF90DF90CF90BF9055
:10409000AF909F908F907F906F905F904F903F90E8
:1040A0002F900895DF92EF92FF920F931F93CF937B
:1040B000DF93EC017B018A01D22ECB010E945604D2
:1040C000FE01E953FF4FF182E082C8010E945C04C7
:1040D000FE01E753FF4F118300838D2D0E94FB0FDC
:1040E000FE01E553FF4FD08281E00E94F70F80E090
:1040F0000E942310FE01E453FF4F1082ECE4F1E034
:1041000080818C7F82608083C353DF4F82E088830D
:10411000DF91CF911F910F91FF90EF90DF90089565
:10412000CF92DF92EF92FF920F931F93CF93DF9383
:10413000CDB7DEB762970FB6F894DEBF0FBECDBF26
:104140007C016901FC01E153FF4F7183608332966A
:1041500051834083BE97118210820E944F110E94AA
:104160005C100E94340426E040E052EC61E070E014
:104170008DED9DE00E94B12A4AE0B601CE01019684
:104180000E94AB2EBE016F5F7F4FC7018D549F4FC2
:104190000E94152ECE0101960E943B2DF701EC578F
:1041A000FF4FC114D104B9F581E090E09183808381
:1041B0006BE574E08DED9DE00E94A02C21E04CE3C6
:1041C00062E08CEC9BE00E942D1A8CEC9BE00E943C
:1041D000B2198CEC9BE00E94621B60E08CEC9BE0CF
:1041E0000E94581661E070E08CEC9BE00E945E1625
:1041F00040E050E060E070E08CEC9BE00E945216E2
:104200006EE674E08CEC9BE00E94A02C8CEC9BE0B2
:104210000E94621B32C0118210826BE774E08DED48
:104220009DE00E94A02C4AE0B601CE010D960E94AE
:10423000AB2EBE01635F7F4FCE0107960E940C2E0E
:104240006CE874E0CE0107960E94312FBC01CE01CC
:1042500001960E940C2EBE016F5F7F4FC7010E9426
:10426000DB1ECE0101960E943B2DCE0107960E94D7
:104270003B2DCE010D960E943B2D4AE0B801CE01A8
:1042800007960E947F2E63E974E0CE0101960E949A
:10429000A92DBE01695F7F4FCE0101960E941E2F9E
:1042A000BC018DED9DE00E948E2CCE0101960E94F6
:1042B0003B2DCE0107960E943B2D2AE1A801B601B5
:1042C000C7010E9452206AE47DE181E00E946204FD
:1042D000C12CD12C8EE1E80EF11C60EC74E0C7011A
:1042E0008C0D9D1D0E94212E86E0C80ED11C8CE3F2
:1042F000C816D10491F762960FB6F894DEBF0FBED0
:10430000CDBFDF91CF911F910F91FF90EF90DF9084
:10431000CF9008950F9366E08CEC9BE00E94991972
:1043200000E020E040E060E086EC9BE00E94FA2B99
:104330008FEE9AE00E94F21D40E150E060E070E0F4
:1043400086EE9AE00E94112541E050E060E070E0C6
:104350008EED9AE00F910C9411250C94CF1ECF9204
:10436000DF92EF92FF920F931F93CF93DF937C0125
:104370008C01005F1F4F60EC74E0C8010E94212E89
:104380008AE0E80EF11C60EC74E0C7010E94212E67
:1043900084E690E00E948A288DED9DE00E94D62957
:1043A000C82E84E690E00E948A28C0E0D0E08DED1F
:1043B0009DE00E94BB29892BD1F08DED9DE00E94EC
:1043C000D629D82E84E690E00E948A288AE3D8165F
:1043D00039F0209729F46D2DC8010E940A2F02C0E0
:1043E000C1E0D0E06D2DC7010E940A2FE0CF84E626
:1043F00090E00E948A288C2DDF91CF911F910F9120
:10440000FF90EF90DF90CF9008954F925F926F9260
:104410007F928F929F92AF92BF92CF92DF92EF9254
:10442000FF920F931F93CF93DF93CDB7DEB76897BB
:104430000FB6F894DEBF0FBECDBF8C010E945511A0
:10444000280124E8420E511CF20180819181892BC0
:1044500009F43AC20E9433286B017C01F801E95546
:10446000FF4F80819181A281B381B701A601481BD2
:10447000590B6A0B7B0BD801A155BF4F8D919D91B4
:104480000D90BC91A02D84179507A607B707D0F40F
:10449000C082D182E282F38260EA74E08DED9DE019
:1044A0000E94A02C61E08091EE0A811160E060938F
:1044B000EE0A8FE00E9483296091EE0A8CEC9BE06B
:1044C0000E945B1B5801FBEAAF0EB11CF501808115
:1044D0009181A281B381C81AD90AEA0AFB0AF1E1E3
:1044E000CF16F7E2DF06E104F10478F062EA74E047
:1044F0008DED9DE00E94A02C0E943F060E94332873
:10450000F50160837183828393838DED9DE00E942A
:10451000BB29892B09F4D8C1C8010E94AF21F82E0C
:104520008CEC9BE00E94B2198CEC9BE00E94621B19
:1045300040E050E060E070E08CEC9BE00E9452169E
:104540006801FAE0CF0ED11C580120E1A20EB11C87
:104550006F2DCE0101960E94392EB501CE01019634
:104560000E941E2F6FEC74E00E94312FB6010E9452
:104570001E2FBC018CEC9BE00E948E2CCE0101967C
:104580000E943B2D49E050E062E470E08CEC9BE03F
:104590000E94521667EA74E08CEC9BE00E94A02C0B
:1045A0008CEC9BE00E94621B8CE6F81214C081E048
:1045B00090E0F8019383828360EC74E0CE01019671
:1045C0000E94A92DBE016F5F7F4FC8010E94DB1EB4
:1045D000CE010196F0C0F3E7FF12F0C08090FD0A13
:1045E0009090FE0A60EC74E0CE0143960E94A92DE3
:1045F00060EC74E0CE010D960E94A92DE12CF12C07
:10460000612C712C681479049CF5B30189EF9AE050
:104610000E947B2F8A3331F42FEFE21AF20A8FEFD8
:10462000681A780AE1E0EE16F10449F4B30189EF63
:104630009AE00E947B2F682FCE01439613C0F2E0D0
:10464000EF16F10489F4B30189EF9AE00E947B2F01
:104650008D3251F0B30189EF9AE00E947B2F682FD1
:10466000CE010D960E940A2F2FEF621A720ACACF4E
:10467000BE016D5E7F4F8DED9DE00E948E2C6DEA38
:1046800074E0CE0143960E944B2F882309F45EC04C
:1046900060EC74E0CE010D960E944B2F81112AC070
:1046A000CE010D960E947D2F84EF9FE10E9415336D
:1046B000CE010D960E947D2F2AE1AB0160E070E0F3
:1046C000C8010E94522063EB74E0CE0101960E9463
:1046D000A92DBE01635F7F4FCE0101960E941E2F60
:1046E000BC018DED9DE00E948E2CCE0101960E94B2
:1046F0003B2D5BC060EC74E0CE010D960E944B2F09
:10470000882309F452C084EF9FE10E94FD324AE001
:10471000BC01CE0107960E947F2E61EC74E0CE01B1
:1047200001960E94A92DBE01695F7F4FCE010196BF
:104730000E941E2FBC018DED9DE00E948E2CCE01AB
:1047400001960E943B2DCE0107962DC069ED74E0C5
:10475000CE0143960E944B2F882339F161ED74E01E
:104760008DED9DE00E94A02C6CED74E0C5010E94CF
:10477000212E62EE74E0C6010E94212E81E090E0BD
:10478000F801ED55FF4F9183808360EC74E0CE011A
:1047900001960E94A92DBE016F5F7F4FC8010E9444
:1047A000DB1ECE0101960E943B2DCE010D960E948C
:1047B0003B2DCE0143960E943B2D86C080E7F81228
:1047C00083C062EA74E08DED9DE00E94A02C0E94FF
:1047D0003F067C01C12CD12CF70181819281019689
:1047E00009F467C04AE0B601CE0107960E947F2E09
:1047F000BE01695F7F4FCE0101960E940C2E6EEEC6
:1048000074E0CE0101960E94312FBC018DED9DE038
:104810000E94632CCE0101960E943B2DCE0107968B
:104820000E943B2DF701608161704AE050E08DED00
:104830009DE00E94182D66EF74E08DED9DE00E94D2
:10484000712CF7016081669561704AE050E08DED52
:104850009DE00E94182D62E075E08DED9DE00E94C4
:10486000712CF701608162956F704AE050E08DED28
:104870009DE00E94182D6AE075E08DED9DE00E949C
:10488000712CF701618172814AE050E08DED9DE06D
:104890000E941F2D64E175E08DED9DE00E94712C5A
:1048A000F701638174814AE050E08DED9DE00E9444
:1048B000252DFFEFCF1ADF0A27E0E20EF11C84E17D
:1048C000C816D10409F088CFF20180819181892B2B
:1048D00029F5F801208D318D8689978921303105A0
:1048E00039F08630910524F40196978B868B16C09B
:1048F0000697A4F0F801EB55FF4F80819181892B39
:1049000031F06DE175E08DED9DE00E94A02CF80185
:10491000178A168A81E090E0918F808F68960FB693
:10492000F894DEBF0FBECDBFDF91CF911F910F91E5
:10493000FF90EF90DF90CF90BF90AF909F908F90BF
:104940007F906F905F904F9008950F931F9388E131
:104950000FB6F89480936000109260000FBE61E083
:104960008EE00E944A2961E08FE00E944A2901E01E
:1049700010E020E030E040E555E064E575E08FEEC2
:104980009AE00E94902028E288E190E00FB6F89427
:10499000A895809360000FBE209360001F910F9137
:1049A00008958FEE9AE00E940522A89508950F932E
:1049B00066E080E09CE00E94991900E020E040E081
:1049C00060E08AEF9BE00E94FA2B0F9108950F930D
:1049D00000E020E040E060E085E09DE00E94FA2BEE
:1049E0008EE29CE00F910C94F21D8EE29CE00C9400
:1049F0008A1EFC01228133816217730778F02681B9
:104A00003781620F731F20953095622373230E94B4
:104A10006C2D91E0811103C090E001C091E0892FDD
:104A20000895EF92FF920F931F93CF93DF93EC01C2
:104A30008B017A0160EC74E00E94A92D81E0E81AF4
:104A4000F108FF82EE820115110551F0B801CE0187
:104A5000DF91CF911F910F91FF90EF900C94F9246B
:104A6000DF91CF911F910F91FF90EF9008950F93D9
:104A700000E020E040E060E08BE09DE00E94FA2B47
:104A80000F91089561E088E00E94832961E088E049
:104A90000E944A298CB580618CBD8CB580648CBD28
:104AA00061E08CE10E944A2961E08DE10C944A2981
:104AB0008091440D90E02091450D821B910908954D
:104AC0002091450D8091440D281750F4E22FF0E01D
:104AD000EA5BF24F808190E02F5F2093450D0895AF
:104AE0008FEF9FEF0895E091450D8091440DE817F9
:104AF00030F4F0E0EA5BF24F808190E008958FEFB0
:104B00009FEF08950895CF92DF92EF92FF920F9357
:104B10001F93CF93DF937C01CB018A012091200D5D
:104B2000222389F0EB016B01C40ED51ECC15DD05E7
:104B300069F06991D701ED91FC910190F081E02D30
:104B4000C7011995F3CF642F0E948F26C801DF910A
:104B5000CF911F910F91FF90EF90DF90CF9008952C
:104B6000CF93DF931F92CDB7DEB769832091200DDD
:104B70002223D1F02091210D203240F021E030E0BD
:104B8000FC013383228380E090E015C08091220DE8
:104B9000E82FF0E0ED5DF24F998190838F5F809375
:104BA000220D8093210D05C061E0CE0101960E9487
:104BB0008F2681E090E00F90DF91CF910895FC0166
:104BC0001382128248EE53E060E070E04483558324
:104BD0006683778386E695E09183808308951092BB
:104BE000450D1092440D1092220D1092210D0C943F
:104BF0001F2681E08093200D6093430D1092220DBB
:104C00001092210D08950C94F9250F93062F21E0A1
:104C10004091210D63E27DE08091430D0E943C268E
:104C20001092220D1092210D1092200D0F910895D7
:104C300061E00C94052684E19DE00C94DF25109240
:104C4000D30D81E08093D10D1092D00D61E00E94D0
:104C5000832961E080E00E948329E9EBF0E0808114
:104C60008E7F808380818D7F80838CE08093B800ED
:104C700085E48093BC0008950F93413208F046C04C
:104C80009091D30D9111FCCF92E09093D30D0093AE
:104C9000D10D9FEF9093660D1092AB0D4093AA0D2E
:104CA000FB016CEA7DE0DB019A2F961B941718F448
:104CB00091919D93F9CF1092D20D9091D20D880FC2
:104CC000892B8093D20D8091D00D813041F41092C8
:104CD000D00D8091D20D8093BB0085EC01C085EE94
:104CE0008093BC00222321F08091D30D8230E1F328
:104CF0008091660D8F3F61F08091660D803251F09A
:104D00008091660D803341F483E007C081E005C0E7
:104D100080E003C082E001C084E00F910895613219
:104D200098F42091D30D243089F46093880DFC0110
:104D30008AE89DE0DC012A2F281B261718F4219110
:104D40002D93F9CF80E0089581E0089582E00895E1
:104D500085ED8093BC008091BC0084FDFCCF109257
:104D6000D30D089585EC8093BC001092D30D089567
:104D70001F920F920FB60F9211240BB60F922F9322
:104D80003F934F935F936F937F938F939F93AF93D3
:104D9000BF93EF93FF938091B900887F803609F429
:104DA0009CC068F5883209F45BC090F4803109F446
:104DB00054C038F4882309F4F5C0883009F44DC094
:104DC000F5C0883109F44CC0803209F45DC0EEC0F2
:104DD000803409F468C048F4803309F455C088333E
:104DE00009F0E4C08093660DA8C0803509F44FC077
:104DF000883509F45DC0883409F0D8C0D5C0883939
:104E000009F4C6C0A8F4883709F467C038F48836B6
:104E100009F463C0803709F460C0C8C0883809F459
:104E2000B7C0803909F45FC0803809F0BFC05BC0EB
:104E3000803B09F485C038F4803A09F466C0883AAA
:104E400009F47EC0B3C0803C09F4A6C0883C09F4D4
:104E5000A3C0883B09F489C0A9C08091D20D10C0BD
:104E60009091AB0D8091AA0D981770F5E091AB0D64
:104E700081E08E0F8093AB0DF0E0E455F24F80811E
:104E80008093BB0085EC85C08093660D8DC0E0915A
:104E9000AB0D81E08E0F8093AB0D8091BB00F0E0F5
:104EA000E455F24F80839091AB0D8091AA0D6DC0B7
:104EB000E091AB0D81E08E0F8093AB0D8091BB0034
:104EC000F0E0E455F24F80838091D10D81116CC0E8
:104ED00081E08093D00D84EA60C083E08093D30D9D
:104EE0001092670DCFCF8091670D803208F050C0CF
:104EF000E091670D81E08E0F8093670D8091BB007C
:104F0000F0E0E859F24F8083BDCF8091670D803289
:104F100030F4E091670DF0E0E859F24F10820E9402
:104F2000A8266091670D70E0E091CC0DF091CD0D59
:104F300088E69DE019951092670D0E94B22636C052
:104F400084E08093D30D1092890D1092880DE0912A
:104F5000CE0DF091CF0D19958091880D811105C06E
:104F600081E08093880D10928A0DE091890D81E097
:104F70008E0F8093890DF0E0E657F24F8081809389
:104F8000BB009091890D8091880D981708F47ACF15
:104F900085E88093BC000AC085EC8093BC00109229
:104FA000D30D04C01092660D0E94A826FF91EF91C8
:104FB000BF91AF919F918F917F916F915F914F9131
:104FC0003F912F910F900BBE0F900FBE0F901F902F
:104FD00018951F920F920FB60F9211242F933F93A3
:104FE0008F939F93AF93BF938091D50D9091D60DE2
:104FF000A091D70DB091D80D3091D40D23E0230F9F
:105000002D3720F40196A11DB11D05C026E8230F00
:105010000296A11DB11D2093D40D8093D50D9093C0
:10502000D60DA093D70DB093D80D8091D90D909146
:10503000DA0DA091DB0DB091DC0D0196A11DB11D23
:105040008093D90D9093DA0DA093DB0DB093DC0D16
:10505000BF91AF919F918F913F912F910F900FBE74
:105060000F901F9018952FB7F8946091D50D7091FF
:10507000D60D8091D70D9091D80D2FBF08953FB7D1
:10508000F8948091D90D9091DA0DA091DB0DB0913B
:10509000DC0D26B5A89B05C02F3F19F00196A11D78
:1050A000B11D3FBF6627782F892F9A2F620F711D80
:1050B000811D911D42E0660F771F881F991F4A9539
:1050C000D1F70895CF92DF92EF92FF92CF93DF93C3
:1050D0006B017C010E943F28EB01C114D104E10463
:1050E000F10489F00E94882F0E943F286C1B7D0BE1
:1050F000683E734090F381E0C81AD108E108F108D6
:10510000C851DC4FEACFDF91CF91FF90EF90DF9055
:10511000CF900895019739F0880F991F880F991F34
:1051200002970197F1F70895789484B5826084BD61
:1051300084B5816084BD85B5826085BD85B581609B
:1051400085BDEEE6F0E0808181608083E1E8F0E0FB
:105150001082808182608083808181608083E0E82A
:10516000F0E0808181608083E1EBF0E08081846009
:105170008083E0EBF0E0808181608083E1E9F0E012
:10518000808182608083808181608083E0E9F0E0BB
:10519000808181608083E1EAF0E0808182608083A9
:1051A000808181608083E0EAF0E08081816080839B
:1051B000E1E2F1E080818260808380818160808390
:1051C000E0E2F1E0808181608083EAE7F0E08081C5
:1051D000846080838081826080838081816080831D
:1051E0008081806880831092C100089590E0FC0166
:1051F0003197E231F10508F04CC0E656FF4F0C94B0
:10520000DE2F809180008F7703C0809180008F7D9A
:1052100080938000089580918000877FF9CF84B5C6
:105220008F7702C084B58F7D84BD08958091B000D2
:105230008F7703C08091B0008F7D8093B000089578
:10524000809190008F7707C0809190008F7D03C080
:1052500080919000877F8093900008958091A000B6
:105260008F7707C08091A0008F7D03C08091A00040
:10527000877F8093A0000895809120018F7707C0D9
:10528000809120018F7D03C080912001877F8093D2
:1052900020010895CF93DF9390E0FC01EC58F84F84
:1052A0002491FC01E856F84F8491882349F190E05D
:1052B000880F991FFC01EA52F84FA591B4918454CC
:1052C000984FFC01C591D4919FB7611108C0F89423
:1052D0008C91209582238C93888182230AC062302E
:1052E00051F4F8948C91322F309583238C938881DC
:1052F000822B888304C0F8948C91822B8C939FBF5F
:10530000DF91CF9108950F931F93CF93DF931F9257
:10531000CDB7DEB7282F30E0F901E05BF84F84917C
:10532000F901EC58F84F1491F901E856F84F04913F
:105330000023C9F0882321F069830E94F62869813F
:10534000E02FF0E0EE0FFF1FE454F84FA591B49169
:105350009FB7F8948C91611103C01095812301C00F
:10536000812B8C939FBF0F90DF91CF911F910F9155
:1053700008950E946832FC01818D228D90E0805C4E
:105380009F4F821B910960E470E00E94892F08956D
:10539000FC01918D828D981731F0828DE80FF11DFF
:1053A000858D90E008958FEF9FEF0895FC01918D1A
:1053B000828D981761F0828DDF01A80FB11D5D9677
:1053C0008C91928D9F5F9F73928F90E008958FEFE5
:1053D0009FEF089583E79BE2892B41F080E090E006
:1053E000892B21F00E94732B81110DC080E090E089
:1053F000892B71F080E090E0892B51F00E94000031
:10540000811104C008950E940000F0CF0C940000A8
:105410000895FC01848DDF01A80FB11DA35ABF4F71
:105420002C91848D90E001968F739927848FA689A3
:10543000B7892C93A089B1898C9180648C93938DCA
:10544000848D981306C00288F389E02D80818F7DBA
:1054500080830895CF93DF93EC01888D8823C9F072
:10546000EA89FB89808185FD05C0A889B9898C916D
:1054700086FD0FC00FB607FCF5CF808185FFF2CF08
:10548000A889B9898C9185FFEDCFCE010E94092AA8
:10549000E7CFDF91CF910895CF92DF92FF920F93E4
:1054A0001F93CF93DF931F92CDB7DEB76C01DC0162
:1054B0005B969C915B975C968C915C97981307C068
:1054C0005096ED91FC915197808185FD32C0F60197
:1054D000038D10E00F5F1F4F0F731127F02EF601A1
:1054E000848DF81211C00FB607FCF9CFD601509683
:1054F000ED91FC915197808185FFF1CFC6016983C1
:105500000E94092A6981EBCF838DE80FF11DE35AD0
:10551000FF4F6083D6015B960C935B975296ED919B
:10552000FC91539780818062808381E058968C93B0
:105530000DC0D6015696ED91FC9157976083509619
:10554000ED91FC91519780818064808381E090E0AF
:105550000F90DF91CF911F910F91FF90DF90CF902F
:105560000895BF92CF92DF92EF92FF92CF93DF9395
:10557000EC016A017B01B22EE889F98982E080831F
:10558000411581EE580761057105A1F060E079E0F1
:105590008DE390E0A70196010E949D2F21503109D3
:1055A000410951095695479537952795211580E171
:1055B000380798F0E889F989108260E874E88EE18C
:1055C00090E0A70196010E949D2F215031094109C9
:1055D00051095695479537952795EC85FD8530837C
:1055E000EE85FF852083188EEC89FD89B082EA89DB
:1055F000FB89808180618083EA89FB898081886062
:105600008083EA89FB89808180688083EA89FB89BD
:1056100080818F7D8083DF91CF91FF90EF90DF902D
:10562000CF90BF9008951F920F920FB60F92112442
:105630000BB60F922F938F939F93EF93FF93E0916D
:10564000ED0DF091EE0D8081E091F30DF091F40DF0
:1056500082FD12C090818091F60D8F5F8F73209133
:10566000F70D821751F0E091F60DF0E0E352F24FA2
:10567000958F8093F60D01C08081FF91EF919F91EE
:105680008F912F910F900BBE0F900FBE0F901F9018
:1056900018951F920F920FB60F9211240BB60F920E
:1056A0002F933F934F935F936F937F938F939F932A
:1056B000AF93BF93EF93FF938DED9DE00E94092A76
:1056C000FF91EF91BF91AF919F918F917F916F91DA
:1056D0005F914F913F912F910F900BBE0F900FBE96
:1056E0000F901F9018958DED9DE00E94BB2921E041
:1056F000892B09F420E0822F08951092E00D10927A
:10570000DF0D88EE93E0A0E0B0E08093E10D909390
:10571000E20DA093E30DB093E40D86E795E090933E
:10572000DE0D8093DD0D85EC90E09093EA0D809383
:10573000E90D84EC90E09093EC0D8093EB0D80EC00
:1057400090E09093EE0D8093ED0D81EC90E09093BE
:10575000F00D8093EF0D82EC90E09093F20D80932A
:10576000F10D86EC90E09093F40D8093F30D109280
:10577000F60D1092F70D1092F80D1092F90D089594
:10578000AF92BF92CF92DF92EF92FF920F931F934F
:10579000CF93DF936C017B01C0E0D0E000E010E02C
:1057A000F601EC0FFD1F4AE050E06281C7010E9444
:1057B000182D5C016EE2C7010E94732C8A0D9B1D9F
:1057C000080F191F2196C330D10551F74AE050E068
:1057D000F6016581C7010E94182D800F911FDF918E
:1057E000CF911F910F91FF90EF90DF90CF90BF90DE
:1057F000AF9008950F93FC0186E895E09183808334
:1058000062834383248305830F91089586E895E09E
:1058100090937B0E80937A0E10927C0E10927D0EE8
:1058200010927E0E10927F0E089508950E94942883
:105830000E94152C0E94A524CAEED9E20E94D12410
:105840002097E1F30E94EA29F9CFCF92DF92EF92FD
:10585000FF920F931F93CF93DF936C017A01EB01BB
:10586000E60EF71E00E010E0CE15DF0561F069914D
:10587000D601ED91FC910190F081E02DC6011995C2
:10588000080F191FF1CFC801DF91CF911F910F9120
:10589000FF90EF90DF90CF9008956115710581F032
:1058A000DB010D900020E9F7AD0141505109461B85
:1058B000570BDC01ED91FC910280F381E02D1994EE
:1058C00080E090E00895DC01ED91FC91DB011496FD
:1058D0004D915C9115976D917C910280F381E02D43
:1058E00019940C944D2CDC01ED91FC910190F08108
:1058F000E02D19940F931F93CF93DF93EC016DE08C
:105900000E94732C8C016AE0CE010E94732C800FE0
:10591000911FDF91CF911F910F9108950F931F93C6
:10592000CF93DF93EC010E94632C8C01CE010E9487
:105930007A2C800F911FDF91CF911F910F910895C5
:105940000F931F93CF93DF93EC010E944D2C8C019A
:10595000CE010E947A2C800F911FDF91CF911F9171
:105960000F9108958F929F92AF92BF92CF92DF9244
:10597000EF92FF920F931F93CF93DF93CDB7DEB7D4
:10598000A1970FB6F894DEBF0FBECDBF7C01C42E29
:10599000E52FCB01D22E19A221E02D1510F02AE01F
:1059A000D22E8E010F5D1F4F8D2C912CA12CB12C6E
:1059B0006C2D7E2FA50194010E949D2F8C2DD29ECF
:1059C00080191124015011098A3014F4805D01C03E
:1059D000895CF8018083211531054105510521F0CD
:1059E000C22EE32FCA01E4CFB801C7010E944D2C9B
:1059F000A1960FB6F894DEBF0FBECDBFDF91CF9159
:105A00001F910F91FF90EF90DF90CF90BF90AF90DC
:105A10009F908F9008952115310541F4DC01ED919F
:105A2000FC910190F081E02D642F19940C94B22C1C
:105A30009A01462F50E060E070E00C940B2D9A0123
:105A4000AB0160E070E00C940B2D0F931F93CF938C
:105A5000DF93EC019A01AB0160E070E00E940B2D36
:105A60008C01CE010E947A2C800F911FDF91CF9183
:105A70001F910F910895FC01808191810C949430C5
:105A8000CF93DF93EC0188819981009711F00E94F8
:105A90009430198218821D821C821B821A82DF9127
:105AA000CF9108950F931F93CF93DF93EC018B0158
:105AB0006F5F7F4F888199810E947F31009731F01D
:105AC000998388831B830A8381E001C080E0DF9192
:105AD000CF911F910F910895CF93DF93EC018881AF
