:100000000C94FF030C9430040C9430040C943004D2
:100010000C9430040C9430040C9430040C94300490
:100020000C9430040C9430040C9430040C94300480
:100030000C9430040C9430040C9430040C94300470
:100040000C9430040C9430040C9430040C94300460
:100050000C9430040C9430040C9430040C94F5246B
:100060000C9430040C941F280C9455280C943004E4
:100070000C9430040C9430040C9430040C94300430
:100080000C9430040C9430040C9430040C94300420
:100090000C9430040C9430040C9430040C94C4235D
:1000A0000C9430040C9430040C9430040C94300400
:1000B0000C9430040C9430040C9430040C943004F0
:1000C0000C9430040C9430040C9430040C943004E0
:1000D0000C9430040C9430040C9430040C943004D0
:1000E0000C9430040C9430040C9430040C943004C0
:1000F0000C9430040C9430040C9430040C943004B0
:100100000C9430040C9430040C9430040C9430049F
:100110000C9430040C9430040C9430040C9430048F
:100120000C9430040C9430040C9430040C9430047F
:100130000C9430041B261E260D2611261726552644
:10014000222626262C26302634263A263E264226ED
:10015000552648264C2650260C948E220C942C268C
:100160000C9427230C94B60F0C9412290C94D426CB
:100170000C9455260C94BC220C946D100C940D26F6
:100180000C949E1A0C9458270C94E3210C94172677
:100190000C9443220C946F040C94E9100C94CC281A
:1001A0000C94BC100C9411260C941E260C94E22680
:1001B0000C9430260C94F3130C94F3210C94222607
:1001C0000C941E110C943E260C94E81E0C943C11C9
:1001D0000C943A260C94F6260C940B1F0C942B15B9
:1001E0000C94C7260C94DF180C9466160C941B26EE
:1001F0000C9442260C946C220C944C260C94D31034
:100200000C9434260C9464070C947F220C940013F5
:100210000C947F280C9476070C946D190C9450263E
:100220000C9401220C9436270C9464220C94C5265D
:100230000C94340B0C9448260C94630B0C948F2272
:100240000C9489280C9431290C9426260000000077
:10025000003E5B4F5B3E3E6B4F6B3E1C3E7C3E1C4C
:10026000183C7E3C181C577D571C1C5E7F5E1C0092
:10027000183C1800FFE7C3E7FF0018241800FFE749
:10028000DBE7FF30483A060E2629792926407F050C
:100290000507407F05253F5A3CE73C5A7F3E1C1C22
:1002A00008081C1C3E7F14227F22145F5F005F5FE2
:1002B00006097F017F006689956A606060606094CE
:1002C000A2FFA29408047E040810207E20100808D3
:1002D0002A1C08081C2A08081E101010100C1E0CDE
:1002E0001E0C30383E3830060E3E0E060000000070
:1002F0000000005F00000007000700147F147F1457
:10030000242A7F2A1223130864623649562050009B
:1003100008070300001C2241000041221C002A1C87
:100320007F1C2A08083E0808008070300008080872
:100330000808000060600020100804023E51494592
:100340003E00427F400072494949462141494D33B0
:100350001814127F1027454545393C4A4949314117
:10036000211109073649494936464949291E0000E5
:10037000140000004034000000081422411414143A
:100380001414004122140802015909063E415D5926
:100390004E7C1211127C7F494949363E414141222F
:1003A0007F4141413E7F494949417F090909013E59
:1003B000414151737F0808087F00417F4100204080
:1003C000413F017F081422417F404040407F021C92
:1003D000027F7F0408107F3E4141413E7F090909A9
:1003E000063E4151215E7F09192946264949493275
:1003F00003017F01033F4040403F1F2040201F3F3B
:100400004038403F631408146303047804036159BF
:10041000494D43007F414141020408102000414101
:10042000417F0402010204404040404000030708AD
:100430000020545478407F284444383844444428A9
:10044000384444287F385454541800087E09021850
:10045000A4A49C787F0804047800447D40002040D8
:10046000403D007F1028440000417F40007C04781C
:1004700004787C080404783844444438FC18242464
:100480001818242418FC7C080404084854545424E4
:1004900004043F44243C4040207C1C2040201C3C61
:1004A0004030403C44281028444C9090907C446458
:1004B000544C4400083641000000770000004136EB
:1004C000080002010204023C2623263C1EA1A16171
:1004D000123A4040207A38545455592155557941A3
:1004E0002254547842215554784020545579400C78
:1004F0001E5272123955555559395454545939555B
:100500005454580000457C410002457D420001459D
:100510007C407D1211127DF0282528F07C54554531
:10052000002054547C547C0A097F4932494949329D
:100530003A4444443A324A4848303A4141217A3AAE
:1005400042402078009DA0A07D3D4242423D3D407A
:1005500040403D3C24FF2424487E4943662B2FFC29
:100560002F2BFF0929F620C0887E090320545479D7
:10057000410000447D413048484A32384040227AA8
:10058000007A0A0A727D0D19317D2629292F282625
:100590002929292630484D4020380808080808082D
:1005A0000808382F10C8ACBA2F102834FA00007B86
:1005B000000008142A142222142A14085500550099
:1005C00055AA55AA55AAFF55FF55FF000000FF0088
:1005D000101010FF00141414FF001010FF00FF1083
:1005E00010F010F0141414FC001414F700FF0000B5
:1005F000FF00FF1414F404FC141417101F10101F34
:10060000101F1414141F00101010F0000000001F21
:10061000101010101F10101010F010000000FF102C
:100620001010101010101010FF10000000FF140028
:1006300000FF00FF00001F10170000FC04F414145A
:100640001710171414F404F40000FF00F714141426
:1006500014141414F700F7141414171410101F10A6
:100660001F141414F4141010F010F000001F101FC9
:100670000000001F14000000FC140000F010F01037
:1006800010FF10FF141414FF141010101F000000AE
:1006900000F010FFFFFFFFFFF0F0F0F0F0FFFFFFB2
:1006A0000000000000FFFF0F0F0F0F0F3844443809
:1006B00044FC4A4A4A347E02020606027E027E0258
:1006C00063554941633844443C04407E201E200663
:1006D000027E020299A5E7A5991C2A492A1C4C72A0
:1006E00001724C304A4D4D303048784830BC625A27
:1006F000463D3E494949007E0101017E2A2A2A2AB7
:100700002A44445F444440514A444040444A514092
:100710000000FF0103E080FF000008086B6B083653
:1007200012362436060F090F0600001818000000C4
:100730001010003040FF0101001F01011E00191DB3
:100740001712003C3C3C3C00000000000000000090
:10075000000000000007030401090A0B000000026A
:100760000000000000000000000000000000000089
:100770000102040810204080011020408008102051
:100780004080042001020408102040800204080177
:100790000204010204040404040404040202020228
:1007A00002050505050505070606060606060606F2
:1007B00002020207070705050000000025000000EF
:1007C0002B002E003100340000000000000000006B
:1007D000000000000000240000002A002D0030006E
:1007E000330000000000000000000000E81EE321CC
:1007F000F32143222723892812290B1F01221124C8
:100800001FBECFEFD1E8DEBFCDBF00E00CBF15E0CB
:10081000A0E0B2E0ECE9F0E600E00BBF02C0079018
:100820000D92A837B107D9F72FE0A8E7B5E001C0CE
:100830001D92AF3CB207E1F717E0CAEFD7E000E046
:1008400006C022970109FE010BBF0E94C32CCC3EBB
:10085000D10780E00807A9F70E9422290C943C30B8
:100860000C9400001092970F1092980F1092940F12
:100870001092930F1092CA0F1092C90FE9E9FFE08E
:10088000119211928FE0E93BF807D1F70E949A0B81
:100890000E9490070E944F050E948B040E94BF0592
:1008A0000C94F5099093940F8093930F0C94950DED
:1008B0009093960F8093950F0C94830DE82FF0E0A2
:1008C000EE0FFF1FE756F04F7183608308950E947B
:1008D000E9070E94B10C0E94AE040C94430AE09117
:1008E0007805F09179053097A1F02281338128179E
:1008F000390759F4DC01AD57BF4F2C912787139668
:100900002C91208B22E0248304C00190F081E02D03
:10091000EACF0C948B051092790510927805089512
:10092000FC0114821786138212828091C90F909164
:10093000CA0F01969093CA0F8093C90F80917805D2
:1009400090917905009719F41182108202C0918369
:100950008083F0937905E093780508950F931F93B2
:10096000CF93DF93E0917805F0917905EF0120971F
:1009700009F490C08C81882321F0823009F460C092
:1009800085C00E945A058C01009721F482E08C8377
:100990008F8780C09B838A8381E08C83F801E9572D
:1009A000FF4F8FE694E0918380833197898582FBA6
:1009B000882780F980839985F801838590FB80F9E9
:1009C0008387998593FB992790F990FB82F9838718
:1009D00099859695917090FB81F983878091970F07
:1009E0008F5F8093970F84878091930F9091940FDE
:1009F000968785878D819E81908B878798859F704C
:100A00008189807F892B818B9F819295907F8F70C8
:100A1000892B818BEF57FF4F4C8550E06A857B8592
:100A2000808191810E94732FF80181819C85890FBB
:100A30008183C801DF91CF911F910F910C94CB0B53
:100A4000EC17FD0739F4888199819093790580939B
:100A500078050BC0808191818C179D0711F0FC01F6
:100A6000F9CF88819981918380838091C90F90917A
:100A7000CA0F01979093CA0F8093C90FED85FE8529
:100A8000CE01DF91CF911F910F9119940990D881D8
:100A9000C02D6DCFDF91CF911F910F9108951092CE
:100AA0007A051092030610928C0610921507109288
:100AB0009E070895EAE7F5E080E090E020812111AB
:100AC00021C049E8489F9001499F300D1124C90178
:100AD00086589A4FFC0111924A95E9F740E1FC01D2
:100AE0004183EF57FF4F24573A4F318320832091A2
:100AF000C90F3091CA0F2F5F3F4F3093CA0F209319
:100B0000C90F08950196E757FF4F85309105B1F65B
:100B100080E090E00895FC011082E9ECFFE0808124
:100B200091810197918380830895009711F0FC01D2
:100B300003C0EAE7F5E002C0E757FF4F88E0E7327D
:100B4000F80728F480818823B9F3CF01089580E065
:100B500090E00895FC01DC01AD57BF4F1C92A7E95E
:100B6000BFE08C918F5F8C9384878091930F9091DD
:100B7000940F968785878385826083870895ECE24A
:100B8000F8E080E090E02FEF3FEF57E0DF011497AF
:100B90002D933C93589FD001599FB00D1124A95D0E
:100BA000B74F4C914E7F4C93108201963796843606
:100BB000910561F70895CF93DF93A8E2B8E020E0B4
:100BC00030E0C7E070E0ED91FC911197E817F9076C
:100BD00089F4C29FF001C39FF00D1124E95DF74F26
:100BE000D081D1FB442740F950E04617570711F454
:100BF000CF0108C02F5F3F4F17962436310519F7F4
:100C000080E090E0DF91CF910895E0E0F0E0A7E28E
:100C1000B8E08C9180FD0BC015968C9115978823B8
:100C200061F0309719F09581891708F4FD01179646
:100C30008AE0A33EB80769F701C0FD0180818D708D
:100C40008063808380E88583CF010895FC018081E3
:100C500080FD05C08FEF9FEF9283818315820895F9
:100C60000E94DB05009721F0FC01838194810895A7
:100C70008FEF9FEF089587E298E008950E94DB05CB
:100C8000009711F00C9426060895EF92FF920F93AF
:100C90001F93CF93DF93EC0109851A8517FF06C0D8
:100CA0008D859E850817190709F044C08D819E81A6
:100CB000019609F43FC060E08D859E850E94DB05AA
:100CC000FC01CE018D579F4F7C01309729F18F8118
:100CD0009885019669F441E02091930F3091940F2B
:100CE0008F8598892817390709F040E0242F01C023
:100CF00020E0838194818017910729F0D7019C918E
:100D00008681891710F020FF12C01483038380812D
:100D10008F70806380830BC00E940506FC018D8567
:100D20009E859283818389859A8594838383D70165
:100D30008C918683DF91CF911F910F91FF90EF905F
:100D40000895CF93DF93EC018F8598898F3F2FEF24
:100D50009207B1F16B8563FB662760F90E94DB05A2
:100D6000FC01009769F1808180FD2AC0CD57DF4FDB
:100D70009881282F2F70911113C0206320838581C3
:100D80008F5F85838F3FE1F4ECE2F8E08081869508
:100D90008F5F808337968AE0E83EF807B9F710C086
:100DA00082958F70815F8F70982F9295907F922B94
:100DB0009083811105C0CF01DF91CF910C9426065D
:100DC000DF91CF910895CF93DF93EC018F859889C0
:100DD0008F3F2FEF920741F06B8562FD05C063FBEB
:100DE000662760F90E94300698878F83DF91CF9144
:100DF0000895BF92CF92DF92EF92FF920F931F93CD
:100E0000CF93DF938C01FC01B384B3FABB24B0F819
:100E1000C784D0886B2DC6010E9430060196A1F0D0
:100E2000F801E957FF4F11821082319782E08083E9
:100E3000C801DF91CF911F910F91FF90EF90DF904C
:100E4000CF90BF900C94CB0BF801E584F6840E9400
:100E50005A05EC010097D1F00E94AA0589818A5FAA
:100E60008983FE01E957FF4F11821082F88AEF86CD
:100E700036970190F081E02D81E08083F282E1825B
:100E8000D482C382B582CE010E94CB0BC801DF9110
:100E9000CF911F910F91FF90EF90DF90CF90BF9077
:100EA0000C948B05DC011796ED91FC91189719961F
:100EB0008C91863039F46581838194810E943E064D
:100EC00081E0089580E00895E6EFFAE020E03081C7
:100ED000332319F03150308321E035963BE0E8327E
:100EE000F307A9F721110C94550F0895DC0116960C
:100EF0002C91169721FF12C019962C911997222335
:100F000069F01796ED91FC9118972081222321F02A
:100F1000213021F40C9452070C946A0C80E008955F
:100F2000E6EFFAE0108235968BE0E832F807D1F769
:100F300084E690E0A0E0B0E08093E90A9093EA0AAA
:100F4000A093EB0AB093EC0A1092EE0A1092ED0A0D
:100F500084E697E09093F00A8093EF0A66E777E0E3
:100F600080E00C945E04CF93DF93EC01E881F9817B
:100F70008181883801F580818F7D8134E1F48A8117
:100F80008031C8F00E945A050097A9F020E2FC01C8
:100F900020832A8121832B81ED57FF4F20832C81D1
:100FA000319620834A8150E0688179810296DF91F1
:100FB000CF910C94732FDF91CF9108958093F10A14
:100FC0000895662311F022E201C024E2FC0120838F
:100FD00008956F927F928F929F92AF92BF92CF921D
:100FE000DF92EF92FF920F931F93CF93DF93CDB7D2
:100FF000DEB72C970FB6F894DEBF0FBECDBF00E072
:1010000010E094E2D92E8824839422E2C22E31E2A9
:10101000B32E43E2942E52E0A52EEE24E394F12C5D
:10102000C8010E9495058C01009709F4C9C1D80137
:101030008C91823209F4B6C048F4803281F081325A
:1010400079F760E0C8010E94FC09EACF833209F415
:101050007CC1843229F7C8010E948B05E1CFF801D9
:10106000D082438543FDDCCF2581368187859089F9
:101070002F3F3F4F89F42091930F3091940F281701
:10108000390711F0019661F641FF03C0D801BC9207
:10109000C7CFF801C082C4CF019611F440FDC0CF84
:1010A0002091930F3091940FD8011D968D919C91B2
:1010B0001E972817390709F4B3CFC8010E944506C7
:1010C000E2EFFAE040E050E08481882309F44AC06E
:1010D000D8011D962D913C911E97808191812817F2
:1010E000390709F040C01C969C911C974281491B0E
:1010F0008381483060F5282F30E0042E02C03595FA
:1011000027950A94E2F720FF19C02091930F3091A0
:10111000940F17968D919C9118972817390709F00D
:101120007FCF1B966C911B9763FB662760F91F9618
:101130008D919C9150970E943E0672CF9701042E8C
:1011400001C0220F0A94EAF7822B838302C19283A3
:101150004195042E01C0880F0A94EAF781608383C9
:10116000A482F7C0AF013596BBE0E432FB0709F07B
:10117000ABCF4115510509F453CFF801858596850C
:10118000DA0111969C938E93848512968C93129714
:1011900013968C9213971496AC9283EE9AE00E9469
:1011A000550FD7C01092F10AD80151963C91519732
:1011B000232F22952F70E22FF0E0EE0FFF1FE7564E
:1011C000F04F0190F081E02D309709F45DC01D963D
:1011D0008D919C911E979A8389831F964D915C9166
:1011E00050975C834B833F703D832E83AF57BF4F37
:1011F0006D917C917987688798012E5F3F4F261B00
:10120000370BD80111963C911197320F3A87AD57A1
:10121000BF4F2C912B8711962C912C87D8011B96B0
:101220002C91622F637022FF02C030E201C030E0D7
:10123000632B23FF02C030E401C030E0362B4F3F68
:101240005F4F11F424E001C020E0432F422BD8016E
:1012500019962D913C911A978217930711F498E0F3
:1012600001C090E0242F292BD80115968D919C91D7
:101270001697019611F480E101C080E0822B8F83E4
:10128000CE010196199501C080E0F801938590FF89
:1012900080E0D80117964D915C9118972091930F9B
:1012A0003091940F4F3F5F4F41F4F80147855089CB
:1012B0002417350711F493FF81E0D80115964D915D
:1012C0005C9116974F3F5F4F09F480E02F3F3F4FEF
:1012D000C9F18823B9F10E945A053C01009791F1A8
:1012E0000E94AA05D30111968C9111978D5F1196DA
:1012F0008C931197F301E957FF4F11821082F80187
:101300009385969591701B968C911B9790FB81F914
:101310001B968C931B978585968550969C938E93F0
:101320001F97F301EF57FF4F0190F081E02D1082DE
:101330008091F10A8283D8011C968C918183C3012C
:101340000E94CB0BF801D0826BCEC8010E94F90637
:1013500067CED80117968D919C911897019681F4CC
:101360002091930F3091940FF80187859089281769
:10137000390731F0838582FD03C0C8010E94220C29
:101380008091930F9091940FD8011F962D913C91CD
:101390005097F8018217930719F02F3F3F4F41F400
:1013A000838581FF02C0B0823BCED801CC9238CE7B
:1013B000278130858217930709F032CE908230CE94
:1013C0002C960FB6F894DEBF0FBECDBFDF91CF9144
:1013D0001F910F91FF90EF90DF90CF90BF90AF9053
:1013E0009F908F907F906F9008951092390B10927C
:1013F000380B1092370B0895662311F020E301C0DB
:1014000021E3FC0120838091390B8F5F8093390B9E
:101410000895CF93DF93C091370BD091380B609133
:10142000350B4091360B342F413108F030E170918B
:10143000340B84E29BE0FE01EF57FF4FA081B181A6
:10144000A60FB11DFC012E2F281B231768F4208145
:101450005C9125272D93772311F0208303C05081C1
:10146000522750833196EFCF630F6093350B431BA8
:101470004093360B442311F082E301C084E3888358
:10148000DF91CF9108950F931F938091390B88239B
:1014900009F4E7C08091370B9091380B009709F45D
:1014A0006FC0FC012081243309F05CC02091350B12
:1014B000EF57FF4F0190F081E02DE20FF11D4091B9
:1014C000280B5091290B60912A0B70912B0B0091E6
:1014D000240B1091250B2091260B3091270B4027D0
:1014E00051276227732700912C0B10912D0B20910F
:1014F0002E0B30912F0B4027512762277327009125
:10150000300B1091310B2091320B3091330B40276F
:101510005127622773272091340B222359F04083EF
:10152000518362837383FC0121812C5F21830E949C
:101530008C0C0EC0A1E00081118122813381401703
:1015400051076207730709F0A0E06A2F0E94E107C4
:101550001092380B1092370B8091390B8150809389
:10156000390B7FC0223309F07CC023E3FC012083C8
:1015700069EB7FE084E29BE01F910F910C94DF0EFA
:10158000E0E0F0E0CF010E949505FC01009709F42E
:1015900068C0808190ED980F9230A0F7F093380BDF
:1015A000E093370B448550E060E070E04093240BFB
:1015B0005093250B6093260B7093270B478550891A
:1015C00060E070E0BA0155274427918992959F7099
:1015D000492B4093280B5093290B60932A0B70934F
:1015E0002B0B4585568560E070E0BA0155274427EE
:1015F00091899F70492B40932C0B50932D0B609336
:101600002E0B70932F0B93854581568160E070E01F
:10161000BA0155274427492B4093300B5093310B87
:101620006093320B7093330B813319F49181945092
:1016300091839F012E5F3F4FDF01AF57BF4F4D9109
:101640005C91241B350B9181920F9093360B109275
:10165000350B91E0803309F090E09093340B82E3F6
:1016600080831F910F9108950F931F93CF93DF9362
:10167000EC0110E0E0E0F0E003E1CF010E9495050D
:10168000FC01009791F080818131B9F7DF01AC57FF
:10169000BF4F2D913C911197215031092D933C93CF
:1016A000232B09F4008311E0E8CF112339F0CE0198
:1016B000DF91CF911F910F910C94550FDF91CF9136
:1016C0001F910F910895FF920F931F93CF93DF9374
:1016D000EC0110E0E0E0F0E007E180E1F82ECF015E
:1016E0000E949505FC010097A9F080818631B9F729
:1016F000DF01AC57BF4F2D913C911197215031091B
:1017000011963C932E93232B19F400831197FC928E
:1017100011E0E5CF112341F0CE01DF91CF911F9170
:101720000F91FF900C94550FDF91CF911F910F9166
:10173000FF9008951092570B1092560B82E390E0A1
:10174000A0E0B0E080934E0B90934F0BA093500B12
:10175000B093510B1092530B1092520B83E69BE007
:101760009093550B8093540B8AE090E0A0E0B0E09A
:101770008093400B9093410BA093420BB093430B8B
:101780001092450B1092440B84E39BE09093470B1F
:101790008093460B08950F931F93CF93DF93EC0133
:1017A000FC01EA57FF4F208121FF02C082E104C003
:1017B0008B8581FFFBCF80E18883FE01ED57FF4FD2
:1017C000108220FF03C08FEF9FEF04C08091950F20
:1017D0009091960F9E838D83257021F4CE010E94F7
:1017E000E30604C08F85988998878F838091930F33
:1017F0009091940F9A8789878091980F8F5F80933B
:10180000980F8C838F8198858E010C571F4F0196FE
:1018100069F481E498E89B838A830E944F2E877045
:1018200099270196F8019183808307C081E698E8A3
:101830009B838A83F80111821082DF91CF911F91DF
:101840000F9108950F931F93CF93DF938C010E9404
:101850005A05EC010097C9F182E18883F801818182
:101860008983FE01ED57FF4F10820E944F2EFE012B
:10187000EC57FF4F877099270196918380833396A9
:1018800011821082F801418150E0B8016E5F7F4FF4
:10189000CE0102960E94732F81E498E89B838A838D
:1018A0008FEF9FEF98878F83F801858196819E83C4
:1018B0008D838091930F9091940F9A87898780915F
:1018C000980F8F5F8093980F8C83DF91CF911F913A
:1018D0000F910895CF93DF93FC01C781D085818557
:1018E000833011F080E015C080E090E00E94950503
:1018F0000097C1F3FC0120812631C1F7348529818D
:101900003213F4CF27E120832A81EA57FF4F208347
:1019100081E0DF91CF91089522E1FC0120830895B9
:10192000A091560BB091570B833030F4E82FF0E0C4
:10193000E65EFB4F808101C081E0FD01ED57FF4F66
:10194000808385E18C931092570B1092560B8091F7
:10195000C90F9091CA0F01979093CA0F8093C90F36
:101960000895BF92CF92DF92EF92FF920F931F9351
:10197000CF93DF93C0E0D0E094E1E92E27E1F22E8F
:1019800036E1D32E03E010E043E1C42E51E1B52E41
:10199000CE010E949505EC01009709F469C0888189
:1019A0008331F1F028F4803149F0823161F0F0CFD9
:1019B000853181F1873109F44AC0EACF61E0CE0177
:1019C0000E94FC09E5CFFE01EC57FF4F8081918119
:1019D000892B21F0B8828AE39BE034C0C882D8CF3B
:1019E0008091560B9091570B892B91F6D093570B02
:1019F000C093560BE8826981CE0102960E94AF0D1A
:101A00008091C90F9091CA0F01969093CA0F80934D
:101A1000C90FBECFFE01ED57FF4F8081811115C068
:101A20002D853E858091930F9091940F281739074B
:101A300061F48B8580FF09C0D882319611830083C1
:101A400088E49BE00E94550FA3CFF882A1CFCE017E
:101A50000E94A106FE01E957FF4F0190F081E02DA1
:101A6000CE01309719F40E948B0592CF199590CF33
:101A7000DF91CF911F910F91FF90EF90DF90CF906A
:101A8000BF9008959091580B9F7080915401807F72
:101A9000892B809354019091580B8091590B992375
:101AA00019F0809353010895982F9F7180914801F8
:101AB000807E892B80934801089593E090934201A2
:101AC000909141019F719830D9F780934201909194
:101AD00041019F718913FBCF089588E00E945D0D3D
:101AE0008FEF80934F0180915A0B882319F086E184
:101AF0000C945D0D089580935A0B0C946D0D80939A
:101B0000590B0C94420DCF93DF931F921F92CDB7C8
:101B1000DEB79A838983809362018A81809363010F
:101B20000F900F90DF91CF910895CF93DF931F9285
:101B30001F92CDB7DEB79A838983809360018A8133
:101B4000809361010F900F90DF91CF9108958F7076
:101B5000E5E4F1E09081907F982B908308951F93A6
:101B6000CF93DF931F921F92CDB7DEB7182F89E175
:101B700069839A830E945D0D8FEF80934F01698185
:101B800082E0860F80938001212FE12F9A81F92F27
:101B9000A1E8B1E08E2F821B861718F481918D93F6
:101BA000F9CF83E090E09093DC0B8093DB0B82E035
:101BB000809342010F900F90DF91CF911F91089574
:101BC0000F931F93CF93DF931092560186E00E94EC
:101BD0005D0DC0E0D0E000E010E061E070E080E08A
:101BE00090E00E946E2580914601829586958370D3
:101BF00090E00C2E02C0880F991F0A94E2F7082B80
:101C0000192B2296C031D10541F788E00E945D0D65
:101C10008BEE809356010E946D0DC801DF91CF912C
:101C20001F910F910895E9E3F1E080818160808345
:101C300010925A0B1092580B81E090E09093DC0BBD
:101C40008093DB0B88E00E945D0D8BEE8093560144
:101C5000ECE4F1E08081806880830E94E00D809355
:101C60006D01089520E1FB013191BF0130933F01E7
:101C70002150C9F710923C01FC0120E131913093D1
:101C80003E012150D9F720913C01206820933C016E
:101C900020913D0120FFFCCFFC0180E190913E01AD
:101CA00091938150D9F70895CF93DF9300D000D05E
:101CB000CDB7DEB78091DB0B9091DC0B029709F476
:101CC00069C080914F0183FF3CC050917B0140E08F
:101CD000252F30E0842F90E02817390754F0FC01BD
:101CE000E058FE4F6081FC01E55AF44F60834F5F7E
:101CF000F1CF8BE59BE09A83898352505B83F90196
:101D0000E55AF44F80818C83809147018F5F8D83EA
:101D1000CE0101960E94B307809141018F718631F7
:101D2000D9F780914F01886080934F0180914C01D9
:101D30008F7780934C0180914C01806880934C0197
:101D400029C080914F0186FF25C0809141018F718C
:101D50008931D9F48091420182958695877049F046
:101D6000833021F0853021F482E003C081E001C09E
:101D700083E08E830E946D0D21E030E03093DC0B18
:101D80002093DB0B8E810E94900C80914F01806428
:101D900080934F0126960FB6F894DEBF0FBECDBFDD
:101DA000DF91CF9108950E943F0F0E94130E0C9473
:101DB00032040E94540E0E9467040C94640F0E9427
:101DC000320E0C94090A0F931F93CF93DF93FC01FB
:101DD0008091DE0B9091DF0BB681A7813085218544
:101DE0000097F1F14B2F5A2F632F722FDC01D0E0B7
:101DF000C0E012960D911D912D913C9115974017C1
:101E000051076207730768F4041B150B260B370B89
:101E100012960D931D932D933C931597AD2FBC2FC8
:101E20000EC0401B510B620B730B2D913C9111970F
:101E30002115310521F0DA2FCB2FD901DACF4283DA
:101E4000538364837583109741F08D919C91119712
:101E500091838083ED93FC930DC09183808306C0B2
:101E600011821082B283A38334832583F093DF0B26
:101E7000E093DE0BDF91CF911F910F9108951092A7
:101E8000DF0B1092DE0B0895E091DE0BF091DF0B7B
:101E9000309739F0E817F90731F00190F081E02D23
:101EA000F7CF80E0089581E00895CF93DF93EC01B0
:101EB0000E94440F811105C0CE01DF91CF910C9497
:101EC000E30EDF91CF910895CF92DF92EF92FF92D0
:101ED000CF93DF930E943F252091DD0BC22ED12CA2
:101EE000E12CF12C6C157D058E059F05C1F10E943A
:101EF0003F258091DD0BC62EC81AD12CE12CF12C88
:101F00006093DD0BC091DE0BD091DF0B209739F190
:101F10004A815B816C817D81C416D506E606F70691
:101F2000B0F0C41AD50AE60AF70A8881998190931D
:101F3000DF0B8093DE0B8A859B85019719F4CE0118
:101F40000E94E30EEC85FD85CE011995DBCF4C197F
:101F50005D096E097F094A835B836C837D83DF9112
:101F6000CF91FF90EF90DF90CF9008952F923F9206
:101F70004F925F926F927F928F929F92AF92BF9299
:101F8000CF92DF92EF92FF920F931F93CF93DF9345
:101F900000D01F92CDB7DEB74C017C836B836A0102
:101FA0005901C8018701AC014C195D0957FF03C0F5
:101FB00051954195510995016B817C81261B370B09
:101FC00037FF03C031952195310922242394312C08
:101FD0002417350714F0212C312C2114310459F029
:101FE0003A2D2B2D5C01832F922F3B812C81DC829B
:101FF000CB82C32ED22EAB81BC81AA16BB065CF469
:102000003C2D2D2D6C01832F922F3B812C81BC8286
:10201000AB82A32EB22E2501EB81FC814E1A5F0A02
:102020003C016C187D0877FE03C0719461947108BF
:10203000720157FE03C0FFEFEF1AFF0AF594E79411
:10204000C816D9062CF421E030E03A83298324C055
:102050006FEF7FEF7A8369831FC0D401ED91FC910C
:102060000480F581E02D980121143104D9F04B81D1
:102070005C81B601C4011995E618F708F7FE06C0A1
:10208000E981FA81CE0EDF1EE40CF51C2B813C8128
:102090002F5F3F4F3C832B836B817C81A616B70655
:1020A000E4F604C0A6016B817C81E4CF0F900F9011
:1020B0000F900F90DF91CF911F910F91FF90EF90B4
:1020C000DF90CF90BF90AF909F908F907F906F9058
:1020D0005F904F903F902F9008956F927F928F92D4
:1020E0009F92AF92BF92CF92DF92EF92FF920F93A7
:1020F0001F93CF93DF93EC015B016A013901480123
:10210000E881F9810284F385E02D87011995E88142
:10211000F981A601480D591D415051090284F385EA
:10212000E02D9301B501CE011995E881F981008474
:10213000F185E02D9401A601B501CE011995E88144
:10214000F981B501660D771D615071090084F18533
:10215000E02D9401A601CE011995DF91CF911F9139
:102160000F91FF90EF90DF90CF90BF90AF909F9036
:102170008F907F906F900895EF92FF920F931F932F
:10218000DC01ED91FC91240F351F215031090680AF
:10219000F781E02D780189019B0119951F910F911D
:1021A000FF90EF900895EF92FF920F931F93DC0141
:1021B000ED91FC91260F371F215031090680F781E0
:1021C000E02D78018A0119951F910F91FF90EF90F2
:1021D00008956F927F928F929F92AF92BF92CF920B
:1021E000DF92EF92FF920F931F93CF93DF935C01E7
:1021F0004A0169013801EB01C60ED71ECC15DD0579
:1022000074F4D501ED91FC910084F185E02D8701F6
:102210009301A401BE01C50119952196EFCFDF916D
:10222000CF911F910F91FF90EF90DF90CF90BF90D3
:10223000AF909F908F907F906F900895EF92FF9254
:102240000F931F93DC01ED91FC9111971A960D915C
:102250001C911B9718962D913C9119970684F78530
:10226000E02D7B0140E050E060E070E019951F91A7
:102270000F91FF90EF9008950895FC011382128250
:1022800081E294E0918380837583648357834683DE
:102290007187608753874287158A1586148617864B
:1022A000168621E0248B8FEF9FEF938B828B918B8F
:1022B000808B268B178A118E108E08952F923F9255
:1022C0004F925F926F927F928F929F92AF92BF9246
:1022D000CF92DF92EF92FF920F931F93CF93DF93F2
:1022E000CDB7DEB76A970FB6F894DEBF0FBECDBF8D
:1022F0001C0158874F831C870B87FA86E986CC829E
:10230000DC0158964D915C9159974115510509F0A2
:10231000A6C018968D919C911997681779070CF0B3
:1023200056C11A968D919C911B97EF81F885E817FD
:10233000F9070CF04CC1D12CCB013C81F6E03F9F5A
:10234000800D911D1124181619060CF040C1C6010C
:1023500003E0880F991F0A95E1F74F815885840F94
:10236000951F181619060CF032C157968C918111E1
:1023700003C0203B08F02F5F7E876D874B011982D9
:102380001CE4A12E12E0B12EA61AB70A55E0259F33
:10239000A00CB11C11248981853039F0ED85FE85B2
:1023A000EA0DFB1D94919A8301C01A826F80788494
:1023B0002301A8E0AD83BA81B0FF12C0D101ED9135
:1023C000FC91BC81B13031F40480F581E02D2B8586
:1023D0003C8518C00684F785E02DEB84FC841DC085
:1023E000E985FA852B853C85E217F307E1F0D101F9
:1023F000ED91FC91BC81B13059F40480F581E02D60
:1024000029853A85A2016D857E85C10119950BC08C
:102410000684F785E02DE984FA8486019601A301FC
:10242000B401C1011995EA81E695EA83FD81F15075
:10243000FD836C0C7D1C2FEF421A520AF111BBCFA9
:1024400039813F5F39838C0C9D1C4D855E854F5FC4
:102450005F4F5E874D87363009F09DCFB8C0FA01D7
:1024600034963491329785919491231BA7E02A9F4B
:10247000800D911D1124FA0125913491398B288BFF
:10248000FC01459154915A8F498FFC013296549129
:1024900059873196A491AF873196E491FC01359626
:1024A000249131968491BC81B23050F0622E772411
:1024B00067FC7094E82FFF27E7FDF095FE87ED8716
:1024C000FC81CF2ED12C6C9C40016D9C900C7C9C8F
:1024D000900C1124860E971EA12C1982DE8ACD8ABB
:1024E000AB01420F511D27FD5A955E834D83AF818D
:1024F000B885A80FB11D87FDBA95B88FAF8B5981EC
:102500008F85581708F063C0852F90E02D853E8594
:10251000280F391F2C9DD0012D9DB00D3C9DB00D75
:102520001124EF81F885EA0FFB1FFB83EA836D809E
:102530007E802401FA2D2D81F21BFA8B4F89588D54
:10254000480F591F5C8B4B8B9A89960D862D2D81D8
:10255000821B39858317B0F5977061F4898D9A8D48
:102560000196E889F989298D3A8DE20FF31FB4901D
:102570009A8F898FB7FE1DC0D101ED91FC91BC816E
:10258000B13059F40480F581E02D2B853C854B89D1
:102590005C89B301C10119950CC00684F785E02D53
:1025A000EB84FC84860196014A815B81B201C10102
:1025B0001995BB0CED89FE894E0E5F1EFFEF6F1A59
:1025C0007F0AC2CFA30E49814F5F498398CF6A9695
:1025D0000FB6F894DEBF0FBECDBFDF91CF911F9134
:1025E0000F91FF90EF90DF90CF90BF90AF909F90B2
:1025F0008F907F906F905F904F903F902F900895B5
:10260000AF92BF92CF92EF92FF920F931F93CF930F
:10261000DF93EC01262F888D998D009709F042C039
:102620006A3069F42C898E859F8538E0239F800D60
:10263000911D11249F878E871D861C86ABC06D302F
:1026400009F4A8C08E898823C1F03C898C859D85BA
:1026500046E0349F800D911D1124488559858417CB
:1026600095075CF01D861C868E859F85E8E03E9F61
:10267000800D911D11249F878E87EA88FB88088929
:1026800019894E855F856C857D85CC88CE010E9439
:102690005E112C898C859D85F6E02F9F800D911D04
:1026A000112441C06A3079F41D861C864C89FC01D6
:1026B000369684912E853F85489F200D311D11242B
:1026C0003F872E8767C06D3009F464C0AC014C5F52
:1026D0005F4FFA013491631708F45CC03196E491BE
:1026E000E61708F457C0FA014491362F341BFC0159
:1026F0003296A590B490F7E03F9FA00CB11C112436
:10270000F5013296A4913196E491AA2311F0E111DA
:102710000DC0F5013496A4902C898C859D85A29ED0
:10272000800D911D11249D878C8734C0F50135964D
:10273000E4913E89332309F13C89B0E0AE0FB11D2D
:10274000E7FDBA953A9FA0013B9F500D11246C857F
:102750007D85460F571F68857985461757076CF0AA
:102760001D861C86FC01369684914E855F85389FB8
:10277000400D511D11245F874E87EA88FB88088928
:1027800019894E855F856C857D85CC88CE010E9438
:102790005E11BFCF81E090E0DF91CF911F910F914B
:1027A000FF90EF90CF90BF90AF900895FC01758798
:1027B0006487578746870895611101C061E0FC0175
:1027C000648B0895FC01738B628B718B608B089511
:1027D000FC0185890895FC01808591850895FC019F
:1027E0008285938508950F931F93CF93DF93EC0118
:1027F0008D89823061F08330D9F0813009F0C8C012
:10280000EC81FD81E41BF50B3197DB0118C08C8155
:102810009D81DC01A61BB70BBD018E819F81FC0150
:10282000E41BF50BAF0141505109621B730BB0C0A3
:10283000AE81BF81A61BB70BA21BB30BFA01F7FD3C
:1028400005C18C819D81E817F9070CF0FFC0B7FF27
:1028500004C02A0F3B1FA0E0B0E08E819F81AD0134
:10286000420F531F841795071CF49C012A1B3B0B36
:10287000121613060CF0EAC0422F8A2F8695869511
:10288000869590E8899FE00DF11D1124E65EFD4FCD
:10289000A77069F158E05A1B852F90E0EC01CE5EDD
:1028A000DD4F6881251760F4DC01A21BB1098FEFB1
:1028B00090E00A2E02C0959587950A94E2F7682366
:1028C0000130110539F048F00230110551F48081D2
:1028D000862706C08081862B03C060958081862371
:1028E0008083451708F4B2C0451BE058FF4F4830BD
:1028F000A0F102301105A9F4DF01842F9C9190957D
:102900009C93A058BF4F88508830C0F788EF840F41
:10291000869586958695B0E88B9FE00DF11D112474
:1029200019C081E00130110509F080E0982F9195E0
:10293000EF01842F9883C058DF4F88508830D0F73C
:1029400088EF840F86958695869590E8899FE00D9F
:10295000F11D1124E058FF4F4770442309F476C05D
:10296000A42FB0E0A65FBD4F9C910130110541F04E
:1029700050F00230110509F069C08081892706C036
:102980008081892B03C090958081892380835EC0DC
:1029900057FD5CC08E819F81481759070CF056C0C7
:1029A00077FF04C0260F371F60E070E08C819D81A7
:1029B000FB01E20FF31F8E179F071CF49C01261BDF
:1029C000370B121613060CF041C0CA0157FD0796CB
:1029D000E3E095958795EA95E1F79695982F8827F6
:1029E00097958795865E9D4F860F971F4770552751
:1029F00061E070E001C0660F4A95EAF7462F0130AA
:102A0000110541F088F00230110501F5FC01280F95
:102A1000391F15C0FC01280F391FE217F307B1F069
:102A20008081842B8193F9CF6095FC01280F391F99
:102A3000E217F30759F0808186238193F9CFE217DB
:102A4000F30721F0808184278193F9CFDF91CF9123
:102A50001F910F9108950F931F93CF93DF93FC0164
:102A60008589823069F08330E1F0813009F082C0DD
:102A7000C481D581C41BD50BC21BD30BDB0117C08E
:102A800084819581DC01A61BB70BBD0161507109E2
:102A900086819781DC01A41BB50BAD01421B530B52
:102AA00069C0A681B781A61BB70B1197EA01B7FDD4
:102AB00008C186819781A817B9070CF002C1D7FF1A
:102AC00004C02C0F3D1FC0E0D0E084819581AE0191
:102AD000420F531F841795071CF49C012C1B3D0BC0
:102AE000121613060CF0EDC0CD01B7FD079643E0BA
:102AF000959587954A95E1F79695982F882797950C
:102B00008795865E9D4F8C0F9D1FA770BB2741E068
:102B100050E00A2E01C0440F0A94EAF7642F0130F6
:102B2000110549F098F00230110509F0CAC0FC0106
:102B3000280F391F17C0FC01280F391FE217F307B0
:102B400009F4BFC08081862B8193F8CF4095FC01AA
:102B5000280F391FE217F30709F4B3C080818423DB
:102B60008193F8CFE217F30709F4ABC08081862781
:102B70008193F8CF77FDA5C0848195816817790787
:102B80000CF09FC057FF04C0240F351F40E050E0F9
:102B900086819781FA01E20FF31F8E179F071CF4BD
:102BA0009C01241B350B121613060CF08AC0522F01
:102BB000842F869586958695FB01B0E88B9FE00D66
:102BC000F11D1124E65EFD4F477069F168E0641B5A
:102BD000862F90E0EC01CE5EDD4F4881261760F431
:102BE000DC01A21BB1098FEF90E00A2E02C095957F
:102BF00087950A94E2F748230130110539F048F02F
:102C00000230110551F48081842706C08081842B15
:102C100003C04095808184238083561708F451C0F7
:102C2000561BE058FF4F5830A0F102301105A9F4AF
:102C3000DF01852F9C9190959C93A058BF4F8850A1
:102C40008830C0F788EF850F869586958695B0E821
:102C50008B9FE00DF11D112419C081E00130110599
:102C600009F080E0982F9195EF01852F9883C05847
:102C7000DF4F88508830D0F788EF850F869586958E
:102C8000869590E8899FE00DF11D1124E058FF4FD3
:102C900057705523B1F0A52FB0E0A65FBD4F9C91B2
:102CA0000130110539F048F00230110551F48081EE
:102CB000892706C08081892B03C090958081892354
:102CC0008083DF91CF911F910F910895CF92DF9272
:102CD000EF92FF920F931F93CF93DF937C018B01B1
:102CE000EA01690177FDA0C00E94EB1308171907DC
:102CF0000CF09AC0D7FD98C0C7010E94EF13C81707
:102D0000D9070CF091C0C7010E94E813823009F086
:102D10007FC0F701848195819C01201B310B8901C3
:102D20000150110986819781FC01EC1BFD0BEF011D
:102D300021970BC0813049F4F701848195818C1B68
:102D40009D0BE8018C0101501109F1E0CF16D1046F
:102D500031F010F132E0C316D104E1F165C0FE019B
:102D6000D7FD379683E0F595E7958A95E1F7F695D7
:102D7000FE2FEE27F795E795E00FF11FE65EFD4F7A
:102D8000C770DD2781E090E00C2E01C0880F0A9407
:102D9000EAF79081982B3AC0FE01D7FD3796A3E061
:102DA000F595E795AA95E1F7F695FE2FEE27F795AD
:102DB000E795E00FF11FE65EFD4FC770DD2781E06C
:102DC00090E00C2E01C0880F0A94EAF7809590815C
:102DD00098231CC0FE01D7FD379663E0F595E79573
:102DE0006A95E1F7F695FE2FEE27F795E795E00F48
:102DF000F11FE65EFD4FC770DD2781E090E00C2EED
:102E000001C0880F0A94EAF79081982790830CC03C
:102E1000833009F08FCFF70186819781801B910B5A
:102E20008E01EC01219791CFDF91CF911F910F91EE
:102E3000FF90EF90DF90CF9008951F93CF93DF9393
:102E4000EC01162F40E250E060E870E00E943D1176
:102E500089E394E0998388838FEF8C8F88A38E8F8A
:102E60008D8F1F8FDF91CF911F91089580E092E0A9
:102E7000EAE1F2E0DF019C011D9221503040E1F7D0
:102E80000895FC0181A1882339F06EBD00000DB4C6
:102E900007FEFDCF8EB5089588E090E030E8A4A14C
:102EA000B5A14C9123A5209524232C93A2A1B3A1D5
:102EB00022A5432F462321F04C91422B4C9304C072
:102EC0004C91209524232C93A4A1B5A12C9143A52A
:102ED000242B2C933695019711F708951F93CF93C8
:102EE000DF93EC01162F8C8D8F3F09F1EEA1FFA12E
:102EF00080819CA5892B8083E8A5F9A590818DA56B
:102F0000809589238083EEA1FFA190818CA5809577
:102F100089238083CE010E944117EEA1FFA1808109
:102F20009CA5892B8083DF91CF911F9108958A8D75
:102F3000682F772767FD709587E29EE00E940F2338
:102F400060E087E29EE00E94BC22612F87E29EE063
:102F50000E94BC2287E29EE0DF91CF911F910C94EA
:102F600024230F931F93CF93DF93EC01162F022F8F
:102F70006B8F4A8F8C8D8F3F09F489C061E08E8DF5
:102F80000E94562661E088A10E94562688A19927B2
:102F900087FD9095FC01EC56F84FE491F0E0EE0FC0
:102FA000FF1FE854F84F259134913FA32EA3FC0155
:102FB000E059F84F84918CA78E8D992787FD9095C5
:102FC000FC01EC56F84FE491F0E0EE0FFF1FE854DF
:102FD000F84F2591349139A728A7FC01E059F84F03
:102FE00084918DA789A1811134C061E08C8D0E94EC
:102FF000562661E08D8D0E9456268D8D992787FD7E
:103000009095FC01EC56F84FE491F0E0EE0FFF1FB5
:10301000E854F84F259134913DA32CA3FC01E059CD
:10302000F84F84918BA78C8D992787FD9095FC0193
:10303000EC56F84FE491F0E0EE0FFF1FE854F84F24
:10304000259134913BA32AA3FC01E059F84F8491C8
:103050008AA789A18823F9F00E944E228091260E2A
:10306000882381F0813051F48DB38093240E9DB379
:103070008091250E809589238DBB04C08FB78093E6
:10308000240EF89480E58CBD81E08DBD04C087E2FC
:103090009EE00E94FB220023F1F08F8D87FD1BC074
:1030A00061E00E94562661E08F8D0E948F2661E0CC
:1030B00070E080E090E00E946E2560E08F8D0E94BD
:1030C0008F266AE070E080E090E00E946E2561E06B
:1030D0008F8D0E948F266EEACE010E946E1765EDDD
:1030E000CE010E946E1760E8CE010E946E1768EA5A
:1030F000CE010E946E176FE1CE010E946E1763ED44
:10310000CE010E946E1760E0CE010E946E1760E44F
:10311000CE010E946E176DE8CE010E946E1711302D
:1031200011F460E101C064E1CE010E946E1760E21B
:10313000CE010E946E1760E0CE010E946E1761EA18
:10314000CE010E946E1768ECCE010E946E176AEDE8
:10315000CE010E946E1762E0CE010E946E1761E8F8
:10316000CE010E946E176FE8CE010E946E1769EDC6
:10317000CE010E946E17113011F462E201C061EFBE
:10318000CE010E946E176BEDCE010E946E1760E4B7
:10319000CE010E946E1764EACE010E946E1766EAA5
:1031A000CE010E946E176EE2CE010E946E176FEA8A
:1031B000CE01DF91CF911F910F910C946E17662372
:1031C00011F067EA01C066EA0C946E17DF92EF9285
:1031D000FF920F931F93CF93DF93EC0161E20E9464
:1031E0006E1760E0CE010E946E176FE7CE010E945D
:1031F0006E1762E2CE010E946E1760E0CE010E945F
:103200006E1763E0CE010E946E178C8D8F3F31F1F7
:10321000EEA1FFA180819CA5892B8083E8A5F9A55B
:1032200080819DA5892B8083EEA1FFA190818CA533
:103230008095892380830AE112E0F80161918F0172
:10324000CE010E944117F4E00A311F07B1F7EEA149
:10325000FFA180819CA5892B808337C0D090B800C6
:103260008CE08093B8000AE112E06A8D772767FD51
:10327000709587E29EE00E940F23E091270EF09167
:10328000280E0190F081E02D60E487E29EE0199520
:10329000E12CF12CF801EE0DFF1D608187E29EE02C
:1032A0000E94BC228FEFE81AF80AE0E1EE16F10462
:1032B00089F787E29EE00E942423005F1F4FF4E01D
:1032C0000A311F0791F6D092B800DF91CF911F917C
:1032D0000F91FF90EF90DF900895EF92FF920F9380
:1032E0001F93CF93DF938C01DC011F968C9180316B
:1032F000C1F040F4813091F070F08230F1F483E05D
:1033000090E017C0803281F0813289F08131A9F4D8
:1033100085E090E00EC081E090E00BC082E090E09C
:1033200008C084E090E005C086E090E002C087E03D
:1033300090E090931B0C80931A0C1092850C1092C5
:10334000840CF801E48480911A0C90911B0C019775
:1033500021F56DE474E080EF9EE00E947D29C0E0DD
:10336000D0E0F12CCE15DF0574F4D8011A96ED915A
:10337000FC911B97EC0FFD1F608180EF9EE00E9487
:103380007F292196EFCF80EF9EE0DF91CF911F91B3
:103390000F91FF90EF900C948629DF91CF911F91B0
:1033A0000F91FF90EF900895AF92BF92CF92DF926E
:1033B000EF92FF920F931F93CF93DF9300D000D033
:1033C000CDB7DEB77C01FC01C480D58060EB74E032
:1033D00088E89CE00E942D2B60EB74E08EE89CE076
:1033E0000E942D2B60EB74E084E99CE00E942D2B61
:1033F00060EB74E08AE99CE00E942D2B00E010E075
:10340000B801C7010E945A2C8A3319F00C151D050A
:103410002CF1B801C7010E945A2C98012F5F3F4F31
:1034200059018A3309F448C00C151D050CF044C03D
:10343000B801C7010E945A2C682FCE0101960E9444
:10344000452BBE016F5F7F4F8EE89CE00E94E22B10
:10345000CE0101960E94472A8501DBCFB801C70142
:103460000E945A2C682FCE0101960E94452BBE0166
:103470006F5F7F4F88E89CE00E94E22BCE010196AF
:103480000E94472A0F5F1F4FBBCF0C151D05F4F498
:10349000B801C7010E945A2C682FCE0101960E94E4
:1034A000452BBE016F5F7F4F84E99CE00E94E22BB9
:1034B000CE0101960E94472A8501B801C7010E94EA
:1034C0005A2CF80131965F018A33F9F68501B8016B
:1034D000C7010E945A2C8D32D1F00C151D05BCF489
:1034E000B801C7010E945A2C682FCE0101960E9494
:1034F000452BBE016F5F7F4F8AE99CE00E94E22B63
:10350000CE0101960E94472A0F5F1F4FE0CF6EE861
:103510007CE080EF9EE00E949A2926960FB6F894F0
:10352000DEBF0FBECDBFDF91CF911F910F91FF90F6
:10353000EF90DF90CF90BF90AF900895EF92FF9201
:103540000F931F93CF93DF93CDB7DEB7CA57D1093F
:103550000FB6F894DEBF0FBECDBF8C018091860CF4
:103560009091870CD8011996EC90F12C892BB9F128
:1035700040E250E060E070E049835A836B837C83D3
:10358000FE0135968AE3DF011D928A95E9F7AE01C7
:103590004F5F5F4F80E090E08E159F056CF4D8017F
:1035A0001796ED91FC911897E80FF91F2081FA0109
:1035B0002193AF010196F0CFBE016F5F7F4FCE0127
:1035C00081599F4F0E94B52ABE0161597F4F80EFFC
:1035D0009EE00E949A29CE0181599F4F46C060EB20
:1035E00074E0CE018B589F4F0E94B52AAE014F5F09
:1035F0005F4F80E090E0D8018E159F0564F4179628
:10360000ED91FC911897E80FF91F2081FA012193A1
:10361000AF010196F0CF1B968C91992787FD90956D
:1036200097FF03C09195819591090E94DE07BE0125
:103630006F5F7F4FCE0181599F4F0E94B52ACE0107
:1036400081599F4F0E94D419CE0181599F4F0E94EA
:10365000472ACE018B599F4FFE0131961192E817F0
:10366000F907E1F7CE018B589F4F0E94472A81E06E
:10367000C658DF4F0FB6F894DEBF0FBECDBFDF9147
:10368000CF911F910F91FF90EF900895EF92FF92CD
:103690000F931F93CF93DF93EC01198218821B8243
:1036A0001A821D821C821E821F821886198660EB78
:1036B00074E00A960E94B52A60EB74E0CE01409651
:1036C0000E94B52A1F8A1E8A1B8E1A8E1D8E1C8E82
:1036D0008E01025E1F4F78018CE3E80EF11C60EB57
:1036E00074E0C8010E94B52A0A5F1F4F0E151F051E
:1036F000B1F760EB74E0CE018A579F4F0E94B52A64
:1037000060EB74E0CE0184579F4F0E94B52A60EBB6
:1037100074E0CE018E569F4F0E94B52A60EB74E094
:10372000CE0188569F4F0E94B52AFE01E256FF4FF8
:103730001082118212821382349610823196118285
:103740001082329681E090E09183808332961082DD
:103750001182128213823496108211821282138295
:10376000349648EE53E060E070E04083518362831A
:10377000738360EB74E0CE018D549F4F0E94B52A95
:10378000FE01E754FF4F1182108260EB74E0CE011E
:1037900085549F4F0E94B52AFE01EF53FF4F1082C0
:1037A0001182128213828EB3CA53DF4F8883DF9156
:1037B000CF911F910F91FF90EF900895EF92FF929C
:1037C0000F931F93CF93DF93EC0185549F4F0E947B
:1037D000472ACE018D549F4F0E94472ACE0188561A
:1037E0009F4F0E94472ACE018E569F4F0E94472A24
:1037F000CE0184579F4F0E94472ACE018A579F4F80
:103800000E94472A7E018EE1E80EF11CE114F104CA
:1038100061F08E01065A1F4F0E151F0531F006503C
:103820001109C8010E94472AF7CFCE0140960E9495
:10383000472ACE010A96DF91CF911F910F91FF90F9
:10384000EF900C94472A81EF9BE00E94472A89EF72
:103850009BE00E94472A82E09CE00C94DE1B2F92A2
:103860003F924F925F926F927F928F929F92AF9210
:10387000BF92CF92DF92EF92FF920F931F93CF935D
:10388000DF93CDB7DEB729970FB6F894DEBF0FBE32
:10389000CDBF8C017B012DB63EB6FC01EC57FF4F2E
:1038A0008081918198012E573F4F5901F90101976D
:1038B00009F0C3C080819181892B09F02FC160EB91
:1038C00074E0C7010E942A2C6DB67EB681113EC0FD
:1038D000B701CE0101960E94182BCD80DE80CE016B
:1038E00001960E94472A2DB73EB72C193D090FB605
:1038F000F8943EBF0FBE2DBF8DB79EB701964C0109
:10390000412C512C4C145D046CF4B201C7010E948F
:103910005A2CF40181934F010E94D90EFFEF4F1AE8
:103920005F0AF0CFB70181EF9BE00E94012BB80145
:1039300065547F4FC80140960E94012B0FB6F89442
:103940007EBE0FBE6DBE81E090E035C0F801E75449
:10395000FF4F11821082F801C684D7842DB73EB77D
:103960002C193D090FB6F8943EBF0FBE2DBF8DB781
:103970009EB701964C01412C512C3A967F014C1474
:103980005D046CF40E94D90EB201C7010E945A2C4A
:10399000F40181934F01FFEF4F1A5F0AF0CFB70197
:1039A00081EF9BE00E94012B0FB6F8947EBE0FBE04
:1039B0006DBE80E090E021E030E0F50131832083AE
:1039C0009801205F3F4F7901892B31F4B901C8017B
:1039D00085549F4F0E94012BC7010E945C2C70935D
:1039E000E60B6093E50B81E08093E70B8093E80B97
:1039F00083E08093E90B8091F10B9091F20B90930F
:103A0000EB0B8093EA0BC092EC0B8DE699E190935F
:103A1000EE0B8093ED0B80EE9BE00E9490040E94E1
:103A2000D90E60EB74E0C8010A960E942D2B60EB62
:103A300074E0C7010E942D2B71C080819181892B78
:103A400009F06CC04DB65EB6FB01F481FF836F2EAA
:103A5000FB0175802DB73EB7261937090FB6F894CC
:103A60003EBF0FBE2DBF8DB79EB701964C016801BA
:103A700090E1C90ED11C62E475E0C6010E942D2BB5
:103A800020E030E02615370574F4B901C701288716
:103A900039870E945A2CF40181934F01288539857A
:103AA0002F5F3F4FEFCFB70181EF9BE00E94012BCB
:103AB00081E090E0F50191838083C6010E945C2C37
:103AC0007093E60B6093E50B81E08093E70B8093A6
:103AD000E80B83E08093E90B8091F10B9091F20B5E
:103AE0009093EB0B8093EA0B2F812093EC0B8DE6E8
:103AF00099E19093EE0B8093ED0B80EE9BE00E949A
:103B0000900460EB74E0C8010A960E942D2B0E947D
:103B1000D90E0FB6F8945EBE0FBE4DBE0FB6F89428
:103B20003EBE0FBE2DBE29960FB6F894DEBF0FBE67
:103B3000CDBFDF91CF911F910F91FF90EF90DF905C
:103B4000CF90BF90AF909F908F907F906F905F903D
:103B50004F903F902F900895DF92EF92FF920F9336
:103B60001F93CF93DF93EC017B018A01D22ECB010F
:103B70000E945204FE01E953FF4FF182E082C80126
:103B80000E945804FE01E753FF4F118300838D2DDF
:103B90000E947F0DFE01E553FF4FD08281E00E941D
:103BA0007B0D80E00E94A70DFE01E453FF4F1082C1
:103BB000ECE4F1E080818C7F82608083C353DF4F2F
:103BC00082E08883DF91CF911F910F91FF90EF905A
:103BD000DF900895CF92DF92EF92FF920F931F93A1
:103BE000CF93DF93CDB7DEB762970FB6F894DEBF01
:103BF0000FBECDBF8C017901FC01E153FF4F7183F2
:103C00006083329651834083BE97118210820E9456
:103C1000D30E0E94E00D0E94320426E040E452E4FC
:103C20006FE070E080EF9EE00E94BD274AE0B701A0
:103C3000CE0101960E948A2BBE016F5F7F4FC801A3
:103C40008D549F4F0E94212BCE0101960E94472A3E
:103C5000F801EC57FF4FE114F104B9F581E090E071
:103C60009183808361E574E080EF9EE00E94AC293F
:103C700021E04CE362E08FED9CE00E94B1178FEDF4
:103C80009CE00E9436178FED9CE00E94E61860E0F1
:103C90008FED9CE00E94DC1361E070E08FED9CE012
:103CA0000E94E21340E050E060E070E08FED9CE0A5
:103CB0000E94D61364E674E08FED9CE00E94AC296C
:103CC0008FED9CE00E94E61832C01182108261E7FD
:103CD00074E080EF9EE00E94AC294AE0B701CE017B
:103CE0000D960E948A2BBE01635F7F4FCE0107961F
:103CF0000E94182B62E874E0CE0107960E94102CF7
:103D0000BC01CE0101960E94182BBE016F5F7F4F50
:103D1000C8010E942F1CCE0101960E94472ACE01A5
:103D200007960E94472ACE010D960E94472A84EFEB
:103D30009FE10E94DC2F6C014AE0BC01CE01079696
:103D40000E945E2B69E874E0CE0101960E94B52ABC
:103D5000BE01695F7F4FCE0101960E94FD2BBC0121
:103D600080EF9EE00E949A29CE0101960E94472A88
:103D7000CE0107960E94472A2AE1A601B701C80191
:103D80000E94AC1D6EE97AE181E00E945E04E12CA4
:103D9000F12C025E1F4F60EB74E0C8018E0D9F1D79
:103DA0000E942D2B86E0E80EF11C8CE3E816F1044E
:103DB00091F762960FB6F894DEBF0FBECDBFDF91CC
:103DC000CF911F910F91FF90EF90DF90CF900895CA
:103DD0000F9366E08FED9CE00E941D1700E020E04D
:103DE00040E060E089ED9CE00E94062982E09CE0D2
:103DF0000E94461B40E150E060E070E089EF9BE0EC
:103E00000E941D2241E050E060E070E081EF9BE005
:103E10000F910C941D220C94231CCF92DF92EF92F1
:103E2000FF920F931F93CF93DF937C018C01005F70
:103E30001F4F60EB74E0C8010E942D2B8AE0E80E52
:103E4000F11C60EB74E0C7010E942D2B84E690E02A
:103E50000E94962580EF9EE00E94E226C82E84E60E
:103E600090E00E949625C0E0D0E080EF9EE00E94A6
:103E7000C726892BD1F080EF9EE00E94E226D82E43
:103E800084E690E00E9496258AE3D81639F02097C0
:103E900029F46D2DC8010E94E92B02C0C1E0D0E0D9
:103EA0006D2DC7010E94E92BE0CF84E690E00E94CF
:103EB00096258C2DDF91CF911F910F91FF90EF9060
:103EC000DF90CF9008958F929F92AF92BF92CF9242
:103ED000DF92EF92FF920F931F93CF93DF93CDB7B3
:103EE000DEB768970FB6F894DEBF0FBECDBF8C016A
:103EF0000E94D90E580124E8A20EB11CF501808160
:103F00009181892B09F4F0C10E943F256B017C014E
:103F1000F801E955FF4F80819181A281B381B701FA
:103F2000A601481B590B6A0B7B0BD801A155BF4F4B
:103F30008D919D910D90BC91A02D84179507A6079A
:103F4000B707A0F4C082D182E282F38266E974E00E
:103F500080EF9EE00E94AC2961E08091010C81110C
:103F600060E06093010C8FE00E948F264801FBEA1D
:103F70008F0E911CF40180819181A281B381C81AB6
:103F8000D90AEA0AFB0AF1E1CF16F7E2DF06E104FB
:103F9000F10478F068E974E080EF9EE00E94AC29BB
:103FA0000E943B060E943F25F40160837183828357
:103FB000938380EF9EE00E94C726892B09F494C169
:103FC000C8010E940D1F8C36A1F481E090E0F80139
:103FD0009383828360EB74E0CE0101960E94B52A40
:103FE000BE016F5F7F4FC8010E942F1CCE0101965A
:103FF000F2C0833709F0F2C08090100C9090110C41
:1040000060EB74E0CE0143960E94B52A60EB74E049
:10401000CE010D960E94B52AC12CD12CE12CF12C99
:10402000E814F9049CF5B7018CE09CE00E945A2C3E
:104030008A3331F4FFEFCF1ADF0A2FEFE21AF20AC8
:1040400081E0C816D10449F4B7018CE09CE00E94DD
:104050005A2C682FCE01439613C0E2E0CE16D1044D
:1040600089F4B7018CE09CE00E945A2C8D3251F00B
:10407000B7018CE09CE00E945A2C682FCE010D966F
:104080000E94E92BFFEFEF1AFF0ACACFBE016D5E57
:104090007F4F80EF9EE00E949A296DE974E0CE0187
:1040A00043960E942A2C882309F45EC060EB74E0DA
:1040B000CE010D960E942A2C81112AC0CE010D96A8
:1040C0000E945C2C84EF9FE10E94F42FCE010D969C
:1040D0000E945C2C2AE1AB0160E070E0C8010E9404
:1040E000AC1D63EA74E0CE0101960E94B52ABE01C0
:1040F000635F7F4FCE0101960E94FD2BBC0180EFD4
:104100009EE00E949A29CE0101960E94472A5DC036
:1041100060EB74E0CE010D960E942A2C882309F4EE
:1041200054C084EF9FE10E94DC2F4AE0BC01CE0125
:1041300007960E945E2B61EB74E0CE0101960E940F
:10414000B52ABE01695F7F4FCE0101960E94FD2B0B
:10415000BC0180EF9EE00E949A29CE0101960E9448
:10416000472ACE0107962FC069EC74E0CE01439632
:104170000E942A2C882349F161EC74E080EF9EE0D4
:104180000E94AC296CEC74E0C80140960E942D2B73
:1041900062ED74E0C8010A960E942D2B81E090E048
:1041A000F801ED55FF4F9183808360EB74E0CE0101
:1041B00001960E94B52ABE016F5F7F4FC8010E9421
:1041C0002F1CCE0101960E94472ACE010D960E9417
:1041D000472ACE0143960E94472A86C0803709F0BD
:1041E00083C068E974E080EF9EE00E94AC290E94E1
:1041F0003B067C01C12CD12CF70181819281019673
:1042000009F467C04AE0B601CE0107960E945E2B12
:10421000BE01695F7F4FCE0101960E94182B6EEDA3
:1042200074E0CE0101960E94102CBC0180EF9EE04C
:104230000E946F29CE0101960E94472ACE0107965F
:104240000E94472AF701608161704AE050E080EFE8
:104250009EE00E94242A66EE74E080EF9EE00E94B9
:104260007D29F7016081669561704AE050E080EF3A
:104270009EE00E94242A62EF74E080EF9EE00E949C
:104280007D29F701608162956F704AE050E080EF10
:104290009EE00E94242A6AEF74E080EF9EE00E9474
:1042A0007D29F701618172814AE050E080EF9EE054
:1042B0000E942B2A64E075E080EF9EE00E947D2939
:1042C000F701638174814AE050E080EF9EE00E9434
:1042D000312AFFEFCF1ADF0A27E0E20EF11C84E655
:1042E000C816D10409F088CFF50180819181892B0E
:1042F00029F5F801208D318D868997892130310586
:1043000039F08630910524F40196978B868B16C080
:104310000697A4F0F801EB55FF4F80819181892B1E
:1043200031F06DE075E080EF9EE00E94AC29F8016D
:10433000178A168A81E090E0918F808F68960FB679
:10434000F894DEBF0FBECDBFDF91CF911F910F91CB
:10435000FF90EF90DF90CF90BF90AF909F908F90A5
:1043600008950F931F9388E10FB6F894809360002F
:10437000109260000FBE61E08EE00E94562661E060
:104380008FE00E94562601E010E020E030E040E49B
:1043900055E064E475E082E09CE00E94EA1D28E2BA
:1043A00088E190E00FB6F894A895809360000FBE66
:1043B000209360001F910F91089582E09CE00E947D
:1043C000631FA89508950F9366E083E19DE00E9426
:1043D0001D1700E020E040E060E08DE09DE00E94DD
:1043E00006290F9108950F9300E020E040E060E07F
:1043F00088E19EE00E94062981E49DE00F910C94E3
:10440000461B81E49DE00C94DE1BFC01228133817C
:104410006217730778F026813781620F731F20952A
:104420003095622373230E94782A91E0811103C0A2
:1044300090E001C091E0892F0895EF92FF920F93D1
:104440001F93CF93DF93EC018B017A0160EB74E053
:104450000E94B52A81E0E81AF108FF82EE82011578
:10446000110551F0B801CE01DF91CF911F910F914D
:10447000FF90EF900C940522DF91CF911F910F9147
:10448000FF90EF9008950F9300E020E040E060E09F
:104490008EE19EE00E9406290F91089561E088E078
:1044A0000E948F2661E088E00E9456268CB58061CC
:1044B0008CBD8CB580648CBD61E08CE10E94562679
:1044C00061E08DE10C9456268091570E90E020918A
:1044D000580E821B910908952091580E8091570E15
:1044E000281750F4E22FF0E0E75AF14F808190E076
:1044F0002F5F2093580E08958FEF9FEF0895E0915E
:10450000580E8091570EE81730F4F0E0E75AF14F5B
:10451000808190E008958FEF9FEF08950895CF92E6
:10452000DF92EF92FF920F931F93CF93DF937C0163
:10453000CB018A012091330E222389F0EB016B011C
:10454000C40ED51ECC15DD0569F06991D701ED913A
:10455000FC910190F081E02DC7011995F3CF642FF4
:104560000E949B23C801DF91CF911F910F91FF9073
:10457000EF90DF90CF900895CF93DF931F92CDB748
:10458000DEB769832091330E2223D1F02091340EBF
:10459000203240F021E030E0FC013383228380E0D0
:1045A00090E015C08091350EE82FF0E0EA5CF14F05
:1045B000998190838F5F8093350E8093340E05C070
:1045C00061E0CE0101960E949B2381E090E00F9074
:1045D000DF91CF910895FC011382128248EE53E0DF
:1045E00060E070E0448355836683778386E595E0D9
:1045F0009183808308951092580E1092570E109256
:10460000350E1092340E0C942B2381E08093330EE0
:104610006093560E1092350E1092340E08950C943D
:1046200005230F93062F21E04091340E66E37EE0D0
:104630008091560E0E9448231092350E1092340E2F
:104640001092330E0F91089561E00C94112387E2CC
:104650009EE00C94EB221092E60E81E08093E40E33
:104660001092E30E61E00E948F2661E080E00E94DC
:104670008F26E9EBF0E080818E7F808380818D7FC3
:1046800080838CE08093B80085E48093BC0008951B
:104690000F93413208F046C09091E60E9111FCCF85
:1046A00092E09093E60E0093E40E9FEF9093790EC4
:1046B0001092BE0E4093BD0EFB016FEB7EE0DB015E
:1046C0009A2F961B941718F491919D93F9CF1092FD
:1046D000E50E9091E50E880F892B8093E50E809171
:1046E000E30E813041F41092E30E8091E50E809349
:1046F000BB0085EC01C085EE8093BC00222321F035
:104700008091E60E8230E1F38091790E8F3F61F067
:104710008091790E803251F08091790E803341F48E
:1047200083E007C081E005C080E003C082E001C0F3
:1047300084E00F910895613298F42091E60E2430C0
:1047400089F460939B0EFC018DE99EE0DC012A2F29
:10475000281B261718F421912D93F9CF80E0089596
:1047600081E0089582E0089585ED8093BC008091FA
:10477000BC0084FDFCCF1092E60E089585EC80937A
:10478000BC001092E60E08951F920F920FB60F9282
:1047900011240BB60F922F933F934F935F936F9318
:1047A0007F938F939F93AF93BF93EF93FF938091EA
:1047B000B900887F803609F49CC068F5883209F416
:1047C0005BC090F4803109F454C038F4882309F4B4
:1047D000F5C0883009F44DC0F5C0883109F44CC0EB
:1047E000803209F45DC0EEC0803409F468C048F43A
:1047F000803309F455C0883309F0E4C08093790E02
:10480000A8C0803509F44FC0883509F45DC08834EC
:1048100009F0D8C0D5C0883909F4C6C0A8F48837D3
:1048200009F467C038F4883609F463C0803709F4A6
:1048300060C0C8C0883809F4B7C0803909F45FC0C7
:10484000803809F0BFC05BC0803B09F485C038F4F4
:10485000803A09F466C0883A09F47EC0B3C0803C4F
:1048600009F4A6C0883C09F4A3C0883B09F489C0B8
:10487000A9C08091E50E10C09091BE0E8091BD0E32
:10488000981770F5E091BE0E81E08E0F8093BE0EFA
:10489000F0E0E154F14F80818093BB0085EC85C04E
:1048A0008093790E8DC0E091BE0E81E08E0F8093D3
:1048B000BE0E8091BB00F0E0E154F14F80839091F7
:1048C000BE0E8091BD0E6DC0E091BE0E81E08E0FD8
:1048D0008093BE0E8091BB00F0E0E154F14F8083E5
:1048E0008091E40E81116CC081E08093E30E84EA34
:1048F00060C083E08093E60E10927A0ECFCF809155
:104900007A0E803208F050C0E0917A0E81E08E0F6E
:1049100080937A0E8091BB00F0E0E558F14F8083E0
:10492000BDCF80917A0E803230F4E0917A0EF0E0C3
:10493000E558F14F10820E94B42360917A0E70E026
:10494000E091DF0EF091E00E8BE79EE0199510925A
:104950007A0E0E94BE2336C084E08093E60E109249
:104960009C0E10929B0EE091E10EF091E20E1995D3
:1049700080919B0E811105C081E080939B0E109267
:104980009D0EE0919C0E81E08E0F80939C0EF0E0D6
:10499000E356F14F80818093BB0090919C0E8091F3
:1049A0009B0E981708F47ACF85E88093BC000AC064
:1049B00085EC8093BC001092E60E04C01092790E34
:1049C0000E94B423FF91EF91BF91AF919F918F917E
:1049D0007F916F915F914F913F912F910F900BBEFF
:1049E0000F900FBE0F901F9018951F920F920FB649
:1049F0000F9211242F933F938F939F93AF93BF9365
:104A00008091E80E9091E90EA091EA0EB091EB0E24
:104A10003091E70E23E0230F2D3720F40196A11DDE
:104A2000B11D05C026E8230F0296A11DB11D2093DC
:104A3000E70E8093E80E9093E90EA093EA0EB093F0
:104A4000EB0E8091EC0E9091ED0EA091EE0EB091D8
:104A5000EF0E0196A11DB11D8093EC0E9093ED0E0B
:104A6000A093EE0EB093EF0EBF91AF919F918F91F7
:104A70003F912F910F900FBE0F901F9018952FB759
:104A8000F8946091E80E7091E90E8091EA0E909191
:104A9000EB0E2FBF08953FB7F8948091EC0E9091E4
:104AA000ED0EA091EE0EB091EF0E26B5A89B05C0BD
:104AB0002F3F19F00196A11DB11D3FBF6627782F2A
:104AC000892F9A2F620F711D811D911D42E0660F83
:104AD000771F881F991F4A95D1F70895CF92DF92CB
:104AE000EF92FF92CF93DF936B017C010E944B25E5
:104AF000EB01C114D104E104F10489F00E94672C98
:104B00000E944B256C1B7D0B683E734090F381E047
:104B1000C81AD108E108F108C851DC4FEACFDF918B
:104B2000CF91FF90EF90DF90CF900895019739F0EB
:104B3000880F991F880F991F02970197F1F7089521
:104B4000789484B5826084BD84B5816084BD85B568
:104B5000826085BD85B5816085BDEEE6F0E080812F
:104B600081608083E1E8F0E0108280818260808350
:104B7000808181608083E0E8F0E0808181608083D3
:104B8000E1EBF0E0808184608083E0EBF0E0808105
:104B900081608083E1E9F0E08081826080838081B0
:104BA00081608083E0E9F0E0808181608083E1EAD8
:104BB000F0E0808182608083808181608083E0EA90
:104BC000F0E0808181608083E1E2F1E080818260B9
:104BD0008083808181608083E0E2F1E08081816078
:104BE0008083EAE7F0E08081846080838081826056
:104BF000808380818160808380818068808310923F
:104C0000C100089590E0FC013197E231F10508F010
:104C10004CC0E656FF4F0C94BD2C809180008F77DE
:104C200003C0809180008F7D8093800008958091E3
:104C30008000877FF9CF84B58F7702C084B58F7DE0
:104C400084BD08958091B0008F7703C08091B0003B
:104C50008F7D8093B0000895809190008F7707C07A
:104C6000809190008F7D03C080919000877F80931A
:104C7000900008958091A0008F7707C08091A000D8
:104C80008F7D03C08091A000877F8093A00008954E
:104C9000809120018F7707C0809120018F7D03C014
:104CA00080912001877F809320010895CF93DF9327
:104CB00090E0FC01E059F84F2491FC01EC56F84FCC
:104CC0008491882349F190E0880F991FFC01EE52EE
:104CD000F84FA591B4918854984FFC01C591D49197
:104CE0009FB7611108C0F8948C91209582238C9312
:104CF000888182230AC0623051F4F8948C91322F5B
:104D0000309583238C938881822B888304C0F89408
:104D10008C91822B8C939FBFDF91CF9108950F933D
:104D20001F93CF93DF931F92CDB7DEB7282F30E0CC
:104D3000F901E45BF84F8491F901E059F84F1491BF
:104D4000F901EC56F84F04910023C9F0882321F0B3
:104D500069830E9402266981E02FF0E0EE0FFF1FB9
:104D6000E854F84FA591B4919FB7F8948C916111D4
:104D700003C01095812301C0812B8C939FBF0F909E
:104D8000DF91CF911F910F9108950E94472FFC0151
:104D9000818D228D90E0805C9F4F821B910960E4A1
:104DA00070E00E94682C0895FC01918D828D981707
:104DB00031F0828DE80FF11D858D90E008958FEF21
:104DC0009FEF0895FC01918D828D981761F0828D7F
:104DD000DF01A80FB11D5D968C91928D9F5F9F732F
:104DE000928F90E008958FEF9FEF08958FE798E2FC
:104DF000892B41F080E090E0892B21F00E947F28F0
:104E000081110DC080E090E0892B71F080E090E08E
:104E1000892B51F00E940000811104C008950E9466
:104E20000000F0CF0C9400000895FC01848DDF0198
:104E3000A80FB11DA35ABF4F2C91848D90E001960D
:104E40008F739927848FA689B7892C93A089B189FC
:104E50008C9180648C93938D848D981306C0028806
:104E6000F389E02D80818F7D80830895CF93DF9338
:104E7000EC01888D8823C9F0EA89FB89808185FD52
:104E800005C0A889B9898C9186FD0FC00FB607FCB3
:104E9000F5CF808185FFF2CFA889B9898C9185FFF4
:104EA000EDCFCE010E941527E7CFDF91CF91089576
:104EB000CF92DF92FF920F931F93CF93DF931F92B6
:104EC000CDB7DEB76C01DC015B969C915B975C967D
:104ED0008C915C97981307C05096ED91FC91519777
:104EE000808185FD32C0F601038D10E00F5F1F4FFA
:104EF0000F731127F02EF601848DF81211C00FB632
:104F000007FCF9CFD6015096ED91FC915197808125
:104F100085FFF1CFC60169830E9415276981EBCF18
:104F2000838DE80FF11DE35AFF4F6083D6015B9636
:104F30000C935B975296ED91FC9153978081806220
:104F4000808381E058968C930DC0D6015696ED91E2
:104F5000FC91579760835096ED91FC915197808119
:104F60008064808381E090E00F90DF91CF911F916A
:104F70000F91FF90DF90CF900895BF92CF92DF9274
:104F8000EF92FF92CF93DF93EC016A017B01B22E87
:104F9000E889F98982E08083411581EE580761052F
:104FA0007105A1F060E079E08DE390E0A701960142
:104FB0000E947C2C21503109410951095695479591
:104FC00037952795211580E1380798F0E889F98908
:104FD000108260E874E88EE190E0A70196010E94DB
:104FE0007C2C215031094109510956954795379537
:104FF0002795EC85FD853083EE85FF852083188E0F
:10500000EC89FD89B082EA89FB8980818061808397
:10501000EA89FB89808188608083EA89FB898081B5
:1050200080688083EA89FB8980818F7D8083DF911E
:10503000CF91FF90EF90DF90CF90BF9008951F9297
:105040000F920FB60F9211240BB60F922F938F93DE
:105050009F93EF93FF93E091000FF091010F8081F8
:10506000E091060FF091070F82FD12C090818091B0
:10507000090F8F5F8F7320910A0F821751F0E09113
:10508000090FF0E0E051F14F958F8093090F01C0B7
:105090008081FF91EF919F918F912F910F900BBE87
:1050A0000F900FBE0F901F9018951F920F920FB682
:1050B0000F9211240BB60F922F933F934F935F9350
:1050C0006F937F938F939F93AF93BF93EF93FF93D0
:1050D00080EF9EE00E941527FF91EF91BF91AF9165
:1050E0009F918F917F916F915F914F913F912F9100
:1050F0000F900BBE0F900FBE0F901F90189580EF72
:105100009EE00E94C72621E0892B09F420E0822F2F
:1051100008951092F30E1092F20E88EE93E0A0E044
:10512000B0E08093F40E9093F50EA093F60EB0933A
:10513000F70E86E695E09093F10E8093F00E85ECE5
:1051400090E09093FD0E8093FC0E84EC90E09093A1
:10515000FF0E8093FE0E80EC90E09093010F809301
:10516000000F81EC90E09093030F8093020F82EC8C
:1051700090E09093050F8093040F86EC90E090935D
:10518000070F8093060F1092090F10920A0F1092CA
:105190000B0F10920C0F0895AF92BF92CF92DF9237
:1051A000EF92FF920F931F93CF93DF936C017B01DC
:1051B000C0E0D0E000E010E0F601EC0FFD1F4AE097
:1051C00050E06281C7010E94242A5C016EE2C7019F
:1051D0000E947F298A0D9B1D080F191F2196C3303D
:1051E000D10551F74AE050E0F6016581C7010E9400
:1051F000242A800F911FDF91CF911F910F91FF9073
:10520000EF90DF90CF90BF90AF9008950F93FC0187
:1052100086E795E0918380836283438324830583BB
:105220000F91089586E795E090938E0F80938D0FF0
:1052300010928F0F1092900F1092910F1092920F68
:10524000089508950E94A0250E9421290E94B1215D
:10525000C6EFD6E20E94DD212097E1F30E94F626F8
:10526000F9CFCF92DF92EF92FF920F931F93CF93DC
:10527000DF936C017A01EB01E60EF71E00E010E00F
:10528000CE15DF0561F06991D601ED91FC91019099
:10529000F081E02DC6011995080F191FF1CFC80143
:1052A000DF91CF911F910F91FF90EF90DF90CF9002
:1052B00008956115710581F0DB010D900020E9F77B
:1052C000AD0141505109461B570BDC01ED91FC919A
:1052D0000280F381E02D199480E090E00895DC01D4
:1052E000ED91FC91DB0114964D915C9115976D91B8
:1052F0007C910280F381E02D19940C945929DC01F2
:10530000ED91FC910190F081E02D19940F931F9382
:10531000CF93DF93EC016DE00E947F298C016AE05E
:10532000CE010E947F29800F911FDF91CF911F91A5
:105330000F9108950F931F93CF93DF93EC010E9479
:105340006F298C01CE010E948629800F911FDF9169
:10535000CF911F910F9108950F931F93CF93DF93D8
:10536000EC010E9459298C01CE010E948629800FF0
:10537000911FDF91CF911F910F9108958F929F926E
:10538000AF92BF92CF92DF92EF92FF920F931F9353
:10539000CF93DF93CDB7DEB7A1970FB6F894DEBFFA
:1053A0000FBECDBF7C01C42EE52FCB01D22E19A29A
:1053B00021E02D1510F02AE0D22E8E010F5D1F4F37
:1053C0008D2C912CA12CB12C6C2D7E2FA50194013C
:1053D0000E947C2C8C2DD29E801911240150110921
:1053E0008A3014F4805D01C0895CF8018083211546
:1053F00031054105510521F0C22EE32FCA01E4CF4A
:10540000B801C7010E945929A1960FB6F894DEBFD2
:105410000FBECDBFDF91CF911F910F91FF90EF9005
:10542000DF90CF90BF90AF909F908F9008952115FF
:10543000310541F4DC01ED91FC910190F081E02D0A
:10544000642F19940C94BE299A01462F50E060E015
:1054500070E00C94172A9A01AB0160E070E00C94A4
:10546000172A0F931F93CF93DF93EC019A01AB019F
:1054700060E070E00E94172A8C01CE010E9486290C
:10548000800F911FDF91CF911F910F910895FC0123
:10549000808191810C94732DCF93DF93EC018881EF
:1054A0009981009711F00E94732D198218821D8234
:1054B0001C821B821A82DF91CF9108950F931F9354
:1054C000CF93DF93EC018B016F5F7F4F88819981D0
:1054D0000E945E2E009731F0998388831B830A8394
:1054E00081E001C080E0DF91CF911F910F9108957D
:1054F000CF93DF93EC0188819981892B29F08A81F0
:105500009B818617970760F4CE010E945E2A88234C
:1055100041F08C819D81892B19F4E881F9811082F9
:1055200081E0DF91CF910895EF92FF920F931F9347
:10553000CF93DF93EC017B018A01BA010E94782AA4
:10554000811104C0CE010E944C2A07C01D830C8328
:10555000B701888199810E94852FCE01DF91CF917B
:105560001F910F91FF90EF900895FC01118210821E
:1055700013821282158214826115710559F0FB01A4
:1055800001900020E9F7AF0141505109461B570B2C
:105590000C94942A08950F931F93CF93DF938C015B
:1055A000EB01FC0180819181009799F04281538148
:1055B0002C813D814217530750F0688179810E9408
:1055C000852F8C819D81F8019583848313C00E946F
:1055D000732D88819981F801918380838A819B81D1
:1055E000938382838C819D81958384831982188221
:1055F0001B821A821D821C82DF91CF911F910F9115
:105600000895CF93DF93EC01FB018617970761F0B4
:10561000608171816115710529F0448155810E9475
:10562000942A02C00E944C2ACE01DF91CF910895A6
:10563000FC011182108213821282158214820C9452
:10564000012BCF93DF93EC018617970711F00E948F
:10565000CB2ACE01DF91CF910895CF93DF93EC0158
:105660006115710561F0FB0101900020E9F7AF01C0
:1056700041505109461B570B0E94942A02C00E94B8
:105680004C2ACE01DF91CF910895CF93DF931F92E3
:105690001F92CDB7DEB7FC011182108213821282F5
:1056A0001582148269831A82BE016F5F7F4F0E9448
:1056B0002D2B0F900F90DF91CF9108950F931F9393
:1056C000CF93DF93CDB7DEB762970FB6F894DEBF06
:1056D0000FBECDBF8C01CB01F80111821082138265
:1056E00012821582148250E0BE016F5F7F4F0E94CC
:1056F0008C2FBE016F5F7F4FC8010E942D2B6296D9
:105700000FB6F894DEBF0FBECDBFDF91CF911F91D2
:105710000F9108950F931F93CF93DF93CDB7DEB70B
:1057200061970FB6F894DEBF0FBECDBF8C01CB01E1
:10573000F80111821082138212821582148250E0C5
:10574000BE016F5F7F4F0E94B72FBE016F5F7F4F1B
:10575000C8010E942D2B61960FB6F894DEBF0FBED4
:10576000CDBFDF91CF911F910F910895EF92FF92DE
:105770000F931F93CF93DF93EC017B010C811D816D
:105780006115710511F480E016C04115510591F0C5
:10579000040F151FB8010E94782A8823A1F32881DD
:1057A00039818C819D81B701820F931F0E94852FC3
:1057B0001D830C8381E0DF91CF911F910F91FF90AA
:1057C000EF900895FB0144815581608171810C94B3
:1057D000B62BCF93DF931F921F92CDB7DEB76983AD
:1057E0001A8241E050E0BE016F5F7F4F0E94B62BEE
:1057F0000F900F90DF91CF910895CF93DF93EC013D
:10580000FB0144815581608171810E94B62B811119
:1058100003C0CE010E944C2ACE01DF91CF910895A2
:10582000CF93DF93EC016115710569F0FB010190E5
:105830000020E9F7AF0141505109461B570B0E9468
:10584000B62B811103C0CE010E944C2ACE01DF91FC
:10585000CF910895FC0124813581232B31F421E07F
:1058600061157105A1F0FB0108C0FC0180819181E7
:105870006115710531F421E0FC018081882339F044
:1058800005C00E947C2F21E0892B09F020E0822FA7
:105890000895FC01248135816217730748F48081E3
:1058A0009181009729F0FC01E60FF71F8081089590
:1058B00080E008950C94492CFC018081918100972F
:1058C00011F00C944C2F60E070E0CB010895089526
:1058D00097FB072E16F4009407D077FD09D00E949D
:1058E000C72C07FC05D03EF4909581959F4F0895F5
:1058F000709561957F4F0895A1E21A2EAA1BBB1BDC
:10590000FD010DC0AA1FBB1FEE1FFF1FA217B3078B
:10591000E407F50720F0A21BB30BE40BF50B661FA1
:10592000771F881F991F1A9469F760957095809565
:1059300090959B01AC01BD01CF010895052E97FB09
:105940001EF400940E94B52C57FD07D00E947C2CB9
:1059500007FC03D04EF40C94B52C5095409530952F
:1059600021953F4F4F4F5F4F0895909580957095CB
:1059700061957F4F8F4F9F4F0895EE0FFF1F05904A
:10598000F491E02D19940790F691E02D1994AA1B3B
:10599000BB1B51E107C0AA1FBB1FA617B70710F01A
:1059A000A61BB70B881F991F5A95A9F7809590954C
:1059B000BC01CD010895CF93DF938230910510F49F
:1059C00082E090E0E091CD0FF091CE0F20E030E04A
:1059D000A0E0B0E0309739F1408151814817590774
:1059E000B8F04817590771F482819381109729F014
:1059F00013969C938E9312972CC09093CE0F809306
:105A0000CD0F27C02115310531F04217530718F08B
:105A1000A901DB0101C0EF019A01BD01DF01028094
:105A2000F381E02DD7CF21153105F9F0281B390B73
:105A30002430310580F48A819B816115710521F044
:105A4000FB019383828304C09093CE0F8093CD0F8C
:105A5000FE01329644C0FE01E20FF31F8193919341
:105A600022503109398328833AC02091CB0F3091DD
:105A7000CC0F232B41F4209102023091030230938A
:105A8000CC0F2093CB0F2091000230910102211501
:105A9000310541F42DB73EB7409104025091050203
:105AA000241B350BE091CB0FF091CC0FE217F307DD
:105AB000A0F42E1B3F0B2817390778F0AC014E5F7E
:105AC0005F4F2417350748F04E0F5F1F5093CC0FE0
:105AD0004093CB0F8193919302C0E0E0F0E0CF01BF
