:100000000C94FF030C9430040C9430040C943004D2
:100010000C9430040C9430040C9430040C94300490
:100020000C9430040C9430040C9430040C94300480
:100030000C9430040C9430040C9430040C94300470
:100040000C9430040C9430040C9430040C94300460
:100050000C9430040C9430040C9430040C9415234C
:100060000C9430040C9437260C946D260C943004B8
:100070000C9430040C9430040C9430040C94300430
:100080000C9430040C9430040C9430040C94300420
:100090000C9430040C9430040C9430040C94E4213F
:1000A0000C9430040C9430040C9430040C94300400
:1000B0000C9430040C9430040C9430040C943004F0
:1000C0000C9430040C9430040C9430040C943004E0
:1000D0000C9430040C9430040C9430040C943004D0
:1000E0000C9430040C9430040C9430040C943004C0
:1000F0000C9430040C9430040C9430040C943004B0
:100100000C9430040C9430040C9430040C9430049F
:100110000C9430040C9430040C9430040C9430048F
:100120000C9430040C9430040C9430040C9430047F
:100130000C9430045424572446244A2450248E24FA
:100140005B245F24652469246D24732477247B2435
:100150008E248124852489240C94D2100C94572455
:100160000C94A8210C945B150C947B240C946524AE
:100170000C94462A0C94E9100C9497260C9415259F
:100180000C94B5160C9481240C9409210C947007DE
:100190000C9485170C9429250C9454240C948E0BE4
:1001A0000C94A1260C945F0B0C94CE260C9407257E
:1001B0000C9452110C94DA0F0C94FB240C946925C6
:1001C0000C9415210C944A240C9439210C94292167
:1001D0000C941F130C9438210C9446240C946F0437
:1001E0000C94361D0C9489240C9485240C94A32023
:1001F0000C9427270C945B240C9469240C94831092
:100200000C946D240C9477240C94FF100C941C27F0
:100210000C945F240C9485070C9434110C94BF1833
:100220000C9401140C94FB200C94131D0C94F020DE
:100230000C941F280C9450240C9469210C940D21CB
:100240000C948E240C9473240C948B2500000000D5
:10025000003E5B4F5B3E3E6B4F6B3E1C3E7C3E1C4C
:10026000183C7E3C181C577D571C1C5E7F5E1C0092
:10027000183C1800FFE7C3E7FF0018241800FFE749
:10028000DBE7FF30483A060E2629792926407F050C
:100290000507407F05253F5A3CE73C5A7F3E1C1C22
:1002A00008081C1C3E7F14227F22145F5F005F5FE2
:1002B00006097F017F006689956A606060606094CE
:1002C000A2FFA29408047E040810207E20100808D3
:1002D0002A1C08081C2A08081E101010100C1E0CDE
:1002E0001E0C30383E3830060E3E0E060000000070
:1002F0000000005F00000007000700147F147F1457
:10030000242A7F2A1223130864623649562050009B
:1003100008070300001C2241000041221C002A1C87
:100320007F1C2A08083E0808008070300008080872
:100330000808000060600020100804023E51494592
:100340003E00427F400072494949462141494D33B0
:100350001814127F1027454545393C4A4949314117
:10036000211109073649494936464949291E0000E5
:10037000140000004034000000081422411414143A
:100380001414004122140802015909063E415D5926
:100390004E7C1211127C7F494949363E414141222F
:1003A0007F4141413E7F494949417F090909013E59
:1003B000414151737F0808087F00417F4100204080
:1003C000413F017F081422417F404040407F021C92
:1003D000027F7F0408107F3E4141413E7F090909A9
:1003E000063E4151215E7F09192946264949493275
:1003F00003017F01033F4040403F1F2040201F3F3B
:100400004038403F631408146303047804036159BF
:10041000494D43007F414141020408102000414101
:10042000417F0402010204404040404000030708AD
:100430000020545478407F284444383844444428A9
:10044000384444287F385454541800087E09021850
:10045000A4A49C787F0804047800447D40002040D8
:10046000403D007F1028440000417F40007C04781C
:1004700004787C080404783844444438FC18242464
:100480001818242418FC7C080404084854545424E4
:1004900004043F44243C4040207C1C2040201C3C61
:1004A0004030403C44281028444C9090907C446458
:1004B000544C4400083641000000770000004136EB
:1004C000080002010204023C2623263C1EA1A16171
:1004D000123A4040207A38545455592155557941A3
:1004E0002254547842215554784020545579400C78
:1004F0001E5272123955555559395454545939555B
:100500005454580000457C410002457D420001459D
:100510007C407D1211127DF0282528F07C54554531
:10052000002054547C547C0A097F4932494949329D
:100530003A4444443A324A4848303A4141217A3AAE
:1005400042402078009DA0A07D3D4242423D3D407A
:1005500040403D3C24FF2424487E4943662B2FFC29
:100560002F2BFF0929F620C0887E090320545479D7
:10057000410000447D413048484A32384040227AA8
:10058000007A0A0A727D0D19317D2629292F282625
:100590002929292630484D4020380808080808082D
:1005A0000808382F10C8ACBA2F102834FA00007B86
:1005B000000008142A142222142A14085500550099
:1005C00055AA55AA55AAFF55FF55FF000000FF0088
:1005D000101010FF00141414FF001010FF00FF1083
:1005E00010F010F0141414FC001414F700FF0000B5
:1005F000FF00FF1414F404FC141417101F10101F34
:10060000101F1414141F00101010F0000000001F21
:10061000101010101F10101010F010000000FF102C
:100620001010101010101010FF10000000FF140028
:1006300000FF00FF00001F10170000FC04F414145A
:100640001710171414F404F40000FF00F714141426
:1006500014141414F700F7141414171410101F10A6
:100660001F141414F4141010F010F000001F101FC9
:100670000000001F14000000FC140000F010F01037
:1006800010FF10FF141414FF141010101F000000AE
:1006900000F010FFFFFFFFFFF0F0F0F0F0FFFFFFB2
:1006A0000000000000FFFF0F0F0F0F0F3844443809
:1006B00044FC4A4A4A347E02020606027E027E0258
:1006C00063554941633844443C04407E201E200663
:1006D000027E020299A5E7A5991C2A492A1C4C72A0
:1006E00001724C304A4D4D303048784830BC625A27
:1006F000463D3E494949007E0101017E2A2A2A2AB7
:100700002A44445F444440514A444040444A514092
:100710000000FF0103E080FF000008086B6B083653
:1007200012362436060F090F0600001818000000C4
:100730001010003040FF0101001F01011E00191DB3
:100740001712003C3C3C3C00000000000000000090
:10075000000000000007030401090A0B000000026A
:100760000000000000000000000000000000000089
:100770000102040810204080011020408008102051
:100780004080042001020408102040800204080177
:100790000204010204040404040404040202020228
:1007A00002050505050505070606060606060606F2
:1007B00002020207070705050000000025000000EF
:1007C0002B002E003100340000000000000000006B
:1007D000000000000000240000002A002D0030006E
:1007E000330000000000000000000000131DA320E3
:1007F000F020FB20A821A1261C27361D0921112449
:100800001FBECFEFD1E8DEBFCDBF00E00CBF15E0CB
:10081000A0E0B2E0E2E3FCE500E00BBF02C007901D
:100820000D92AA38B107D9F72FE0AAE8B5E001C0C8
:100830001D92A53EB207E1F713E0CDEFD3E000E053
:1008400006C021970109802FFE010E949A2AC63F07
:10085000D10780E00807A9F70E94492A0C94072EC7
:100860000C9400001092AD0F1092AE0F1092AA0FD0
:100870001092A90F1092E00F1092DF0FEFEAFFE045
:10088000119211928FE0EF3CF807D1F70E94C50B4F
:100890000E949F070E9450050E948B040E94C2057F
:1008A0000C94170A9093AA0F8093A90F0C94B30D80
:1008B0009093AC0F8093AB0F0C94A10DE82FF0E058
:1008C000EE0FFF1FE155F04F7183608308950E9482
:1008D000FA070E94D00C0E94AE040C94630AE091C7
:1008E0008A05F0918B053097A1F02281338128177A
:1008F000390759F4DC01AD57BF4F2C912787139668
:100900002C91208B22E0248304C00190F081E02D03
:10091000EACF0C948C0510928B0510928A050895ED
:10092000FC0114821786138212828091DF0F90914E
:10093000E00F01969093E00F8093DF0F80918A057E
:1009400090918B05009719F41182108202C0918357
:100950008083F0938B05E0938A0508950F931F938E
:10096000CF93DF93E0918A05F0918B05EF012097FB
:1009700009F491C08C81882321F0823009F461C090
:1009800086C00E945B058C01009721F482E08C8375
:100990008F8781C09B838A8381E08C83F801E9572C
:1009A000FF4F8FE694E0918380833197898582FBA6
:1009B000882780F98083F8018385998590FB80F9E9
:1009C0008387998593FB992790F990FB82F9838718
:1009D00099859695917090FB81F983878091AD0FF1
:1009E0008F5F8093AD0F84878091A90F9091AA0F9C
:1009F000968785878D819E81908B87878885982FA4
:100A00009F708189807F892B818B9F819295907FB8
:100A10008F70892B818BEF57FF4F4C8550E06A8593
:100A20007B85808191810E943E2DF80191818C858A
:100A3000890F8183C801DF91CF911F910F910C9491
:100A4000EA0BEC17FD0739F48881998190938B05A7
:100A500080938A050BC0808191818C179D0711F0CE
:100A6000FC01F9CF88819981918380838091DF0F88
:100A70009091E00F01979093E00F8093DF0FED8549
:100A8000FE85CE01DF91CF911F910F9119940990AE
:100A9000D881C02D6CCFDF91CF911F910F91089518
:100AA00010928C051092150610929E061092270740
:100AB0001092B0070895ECE8F5E080E090E0208126
:100AC000211121C049E8489F9001499F300D112410
:100AD000C90184579A4FFC0111924A95E9F740E108
:100AE000FC014183EF57FF4F22563A4F3183208359
:100AF0002091DF0F3091E00F2F5F3F4F3093E00FD9
:100B00002093DF0F08950196E757FF4F8530910539
:100B1000B1F680E090E00895FC011082E9EAFFE080
:100B200086A997A9019797AB86AB0895009711F016
:100B3000FC0103C0ECE8F5E002C0E757FF4F88E096
:100B4000E933F80728F480818823B9F3CF010895A9
:100B500080E090E00895FC01DC01AD57BF4F1C928E
:100B6000A9EABFE014968C9114978F5F14968C932A
:100B7000149784878D919C91968785878385826061
:100B800083870895E9E3F8E080E090E04FEF5FEFBE
:100B900037E052834183389FD001399FB00D112433
:100BA000A75CB74F2C912E7F2C9315820196379618
:100BB0008436910571F70895CF93DF93A9E3B8E0E8
:100BC00020E030E0C7E070E01196ED91FC911297C3
:100BD000E817F90789F4C29FF001C39FF00D1124B3
:100BE000E75CF74FD081D1FB442740F950E046172E
:100BF000570711F4CF0108C02F5F3F4F17962436D7
:100C0000310511F780E090E0DF91CF91089580E009
:100C100090E0E0E0F0E0DC01A75CB74F2C9120FD14
:100C20000BC015962C911597222361F0309719F07F
:100C30003581231708F4FD0107968C3B22E09207CB
:100C400051F701C0FD0180818D708063808380E851
:100C50008583CF010895FC01808180FD05C08FEF61
:100C60009FEF92838183158208950E94DC0500978F
:100C700021F0FC018381948108958FEF9FEF089507
:100C800089E398E008950E94DC05009711F00C9428
:100C90002B060895EF92FF920F931F93CF93DF934C
:100CA000EC0109851A8517FF06C08D859E850817FA
:100CB000190709F047C08D819E81019609F442C051
:100CC00060E08D859E850E94DC05FC01CE018D577C
:100CD0009F4F7C01309741F18F819885019679F47F
:100CE00091E080E04091A90F5091AA0F2F8538899B
:100CF0004217530709F090E0292F382F02C020E057
:100D000030E0838194818017910729F0D7019C916D
:100D10008681891710F0232B91F01483038390812F
:100D20009F70906390830BC00E940706FC018D8525
:100D30009E859283818389859A8594838383D70155
:100D40008C918683DF91CF911F910F91FF90EF904F
:100D50000895CF93DF93EC018F8598898F3F2FEF14
:100D60009207B1F16B8563FB662760F90E94DC0591
:100D7000FC01892B69F1908190FD2AC0CD57DF4F8E
:100D80002881892F8F70211113C080638083858112
:100D90008F5F85838F3FE1F4EEE3F8E080818695F5
:100DA0008F5F808337968AE0EA3FF807B9F710C073
:100DB00092959F70915F9F70292F2295207F822BA3
:100DC0008083911105C0CF01DF91CF910C942B0648
:100DD000DF91CF910895CF93DF93FC0187859089B0
:100DE0008F3F2FEF920719F0638562FF03C0908752
:100DF000878308C0EF0163FB662760F90E94350610
:100E000098878F83DF91CF910895AF92BF92CF9251
:100E1000DF92FF920F931F93CF93DF938C01FC011E
:100E2000F384F3FAFF24F0F8A784B0886F2DC5018E
:100E30000E9435060196A1F0F801E957FF4F118293
:100E40001082319782E08083C801DF91CF911F919A
:100E50000F91FF90DF90CF90BF90AF900C94EA0B72
:100E6000F801C584D6840E945B05EC010097D1F09F
:100E70000E94AB0599819A5F9983FE01E957FF4F64
:100E800011821082D88ACF8636970190F081E02DAA
:100E900081E08083D282C182B482A382F582CE01B6
:100EA0000E94EA0BC801DF91CF911F910F91FF9033
:100EB000DF90CF90BF90AF900C948C05DC0117961B
:100EC000ED91FC91189719968C91863039F46581D3
:100ED000838194810E94430681E0089580E0089513
:100EE000AC01E8E0FBE020E09081992319F09150FB
:100EF000908321E035968BE0EA33F807A9F72223A7
:100F000019F0CA010C94790F0895DC0116962C9102
:100F1000169721FF12C019962C911997222369F078
:100F20001796ED91FC9118972081222321F0213012
:100F300021F40C945E070C94890C80E0089580E005
:100F400090E0FC01EC5FF44F14820596823391052A
:100F5000C1F784E690E0A0E0B0E08093FB0A9093B4
:100F6000FC0AA093FD0AB093FE0A1092000B1092A7
:100F7000FF0A80E797E09093020B8093010B65E8EE
:100F800077E080E00C945E04CF93DF93EC01E8817E
:100F9000F9818181883801F580818F7D8134E1F488
:100FA0008A818031C8F00E945B050097A9F020E299
:100FB000FC0120832A8121832B81ED57FF4F208361
:100FC0002C81319620834A8150E068817981029694
:100FD000DF91CF910C943E2DDF91CF9108958093B6
:100FE000030B0895662311F022E201C024E2FC0104
:100FF000208308956F927F928F929F92AF92BF92BB
:10100000CF92DF92EF92FF920F931F93CF93DF93D4
:10101000CDB7DEB72C970FB6F894DEBF0FBECDBFAD
:1010200000E010E094E2D92E8824839422E2C22EBC
:1010300031E2B32E43E2942E52E0A52EEE24E39447
:10104000F12CC8010E9496058C01892B09F4DAC1A4
:10105000D8018C91823209F4EAC048F4803281F0E0
:10106000813279F760E0C8010E941E0AEACF83321C
:1010700009F4AEC1843229F7C8010E948C05E1CF82
:10108000F801D082838583FDDCCF45815681278599
:1010900030894F3F5F4F71F44091A90F5091AA0FD3
:1010A0004217530719F02F3F3F4F59F681FFBCC03D
:1010B000D801B8C02F3F3F4F11F480FDC2CF20911F
:1010C000A90F3091AA0FD8011D968D919C911E9762
:1010D0002817390709F4B5CFC8010E944A06A4E0D1
:1010E000BBE080E090E060E070E014962C911497F3
:1010F000222309F455C0F801458556852D913C9170
:1011000011974217530709F04CC0248535E0389FEA
:10111000F001399FF00D1124EC5FF44F8281821BA6
:10112000883078F54381242F30E0082E02C03595B1
:1011300027950A94E2F720FF1AC02091A90F309159
:10114000AA0FD80117968D919C91189728173907E7
:1011500009F077CF1B966C911B9763FB662760F9AC
:101160001F968D919C9150970E9443066ACF9701DC
:1011700002C0220F331F8A95E2F7C901842B8383B3
:101180002CC02283238130E08195A90102C0440F45
:10119000551F8A95E2F7CA0181608383A4821DC02E
:1011A000BD01019615965BE0A633B50709F09DCF0A
:1011B0006115710509F445CFD8011D968D919C915B
:1011C0001E97FB01918380831C968C91828383827E
:1011D000A48285EF9AE00E94790FD80117968D912D
:1011E0009C911897019669F42091A90F3091AA0F4C
:1011F000D8011F968D919C9150972817390709F0B7
:10120000EBC08091A90F9091AA0FF8012785308932
:10121000D8018217930709F0E7C01B968C911B97A2
:1012200081FF02C0BC920DCFF801C0820ACF10929C
:10123000030BF8012189322F32953F70E32FF0E044
:10124000EE0FFF1FE155F04F0190F081E02D309738
:1012500009F45DC0D8011D968D919C911E979A83CB
:1012600089831F964D915C9150975C834B832F70BF
:101270002D833E83AF57BF4F6D917C9179876887EF
:1012800098012E5F3F4F261B370BD80111963C91DA
:101290001197230F2A87AD57BF4F2C912B8711969B
:1012A0002C912C87D8011B966C91262F237062FD00
:1012B00002C030E001C030E2232B63FD02C030E009
:1012C00001C030E4322B4F3F5F4F11F020E001C0EE
:1012D00024E0232BD80119964D915C911A9784171D
:1012E000950711F090E001C098E0922BD801159677
:1012F0002D913C9116972F3F3F4F11F080E001C098
:1013000080E1892B8F83CE010196199501C080E081
:10131000F801938590FF80E0D80117964D915C917C
:1013200018972091A90F3091AA0F4F3F5F4F41F4BA
:10133000F801478550892417350711F493FF81E0A0
:10134000D80115964D915C9116974F3F5F4F09F468
:1013500080E02F3F3F4FC9F18823B9F10E945B0520
:101360003C01009791F10E94AB05D30111968C913D
:1013700011978D5F11968C931197F301E957FF4FE9
:1013800011821082F8018385869581701B969C914D
:101390001B9780FB91F91B969C931B9785859685DF
:1013A00050969C938E931F97F301EF57FF4F019038
:1013B000F081E02D10828091030B8283D8011C966E
:1013C0008C918183C3010E94EA0BF801D08239CE4F
:1013D000C8010E94050735CE1B968C9182FD11CF66
:1013E000C8010E94410C0DCF2F3F3F4F09F415CF8C
:1013F00017962D913C9118978217930709F021CEEB
:101400009C921FCE2C960FB6F894DEBF0FBECDBFB8
:10141000DF91CF911F910F91FF90EF90DF90CF90D0
:10142000BF90AF909F908F907F906F900895109293
:101430004B0B10924A0B1092490B0895662311F042
:1014400020E301C021E3FC01208380914B0B8F5FDF
:1014500080934B0B0895CF93DF93C091490BD091AC
:101460004A0B3091470B9091480B292F913108F08E
:1014700020E16091460B46E35BE0FE01EF57FF4F32
:10148000A081B181A30FB11DFA018E2F841B821799
:1014900058F470818C9187278D93611102C07081FF
:1014A000872780833196F1CF320F3093470B921B01
:1014B0009093480B992311F082E301C084E3888361
:1014C000DF91CF910895CF92DF92EF92FF920F9329
:1014D0001F9380914B0B882309F4EAC08091490B3C
:1014E00090914A0B009709F473C0FC0120812433CA
:1014F00009F05CC02091470BEF57FF4F0190F0813E
:10150000E02DE20FF11D00913A0B10913B0B209161
:101510003C0B30913D0B4091360B5091370B609155
:10152000380B7091390B40275127622773270091A0
:101530003E0B10913F0B2091400B3091410B402707
:101540005127622773270091420B1091430B209182
:10155000440B3091450B4027512762277327209178
:10156000460B222359F04083518362837383FC012D
:1015700021812C5F21830E94AB0C0EC021E0C08032
:10158000D180E280F3804C155D056E057F0509F082
:1015900020E0622F0E94F20710924A0B1092490B32
:1015A00080914B0B815080934B0B82C0223309F00A
:1015B0007FC023E3FC0120836FEC7FE086E39BE0A8
:1015C0001F910F91FF90EF90DF90CF900C94030F3D
:1015D000E0E0F0E0CF010E949605FC01892B09F4C0
:1015E00067C0208180ED820F8230A0F7F0934A0B14
:1015F000E093490B848590E0A0E0B0E08093360B47
:101600009093370BA093380BB093390B8785908953
:10161000A0E0B0E0DC0199278827318932953F703E
:10162000832B80933A0B90933B0BA0933C0BB0938E
:101630003D0B85859685A0E0B0E0DC0199278827E1
:1016400031893F70832B80933E0B90933F0BA09387
:10165000400BB093410B338585819681A0E0B0E0CB
:10166000DC0199278827832B8093420B9093430BAF
:10167000A093440BB093450B213319F4818184501E
:101680008183DF01AF57BF4F4D915C91CF0102962F
:10169000841B950B9181890F8093480B1092470B07
:1016A00081E0203309F080E08093460B82E3808361
:1016B0001F910F91FF90EF90DF90CF9008950F93BF
:1016C0001F93CF93DF938C01C0E0E0E0F0E0D3E123
:1016D000CF010E949605FC01892B91F08081813118
:1016E000B9F7DF01AC57BF4F2D913C9111972150B5
:1016F00031092D933C93232B09F4D083C1E0E8CF2B
:10170000CC2339F0C801DF91CF911F910F910C9438
:10171000790FDF91CF911F910F910895FF920F9351
:101720001F93CF93DF938C01C0E0E0E0F0E0D7E1BE
:1017300080E1F82ECF010E949605FC01892BA9F0CB
:1017400080818631B9F7DF01AC57BF4F2D913C91B5
:1017500011972150310911963C932E93232B19F4A4
:10176000D0831197FC92C1E0E5CFCC2341F0C801B2
:10177000DF91CF911F910F91FF900C94790FDF9122
:10178000CF911F910F91FF9008951092690B1092C5
:10179000680BEAE5FBE082E390E0A0E0B0E086833E
:1017A0009783A087B187138612868EE89BE0958782
:1017B0008487ECE4FBE08AE090E0A0E0B0E0868380
:1017C0009783A087B187138612868FE59BE0958764
:1017D000848708950F931F93CF93DF93EC01FC014F
:1017E000EA57FF4F808181FF02C092E104C09B85D0
:1017F00091FFFBCF90E19883FE01ED57FF4F1082E0
:1018000080FF03C02FEF3FEF04C02091AB0F30915A
:10181000AC0F3E832D83857021F4CE010E94EB0630
:1018200004C08F85988998878F838091A90F9091A4
:10183000AA0F9A8789878091AE0F8F5F8093AE0F32
:101840008C838F8198858E010C571F4F019669F408
:1018500081E498E89B838A830E941A2C87709927D9
:101860000196F8019183808307C081E698E89B8305
:101870008A83F80111821082DF91CF911F910F911D
:1018800008950F931F93CF93DF938C010E945B0504
:10189000EC01892BC9F182E18883F8018181898378
:1018A000FE01ED57FF4F10820E941A2CFE01EC57EB
:1018B000FF4F877099270196918380833396118219
:1018C0001082F801418150E0B8016E5F7F4FCE0178
:1018D00002960E943E2D81E498E89B838A838FEFD5
:1018E0009FEF98878F83F801858196819E838D83F2
:1018F0008091A90F9091AA0F9A8789878091AE0F46
:101900008F5F8093AE0F8C83DF91CF911F910F91EA
:101910000895CF93DF93FC01C781D0858185833003
:1019200011F080E015C080E090E00E9496050097DD
:10193000C1F3FC0120812631C1F73485298132139E
:10194000F4CF27E120832A81EA57FF4F208381E0EB
:10195000DF91CF91089522E1FC0120830895A091A9
:10196000680BB091690B833030F4E82FF0E0E85D4C
:10197000FB4F808101C081E0FD01ED57FF4F808367
:1019800085E18C931092690B1092680B8091DF0FA8
:101990009091E00F01979093E00F8093DF0F0895EF
:1019A000BF92CF92DF92EF92FF920F931F93CF934C
:1019B000DF93C0E0D0E004E117E186E1D82E93E0A8
:1019C000E92EF12C23E1C22E31E1B32ECE010E948B
:1019D0009605EC01892B09F469C088818331F1F007
:1019E00028F4803149F0823161F0F0CF853181F106
:1019F000873109F44AC0EACF61E0CE010E941E0A95
:101A0000E5CFFE01EC57FF4F80819181892B21F0BA
:101A1000B8828CE49BE034C0C882D8CF8091680B38
:101A20009091690B892B91F6D093690BC093680B49
:101A300008836981CE0102960E94CD0D8091DF0F4F
:101A40009091E00F01969093E00F8093DF0FBECF4F
:101A5000FE01ED57FF4F8081811115C02D853E8518
:101A60008091A90F9091AA0F2817390761F48B85EF
:101A700080FF09C0D8823196F182E0828AE59BE03E
:101A80000E94790FA3CF1883A1CFCE010E94A9068F
:101A9000FE01E957FF4F0190F081E02DCE01309714
:101AA00019F40E948C0592CF199590CFDF91CF91B8
:101AB0001F910F91FF90EF90DF90CF90BF9008950E
:101AC00080916A0B982F9F7080915401807F892BA1
:101AD0008093540190916A0B80916B0B992319F0BC
:101AE0008093530108958F7190914801907E892BC6
:101AF00080934801089593E09093420190914101B1
:101B00009F719830D9F780934201909141019F7164
:101B10008913FBCF089588E00E947B0D8FEF80939F
:101B20004F0180916C0B882319F086E10C947B0D9A
:101B3000089580936C0B0C948B0D80936B0B0C941D
:101B4000600DCF93DF931F921F92CDB7DEB79A83BC
:101B50008983809362018A81809363010F900F9043
:101B6000DF91CF910895CF93DF931F921F92CDB74E
:101B7000DEB79A838983809360018A8180936101B3
:101B80000F900F90DF91CF9108958F70E5E4F1E011
:101B90009081907F892B808308951F93CF93DF934B
:101BA0001F921F92CDB7DEB7182F89E169839A8300
:101BB0000E947B0D8FEF80934F01698182E0860F39
:101BC00080938001212FE12F9A81F92FA1E8B1E0C4
:101BD0008E2F821B861718F481918D93F9CF83E0A5
:101BE00090E09093EE0B8093ED0B82E080934201A6
:101BF0000F900F90DF91CF911F9108950F931F9336
:101C0000CF93DF931092560186E00E947B0DC0E0D7
:101C1000D0E000E010E061E070E080E090E00E9441
:101C200090232091460122952695237030E00C2EBA
:101C300002C0220F331F0A94E2F7022B132B2296C5
:101C4000C031D10541F788E00E947B0D8BEE809377
:101C500056010E948B0DC801DF91CF911F910F910A
:101C60000895E9E3F1E080818160808310926C0B3C
:101C700010926A0B81E090E09093EE0B8093ED0B55
:101C800088E00E947B0D8BEE80935601ECE4F1E03E
:101C90008081806880830E94FE0D80936D0108958D
:101CA0009B01205F3F4FFB014191BF0140933F01EA
:101CB000E217F307C1F710923C01FC019C01205F81
:101CC0003F4FDC018D9180933E01A217B307D1F7FE
:101CD00080913C01806880933C0180913D0180FFB0
:101CE000FCCF80913E018193E217F307D1F708956D
:101CF000CF93DF9300D000D0CDB7DEB78091ED0B4E
:101D00009091EE0B029709F469C080914F0183FF17
:101D10003CC040917B0150E0242F30E0852F90E0C3
:101D20002817390754F0FC01E058FE4F6081FC0190
:101D3000E359F44F60835F5FF1CF8DE69BE09A83B8
:101D4000898342504B83F901E359F44F80818C839E
:101D5000809147018F5F8D83CE0101960E94C40759
:101D6000809141018F718631D9F780914F01886050
:101D700080934F0180914C018F7780934C0180912B
:101D80004C01806880934C0129C080914F0186FFEF
:101D900025C0809141018F718931D9F48091420130
:101DA00082958695877049F0833021F0853021F047
:101DB00083E003C081E001C082E08E830E948B0D2E
:101DC00021E030E03093EE0B2093ED0B8E810E94EA
:101DD000AF0C80914F01806480934F0126960FB61F
:101DE000F894DEBF0FBECDBFDF91CF9108950E9462
:101DF000630F0E94310E0C9432040E94780E0E94F0
:101E000067040C94880F0E94500E0C942B0A0F93B9
:101E10001F93CF93DF93FC018091F00B9091F10B16
:101E2000B681A781308521850097F1F14B2F5A2F7C
:101E3000632F722FDC01D0E0C0E012960D911D914E
:101E40002D913C911597401751076207730768F46D
:101E5000041B150B260B370B12960D931D932D9318
:101E60003C931597AD2FBC2F0EC0401B510B620B3E
:101E7000730B2D913C911197DA2FCB2F2115310542
:101E800011F0D901DACF42835383648375831097AD
:101E900041F08D919C91119791838083ED93FC93F8
:101EA0000DC09183808306C011821082B283A38308
:101EB00034832583F093F10BE093F00BDF91CF9106
:101EC0001F910F9108951092F10B1092F00B08954D
:101ED000E091F00BF091F10B309739F0E817F9072A
:101EE00031F00190F081E02DF7CF80E0089581E09E
:101EF0000895CF93DF93EC010E94680F811105C014
:101F0000CE01DF91CF910C94070FDF91CF9108950F
:101F1000CF92DF92EF92FF92CF93DF930E945F23E5
:101F20002091EF0BC22ED12CE12CF12C6C157D05EC
:101F30008E059F05C1F10E945F238091EF0BC62E95
:101F4000C81AD12CE12CF12C6093EF0BC091F00B4F
:101F5000D091F10B209739F18A819B81AC81BD81B1
:101F6000C816D906EA06FB06B0F0C81AD90AEA0A6A
:101F7000FB0A888199819093F10B8093F00B8A85FD
:101F80009B85019719F4CE010E94070FEC85FD8512
:101F9000CE011995DBCF8C199D09AE09BF098A8343
:101FA0009B83AC83BD83DF91CF91FF90EF90DF9057
:101FB000CF9008952F923F924F925F926F927F92AF
:101FC0008F929F92AF92BF92CF92DF92EF92FF9249
:101FD0000F931F93CF93DF9300D0CDB7DEB74C01A3
:101FE0007B836A836A01590117019801241B350B11
:101FF00037FF03C0319521953109C5014A815B81C5
:10200000841B950B97FF03C091958195910951E031
:1020100059838217930714F019820BC09A2D8B2DC8
:102020005801092F182F9A818B81DB82CA82C92E11
:10203000D82E8A819B81A816B9065CF49C2D8D2D23
:102040006801092F182F9A818B81BB82AA82A92E41
:10205000B82E2501AA81BB814A1A5B0A38016C1887
:102060007D0877FE03C0719461947108720157FE78
:1020700003C0BFEFEB1AFB0AF594E794C016D10634
:102080001CF00FEF1FEF1FC001E010E01CC0D401D7
:10209000ED91FC91B9810480F581E02D9101BB2384
:1020A000C1F04A815B81B601C4011995E618F708B1
:1020B000F7FE04C0C00ED11EE40CF51CEA81FB81C2
:1020C0003196FB83EA834A815B81A416B506FCF650
:1020D00004C0A6016A817B81E7CF0F900F900F901B
:1020E000DF91CF911F910F91FF90EF90DF90CF90F4
:1020F000BF90AF909F908F907F906F905F904F9028
:102100003F902F9008956F927F928F929F92AF92FF
:10211000BF92CF92DF92EF92FF920F931F93CF93D4
:10212000DF93EC014B015A0169013801E881F98123
:102130000284F385E02D87011995E881F981A501D5
:10214000460D571D415051090284F385E02D96013B
:10215000B401CE011995E881F9810084F185E02D63
:102160009301A501B401CE011995E881F981C80C4C
:10217000D91CB601615071090084F185E02D9301ED
:10218000A501CE011995DF91CF911F910F91FF907D
:10219000EF90DF90CF90BF90AF909F908F907F9007
:1021A0006F900895EF92FF920F931F937801DC01D7
:1021B000ED91FC91240F351F890101501109068012
:1021C000F781E02D9B0119951F910F91FF90EF90E2
:1021D0000895EF92FF920F931F93DC01ED91FC9114
:1021E000260F371F215031090680F781E02D780135
:1021F0008A0119951F910F91FF90EF9008956F92AA
:102200007F928F929F92AF92BF92CF92DF92EF9286
:10221000FF920F931F93CF93DF936C015A014801F4
:10222000EB013B01620E731EC615D70574F4D6018F
:10223000ED91FC910084F185E02D87019401A501C9
:10224000BE01C60119952196EFCFDF91CF911F9165
:102250000F91FF90EF90DF90CF90BF90AF909F9045
:102260008F907F906F900895EF92FF920F931F933E
:10227000DC01ED91FC9111971A960D911C911B9721
:1022800018962D913C9119970684F785E02D7B01D6
:1022900040E050E060E070E019951F910F91FF90D1
:1022A000EF9008950895FC01138212828FE294E06A
:1022B00091838083758364835783468371876087A6
:1022C00053874287158A158614861786168681E0FD
:1022D000848B2FEF3FEF338B228B318B208B868BC0
:1022E000178A118E108E08952F923F924F925F920F
:1022F0006F927F928F929F92AF92BF92CF92DF9216
:10230000EF92FF920F931F93CF93DF93CDB7DEB77A
:1023100069970FB6F894DEBF0FBECDBF3C014A01EE
:102320001F830E83FD82EC82CA82DC0158964D9198
:102330005C9159974115510509F0A8C018968D91E7
:102340009C911997681779070CF060C11A968D91C6
:102350009C911B97881699060CF058C1D12CCB0183
:10236000EA81B6E0EB9F800D911D11241816190625
:102370000CF04CC1C60133E0880F991F3A95E1F784
:10238000880D991D181619060CF040C1D3015796F7
:102390008C91811103C0203B08F02F5FB5E02B9F8B
:1023A000900111247E876D872B011B82F901E61BAA
:1023B000F70BF987E8879401285F3F4F3B872A870F
:1023C0003B81353059F0E885F9854D855E85E40F10
:1023D000F51FE45BFD4F5491598301C0198214012C
:1023E0005401898180FF12C0D301ED91FC91BA8123
:1023F000B13031F40480F581E02D2E813F8118C089
:102400000684F785E02DEE80FF801DC0EC81FD8104
:102410002E813F81E217F307E1F0D301ED91FC91AA
:10242000BA81B13059F40480F581E02D2C813D81D1
:10243000A5016D857E85C30119950BC00684F785BE
:10244000E02DEC80FD8086019601A101B201C3015F
:102450001995E981E695E9832C0C3D1CFFEFAF1A35
:10246000BF0A2A853B85A216B30609F0BACF3B8185
:102470003F5F3B834C0C5D1C4D855E854F5F5F4F1E
:102480005E874D87363009F09BCFC0C0FA01349685
:102490003491329785919491231BA7E02A9F800D58
:1024A000911D1124FA0125913491388B2F87FC015D
:1024B00025903490FC01329634913B8331964491BF
:1024C0004C873196E491FC013596A4913196849124
:1024D0005A81523050F04A2E0A2E000C5508E82F2F
:1024E000082E000CFF0BF987E887FA81CF2ED12C3C
:1024F0004C9C90014D9C300D5C9C300D1124A90129
:10250000460F571F5B874A871982A12CEA2FAA0F13
:10251000FF0BDB01AE0FBF1FBD83AC83BB816B0F15
:10252000711D9B012E0F3F1F3D8B2C8BA401480F6B
:10253000511D87FD5A955F8B4E8B9C85A91608F01F
:1025400065C08A2D90E048855985480F591F4C9DDC
:1025500090014D9D300D5C9D300D1124D901A80DC9
:10256000B91DBE87AD87EC81FD81F98FE88F4A8464
:102570005B84F9812C81F21BF98B4E895F89480FAE
:10258000591F5B8B4A8B8989F88D8F0F288D398D68
:102590004C895D892417350799F1877041F4C10191
:1025A0000196EF85F889E20DF31DB4901C01B7FE8A
:1025B0001EC0D301ED91FC91BA81B13061F4048069
:1025C000F581E02D2E813F814A895B89688D798D67
:1025D000C30119950CC00684F785E02DEE80FF80BD
:1025E000860196014D855E85B201C3011995BB0C2C
:1025F0004C0C5D1CE88DF98D3196F98FE88FC3CFB7
:1026000059818B81580F5983A39497CF69960FB640
:10261000F894DEBF0FBECDBFDF91CF911F910F9118
:10262000FF90EF90DF90CF90BF90AF909F908F90F2
:102630007F906F905F904F903F902F900895AF9252
:10264000BF92CF92EF92FF920F931F93CF93DF939E
:10265000EC01262F888D998D009709F042C06A30D1
:1026600069F42C898E859F8538E0239F800D911D0C
:1026700011249F878E871D861C86ACC06D3009F49F
:10268000A9C08E898823C1F03C898C859D8546E050
:10269000349F800D911D1124488559858417950715
:1026A0005CF01D861C868E859F85E8E03E9F800D30
:1026B000911D11249F878E87EA88FB8808891989D4
:1026C0004E855F856C857D85CC88CE010E94741116
:1026D0002C898C859D85F6E02F9F800D911D1124FE
:1026E00041C06A3079F41D861C862C89FC0136961F
:1026F000E4918E859F852E9F800D911D11249F87CB
:102700008E8768C06D3009F465C0AC014C5F5F4FC7
:10271000FA013491631708F45DC03196E491E6172D
:1027200008F458C0FA014491362F341BFC0132964C
:10273000A590B490F7E03F9FA00CB11C1124F501C7
:10274000329634913196E491332311F0E1110DC0AA
:10275000F5013496E4912C898C859D85E29F800D4E
:10276000911D11249D878C8735C0F50135964491C4
:102770005E89552311F16C89E32FF0E0E40FF11D20
:1027800047FDFA956E9FD0016F9FB00D11244C85C7
:102790005D854A0F5B1FE885F9854E175F076CF072
:1027A0001D861C86FC013696E4918E859F856E9F62
:1027B000800D911D11249F878E87EA88FB880889E8
:1027C00019894E855F856C857D85CC88CE010E94F8
:1027D0007411BECF81E090E0DF91CF911F910F91F6
:1027E000FF90EF90CF90BF90AF900895FC01858946
:1027F0000895FC01808591850895FC01828593856B
:1028000008950F931F93CF93DF93DC01FB0155963F
:102810008C915597823089F0833021F1813009F015
:10282000E6C014968D919C911597BC01641B750BA5
:10283000AB0141505109BF011DC014966D917C91AF
:102840001597CB018E1B9F0BFC0116968D919C91C9
:102850001797BC01641B750BAB0141505109E21B7A
:10286000F30BC5C016966D917C9117976E1B7F0B6D
:10287000621B730B57FD1AC114968D919C9115978D
:10288000481759070CF012C177FF04C0260F371FF5
:1028900060E070E016968D919C911797FB01E20F16
:1028A000F31F8E179F071CF49C01261B370B121673
:1028B00013060CF0FBC0A22F862F86958695869571
:1028C00090E8899F400D511D1124FA01E65EFD4FED
:1028D0006770A9F198E0961B492F50E0EA01CE5E9F
:1028E000DD4F8881291790F4421B51092FEF30E00A
:1028F00002C0359527954A95E2F7822301301105EC
:1029000041F068F00230110589F0D0C001301105A6
:1029100019F42081822B0CC00130110520F4809520
:102920002081822305C00230110531F420818227E5
:102930008083A91708F4BAC0A91BE058FF4FA8303C
:1029400048F10230110559F4EF018A2F98819095D2
:102950009883C058DF4F88508830C0F732C081E07C
:102960000130110509F080E08195EF019A2F8883ED
:10297000C058DF4F98509830D0F788EF8A0F86956F
:102980008695869560E8869FE00DF11D1124E0583C
:10299000FF4FA770AA2309F489C0B0E0A65FBD4F1E
:1029A0008C910130110529F038F002301105E1F069
:1029B0007DC09081892B03C080959081892380837D
:1029C00075C088EF8A0F86958695869570E8879FF3
:1029D000E00DF11D1124E058FF4FA77009F466C007
:1029E000B0E0A65FBD4F8C9190818927E8CF57FD5D
:1029F0005DC016968D919C911797481759070CF05A
:102A000055C0F7FF04C02E0F3F1FE0E0F0E0149622
:102A10008D919C911597BF01620F731F86179707C1
:102A20001CF49C012E1B3F0B121613060CF03EC02B
:102A3000CA0157FD079663E0959587956A95E1F77A
:102A40009695982F882797958795E80FF91FE65E4A
:102A5000FD4F4770552781E090E001C0880F4A95EF
:102A6000EAF7482F0130110539F078F002301105EE
:102A7000E9F42E0F3F1F13C02E0F3F1FE217F3077D
:102A8000A9F08081842B8193F9CF80952E0F3F1F71
:102A9000E217F30759F0908198239193F9CFE21749
:102AA000F30721F0808184278193F9CFDF91CF91C3
:102AB0001F910F9108950F931F93CF93DF93DC0124
:102AC00055968C915597823071F0833009F18130A1
:102AD00009F08CC01496ED91FC911597E41BF50B51
:102AE000E21BF30B20C01496ED91FC911597CF01DA
:102AF000861B970BBC01615071091696ED91FC91F4
:102B00001797CF01841B950BAC01421B530B6EC072
:102B10001696ED91FC911797CF01861B970BBC0180
:102B200061507109FA0177FD1BC116968D919C9138
:102B30001797681779070CF013C1F7FF04C02E0F21
:102B40003F1FE0E0F0E014968D919C911597AF0146
:102B5000420F531F841795071CF49C012E1B3F0B3B
:102B6000121613060CF0FCC0CB0177FD079643E06C
:102B7000959587954A95E1F79695982F882797958B
:102B80008795E80FF91FE65EFD4F6770772781E0B4
:102B900090E001C0880F6A95EAF7482F01301105CF
:102BA00041F088F00230110509F0DAC02E0F3F1F06
:102BB00015C02E0F3F1FE217F30709F4D1C0808123
:102BC000842B8193F8CF80952E0F3F1FE217F307D8
:102BD00009F4C6C0908198239193F8CFE217F307C8
:102BE00009F4BEC0808184278193F8CF77FDB8C0F7
:102BF00014968D919C911597681779070CF0B0C0C9
:102C000057FF04C0240F351F40E050E016968D9109
:102C10009C911797FA01E20FF31F8E179F071CF480
:102C20009C01241B350B121613060CF099C0A22F21
:102C3000842F86958695869590E8899F600D711DF5
:102C40001124FB01E65EFD4F4770A9F198E0941B4B
:102C5000492F50E0EA01CE5EDD4F8881291790F4BC
:102C6000421B51092FEF30E002C0359527954A9558
:102C7000E2F782230130110541F068F002301105BE
:102C800089F06EC00130110519F42081822B0CC02F
:102C90000130110520F480952081822305C0023087
:102CA000110531F4208182278083A91708F458C0C8
:102CB000A91BE058FF4FA83048F10230110559F424
:102CC000EF018A2F988190959883C058DF4F8850E4
:102CD0008830C0F730C081E00130110509F080E094
:102CE0008195EF019A2F8883C058DF4F9850983014
:102CF000D0F788EF8A0F86958695869590E8899F0C
:102D0000E00DF11D1124E058FF4FA770AA2341F1F7
:102D1000B0E0A65FBD4F8C910130110529F038F06D
:102D200002301105D1F01CC09081892B18C080950C
:102D30009081892314C088EF8A0F869586958695A1
:102D400090E8899FE00DF11D1124E058FF4FA77016
:102D500039F0B0E0A65FBD4F8C91908189278083C8
:102D6000DF91CF911F910F910895CF92DF92EF9253
:102D7000FF920F931F93CF93DF937C018B01EA01A6
:102D8000690177FDA0C00E94F913081719070CF01C
:102D90009AC0D7FD98C0C7010E94FD13C817D90774
:102DA0000CF091C0C7010E94F613823009F07FC079
:102DB000F70164817581CB01801B910B8C0101505F
:102DC000110946815781FA01EC1BFD0BEF01219798
:102DD0000BC0813049F4F701848195818C1B9D0BD8
:102DE000E8018C0101501109F1E0CF16D10431F056
:102DF00010F182E0C816D104E1F165C0FE01D7FDF3
:102E0000379643E0F595E7954A95E1F7F695FE2F5D
:102E1000EE27F795E7950E0F1F1FF801E65EFD4FB1
:102E2000C770DD2781E090E001C0880FCA95EAF7FE
:102E30009081892B3AC0FE01D7FD379623E0F595A6
:102E4000E7952A95E1F7F695FE2FEE27F795E7959A
:102E50000E0F1F1FF801E65EFD4FC770DD2781E0F2
:102E600090E001C0880FCA95EAF780959081892388
:102E70001CC0FE01D7FD379683E0F595E7958A954E
:102E8000E1F7F695FE2FEE27F795E7950E0F1F1F3A
:102E9000F801E65EFD4FC770DD2781E090E001C0DC
:102EA000880FCA95EAF79081892780830CC0833008
:102EB00009F08FCFF70186819781801B910B8E01DE
:102EC000EC01219791CFDF91CF911F910F91FF904E
:102ED000EF90DF90CF9008951F93CF93DF93EC0195
:102EE000162F40E250E060E870E00E94531187E442
:102EF00094E0998388838FEF8C8F88A38E8F8D8F3A
:102F00001F8FDF91CF911F910895EF92FF920F9342
:102F10001F93CF93DF937C01DC011F969C9190312E
:102F200001F140F49130D1F070F0923031F583E04E
:102F300090E01FC09032C1F09132C9F09131E9F4B4
:102F400085E090E016C081E090E090932D0C809396
:102F50002C0C61E089E00E94CB240FC082E090E05D
:102F600008C084E090E005C086E090E002C087E001
:102F700090E090932D0C80932C0C1092970C109253
:102F8000960CF701048580912C0C90912D0C0197E3
:102F900021F56BE574E086E09FE00E947527C0E0B4
:102FA000D0E010E0C017D10774F4D7011A96ED9164
:102FB000FC911B97EC0FFD1F608186E09FE00E9453
:102FC00077272196EFCF86E09FE0DF91CF911F9189
:102FD0000F91FF90EF900C947E27DF91CF911F917E
:102FE0000F91FF90EF900895AF92BF92CF92DF9232
:102FF000EF92FF920F931F93CF93DF9300D000D0F7
:10300000CDB7DEB77C01FC01C480D5806BE775E0ED
:103010008AE99CE00E940C296BE775E080EA9CE05D
:103020000E940C296BE775E086EA9CE00E940C295F
:103030006BE775E08CEA9CE00E940C2900E010E050
:10304000B801C7010E94392A8A3319F00C151D05F1
:103050002CF1B801C7010E94392A98012F5F3F4F18
:1030600059018A3319F00C151D057CF1B501C70112
:103070000E94392A85010F5F1F4F8A3319F0AC1463
:10308000BD04CCF1B801C7010E94392A8D3209F480
:1030900048C00C151D050CF45BC043C0B801C70146
:1030A0000E94392A682FCE0101960E942329BE0171
:1030B0006F5F7F4F8AE99CE00E94C229CE01019692
:1030C0000E9420280F5F1F4FBBCFB801C7010E948D
:1030D000392A682FCE0101960E942329BE016F5F15
:1030E0007F4F80EA9CE00E94C229CE0101960E9497
:1030F00020288501AECFB501C7010E94392A682F6B
:10310000CE0101960E942329BE016F5F7F4F86EAA0
:103110009CE00E94C229CE0101960E9420285801FD
:10312000A5CF60EA7CE086E09FE00E948227269699
:103130000FB6F894DEBF0FBECDBFDF91CF911F91C8
:103140000F91FF90EF90DF90CF90BF90AF900895D8
:10315000B801C7010E94392A682FCE0101960E944A
:103160002329BE016F5F7F4F8CEA9CE00E94C22939
:10317000CE0101960E9420280F5F1F4F83CFCF9270
:10318000DF92EF92FF920F931F93CF93DF93CDB710
:10319000DEB7CA57D1090FB6F894DEBF0FBECDBF58
:1031A0008C018091980C9091990C892B09F473C033
:1031B00061E089E00E94CB24D80119962C9130E07F
:1031C00080E290E0A0E0B0E089839A83AB83BC8387
:1031D000FE0135968AE3DF011D928A95E9F7DE014B
:1031E000119680E090E08217930754F4F80147812C
:1031F0005085FA01E80FF91F40814D930196F3CFF6
:10320000BE016F5F7F4FCE0181599F4F0E948E2874
:10321000BE0161597F4F86E09FE00E948227CE0168
:1032200081599F4F0E942028D8011B962C91822FF4
:10323000022E000C990B97FF03C09195819591097F
:10324000883491051CF537E4320F3F3818F4863383
:103250009105C4F435E3320F3B3618F484329105FE
:103260006CF42D5D61E0273410F4429724F48FE074
:103270000E94CB2461E08DE00E94CB2461E08EE0CF
:103280000E94CB2461E08CE00E94CB2461E08BE0C3
:103290000E94CB244AC0F801C184D12C6BE775E0B1
:1032A000CE018B589F4F0E948E28CE0101967C0143
:1032B000DC0180E090E08C159D0554F4F801278135
:1032C0003085F901E80FF91F20812D930196F3CF86
:1032D000D8011B968C91082E000C990B97FF03C008
:1032E0009195819591090E94EF07BE016F5F7F4F15
:1032F000CE0181599F4F0E948E28CE0181599F4F48
:103300000E94F417CE0181599F4F0E942028CE01C0
:103310008B599F4FF70111927F01E817F907D1F7F9
:10332000CE018B589F4F0E94202881E0C658DF4F66
:103330000FB6F894DEBF0FBECDBFDF91CF911F91C6
:103340000F91FF90EF90DF90CF900895EF92FF9252
:103350000F931F93CF93DF93EC01198218821B8286
:103360001A821D821C821E821F82188619866BE7B4
:1033700075E00A960E948E286BE775E0CE014096B4
:103380000E948E281F8A1E8A1B8E1A8E1D8E1C8EEE
:103390008E01025E1F4F7E018AE5E80EF11C6BE78D
:1033A00075E0C8010E948E280A5F1F4F0E151F0589
:1033B000B1F76BE775E0CE018A579F4F0E948E28C8
:1033C0006BE775E0CE0184579F4F0E948E286BE714
:1033D00075E0CE018E569F4F0E948E286BE775E0F8
:1033E000CE0188569F4F0E948E28FE01E256FF4F65
:1033F00010821182128213823496108231961182C9
:103400001082329681E090E0918380833296108220
:1034100011821282138234961082118212821382D8
:10342000349688EE93E0A0E0B0E080839183A2839D
:10343000B3836BE775E0CE018D549F4F0E948E28B9
:10344000FE01E754FF4F118210826BE775E0CE0159
:1034500085549F4F0E948E28FE01EF53FF4F10822C
:103460001182128213828EB3CA53DF4F8883DF9199
:10347000CF911F910F91FF90EF900895EF92FF92DF
:103480000F931F93CF93DF93EC0185549F4F0E94BE
:103490002028CE018D549F4F0E942028CE018856AF
:1034A0009F4F0E942028CE018E569F4F0E942028B9
:1034B000CE0184579F4F0E942028CE018A579F4FEC
:1034C0000E9420287E018EE1E80EF11CE114F10437
:1034D00061F08E01065A1F4F0E151F0531F0065080
:1034E0001109C8010E942028F7CFCE0140960E9402
:1034F0002028CE010A96DF91CF911F910F91FF9066
:10350000EF900C9420282F923F924F925F926F92EF
:103510007F928F929F92AF92BF92CF92DF92EF9263
:10352000FF920F931F93CF93DF93CDB7DEB7299709
:103530000FB6F894DEBF0FBECDBF8C017B012DB658
:103540003EB6FC01EC57FF4F8081918198012E57C8
:103550003F4F5901F901019709F0C7C0808191815E
:10356000892B09F033C16BE775E0C7010E94092A76
:103570006DB67EB681113EC0B701CE0101960E94A4
:10358000F728CD80DE80CE0101960E9420282DB73D
:103590003EB72C193D090FB6F8943EBF0FBE2DBFA4
:1035A0008DB79EB701964C01412C512C4C145D04F3
:1035B0006CF4B201C7010E94392AF40181934F01D2
:1035C0000E94FD0EFFEF4F1A5F0AF0CFB70183E0B4
:1035D0009CE00E94E028B80165547F4FC8014096E6
:1035E0000E94E0280FB6F8947EBE0FBE6DBE81E04B
:1035F00090E035C0F801E754FF4F11821082F801C6
:10360000C684D7842DB73EB72C193D090FB6F89460
:103610003EBF0FBE2DBF8DB79EB701964C01412C0A
:10362000512C3A967F014C145D046CF40E94FD0EFF
:10363000B201C7010E94392AF40181934F01FFEFC3
:103640004F1A5F0AF0CFB70183E09CE00E94E028A8
:103650000FB6F8947EBE0FBE6DBE80E090E021E014
:1036600030E0F501318320839801205F3F4F7901DD
:10367000892B31F4B901C80185549F4F0E94E0287D
:10368000C7010E943B2A7093F80B6093F70B81E00F
:103690008093F90B8093FA0B83E08093FB0B80916E
:1036A000030C9091040C9093FD0B8093FC0BC09243
:1036B000FE0B85E897E19093000C8093FF0B61E08F
:1036C0008AE00E94CB2482EF9BE00E9490040E943B
:1036D000FD0E6BE775E0C8010A960E940C296BE7A6
:1036E00075E0C7010E940C2971C080819181892BEE
:1036F00009F06CC04DB65EB6FB01F481FF836F2EFE
:10370000FB0175802DB73EB7261937090FB6F8941F
:103710003EBF0FBE2DBF8DB79EB701966C0148010D
:1037200090E1890E911C63E475E0C4010E940C29AC
:1037300020E030E02615370574F4B901C701288769
:1037400039870E94392AF60181936F0128853985CE
:103750002F5F3F4FEFCFB70183E09CE00E94E0284E
:1037600081E090E0F50191838083C4010E943B2AAF
:103770007093F80B6093F70B81E08093F90B8093C3
:10378000FA0B83E08093FB0B8091030C9091040C67
:103790009093FD0B8093FC0B2F812093FE0B85E80B
:1037A00097E19093000C8093FF0B82EF9BE00E94C7
:1037B00090046BE775E0C8010A960E940C290E94EC
:1037C000FD0E0FB6F8945EBE0FBE4DBE0FB6F89458
:1037D0003EBE0FBE2DBE29960FB6F894DEBF0FBEBB
:1037E000CDBFDF91CF911F910F91FF90EF90DF90B0
:1037F000CF90BF90AF909F908F907F906F905F9091
:103800004F903F902F900895CF92DF92EF92FF92CA
:103810001F93CF93DF93EC016B017A01122FCB0141
:103820000E945204FE01E953FF4FD182C082C701BA
:103830000E945804FE01E753FF4FF182E082812F7E
:103840000E949D0DFE01E553FF4F108381E00E9411
:10385000990D80E00E94C50DFE01E453FF4F1082D8
:10386000ECE4F1E080818C7F82608083C353DF4F82
:1038700082E08883DF91CF911F91FF90EF90DF90DE
:10388000CF900895CF92DF92EF92FF920F931F9304
:10389000CF93DF93CDB7DEB762970FB6F894DEBF54
:1038A0000FBECDBF8C017901FC01E153FF4F718345
:1038B0006083329651834083BE97118210820E94AA
:1038C000F70E0E94FE0D0E94320426E040E452E40E
:1038D0006FE070E086E09FE00E94D2254AE0B701E9
:1038E000CE0101960E946829BE016F5F7F4FC8011B
:1038F0008D549F4F0E940029CE0101960E942028DE
:10390000F801EC57FF4FE114F10459F481E090E025
:10391000918380836FE574E086E09FE00E949427A6
:1039200032C01182108262E774E086E09FE00E945C
:1039300094274AE0B701CE010D960E946829BE0186
:10394000635F7F4FCE0107960E94F72863E874E01B
:10395000CE0107960E94F029BC01CE0101960E947B
:10396000F728BE016F5F7F4FC8010E94831ACE0106
:1039700001960E942028CE0107960E942028CE01A1
:103980000D960E94202884EF9FE10E94B72D6C01C4
:103990004AE0BC01CE0107960E943C296AE874E027
:1039A000CE0101960E948E28BE01695F7F4FCE0135
:1039B00001960E94DD29BC0186E09FE00E948227DB
:1039C000CE0101960E942028CE0107960E94202851
:1039D0002AE1A601B701C8010E94041C6FEB78E13F
:1039E00081E00E945E0478018EE1E80EF11C065A27
:1039F0001F4F6BE775E0C7010E940C2986E0E80EB7
:103A0000F11CE016F106A9F762960FB6F894DEBF36
:103A10000FBECDBFDF91CF911F910F91FF90EF901F
:103A2000DF90CF9008950F9366E081EF9CE00E94B5
:103A30006C1700E020E040E060E08BEE9CE00E942C
:103A4000102784E19CE00E94A61940E150E060E06C
:103A500070E08BE09CE00E94CB2041E050E060E011
:103A600070E083E09CE00F910C94CB2083E09CE01D
:103A70000E9420288BE09CE00E94202884E19CE0AA
:103A80000C943E1ACF92DF92EF92FF920F931F9306
:103A9000CF93DF93EC016C0180E1C80ED11C6BE782
:103AA00075E0C6010E940C292A966BE775E0CE01ED
:103AB0000E940C2984E690E00E94CC2386E09FE0DF
:103AC0000E941525E82E84E690E00E94CC2300E0B9
:103AD00010E086E09FE00E94FB24892BD9F086E06D
:103AE0009FE00E941525F82E84E690E00E94CC23EA
:103AF0008AE3F81641F00115110529F46F2DC6016E
:103B00000E94C92902C001E010E06F2DCE010E9481
:103B1000C929DFCF84E690E00E94CC238E2DDF916F
:103B2000CF911F910F91FF90EF90DF90CF9008956C
:103B30008F929F92AF92BF92CF92DF92EF92FF92BD
:103B40000F931F93CF93DF93CDB7DEB768970FB670
:103B5000F894DEBF0FBECDBF8C010E94FD0E680140
:103B600024E8C20ED11CF60180819181892B09F4D1
:103B7000EFC10E945F234B015C01F801E955FF4F43
:103B800080819181A281B381B501A401481B590BA9
:103B90006A0B7B0BD801A155BF4F8D919D910D9064
:103BA000BC91A02D84179507A607B70798F48082CB
:103BB0009182A282B38267E974E086E09FE00E946E
:103BC00094276091130C81E068276093130C8FE0B9
:103BD0000E94CB247801FBEAEF0EF11CF7018081F3
:103BE0009181A281B381881A990AAA0ABB0AF1E1DC
:103BF0008F16F7E29F06A104B10478F069E974E03A
:103C000086E09FE00E9494270E9440060E945F2366
:103C1000F701608371838283938386E09FE00E9433
:103C2000FB24892B09F494C1C8010E94421D8C36E3
:103C3000A1F481E090E0F801938382836BE775E063
:103C4000CE0101960E948E28BE016F5F7F4FC80192
:103C50000E94831ACE010196F2C0833709F0F2C0A8
:103C60008090220C9090230C6BE775E0CE01439678
:103C70000E948E286BE775E0CE010D960E948E287B
:103C8000A12CB12CE12CF12CE814F9049CF5B7011E
:103C90008EE19CE00E94392A8A3331F4FFEFAF1A9B
:103CA000BF0A2FEFE21AF20A81E0A816B10449F424
:103CB000B7018EE19CE00E94392A682FCE0143961D
:103CC00013C0E2E0AE16B10489F4B7018EE19CE0C6
:103CD0000E94392A8D3251F0B7018EE19CE00E949A
:103CE000392A682FCE010D960E94C929FFEFEF1ADD
:103CF000FF0ACACFBE016D5E7F4F86E09FE00E9443
:103D000082276EE974E0CE0143960E94092A882337
:103D100009F45EC06BE775E0CE010D960E94092A9A
:103D200081112AC0CE010D960E943B2A84EF9FE1AB
:103D30000E94CF2DCE010D960E943B2A2AE1AB01B5
:103D400060E070E0C8010E94041C64EA74E0CE01E7
:103D500001960E948E28BE01635F7F4FCE010196BF
:103D60000E94DD29BC0186E09FE00E948227CE01EF
:103D700001960E9420285DC06BE775E0CE010D968C
:103D80000E94092A882309F454C084EF9FE10E940D
:103D9000B72D4AE0BC01CE0107960E943C2962EB98
:103DA00074E0CE0101960E948E28BE01695F7F4FAC
:103DB000CE0101960E94DD29BC0186E09FE00E94B1
:103DC0008227CE0101960E942028CE0107962FC09F
:103DD0006AEC74E0CE0143960E94092A882349F1D7
:103DE00062EC74E086E09FE00E9494276DEC74E042
:103DF000C80140960E940C2963ED74E0C8010A9640
:103E00000E940C2981E090E0F801ED55FF4F91836D
:103E100080836BE775E0CE0101960E948E28BE017B
:103E20006F5F7F4FC8010E94831ACE0101960E94E6
:103E30002028CE010D960E942028CE0143960E9494
:103E4000202886C0803709F083C069E974E086E0E5
:103E50009FE00E9494270E9440067C01A12CB12C77
:103E6000F70181819281019609F467C04AE0B501AA
:103E7000CE0107960E943C29BE01695F7F4FCE01AB
:103E800001960E94F7286FED74E0CE0101960E9422
:103E9000F029BC0186E09FE00E946727CE010196D1
:103EA0000E942028CE0107960E942028F7016081F9
:103EB00061704AE050E086E09FE00E94FC2767EED8
:103EC00074E086E09FE00E947527F70160816695A7
:103ED00061704AE050E086E09FE00E94FC2763EFBB
:103EE00074E086E09FE00E947527F701608162958B
:103EF0006F704AE050E086E09FE00E94FC276BEF85
:103F000074E086E09FE00E947527F701618172816D
:103F10004AE050E086E09FE00E94032865E075E0FB
:103F200086E09FE00E947527F701638174814AE073
:103F300050E086E09FE00E940928FFEFAF1ABF0A19
:103F400027E0E20EF11C84E6A816B10409F088CF40
:103F5000F60180819181892B29F5F801208D318D21
:103F6000868997892130310539F08630910524F40E
:103F70000196978B868B16C00697A4F0F801EB5537
:103F8000FF4F80819181892B31F06EE075E086E0F2
:103F90009FE00E949427F801178A168A81E090E03A
:103FA000918F808F68960FB6F894DEBF0FBECDBF9D
:103FB000DF91CF911F910F91FF90EF90DF90CF9005
:103FC000BF90AF909F908F9008950F931F930FB65F
:103FD000F894A895809160008861809360001092A9
:103FE00060000FBE61E0809126040E948F2461E092
:103FF000809124040E948F2461E0809122040E9419
:104000008F2461E0809120040E948F2461E08091E0
:104010001E040E948F2461E080911C040E948F2462
:1040200061E080911A040E948F2401E010E020E0FA
:1040300030E041E455E065E475E084E19CE00E94F5
:10404000421C98E288E10FB6F894A895809360002E
:104050000FBE909360001F910F9108950F931F93CF
:1040600084E19CE00E94981DA89560E08091260460
:104070000E94CB2460E0809124040E94CB240E9403
:104080005F230091230D1091240D2091250D309177
:10409000260DDC01CB01801B910BA20BB30B8739E2
:1040A0009105A105B105A0F060E0809126040E9471
:1040B000CB2460E0809124040E94CB240E945F23E3
:1040C0006093230D7093240D8093250D9093260DFE
:1040D0000E945F2300911F0D1091200D2091210D52
:1040E0003091220DDC01CB01801B910BA20BB30B95
:1040F00081329340A105B10518F160E0809122045E
:104100000E94CB2460E0809120040E94CB2460E0D8
:1041100080911E040E94CB2460E080911C040E94C8
:10412000CB2460E080911A040E94CB240E945F237C
:1041300060931F0D7093200D8093210D9093220D9D
:104140001F910F9108950F9366E08DE29DE00E940C
:104150006C1700E020E040E060E087E29DE00E9414
:1041600010270F910895FC01228133816217730794
:1041700078F026813781620F731F20953095622376
:1041800073230E94512891E0811103C090E001C087
:1041900091E0892F0895EF92FF920F931F93CF9391
:1041A000DF93EC017B018A016BE775E00E948E28AA
:1041B000015011091F830E83E114F10451F0B7017E
:1041C000CE01DF91CF911F910F91FF90EF900C9452
:1041D000B320DF91CF911F910F91FF90EF90089541
:1041E0000F9300E020E040E060E08BE59DE00E945E
:1041F00010270F9108950F9300E020E040E060E069
:1042000088E39EE00E94102781E69DE00F910C94C8
:10421000A61981E69DE00C943E1A80916D0E90E007
:1042200020916E0E821B9109089590916E0E8091DF
:104230006D0E981750F4E92FF0E0E159F14F20810D
:1042400030E09F5F90936E0E02C02FEF3FEFC901E9
:104250000895E0916E0E80916D0EE81730F4F0E055
:10426000E159F14F808190E008958FEF9FEF08951D
:104270000895CF92DF92EF92FF920F931F93CF9307
:10428000DF937C01262F972F8A0180914A0E882385
:1042900091F0C62FD72F6E01C40ED51ECC15DD05AB
:1042A00071F06991D701ED91FC910190F081E02DC1
:1042B000C7011995F3CF642F822F0E94AC21C8014A
:1042C000DF91CF911F910F91FF90EF90DF90CF90F2
:1042D0000895CF93DF931F92CDB7DEB76983209106
:1042E0004A0E2223D1F020914B0E203240F021E0E3
:1042F00030E0FC013383228380E090E015C08091A0
:104300004C0EE82FF0E0E35BF14F998190838F5FD3
:1043100080934C0E80934B0E05C061E0CE01019658
:104320000E94AC2181E090E00F90DF91CF91089541
:10433000FC011382128288EE93E0A0E0B0E0848357
:104340009583A683B78387E595E09183808308955D
:104350008EE39EE00C9498214091B10E262F30E020
:10436000240F311D21323105DCF42091FC0E243064
:10437000C9F4FC0180E090E0861758F43091B10E4A
:104380002191DC01AD54B14FA30FB11D2C930196C7
:10439000F3CF8091B10E680F6093B10E80E0089565
:1043A00081E0089582E0089585ED8093BC008091BE
:1043B000BC0084FDFCCF1092FC0E089585EC809328
:1043C000BC001092FC0E08951F920F920FB60F9230
:1043D00011240BB60F922F933F934F935F936F93DC
:1043E0007F938F939F93AF93BF93EF93FF938091AE
:1043F000B900887F803609F49EC078F5883209F4C8
:104400005DC090F4803109F456C038F4882309F473
:10441000F5C0883009F44FC0F5C0883109F44EC0AA
:10442000803209F45FC0EEC0803409F46AC058F4E9
:10443000803309F457C0883309F0E4C080938F0EAD
:104440000E94DE21DFC0803509F44FC0883509F4B1
:104450005DC0883409F0D6C0D3C0883909F4C4C01F
:10446000A8F4883709F467C038F4883609F463C0C3
:10447000803709F460C0C6C0883809F4B5C08039F7
:1044800009F45FC0803809F0BDC05BC0803B09F40F
:1044900083C038F4803A09F466C0883A09F47CC0D5
:1044A000B1C0803C09F4A4C0883C09F4A1C0883B99
:1044B00009F487C0A7C08091FB0E10C09091D40E64
:1044C0008091D30E981770F5E091D40E81E08E0F95
:1044D0008093D40EF0E0EB52F14F80818093BB00CB
:1044E00085EC83C080938F0E8BC0E091D40E81E069
:1044F0008E0F8093D40E8091BB00F0E0EB52F14F11
:1045000080839091D40E8091D30E6BC0E091D40E35
:1045100081E08E0F8093D40E8091BB00F0E0EB52CF
:10452000F14F80838091FA0E81116AC081E08093FF
:10453000F90E84EA5EC083E08093FC0E1092900E28
:10454000CFCF8091900E803208F04EC0E091900E57
:1045500081E08E0F8093900E8091BB00F0E0EF56CB
:10456000F14F8083BDCF0E94DE218091900E80327A
:1045700030F4E091900EF0E0EF56F14F1082609130
:10458000900E70E0E091F50EF091F60E81E99EE05C
:1045900019951092900E36C084E08093FC0E109214
:1045A000B20E1092B10EE091F70EF091F80E19953F
:1045B0008091B10E811105C081E08093B10E1092FF
:1045C000B30EE091B20E81E08E0F8093B20EF0E058
:1045D000ED54F14F80818093BB009091B20E809199
:1045E000B10E981708F47CCF85E88093BC000AC010
:1045F00085EC8093BC001092FC0E04C010928F0ECC
:104600000E94D421FF91EF91BF91AF919F918F9123
:104610007F916F915F914F913F912F910F900BBEC2
:104620000F900FBE0F901F9018951F920F920FB60C
:104630000F9211242F933F938F939F93AF93BF9328
:104640008091FE0E9091FF0EA091000FB091010F8E
:104650003091FD0E23E0230F2D3720F40196A11D8C
:10466000B11D05C026E8230F0296A11DB11D2093A0
:10467000FD0E8093FE0E9093FF0EA093000FB0935B
:10468000010F8091020F9091030FA091040FB09140
:10469000050F0196A11DB11D8093020F9093030F8A
:1046A000A093040FB093050FBF91AF919F918F918D
:1046B0003F912F910F900FBE0F901F9018952FB71D
:1046C000F8946091FE0E7091FF0E8091000F909112
:1046D000010F2FBF08953FB7F8948091020F90917A
:1046E000030FA091040FB091050F26B5A89B05C03C
:1046F0002F3F19F00196A11DB11D3FBFBA2FA92F61
:10470000982F8827820F911DA11DB11DBC01CD01DD
:1047100042E0660F771F881F991F4A95D1F70895C9
:104720008F929F92AF92BF92CF92DF92EF92FF92C1
:104730006B017C010E946B234B015C01C114D1040D
:10474000E104F10401F10E94582A0E946B23DC016C
:10475000CB0188199909AA09BB09883E9340A10594
:10476000B10560F321E0C21AD108E108F10888EE32
:10477000880E83E0981EA11CB11CC114D104E10471
:10478000F10419F7DBCFFF90EF90DF90CF90BF904F
:10479000AF909F908F9008958230910538F0880FE8
:1047A000991F880F991F05970197F1F7089578943D
:1047B00084B5826084BD84B5816084BD85B5826026
:1047C00085BD85B5816085BDEEE6F0E080818160C4
:1047D0008083E1E8F0E010828081826080838081C4
:1047E00081608083E0E8F0E0808181608083E1EB9C
:1047F000F0E0808184608083E0EBF0E08081816084
:104800008083E1E9F0E08081826080838081816043
:104810008083E0E9F0E0808181608083E1EAF0E07C
:10482000808182608083808181608083E0EAF0E023
:10483000808181608083E1E2F1E080818260808319
:10484000808181608083E0E2F1E08081816080830B
:10485000EAE7F0E0808184608083808182608083E9
:104860008081816080838081806880831092C10014
:10487000089590E0FC013197E231F10508F04EC057
:104880008827E656FF4F8F4F0C949A2A809180001C
:104890008F7703C0809180008F7D80938000089582
:1048A00080918000877FF9CF84B58F7702C084B56F
:1048B0008F7D84BD08958091B0008F7703C0809173
:1048C000B0008F7D8093B0000895809190008F7725
:1048D00007C0809190008F7D03C080919000877FFA
:1048E0008093900008958091A0008F7707C08091F9
:1048F000A0008F7D03C08091A000877F8093A000DF
:104900000895809120018F7707C0809120018F7DCD
:1049100003C080912001877F809320010895CF9369
:10492000DF9390E0FC01E059F84F2491FC01EC5634
:10493000F84F8491882361F190E0880F991FFC0162
:10494000EE52F84FC591D491FC01E854F84FA5916F
:10495000B491611109C09FB7F89488812095822392
:104960008883EC912E230BC0623061F49FB7F894DA
:104970003881822F809583238883EC912E2B2C9372
:104980009FBF06C08FB7F894E8812E2B28838FBF76
:10499000DF91CF9108951F93CF93DF93282F30E0BD
:1049A000F901E45BF84F8491F901E059F84FD49193
:1049B000F901EC56F84FC491CC23C9F0162F8111A0
:1049C0000E943924EC2FF0E0EE0FFF1FE854F84F5F
:1049D000A591B4918FB7F894111105C09C91ED2F5A
:1049E000E095E92302C0EC91ED2BEC938FBFDF91B2
:1049F000CF911F910895FC01918D228D892F90E018
:104A0000805C9F4F821B91098F7399270895FC0149
:104A1000918D828D981731F0828DE80FF11D858D73
:104A200090E008958FEF9FEF0895FC01918D828DA6
:104A3000981761F0828DDF01A80FB11D5D968C91F2
:104A4000928D9F5F9F73928F90E008958FEF9FEFFD
:104A5000089587E996E2892B41F080E090E0892B68
:104A600021F00E94972681110DC080E090E0892BF3
:104A700071F080E090E0892B51F00E9400008111DC
:104A800004C008950E940000F0CF0C940000089527
:104A9000FC01848DDF01A80FB11DA35ABF4F2C91DB
:104AA000848D90E001968F739927848FA689B789AA
:104AB0002C93A089B1898C9180648C93938D848D83
:104AC000981306C00288F389E02D80818F7D808352
:104AD0000895CF93DF93EC01888D8823C9F0EA898C
:104AE000FB89808185FD05C0A889B9898C9186FDE7
:104AF0000FC00FB607FCF5CF808185FFF2CFA889E4
:104B0000B9898C9185FFEDCFCE010E944825E7CF72
:104B1000DF91CF910895EF92FF920F931F93CF9360
:104B2000DF93EC0181E0888F9B8D8C8D981305C0FD
:104B3000E889F989808185FD24C0F62E0B8D10E06F
:104B40000F5F1F4F0F731127E02E8C8DE8120CC0E2
:104B50000FB607FCFACFE889F989808185FFF5CF88
:104B6000CE010E944825F1CF8B8DFE01E80FF11D8B
:104B7000E35AFF4FF0820B8FEA89FB8980818062C4
:104B800007C0EE89FF896083E889F98980818064A4
:104B9000808381E090E0DF91CF911F910F91FF9092
:104BA000EF900895CF92DF92EF92FF921F93CF93F1
:104BB000DF93EC016A017B01122FE889F98982E019
:104BC00080834115514E61057105B1F060E079E0D7
:104BD0008DE390E0A70196010E94592ADA01C901EC
:104BE0000197A109B109B695A79597958795AC014D
:104BF000411580E15807A8F0E889F989108260E83A
:104C000074E88EE190E0A70196010E94592ABA014A
:104C1000A901415051096109710976956795579528
:104C20004795EC85FD855083EE85FF854083188E82
:104C3000EC89FD891083EA89FB898081806180830A
:104C4000EA89FB89808188608083EA89FB89808189
:104C500080688083EA89FB8980818F7D8083DF91F2
:104C6000CF911F91FF90EF90DF90CF9008951F920A
:104C70000F920FB60F9211240BB60F922F938F93B2
:104C80009F93EF93FF93E091160FF091170F8081A0
:104C9000E0911C0FF0911D0F82FD12C09081809158
:104CA0001F0F8F5F8F732091200F821751F0E091BB
:104CB0001F0FF0E0EA5FF04F958F80931F0F01C048
:104CC0008081FF91EF919F918F912F910F900BBE5B
:104CD0000F900FBE0F901F9018951F920F920FB656
:104CE0000F9211240BB60F922F933F934F935F9324
:104CF0006F937F938F939F93AF93BF93EF93FF93A4
:104D000086E09FE00E944825FF91EF91BF91AF910F
:104D10009F918F917F916F915F914F913F912F91D3
:104D20000F900BBE0F900FBE0F901F90189586E04E
:104D30009FE00E94FB2421E0892B09F420E0822FD0
:104D40000895E6E0FFE01382128288EE93E0A0E08F
:104D5000B0E084839583A683B78387E695E091834B
:104D6000808385EC90E09587848784EC90E097873A
:104D7000868780EC90E0918B808B81EC90E0938B28
:104D8000828B82EC90E0958B848B86EC90E0978B05
:104D9000868B118E128E138E148E08958F929F9291
:104DA000AF92BF92CF92DF92EF92FF920F931F9339
:104DB000CF93DF937C018B016C0182E0C80ED11C84
:104DC0004701E5E08E0E911CC0E0D0E0F601619154
:104DD0006F014AE050E0C8010E94FC275C016EE2CE
:104DE000C8010E9477278A0D9B1DC80FD91FC814C0
:104DF000D90461F74AE050E0F7016581C8010E94DB
:104E0000FC278C0F9D1FDF91CF911F910F91FF9079
:104E1000EF90DF90CF90BF90AF909F908F900895CC
:104E20000F93FC0187E795E091838083628343833E
:104E3000248305830F910895E3EAFFE087E795E077
:104E40009183808312821382148215820895CF92F7
:104E5000DF92EF92FF920F931F93CF93DF936C013A
:104E60007A018B01C0E0D0E0CE15DF0589F0D801D2
:104E70006D918D01D601ED91FC910190F081E02DB5
:104E8000C6011995892B11F47E0102C02196ECCF41
:104E9000C701DF91CF911F910F91FF90EF90DF90AD
:104EA000CF9008956115710579F0FB010190002004
:104EB000E9F73197AF01461B570BDC01ED91FC91EF
:104EC0000280F381E02D199480E090E00895DC01E8
:104ED000ED91FC91DB0114964D915C9115976D91CC
:104EE0007C910280F381E02D19940C945227DC010F
:104EF000ED91FC910190F081E02D199469E775E046
:104F00000C9452270F931F93CF93DF93EC010E94D1
:104F100067278C01CE010E947E27800F911FDF91B1
:104F2000CF911F910F9108950F931F93CF93DF930C
:104F3000EC010E9452278C01CE010E947E27800F37
:104F4000911FDF91CF911F910F9108954F925F9222
:104F50006F927F92EF92FF920F931F93CF93DF9305
:104F6000CDB7DEB7A1970FB6F894DEBF0FBECDBFA9
:104F70007C01FA01CB0119A2223008F42AE08E014B
:104F80000F5D1F4F422E512C612C712CBF01A301CC
:104F900092010E94592AF901CA01015011096A308F
:104FA00014F4605D01C0695CD8016C93232B242B41
:104FB000252B61F7B801C7010E945227A1960FB6B1
:104FC000F894DEBF0FBECDBFDF91CF911F910F913F
:104FD000FF90EF907F906F905F904F900895211514
:104FE000310541F4DC01ED91FC910190F081E02D5F
:104FF000642F19940C94A6279A01462F50E060E084
:1050000070E00C94EF279A01AB0160E070E00C9423
:10501000EF270F931F93CF93DF93EC019A01AB011E
:1050200060E070E00E94EF278C01CE010E947E2795
:10503000800F911FDF91CF911F910F9108950895D7
:10504000FC01808191810C94372BCF93DF93EC018D
:1050500088819981009711F00E94372B198218825C
:105060001D821C821B821A82DF91CF9108950F93BB
:105070001F93CF93DF93EC018B016F5F7F4F88818C
:1050800099810E94292C009731F0998388831B8392
:105090000A8381E001C080E0DF91CF911F910F91E1
:1050A0000895CF93DF93EC0188819981892B29F0B2
:1050B0008A819B818617970760F4CE010E9437286A
:1050C000882341F08C819D81892B19F4E881F98135
:1050D000108281E0DF91CF910895EF92FF920F93BC
:1050E0001F93CF93DF93EC017B018A01BA010E94E9
:1050F0005128811104C0CE010E94252807C01D83BC
:105100000C83B701888199810E94502DCE01DF91D7
:10511000CF911F910F91FF90EF900895FC011182A4
:10512000108213821282158214826115710551F06A
:10513000FB0101900020E9F73197AF01461B570BA7
:105140000C946D2808950F931F93CF93DF938C01D8
:10515000EB01FC01808191810097D1F06881798118
:105160006115710599F02FE138E2232B79F0428126
:1051700053812C813D814217530740F00E94502DEE
:105180008C819D81F8019583848313C00E94372B05
:1051900088819981F801918380838A819B8193839F
:1051A00082838C819D8195838483198218821B82DE
:1051B0001A821D821C82DF91CF911F910F91089559
:1051C000CF93DF93EC01FB018617970761F06081B5
:1051D00071816115710529F0448155810E946D2806
:1051E00002C00E942528CE01DF91CF910895FC01D5
:1051F0001182108213821282158214820C94E0288C
:10520000CF93DF93EC018617970711F00E94A32834
:10521000CE01DF91CF910895CF93DF93EC0161151B
:10522000710559F0FB0101900020E9F73197AF01BA
:10523000461B570B0E946D2802C00E942528CE01F4
:10524000DF91CF910895CF93DF931F921F92CDB737
:10525000DEB7FC0111821082138212821582148241
:1052600069831A82BE016F5F7F4F0E940C290F90E5
:105270000F90DF91CF9108950F931F93CF93DF93FA
:10528000CDB7DEB762970FB6F894DEBF0FBECDBFC5
:105290008C01CB01F80111821082138212821582D7
:1052A000148250E0BE016F5F7F4F0E94572DBE01F8
:1052B0006F5F7F4FC8010E940C2962960FB6F89469
:1052C000DEBF0FBECDBFDF91CF911F910F9108952B
:1052D0000F931F93CF93DF93CDB7DEB761970FB6D0
:1052E000F894DEBF0FBECDBF8C01CB01F801118257
:1052F0001082138212821582148250E0BE016F5F09
:105300007F4F0E94822DBE016F5F7F4FC8010E94B8
:105310000C2961960FB6F894DEBF0FBECDBFDF91AA
:10532000CF911F910F910895EF92FF920F931F93CA
:10533000CF93DF93FC01248135816115710511F450
:1053400080E019C041155105A9F07B01EC018A01EB
:10535000020F131FB8010E945128882389F3288166
:1053600039818C819D81B701820F931F0E94502D3E
:105370001D830C8381E0DF91CF911F910F91FF90EE
:10538000EF900895FB0144815581608171810C94F7
:105390009429CF93DF931F921F92CDB7DEB7698315
:1053A0001A8241E050E0BE016F5F7F4F0E94942956
:1053B0000F900F90DF91CF910895CF93DF93EC0181
:1053C000FB0144815581608171810E949429811182
:1053D00003C0CE010E942528CE01DF91CF91089510
:1053E000CF93DF93EC016115710561F0FB01019032
:1053F0000020E9F73197AF01461B570B0E94942913
:10540000811103C0CE010E942528CE01DF91CF91EA
:105410000895FC0124813581232B31F421E06115AD
:105420007105A1F0FB0108C0FC018081918161152B
:10543000710531F421E0FC018081882339F005C039
:105440000E94472D21E0892B09F020E0822F08954A
:10545000FC01248135816217730748F480819181B2
:10546000009729F0FC01E60FF71F8081089580E086
:1054700008950C94282AFC0180819181009711F0F5
:105480000C94172D60E070E0CB0108950E94122D5E
:1054900008950E94D7230E94482A0E94E51FC9E26E
:1054A000D5E20E942E202097E1F30E942925F9CF12
:1054B0000895A1E21A2EAA1BBB1BFD010DC0AA1F55
:1054C000BB1FEE1FFF1FA217B307E407F50720F06D
:1054D000A21BB30BE40BF50B661F771F881F991FE8
:1054E0001A9469F760957095809590959B01AC0131
:1054F000BD01CF010895052E97FB1EF400940E9474
:10550000922A57FD07D00E94592A07FC03D04EF477
:105510000C94922A50954095309521953F4F4F4FCE
:105520005F4F089590958095709561957F4F8F4F4F
:105530009F4F0895EE0FFF1F881F8BBF0790F691B6
:10554000E02D1994CF93DF938230910510F482E01F
:1055500090E0E091E30FF091E40F20E030E0C0E054
:10556000D0E0309711F14081518148175907C0F0C0
:105570004817590761F482819381209719F09B8322
:105580008A832BC09093E40F8093E30F26C02115EC
:10559000310519F04217530718F49A01BE01DF01D3
:1055A000EF010280F381E02DDCCF2115310509F1F7
:1055B000281B390B2430310590F412968D919C9163
:1055C00013976115710521F0FB019383828304C059
:1055D0009093E40F8093E30FFD01329644C0FD01E8
:1055E000E20FF31F81939193225031092D933C9345
:1055F0003AC02091E10F3091E20F232B41F420912A
:105600000202309103023093E20F2093E10F2091C8
:105610000002309101022115310541F42DB73EB74A
:105620004091040250910502241B350BE091E10FDB
:10563000F091E20FE217F307A0F42E1B3F0B28179F
:10564000390778F0AC014E5F5F4F2417350748F0FB
:105650004E0F5F1F5093E20F4093E10F81939193A0
:1056600002C0E0E0F0E0CF01DF91CF9108950F9309
:105670001F93CF93DF93009709F48CC0FC013297FE
:10568000138212820091E30F1091E40F01151105AE
:1056900081F420813181820F931F2091E10F30919D
:1056A000E20F2817390779F5F093E20FE093E10F45
:1056B00071C0D80140E050E0AE17BF0750F4129619
:1056C0002D913C911397AD012115310509F1D901B7
:1056D000F3CF9D01DA013383228360817181860FCC
:1056E000971F8217930769F4EC0128813981260FEF
:1056F000371F2E5F3F4F318320838A819B819383A5
:105700008283452B29F4F093E40FE093E30F42C02A
:105710001396FC93EE931297ED01499159919E01D6
:10572000240F351FE217F30771F480819181840FF4
:10573000951F029611969C938E9382819381139666
:105740009C938E931297E0E0F0E0D80112968D9131
:105750009C911397009719F0F8018C01F6CF8D9169
:105760009C9198012E5F3F4F820F931F2091E10F74
:105770003091E20F2817390769F4309729F4109215
:10578000E40F1092E30F02C0138212821093E20F13
:105790000093E10FDF91CF911F910F9108958F92A8
:1057A0009F92AF92BF92CF92DF92EF92FF92CF93F0
:1057B000DF93EC01688179818A819B816115710594
:1057C0008105910521F464E279ED8BE597E02DE107
:1057D00033EF41E050E00E947B2A49015A019B01CE
:1057E000AC01A7EAB1E40E94E52D6B017C01ACEEAF
:1057F000B4EFA50194010E94F32DDC01CB018C0DC7
:105800009D1DAE1DBF1DB7FF03C00197A109B04884
:1058100088839983AA83BB839F77DF91CF91FF9081
:10582000EF90DF90CF90BF90AF909F908F900895B2
:105830000C94CF2B86E092E00C94CF2BA0E0B0E04C
:105840008093060290930702A0930802B093090286
:1058500008956F927F928F929F92AF92BF92CF9254
:10586000DF92EF92FF920F931F93CF93DF93EC01A0
:10587000009789F4CB01DF91CF911F910F91FF9099
:10588000EF90DF90CF90BF90AF909F908F907F90E0
:105890006F900C94A22AFC01E60FF71F9C01225086
:1058A0003109E217F30708F4ACC0D9010D911C913E
:1058B000119706171707B0F00530110508F49FC0BF
:1058C000C80104978617970708F499C00250110978
:1058D000061B170B019311936D937C93CF010E94CC
:1058E000372B8DC05B01A01AB10A4C01800E911EAE
:1058F000A091E30FB091E40F40E050E0E12CF12CD7
:10590000109709F44AC0A815B905D1F56D907C909F
:105910001197630182E0C80ED11CCA14DB0480F128
:10592000A3014A195B096A0182E0C80ED11C1296D4
:10593000BC9012971396AC91B5E0CB16D10440F011
:10594000B282A38351834083D9016D937C930AC0B3
:105950000E5F1F4FC301800F911FF9019183808358
:10596000EB2DFA2FE114F10431F0D7011396FC93DB
:10597000EE93129744C0F093E40FE093E30F3FC01F
:105980008D919C9111974817590708F4AC017D013E
:1059900012960D90BC91A02DB3CF8091E10F909104
:1059A000E20F88159905E1F446175707C8F480916E
:1059B000000290910102009741F48DB79EB740918B
:1059C000040250910502841B950BE817F907C8F4EF
:1059D000F093E20FE093E10FF901718360830FC050
:1059E000CB010E94A22A7C01009759F0A801BE01B8
:1059F0000E943E2DCE010E94372BC70104C0CE016C
:105A000002C080E090E0DF91CF911F910F91FF9055
:105A1000EF90DF90CF90BF90AF909F908F907F904E
:105A20006F90089581E090E0F8940C94072E1F93F6
:105A3000FC0199278827BC01E89411911032E9F301
:105A4000193010F01E30C8F31B3251F01D3249F4EA
:105A5000689406C00E946D2D610F711D811D911DFE
:105A6000119110531A30B0F33EF4909580957095D3
:105A700061957F4F8F4F9F4F1F910895FB01DC0170
:105A800002C001900D9241505040D8F70895FB019B
:105A9000DC018D91019080190110D9F3990B0895C3
:105AA000FB01DC0101900D920020E1F708954532E1
:105AB000510520F4423010F00C94622DFB0110824D
:105AC000CB010895BB274A3031F4992322F4BDE27B
:105AD000909581959F4F0C948E2D592F482F372FDD
